:020000040800F2
:10000000A0B30020C10200083F1D0008371D0008F2
:100010003B1D0008DF060008C91D000800000000A5
:100020000000000000000000000000008502000841
:10003000E306000800000000850200085D020008D9
:10004000DB020008DB020008DB020008DB0200081C
:10005000DB020008DB020008E5060008DB020008FE
:10006000DB020008DB020008DB020008DB020008FC
:10007000DB020008DB020008DB020008DB020008EC
:10008000DB020008DB020008DB020008DB020008DC
:10009000DB020008DB020008DB020008DB020008CC
:1000A000DB020008A91D0008DB020008DB020008D3
:1000B000B91D0008DB020008DB020008DB020008B3
:1000C000DB020008DB020008DB020008DB0200089C
:1000D000DB020008DB020008DB020008DB0200088C
:1000E000DB020008DB020008DB020008DB0200087C
:1000F000DB020008DB020008DB020008DB0200086C
:10010000DB020008DB020008DB020008DB0200085B
:10011000DB020008DB020008DB020008DB0200084B
:10012000DB020008DB020008DB020008DB0200083B
:10013000DB020008DB020008DB020008DB0200082B
:10014000DB020008DB020008DB020008DB0200081B
:10015000DB020008DB020008DB020008DB0200080B
:10016000DB020008DB020008DB020008DB020008FB
:10017000DB020008DB020008DB020008DB020008EB
:10018000DB020008DB02000800F002F800F042F891
:100190000AA090E8000C82448344AAF10107DA45E2
:1001A00001D100F037F8AFF2090EBAE80F0013F0F2
:1001B000010F18BFFB1A43F001031847F025010097
:1001C00010260100103A24BF78C878C1FAD8520727
:1001D00024BF30C830C144BF04680C6070470000C1
:1001E0000023002400250026103A28BF78C1FBD840
:1001F000520728BF30C148BF0B6070471FB504F0DD
:10020000B4FA9DE8030000F0EBF800F081F81FBDA0
:1002100010B510BD00F076F91146FFF7EFFF03F0BF
:100220001DFB00F0B3F903B4FFF7F2FF03BC00F0CD
:10023000E1F9000080F31488704702DF704772B65E
:10024000BFF34F8F00F030F801F0C7FDBFF35F8FB1
:1002500080F3098881F3148862B600BD72B6BFF3DB
:100260004F8FEFF3098020E9F00F00B501F0C5FDD5
:10027000BFF35F8FB0E8F00F80F3098881F3148833
:1002800062B600BD72B6BFF34F8F00B5EFF30983BE
:1002900023E9F00F01F0A7FDB0E8F00F80F3098823
:1002A00081F3148862B600BD0448016841F470010E
:1002B0000160BFF34F8FBFF36F8F704788ED00E091
:1002C0000948804709480047FEE7FEE7FEE7FEE7EA
:1002D000FEE7FEE7FEE7FEE7FEE7FEE70448054926
:1002E000054A064B70470000451D000889010008BB
:1002F000A0A10020A0B30020A0A90020A0A9002058
:100300000048704740A100207047704770470000C8
:1003100070B5064C7C44064D7D4403E020682044C3
:100320008047241DAC42F9D170BD0000B424010007
:10033000B82401000048704740A1002000487047E1
:1003400074A1002070B5064600F02EF8056806F18D
:100350000B0020F00704B4429CBF002070BD2B4668
:100360006A68BAB11068A04210D304F1080188424B
:100370003CBF5068586007D351681019416011683C
:10038000091B016058601460101D70BD134652684F
:10039000002AE7D12146284600F00EF80028DED1D9
:1003A00070BD00F07AB800000048704748A10020F6
:1003B000704770477047704738B504460A460020BA
:1003C0006946AFF30080002808BF38BD0246009997
:1003D000204600F0C1F8012038BD012000F0E4B84B
:1003E000F8B5AFF30080054600200C46102000BF92
:1003F0000646A819A0420DD9324669460020AFF33F
:100400000080070008BF00F0CFF80098A04218BF96
:100410000546C419FFF7C8FF05600746F01D20F028
:1004200007004619284600F00AF8B44208BFF8BD94
:10043000A21B31463868BDE8F84000F08DB80021B5
:100440000160C0E9011070471020704770B5044684
:10045000051FFFF7A9FF0068002C14BF446870BD9A
:10046000002C18BFAC423CBF20466468F8D301683A
:100470000A18AA4218BF456003D12A6805461144EC
:10048000016028684119A1421CBF6C6070BD6168A1
:10049000696021680844286070BD10B500F00DF84F
:1004A000016919B100220261884701E08068804734
:1004B00000F072F810B500F06FF870B500F048F871
:1004C00004680546A4B92020FFF73CFF040011D0C2
:1004D000094900202C60C4E900010849A16020738B
:1004E000206160610649A06109B100F064F8E06133
:1004F000204670BD00F050F800000000B504000870
:10050000000000007546FFF715FFAE46050069467E
:10051000534620F00700854618B020B5FFF7DEFEF1
:10052000BDE820404FF000064FF000074FF00008F4
:100530004FF0000B21F00701AC46ACE8C009ACE875
:10054000C009ACE8C009ACE8C0098D46704700009E
:10055000004870477CA10020034640688C46002874
:1005600018BF88423CBF03464068F8D31868184457
:10057000884207D00CF1030020F00700001D411A4B
:10058000521A0146081D0A60FFF760BF0446AFF328
:1005900000802046FFF747FE002000F037F8FFF705
:1005A00037FE012000F026F810B500F037F8BDE85E
:1005B000104000F026B810B58820FFF7C3FE0028D1
:1005C00001D00021017010BD802902D808B1017846
:1005D00009B100207047012100F8081B704718B1CD
:1005E00000F10802914201D0002070470021017003
:1005F0007047000001491820ABBEFEE7260002004C
:100600007047002801D0FFF7F5BF704710B500F024
:1006100047F8BDE81040FFF7F4BF000010B501280F
:1006200005D0002103A000F021F8012010BD09A190
:10063000F8E7000053494752544D454D3A204F7555
:1006400074206F662068656170206D656D6F7279CA
:10065000000000003A2048656170206D656D6F7282
:100660007920636F727275707465640070B50546A9
:100670000C460A2000E06D1C00F02AF835B12878FD
:100680000028F8D102E0641C00F022F814B12078B0
:100690000028F8D1BDE870400A2000F019B8000029
:1006A00010B5002102A0FFF7E1FF012010BD0000FE
:1006B000534947414252543A2041626E6F726D6114
:1006C0006C207465726D696E6174696F6E000000F4
:1006D00008B569468DF800000320ABBE08BD00BF19
:1006E000FEE77047704770B504461D460023B5F518
:1006F000804F1BD154F8223003F04043D1E900066B
:1007000040EA06108E6840EA06208E8940EA0646D6
:10071000088A401E46EA0056087D801E46EA0060B0
:100720008E693043034344F8223003E06FF0704099
:1007300044F82200002070BD10B50346002208686E
:1007400053F8202011480240D1E901042043CC682D
:1007500020430C6920434C6920438C692043CC69B9
:1007600020430C6A20434C6A20438C6A2043CC6AA5
:1007700020430C6B204302438868082801D142F0D3
:100780004002086843F82020002010BD8000F7FFD9
:1007900030B503460024501C53F8204004F0404478
:1007A000D1E9000540EA05108D6840EA05208D89F1
:1007B00040EA0545088A401E45EA0055087D801E2E
:1007C00045EA00608D6928430443501C43F82040EB
:1007D000002030BD0146002209B901207047486A57
:1007E00000B100BF022081F8350008680268174890
:1007F0000240D1E901031843CB6818430B69184341
:100800004B6918438B691843CB6918430B6A18432B
:100810000243486A042803D1D1E90B031843024379
:10082000086802600868426922F00702486A0243C9
:10083000486A042801D1886A02430868426100209E
:10084000C864012081F835000020C7E73F8010F020
:1008500031B5002400F014F9044600BF00F010F98F
:10086000001B00998842F9D338BD0000F8B5024654
:100870000B460025002400200021DEE0012606FAB8
:1008800001F51E6806EA0504AC4270D15E68022ECE
:1008900002D05E68122E13D1CF0802F1200656F85E
:1008A00027004E07F70E0F26BE40B0434F07FF0E3E
:1008B0001E69BE403043CF0802F1200646F82700EB
:1008C00010684F000326BE40B0431E7906F00306B1
:1008D0004F00BE40304310605E68012E08D05E6855
:1008E000022E05D05E68112E02D05E68122E13D142
:1008F00090684F000326BE40B0434F00DE68BE4004
:1009000030439060506801268E40B0431E79C6F394
:1009100000168E4030435060D0684F000326BE4022
:10092000B0434F009E68BE403043D0605E6806F022
:100930008056B6F1805F7FD100BF424E366846F4E4
:100940008046404F3E603E46366806F4804600963C
:1009500000BF3D4E8F0856F827008E07370F0F2631
:10096000BE40B043394EB24202D1002629E063E0D6
:10097000374EB24201D1012623E0364EB24201D1B8
:1009800002261EE0344EB24201D1032619E0334E56
:10099000B24201D1042614E0314EB24201D1052603
:1009A0000FE0304EB24201D106260AE02E4EB2428E
:1009B00001D1072605E02D4EB24201D1082600E004
:1009C00009268F073F0FBE4030431F4E8F0846F861
:1009D0002700274E3068A0435E6806F48036B6F5DF
:1009E000803F00D12043224E3060361D3068A04346
:1009F0005E6806F40036B6F5003F00D120431C4E79
:100A0000361D3060361D3068A0435E6806F48016DF
:100A1000B6F5801F00D12043154E08363060361DD4
:100A20003068A0435E6806F40016B6F5001F00D1DA
:100A300020430F4E0C363060491C1029FFF41EAFC6
:100A4000F8BD000044380240083801400000024070
:100A50000004024000080240000C02400010024066
:100A60000014024000180240001C02400020024016
:100A7000003C014001480068000C7047002004E081
:100A8000014800687047000010000020024800681C
:100A9000401C0149086070471000002010B50A484A
:100AA000006840F40070084908600846006840F497
:100AB00080600860032000F05BF80F2000F006F86B
:100AC00000F016F8002010BD003C024070B504464E
:100AD00000F0BAF94FF47A71B0FBF1F5284601F055
:100AE0003EF800222146501E00F003F8002070BDA1
:100AF00070472DE9F05F80460D461646002702F04C
:100B0000A1F9074639462A46334601F00700C0F1ED
:100B1000070ABAF1040F02D94FF0040A01E0C0F14C
:100B2000070AD14600F1040ABAF1070F02D24FF0CA
:100B3000000A01E0A0F1030AD4464FF0010A0AFAC4
:100B400009FAAAF1010A0AEA020A0AFA0CFA4FF0B3
:100B5000010B0BFA0CFBABF1010B0BEA030B4AEA9E
:100B60000B042146404602F059F9BDE8F09F000011
:100B700000BF00F00702064B19684FF6FF0319404B
:100B8000044B0B4343EA0221014B196000BF70473D
:100B90000CED00E00000FA0570B504460E46002595
:100BA000A748006800F00F00B0426FD2A4490E7051
:100BB0000846006800F00F00B04201D0012070BD6F
:100BC000207800F00200022807D19E48006820F03B
:100BD000F000A16808439B490860207800F00100FC
:100BE00000283ED06068012807D196480838006880
:100BF000C0F34040B8B90120E1E76068022802D0A4
:100C00006068032807D18F4808380068C0F3406047
:100C100048B90120D3E78B4808380068C0F340008A
:100C200008B90120CBE78748006820F0030061681D
:100C3000084384490860FFF723FF054660680128E0
:100C400010D108E0FFF71CFF401B41F288318842B9
:100C500001D90320B3E77B48006800F00C000428AA
:100C6000F0D1CDE06068022811D108E0FFF708FF5D
:100C7000401B41F28831884201D903209FE7714827
:100C8000006800F00C000828F0D1B9E024E06068AA
:100C9000032810D108E0FFF7F3FE401B41F2883132
:100CA000884201D903208AE76648006800F00C00FA
:100CB0000328F0D1A4E008E0FFF7E2FE401B41F278
:100CC0008831884201D9032079E75E48006800F046
:100CD0000C000028F0D193E0207800F002000228F8
:100CE00007D15848006820F0F000A1680843554932
:100CF0000860207800F00100002877D060680128A3
:100D000007D1504808380068C0F34040B8B9012006
:100D100055E76068022802D06068032807D1494877
:100D200008380068C0F3406048B9012047E74548EB
:100D300008380068C0F3400008B901203FE7414887
:100D4000006820F00300616808433E490860FFF72F
:100D500097FE05466068012810D108E0FFF790FE75
:100D6000401B41F28831884201D9032027E73548EA
:100D7000006800F00C000428F0D137E06068022819
:100D800010D108E0FFF77CFE401B41F28831884219
:100D900001D9032013E72B48006800F00C00082855
:100DA000F0D123E06068032810D108E0FFF768FE67
:100DB000401B41F28831884201D90320FFE62148D7
:100DC000006800F00C000328F0D10FE008E0FFF706
:100DD00057FE401B41F28831884201D90320EEE6DC
:100DE0001848006800F00C000028F0D114490E707B
:100DF0000846006800F00F00B04201D00120DEE696
:100E0000207800F00400042807D10E48006820F480
:100E1000E050E16808430B490860207800F00800C2
:100E2000082808D10748006820F46040216940EA9A
:100E3000C100044908600F20FFF748FE0020BEE60D
:100E4000003C02400838024010B500F019F809498A
:100E5000096801F0F001F02292FAA2F2B2FA82F2ED
:100E6000D140054A515CC840044908600846006802
:100E700010BD000008380240E423010814000020DF
:100E800070B50021002200230020274C246804F0C4
:100E90000C0424B1042C04D0082C41D103E02348D5
:100EA00040E023483EE0204C241F246804F03F012A
:100EB0001D4C241F246804F4800484B11C4CB4FB32
:100EC000F1F5194C241F246847F6C076344096FA91
:100ED000A6F6B6FA86F6F44005FB04F20FE0134CD2
:100EE000B4FBF1F5104C241F246847F6C07634405B
:100EF00096FAA6F6B6FA86F6F44005FB04F20A4C1A
:100F0000241F246804F440344FF4403595FAA5F5C5
:100F1000B5FA85F5EC40641C6300B2FBF3F001E028
:100F2000024800BF00BF70BD083802400024F40032
:100F300000127A0038B504460025207800F0010040
:100F4000002866D0F748006800F00C0004280DD097
:100F5000F448006800F00C00082813D1F148001F85
:100F6000006800F48000B0F5800F0BD1ED48083820
:100F70000068C0F3404000284BD06068002848D18A
:100F8000012038BD0020E749891F0870FFF778FD70
:100F9000054608E0FFF774FD401B41F288318842A6
:100FA00001D90320EDE7DF4808380068C0F340406E
:100FB0000028EFD12079DB49891F08706068A0B153
:100FC000FFF75EFD054608E0FFF75AFD401B41F2C2
:100FD0008831884201D90320D3E7D2480838006815
:100FE000C0F340400028EFD013E0FFF749FD05466D
:100FF00008E0FFF745FD401B41F28831884201D9E6
:101000000320BEE7C74808380068C0F34040002806
:10101000EFD1207800F00200022869D1C1480068B1
:1010200000F00C0058B1BF48006800F00C00082820
:1010300021D1BC48001F006800F48000D8B9B9482D
:1010400008380068C0F3400020B1E068012801D0F2
:10105000012096E7B3480838006820F0F800F8222D
:1010600092FAA2F2B2FA82F2216991400843AD49A4
:10107000083908603CE0E06828B30120AA4908600C
:10108000FFF7FEFC054606E0FFF7FAFC401B64286C
:1010900001D9032075E7A34808380068C0F3400071
:1010A0000028F1D09F480838006820F0F800F822A6
:1010B00092FAA2F2B2FA82F2216991400843994968
:1010C0000839086014E0002097490860FFF7D8FC51
:1010D000054606E0FFF7D4FC401B642801D9032035
:1010E0004FE7904808380068C0F340000028F1D16D
:1010F000207800F0080008282CD16069A8B10120F0
:101100008A490860FFF7BCFC054606E0FFF7B8FC1B
:10111000401B642801D9032033E782486C30006803
:10112000C0F340000028F1D014E000207F4908609F
:10113000FFF7A6FC054606E0FFF7A2FC401B64286B
:1011400001D903201DE777486C300068C0F34000E8
:101150000028F1D1207800F0040004286CD100BFF1
:1011600070483830006840F080506E49383108606F
:101170000846006800F08050009000BF6C4800688E
:1011800040F480706A490860FFF77AFC054606E083
:10119000FFF776FC401B642801D90320F1E6644880
:1011A000006800F480700028F2D000205D496831AA
:1011B0000870FFF765FC054608E0FFF761FC401B7F
:1011C00041F28831884201D90320DAE65548683077
:1011D0000068C0F340000028EFD1207A51496831FF
:1011E0000870A068A0B1FFF74BFC054608E0FFF7C8
:1011F00047FC401B41F28831884201D90320C0E6F8
:10120000484868300068C0F340000028EFD013E081
:10121000FFF736FC054608E0FFF732FC401B41F2C1
:101220008831884201D90320ABE63E486830006827
:10123000C0F340000028EFD1A069E8B33948006846
:1012400000F00C00082869D0A069022850D10020C5
:1012500035490866FFF714FC054606E0FFF710FC69
:10126000401B642801D903208BE62E48083800680B
:10127000C0F340600028F1D1D4E90701084347F6E4
:10128000C07292FAA2F2B2FA82F2616A9140084305
:101290000122A16AC2EB51014FF4403292FAA2F24C
:1012A000B2FA82F2914008434FF0706292FAA2F2D1
:1012B000B2FA82F2E16A00E032E091400843194953
:1012C000091F0860012018490866FFF7D9FB054689
:1012D00006E0FFF7D5FB401B642801D9032050E648
:1012E000104808380068C0F340600028F1D017E0CB
:1012F00000200D490866FFF7C3FB054606E0FFF72F
:10130000BFFB401B642801D903203AE60548083892
:101310000068C0F340600028F1D101E0012030E610
:1013200000202EE60838024000004742800E474267
:101330000070004010B504460CB9012010BD94F8AF
:10134000510028B9002084F85000204600F036F8FB
:10135000022084F851002068006820F040002168D5
:101360000860D4E901010843E168084321690843A2
:1013700061690843218B01F400710843E169084366
:10138000216A0843A16A0843216808600421A06912
:1013900001EA1040616A0843216848602168E06AF8
:1013A00008612068C06920F400602168C8610020DD
:1013B0006065012084F851000020BFE770472DE9E7
:1013C000FC4104460E4615461F464FF0000894F8AF
:1013D000510001287AD106B115B90120BDE8FC8180
:1013E00000BF94F85000012801D10220F6E7012047
:1013F00084F8500000BF222084F85100002060656E
:10140000A663A587E587A064E064A086E086A0685F
:10141000B0F5004F05D12068006820F480402168B5
:101420000860A06AB0F5005F0DD100BF20680068B9
:1014300020F40050216808602068006840F40050E3
:101440002168086000BF6068B0F5827F0ED1A06897
:1014500060B900BF002084F8500000BF2B46324620
:1014600031462046009700F0A5F9B7E720680068EC
:1014700000F04000402805D02068006840F040009F
:1014800021680860E06810BB12E03B4600220121A1
:10149000204601F039FC08B103209FE72068C068AE
:1014A000C1B2A26B501CA0631170E08F401EE08798
:1014B000E08F0128E9DCA06AB0F5005F28D1206840
:1014C000006840F480502168086021E092E012E05A
:1014D0003B4600220121204601F016FC08B1032002
:1014E0007CE72068C068A16B0880A06B801CA063AB
:1014F000E08F401EE087E08F0128E9DCA06AB0F5AC
:10150000005F05D12068006840F4805021680860C1
:101510003B4600220121204601F0F6FB08B10320E2
:101520005CE7E06838B92068C068C1B2A26B501CA3
:10153000A063117006E02068C068A16B0880A06BF2
:10154000801CA063E08F401EE087A06AB0F5005FBA
:1015500011D13B4600220121204601F0D5FB28B1E4
:10156000606D40F002006065032037E72068C068C6
:1015700080B2019000BF6068B0F5827F0DD1A06895
:10158000B0F5004F03D0A068B0F5806F05D120689A
:10159000006820F0400021680860012084F85100B4
:1015A00020688068C0F30018A06AB0F5005F1BD106
:1015B000B8F1000F18D0606D40F00200606500BF08
:1015C0002068006820F400502168086020680068E6
:1015D00040F400502168086000BF00BF002084F87C
:1015E000500000BF0120F9E600BF002084F8500041
:1015F00000BFF3E60220F1E6F8B504460E461546B4
:101600001F4694F85100012873D106B10DB901208D
:10161000F8BD00BF94F85000012801D10220F7E77F
:10162000012084F8500000BF122084F851000020EF
:1016300060652663A586E586E064A064A087E087F0
:10164000A06AB0F5005F0DD100BF2068006820F4EB
:101650000050216808602068006840F4005021684C
:10166000086000BFA068B0F5004F05D12068006891
:1016700040F48040216808602068006800F0400065
:10168000402805D02068006840F0400021680860CC
:10169000E06878BB606810B1E08E012808D1216B4A
:1016A000481C206308782168C860E08E401EE086F0
:1016B00011E03B4600220221204601F025FB08B143
:1016C0000320A5E7216B481C206308782168C860C7
:1016D000E08E401EE086E08E0028EADCA06AB0F5CD
:1016E000005F38D12068006840F4805021680860AD
:1016F00031E05DE0FFE7606810B1E08E012809D1BC
:10170000206B00882168C860206B801C2063E08EFD
:10171000401EE08612E03B4600220221204601F0F6
:10172000F3FA08B1032073E7206B00882168C860D2
:10173000206B801C2063E08E401EE086E08E002837
:10174000E9DCA06AB0F5005F05D12068006840F4CC
:101750008050216808603B4600220221204601F0AB
:10176000D3FA28B1606D40F01000606503204FE7A8
:101770003B4601228021204601F0C6FA28B1606D67
:1017800040F010006065032042E7A06838B900BF50
:101790002068C068009020688068009000BF012029
:1017A00084F8510000BF002084F8500000BF2FE7EC
:1017B00002202DE72DE9F84F04460E4617461D4638
:1017C000DDF828904FF00008C24694F85180B8F137
:1017D000010F02D0B8F1220F76D10EB107B115B9C1
:1017E0000120BDE8F88F00BF94F85000012801D116
:1017F0000220F6E7012084F8500000BF94F8510061
:10180000012802D1322084F8510000206065A763CE
:10181000A587E5872663A586E586A064E064A06ABF
:10182000B0F5005F0DD100BF2068006820F40050C3
:10183000216808602068006840F400502168086052
:1018400000BF2068006800F04000402805D02068F4
:10185000006840F0400021680860E068B0F5006F63
:1018600075D1606830B16068B0F5827F0CD1E08ED0
:10187000012809D1206B00882168C860206B801C7A
:101880002063E08E401EE086E08EF0B9A06AB0F5DD
:10189000005F05D12068006840F48050216808602E
:1018A0004B4600220121204601F02EFA08B1032008
:1018B00097E72068C068A16B0880A06B801CA063BC
:1018C000E08F401EE087C7E01AE131E04B4600227E
:1018D0000221204601F018FA08B1032081E7206BAD
:1018E00000882168C860206B801C2063E08E401E49
:1018F000E086E08E48B9A06AB0F5005F05D12068A7
:10190000006840F48050216808604B4600220121A5
:10191000204601F0F9F908B1032062E72068C068A9
:10192000A16B0880A06B801CA063E08F401EE08745
:10193000E08E0028CADC60680028C4D14B46002233
:101940000121204601F0E0F910B1032049E70AE047
:101950002068C068A16B0880A06B801CA063E08F2A
:10196000401EE08778E0606830B16068B0F5827F43
:101970000BD1E08E012808D1216B481C2063087828
:101980002168C860E08E401EE086E08ED0B9A06A73
:10199000B0F5005F05D12068006840F480502168F0
:1019A00008604B4600220121204601F0ADF908B144
:1019B000032016E72068C068A16B0870E08F401E06
:1019C000E08749E030E04B4600220221204601F04A
:1019D0009BF908B1032004E7216B481C20630878B9
:1019E0002168C860E08E401EE086E08E48B9A06A9B
:1019F000B0F5005F05D12068006840F48050216890
:101A000008604B4600220121204601F07DF908B113
:101A10000320E6E62068C068C1B2A26B501CA06338
:101A20001170E08F401EE087E08E0028CBDC6068FC
:101A300090B94B4600220121204601F065F908B11A
:101A40000320CEE62068C068C1B2A26B501CA06320
:101A50001170E08F401EE087A06AB0F5005F11D1E1
:101A60004B4600220121204601F04EF928B1606D5D
:101A700040F0020060650320B3E62068C06880B2D1
:101A8000009000BF4B4601228021204601F03CF926
:101A900028B1606D40F0100060650320A1E60120D0
:101AA00084F8510020688068C0F3001AA06AB0F57D
:101AB000005F1FD1BAF1000F1CD0606D40F0020032
:101AC0006065A06AB0F5005F0DD100BF20680068B6
:101AD00020F40050216808602068006840F400503D
:101AE0002168086000BF00BF002084F8500000BFDC
:101AF000012076E600BF002084F8500000BF70E6A9
:101B000002206EE670B504460E4615460CB901205B
:101B100070BD94F83D0028B9002084F83C002046B0
:101B200000F01CF804F108012068FEF705FE3146BC
:101B3000A2682068FEF72CFE2946236BD4E9010237
:101B4000FEF7D1FDA168206850F8210040F00100A7
:101B5000A268216841F822000020D9E7704770B5DB
:101B600004462546681EB0F1807F01D301200FE0B6
:101B7000681E4FF0E02148610F214FF0FF3001F067
:101B80004DF900204FF0E021886107200861002016
:101B900070BD70477047704710B5044620680069F3
:101BA000C0F34000D8B12068C068C0F34000B0B1B5
:101BB0006FF00200216808610120207620688069AA
:101BC00000F0030018B12046FFF7E5FF05E02046CE
:101BD00000F0ADF8204600F0ABF800202076206839
:101BE0000069C0F38000D8B12068C068C0F38000ED
:101BF000B0B16FF0040021680861022020762068EF
:101C0000806900F4407018B12046FFF7C4FF05E07A
:101C1000204600F08CF8204600F08AF8002020765C
:101C200020680069C0F3C000D8B12068C068C0F364
:101C3000C000B0B16FF00800216808610420207670
:101C40002068C06900F0030018B12046FFF7A3FF29
:101C500005E0204600F06BF8204600F069F800200F
:101C6000207620680069C0F30010D8B12068C068F1
:101C7000C0F30010B0B16FF01000216808610820B7
:101C800020762068C06900F4407018B12046FFF744
:101C900082FF05E0204600F04AF8204600F048F8B0
:101CA000002020762068006900F0010058B120680B
:101CB000C06800F0010030B16FF0010021680861D8
:101CC000204600F036F820680069C0F3C01058B113
:101CD0002068C068C0F3C01030B16FF08000216888
:101CE00008612046FFF755FF20680069C0F38010A7
:101CF00058B12068C068C0F3801030B16FF0400068
:101D000021680861204600F015F820680069C0F3DA
:101D1000401058B12068C068C0F3401030B16FF077
:101D20002000216808612046FFF734FF10BD70478E
:101D300070477047704700BFFEE700BFFEE770477F
:101D4000704700001448006840F4700012490860B1
:101D50001248006840F001001049086000200F4957
:101D6000083108600D4800680D4908400B490860BB
:101D70000C48091D0860081F006820F48020091F16
:101D80000860002005490C3108604FF000600249EE
:101D9000803908607047000088ED00E0003802409C
:101DA000FFFFF6FE1030002410B50248FFF7F4FEE6
:101DB00010BD0000C8A0002010B50248FFF7ECFEDF
:101DC00010BD000004A1002000BFFEE71FB5DDE943
:101DD000010100F025FB04B010BD1CB500F0B2FB02
:101DE000CDE900011CBD0FB583B003A80FC800F0FA
:101DF000E5FACDE9010107B000BD1CB5044600F0CD
:101E000006F8204600F018FBCDE900011CBD10B516
:101E1000FEF73CFE10BD000008B500BF6748006833
:101E200040F00100654908600846006800F00100C4
:101E3000009000BF00BF0846006840F00200086044
:101E40000846006800F00200009000BF00BF08468E
:101E5000006840F0040008600846006800F00400D4
:101E6000009000BF00BF0846006840F0080008600E
:101E70000846006800F00800009000BF00BF084658
:101E8000006840F0100008600846006800F010008C
:101E9000009000BF00BF0846006840F020000860C6
:101EA0000846006800F02000009000BF00BF084610
:101EB000006840F0400008600846006800F04000FC
:101EC000009000BF00BF0846006840F08000086036
:101ED0000846006800F08000009000BF00BF37484F
:101EE0001430006840F480703449143108600846AA
:101EF000006800F48070009000BF00BF08460068D2
:101F000040F4007008600846006800F4007000901B
:101F100000BF00BF081F006840F00050091F0860A4
:101F20000846006800F00050009000BF00BF234842
:101F30000830006840F00100204908310860084678
:101F4000006800F00100009000BF00BF1B48103087
:101F5000006840F4004019491031086008460068E4
:101F600000F40040009000BF00BF1448006840F437
:101F70008000124908600846006800F48000009064
:101F800000BF00BF0D481430006840F001000B494D
:101F9000143108600846006800F00100009000BF9E
:101FA00000BF081F006840F00100091F08600846D4
:101FB000006800F00100009000BF08BD303802400A
:101FC00001460448006800F50040024A1060002005
:101FD000704700000000002000BF00F03DFEFCE75D
:101FE00006461348007800F0010040B9104801F09F
:101FF000F7FB20B10F4806600D48AFF3008000BF2B
:102000000C480468002504E02946204601F0E2FE61
:102010006D1C6069A842F7D800BF06490868002116
:10202000C16100BF0120FEF713FC00F015FEE7E7D9
:10203000280000202C0000202DE9F04107460C4626
:1020400015461E4606484560866003200449C86060
:10205000084604603846FEF709FC0020BDE8F08120
:10206000489F002000BFFEE72DE9F04107460C46DF
:1020700015461E4601200749886008464560022033
:10208000C8600846046006613846FEF7EFFB002092
:10209000BDE8F081489F002030B501460C46054858
:1020A0000122134605881544058045881D44458056
:1020B00000BF30BDFC9C002086B0FEF7EFFC00F0B6
:1020C000BBF8FFF7A9FE00F0DDFA00F0C1F900F05F
:1020D00011FA00F04FFA314A4FF0C041304800F099
:1020E00072FD3048304A3149002302614161836109
:1020F00000BF00F11003836000BF00BF00F0BEFE10
:102100000121284800F0A6FE294800F08DFD00219D
:10211000284800F0C5FD0021274800F0C1FD02213C
:10212000264800F0CFFD0121254800F06BFD4FF45B
:10213000A0704FF4F07300221146009002A802F044
:1021400007FB204C02A904A802F0F9FA05466E46E6
:102150002888208068886080A888A080E888E0803F
:102160002146304602F0EBFA064600BF9FED160A04
:1021700084ED030A84ED020A00BF204600210A46CE
:102180009FED110A80ED030A80ED020A0180428072
:1021900000BF00BF0520FEF75BFBFBE7FFFF07006A
:1021A000249F0020009F0020000402400C0000201B
:1021B000B523000861230008E9220008FD23000878
:1021C00099200008FC9C00200000000008B506468D
:1021D000344600BF206A834600BF584600F0AFFA7D
:1021E00007460020009081461DE007F00100B8B1CD
:1021F00009F101086069404500D810E008EB480289
:10220000216901EB8200856800BF05E0D4F820A0B9
:102210005046E96888476D68002DF7D100BF00BFC0
:1022200009F101097F08002FDFD100BF0020E06124
:1022300000BF00F011FDD0E700B593B000BF274804
:10224000006840F08050254908600846006800F0AA
:102250008050019000BF00BF2148006840F48040DA
:102260001F4908600846006800F48040019000BFE4
:10227000012002900390022008904105099110214D
:102280000A914FF4B4710B9102210C9107210D9129
:1022900002A8FEF74FFE08B1FFF7E4FE0F200E90F4
:1022A00002200F90002010904FF4A0501190129037
:1022B00005210EA8FEF770FC08B1FFF7D3FEFEF76C
:1022C000D9FB41F20101884205D10648006840F47B
:1022D00080700449086013B000BD0000403802401F
:1022E00000700040003C024008B5684600BF00BFD7
:1022F000164800F0F9FC1649086A41F6EE2101F093
:10230000D0FA1349086A4468124D1348008887B20E
:10231000002600202081608105E0A95D3A46204624
:1023200001F017FE761CA85D0028F6D100BF084911
:10233000086A01680C464FF47863084A044801F0C3
:1023400031FB002000F096FCD2E70000C11F00081E
:10235000009F00201C27010800000020FC9C00209A
:1023600008B5684600BF0121064800F073FD00BFB4
:1023700005480068401C044908600A2000F07AFC07
:10238000F6E70000009F00200000002010B5044682
:102390002146024800F08AFB10BD0000249F002067
:1023A00010B504462146024800F047FB10BD00006E
:1023B000249F002001460020704700003FB58BB0ED
:1023C0000D4C0BA80FC805AD0FC5089D2946D4F8C4
:1023D000500101F0CFF806A807C88DE807002A468B
:1023E000214603A8059B00F0FBFDDDE90301CDE9D3
:1023F00009010FB030BD0000289D002010B5044633
:10240000054800F0EFFB05480068401C03490860E0
:102410000846006810BD000000F001F00800002030
:1024200070B504460D462A462146024800F0C8FE13
:1024300070BD0000289D00201CB5044621460348BD
:1024400000F053FFCDE900011CBD0000289D0020D5
:1024500010B54FF000702349486000212148816089
:10246000C1604FF4806101610021416181614FF4DD
:102470008071C161490201620021416203218162D0
:102480000021C16201631848164908600846FEF73A
:10249000A1F908B1FFF7E6FD00201449486080214A
:1024A000124881600021C1604FF4806101614900E0
:1024B0004161890081610021C1614FF400310162F5
:1024C00000214162032181620021C1620163084849
:1024D000064908600846FEF77DF908B1FFF7C2FD1E
:1024E00010BD0000D09F00205864024020A00020B2
:1024F0002860024010B51148114908603021104889
:10250000C16100218160416102210161002181627C
:102510000721C1620021C16001624FF40071816135
:10252000102141624FF48270054948600846FEF769
:1025300001FF08B1FFF796FD10BD0000003C004010
:1025400070A000201FB50A4C04F5AC7001F0CAFA67
:10255000C4F85001D4F8500100F10C010022684683
:1025600001F086FCDDE90001CDE9020104B010BDF7
:10257000289D002010B501231A4604213948FFF791
:102580005BFD0223002201213748FFF755FD01239F
:102590001A4602213448FFF74FFD01231A46042151
:1025A0003148FFF749FD01231A4608212E48FFF75D
:1025B00043FD01231A4610212B48FFF73DFD02235E
:1025C000012204212948FFF737FD022301221021AF
:1025D0002648FFF731FD0223012208212348FFF797
:1025E0002BFD0223012220212048FFF725FD012396
:1025F0001A464FF6FF711E48FFF71EFD0C230222FC
:102600004FF6B3711B48FFF72FFD0C2302224FF644
:1026100083711448FFF728FD0C2302224FF23F017B
:102620001548FFF721FD0C2302223F211348FFF735
:102630001BFD0623022251020B48FFF715FD06235E
:102640000222D1020848FFF70FFD06230222910261
:102650000548FFF709FD00230122D1030848FFF7D1
:10266000EBFC10BD0010024000080240001C0240BC
:1026700000040240000C0240001402400018024016
:102680000000024010B54FF0204019490860194879
:1026900048600420184908600020486005208860D0
:1026A0000020C8600420086100204861886110494A
:1026B000886000210E48C160016110214161002144
:1026C0008161C1614FF480610162002141624FF478
:1026D000805181620021C162016341638163064AC6
:1026E0001146FFF70FFA08B1FFF7BCFC10BD000060
:1026F000709F0020040100A0B49F00200A6A0262BB
:102700004A6A42628A6A8262CA6AC262CA69C261EB
:102710008A6982614A6942610A690261CA68C26063
:102720008A6882604A6842600A6802600A6B0263D3
:102730004A6B42638A6B8263CA6BC263704730B56F
:1027400087B004460020E06304F1240000F0E1FFBC
:102750002062206AB0F58C7F57DDD4E90001C4E91E
:10276000040103AD04F1240105A800F0D9FFDDE95F
:102770000501CDE90101019A1001029A110111220E
:1027800090FBF2F2D010192291FBF2F2D1100190DD
:102790000291019AC2F5F0720192DDE90123C5E9C7
:1027A000002300BFDDE90301C4E9000121692068BD
:1027B000401AA06161686069091AE161A268A169B3
:1027C000881A00EBD07102EB6101A160E269E16857
:1027D000501A00EBD0714A10E1680A44E260E06BE5
:1027E00040F00100E06394F84200012809D13C3434
:1027F000207100206071A071206840F0020044F850
:102800003C09012084F8400018E094F840000128B9
:1028100009D184F84100002084F84000E06B40F0CA
:102820000400E06302E0012084F842000020A0617F
:102830000021E1612061616120606060E06B07B0B0
:1028400030BD2DE9FC410446884615461E462168E8
:1028500051F8141C08194FF4007101F012FF0746DB
:1028600017B90020BDE8FC8102202B460202414638
:10287000CDE90006384600F02DFE3846F2E70000AC
:1028800070B504460D460DB9012000E00020060099
:1028900006D0084D28682060204600F06DFE0446F2
:1028A000286820606868216851F8141C6050204630
:1028B00070BD00003425010830B505460B461446AE
:1028C00000BF4FF480201E49086000BF00BF1BB14D
:1028D00000BF0220086005E000BF4FF40030184937
:1028E000086000BF00BF284600F02CF800BF04209D
:1028F0001349086000BF07201CE000BF4FF480218F
:102900000F4A116000BF00BF44FA00F101F001015D
:1029100019B100BF0221116005E000BF4FF4003182
:10292000074A116000BF00BF00BF0421044A1160C4
:1029300000BF401E0028E0DA284600F00DF830BD48
:102940001808024000BF4FF40021024A116000BF86
:10295000704700001808024000BF0821014A1160BA
:1029600000BF70471808024070B504460D460DB907
:10297000012000E00020060010D0134D28682060E0
:1029800004F1240000F0F8FDA0F1240405F10C018D
:1029900004F12400FFF774FFA0F1240420460B4942
:1029A000016000BF0A49016000BF0446286820603A
:1029B0006868216851F80C1C6050A868216851F8BB
:1029C000101C6050204670BD58250108C025010824
:1029D000A42501082DE9F04704468A461646984684
:1029E000DDF82090216851F80C1C0819314601F0DF
:1029F0007EFE07460FB9BDE8F087216851F8101C2C
:102A00000819434600225146FFF71BFF05463DB912
:102A1000216851F80C1C0819394601F04AFEEAE712
:102A200000BF27616661E560C4F82090C4F8188093
:102A30000020E06100BF00BFDDE72DE9F041054661
:102A40000E4616B90020BDE8F08100BF6C6800BFDB
:102A500021E0E068B0421DD32146284601F015F878
:102A600006F12000E168814209D33246214628461A
:102A700000F08FF807463946284600F0C7FF214688
:102A800005F10C0000F0C2FFA869401CA86104F128
:102A90001000D8E7A468002CDBD1FDF731FC06213B
:102AA0000160E869401CE8610020CCE770B504468D
:102AB0000D4645B9E069401CE061FDF721FC0521A8
:102AC0000160084670BDFDF71BFC00210160A5F107
:102AD0001006FDF715FC0068052803D1FDF710FC72
:102AE0000068EFE7314604F10C0000F0CEFF3146FC
:102AF000204600F08BFF2146204600F004F8FDF749
:102B0000FFFB0068DEE72DE9F04107460E4600BFF7
:102B10003068022803D24FF0FF30BDE8F08100BFDB
:102B2000B068846800BFB56800BF12E0E868284458
:102B30001030A0420BD1E968E06810300844E8602A
:102B40002146304600F0A1FF386A401C3862254615
:102B50006468002CEAD100BF7068846800BF7068A8
:102B6000054612E0E86828441030A0420BD1E9681D
:102B7000E06810300844E8602146304600F085FFE8
:102B8000386A401C38622546A468002CEAD100202F
:102B9000C3E710B5034600208C1804F11000CC6880
:102BA000A41A103CC460CA6010BD10B5044620468B
:102BB00000F094FF044604F10C0000F08FFFA0F138
:102BC0000C04204610BD2DE9F04107460C46154681
:102BD0002646A5F11400F0603146384600F016FF95
:102BE000BDE8F0811FB50446054B0FCB8DE80F0003
:102BF00001949DE80F00FDF720FB04B010BD00001C
:102C0000742401087FB504460D46064B0FCB8DE8B2
:102C10000F00019402959DE80F00FDF70EFB04B034
:102C200070BD0000642401081FB50446054B0FCB9E
:102C30008DE80F0001949DE80F00FDF7FEFA04B047
:102C400010BD00002424010870B504460D46294635
:102C50002046FFF7E5FB70BD1FB5054B0FCB8DE898
:102C60000F009DE80F00FDF7E8FA04B010BD00006A
:102C7000442401081FB50446054B0FCB8DE80F0017
:102C800001949DE80F00FDF7D8FA04B010BD0000D4
:102C90001424010810B5FDF7D2FA002010BD000081
:102CA0007FB504460D46064B0FCB8DE80F0001940F
:102CB00002959DE80F00FDF7C0FA04B070BD00005A
:102CC000F42301087FB504460D46064B0FCB8DE873
:102CD0000F00019402959DE80F00FDF7AEFA04B0D5
:102CE00070BD0000542401081FB50446054B0FCBEE
:102CF0008DE80F0001949DE80F00FDF79EFA04B0E7
:102D000010BD0000342401082DE9F04104460E46B0
:102D100017461D464FF00008FDF7B2FE8046002F13
:102D20003ED132E0681C78B32DB1FDF7A9FEA0EBCF
:102D30000800A84229D92068406820F0E0002168F6
:102D400048602068006820F0400021680860A06AA0
:102D5000B0F5005F0DD100BF2068006820F400507E
:102D6000216808602068006840F40050216808600D
:102D700000BF012084F8510000BF002084F85000FB
:102D800000BF0320BDE8F081FFE720688068304085
:102D9000B04201D1012000E000200028C2D03BE079
:102DA00030E0681C70B32DB1FDF76AFEA0EB08009F
:102DB000A84227D92068406820F0E00021684860D8
:102DC0002068006820F0400021680860A06AB0F523
:102DD000005F0DD100BF2068006820F4005021681A
:102DE00008602068006840F400502168086000BF57
:102DF000012084F8510000BF002084F8500000BF7B
:102E00000320BFE7206880683040B04201D1012034
:102E100000E000200028C4D10020B3E710B500284E
:102E200007DA0A07140E054A00F00F031B1FD454DB
:102E300003E00A07130E024A135410BD18ED00E018
:102E400000E400E002480068C0F302207047000080
:102E50000CED00E010B50246084620B100BF042387
:102E6000054CA36105E000BF4FF48023024CA36131
:102E700000BF00BF10BD0000001002402DE9F0436C
:102E800089B00446304DE560A06801F011FA00BF3A
:102E90004FF4A0704FF4F07300221146009005A883
:102EA00001F056FC05A907A801F049FC0546294692
:102EB00004F11C0001F023F88046082000F06AFCB1
:102EC0000746414600F000FD07462062226A50682E
:102ED0001E49C0F80C110A78002307E0D0F80C5105
:102EE0006D6815F8323000F10C05EA541500A2F1B6
:102EF0000102F3D100BF4AF6AA21206A00F0D1FCFA
:102F00002546206A066800BF294603A800F0B8FCE1
:102F100000BF9DF8100018B903A800F0BBFC0FE03B
:102F2000314601A801F0F9FBB0688146A86849461E
:102F3000DDE9012301F075F903A800F0ABFC00BF47
:102F400009B0BDE8F08300000C2701083023010818
:102F500000F1100100BFA1F110000146084A0A600B
:102F600000BF084A0A6000BF08460749016000F137
:102F70001C01064A064A41F81C2900BF0846704752
:102F8000D4240108A4240108CC2501089C260108AA
:102F9000B02501082DE9F04104460F46D4F85461EC
:102FA0000020054617E005EB450204F5AC7101EB86
:102FB0008200016809B1002100E0012149B905EB57
:102FC000450204F5AC7101EB820000F08BFDBDE819
:102FD000F081681C0546082DE5DB3046F7E7000068
:102FE0000FB42DE9F04F89B00C46D4F85001416977
:102FF000089114980690089807901598801E092843
:1030000075D2DFE800F00532338059AB81A3BA00F6
:103010002546DDE916AB286850F8100C2C46071938
:10302000D046D9465E480490396851F8141CC81936
:103030004FF4007101F025FB0390039808B90020BC
:103040000BE0032104984B464FF40072CDE90010C9
:103050004146039800F03EFA03980146059005F5B5
:10306000AC7000F077FD00BF00BF92E04D490898BA
:10307000884200D18DE0D4F850011699C26A61F3FC
:103080000F02C26200BF04F5DC70D4F8501100F0EA
:1030900079FD00212046FFF77DFFC4F85001D4F8E8
:1030A000500100F10C01149A129800F0E1FE09B0F1
:1030B000BDE8F00F5DF814FB102104F1D800FFF714
:1030C000BCFC06461698F06000BF31460846D4F8AE
:1030D000C8315B1CC4F8C831D4F8CC3143B9C4F84A
:1030E000CC01C4F8D00100238360436009E04FE0C5
:1030F000D4F8CC218260002343605060C4F8CC0136
:1031000000BF00BF45E044E004F19C0A4FF0000915
:10311000DDE91658DAF8001051F80C1C01EB0A0032
:1031200001F097FA074600BF00203861C7F8148005
:10313000C7F8189000BFFD6000BF00BF00BFBB46CE
:1031400000225946504600F021FE22E0164A04F1C2
:10315000C000DDE9161300F0CAFD1AE00021204688
:10316000FFF718FFC4F85001D4F8500100F10C012A
:10317000149A129800F07CFE99E704F1C0001699A9
:1031800000F02CFD05462946204600F08DF800BFD2
:1031900000BF00BFDDE90612129806C000BF86E737
:1031A00000A0000AAAAA000A00F001F070B50446C7
:1031B0000D46294604F1D800FFF778FC70BD0000E9
:1031C0002DE9F84305460E4617463A46314605F1C5
:1031D000D800FFF7F8FC294C296851F8101C481951
:1031E000274B06222146FFF72CFB8046414605F57A
:1031F000AC7000F0C7FC00BF00200123214A224927
:10320000009005F1C00000F012FD00201D4B5B1E78
:1032100001221E49009005F19C00FFF7DBFB05F140
:10322000FC0400231A46194604F1240000F0E2F9D8
:103230000020E0639FED160A84ED110A9FED150A48
:1032400084ED120A9FED140A84ED130A9FED130A10
:1032500084ED140AA0610021E161206161612060B8
:10326000606000BF204606230D4A0E4900903C389E
:1032700000F0DDFC0020BDE8F8830000B920000864
:10328000AAAA000A02B0000BD91F0008E11F00081B
:10329000DF4F0D3ECDCCCC3D00008C4200004842BB
:1032A00000F001F0CD21000870B505460C4694B140
:1032B0002046017C09B9002103E0C16A41F30441C1
:1032C000491C01EB410105F5AC7000EB810621467C
:1032D000304600F03FFC70BD70B504460D462946EF
:1032E00004F1D800FFF7A9FB70BD2DE9FF410446AA
:1032F0000E460296D4F8500190F911100391D4F8BB
:10330000D411481CC4F8D4010A20B1FBF0F200FB30
:10331000121010B9D4F8D40120B9DDE9020104B0CB
:10332000BDE8F08104F19C05E869012801D1002085
:103330000AE000BFEF6800BF294607F10C0000F06B
:1033400093FD0120E8613846804641462046FFF75C
:10335000ABFF00BF00BFD4F8CC01054604E000BFBE
:10336000E868804700BFAD68002DF8D100BF314646
:10337000D4F8500100F0FEF82146204601F030F963
:103380002046D4F85011FFF78FFF00BF00212046E0
:10339000FFF700FEC4F85001D4F8500100F10C0111
:1033A0003246684600F064FDDDE90001B7E7000041
:1033B00070B504460D460DB9012000E0002006005E
:1033C00010D03E4D2868206004F1C00000F0D4F811
:1033D000A0F1C00405F12C0104F1C000FFF750FA80
:1033E000A0F1C00420460146354A026000BF0846ED
:1033F0003449016000F10801202280318A600022F6
:10340000CA604A6041F8802900BFA1F1080000BFEE
:103410000446291D04F19C00FFF7A6FAA0F19C04C4
:1034200005F1100104F1C00000F084FCA0F1C0041B
:1034300004F1D40000F0A0F8A0F1D40428682060C2
:10344000286A216851F80C1C6050686A216851F89C
:10345000101C6050E86944F89C0FA86A60621A4822
:10346000A0639C3C04F1D800FFF79FFBA0F1D804B7
:1034700004F1FC01154A4A6200BFA1F1FC040823D3
:103480000C22134904F5AC7000F098F9A0F5AC7467
:1034900004F5DC7000F08DFBA0F5DC7404F5E4703D
:1034A00000214160816000BFA0F5E4740020C4F8F1
:1034B0005001401EC4F8C401204670BD60260108BA
:1034C000BC2401088C24010858260108F4260108B0
:1034D000B33B00082DE9F04705460C4616469946D1
:1034E000DDE90878361F05EB060A05F10C005146A8
:1034F0000422002303710460C160026187604FFAF7
:1035000088F3437100BF4946284600F002F8BDE841
:10351000F087C26A22F08072C262C26A6FF30F0241
:10352000C262C26A22F08052C262C26A22F0804243
:10353000C262C26A22F00052C262C26A22F0806293
:10354000C262C26A22F40002C262C26A22F400129B
:10355000C262C26A22F00072C262C26A22F00062D3
:10356000C262C26A22F48002C262C26A61F3144279
:10357000C262704781627047014901607047000074
:10358000BC26010870B505460C46164600BF4FF034
:1035900000400849886100BF0A23022221460648EC
:1035A000FDF70DFF00BF4FF400400249886100BFE6
:1035B000002070BD0000024070A0002070B50546DC
:1035C0000C46164600BF4FF000400849886100BF16
:1035D0000A23012221460648FEF70EF800BF4FF4E9
:1035E00000400249886100BF002070BD0000024019
:1035F00070A00020F8B504460F4615461E4601206F
:10360000A06060600020E081A081009820F00100AF
:10361000401C0090009820F00E00801C0090009844
:1036200067F304100090009820F0200000900098AC
:1036300020F0C00000906946204600F042F8A074D7
:10364000009820F00E000A300090009865F30410F6
:1036500000906946204600F034F8E074009820F0AD
:103660000E00801D0090009866F3041000906946DB
:10367000204600F026F820754620A0813220E08107
:1036800001206060A060F8BD70B504460D46257449
:10369000002161742068012204F110014368204672
:1036A00098472068022204F11001036820469847D9
:1036B000268A05F0080008B9361100E036123046B7
:1036C00070BD10B502460B78DB071B0E0C78C4F3F7
:1036D000420443EA04130C78C4F3001443EAC4031D
:1036E0000C78C4F3401443EA84030C78C4F38114C7
:1036F00043EA040010BD10B50446A17C2046FFF744
:10370000C3FF10BD10B50446E17C2046FFF7BCFFA7
:1037100010BD10B50446217D2046FFF7B5FF10BD52
:103720007CB504460D462846FFF7E5FF0090284685
:10373000FFF7E8FF0190DDE90001C4E900017CBD6D
:1037400070B504460D46D43C29462046FFF72EFDB1
:1037500070BD70B504460D46D43C29462046FFF79F
:10376000BBFD70BD70B504460D46206850F80C0CCA
:10377000044429462046FFF7AFFD70BD70B50446EE
:103780000D46206850F8100C044429462046FFF7E7
:103790000DFD70BD10B5040007D1012405E0FCF754
:1037A000CDFD006800B9044880472046FCF7CAFDFB
:1037B0000028F4D010BD0000A30300082DE9F0415B
:1037C0001C4617460E00804607D0054602E02846F4
:1037D000B0473D442046641EF9D24046BDE8F08122
:1037E000016809B100207047012101600846704757
:1037F00010B5064C00212046FFF7DAFD0448FFF71C
:10380000A7FB0448FFF7D1F910BD0000289D002058
:10381000009F0020249F002010B50B480B4A026037
:103820000B4A0146426000BF08460A490160103158
:10383000416000210161416100BF074C204600F05A
:103840008EFF044600BF10BD44000020AC260108D6
:10385000EC240108CC260108FC9C002049F64041DC
:103860000548FFF7F1F9FFF715FA04E04FF6FF718D
:10387000024800F05BF8F9E75C000020009F0020A0
:1038800001600A79012A01D10022027101220A7124
:10389000027170470179012902D10021026811717A
:1038A000704770B502460B461C4610688188C68872
:1038B00001FB06F5294603E0866826F81140491EFB
:1038C0000029F9DC00BF70BD2DE9FE4F07460E460A
:1038D0003E60314601A800F020FF4FF48C70FFF7E6
:1038E00059FF8046C246B34654460025D9460DB915
:1038F000012000E00020009040B10B4D28682060BE
:1039000004F5887000F02BFFA0F588744A46291D45
:10391000204600F097FB04462868206000BFA046C0
:103920007C603846BDE8FE8FDC2501082DE9FC5F90
:1039300004460D4621466846FFF7A2FF00BF9DF8EA
:10394000040020B96846FFF7A5FFBDE8FC9FAFB2B1
:103950004FF4F0784FF4A079A668304600F08CFD63
:103960003946304600F027FEC2460EE0CB4604E062
:10397000304600F029FEABF1010BBBF1000FF7DC84
:10398000304600F042FDAAF1010ABAF1000FEDDA6B
:10399000304600F071FD00BF6846FFF77BFF00BFB7
:1039A000D3E700002DE9F04389B004460E461546E2
:1039B0009946214607A8FFF763FF00BF9DF8200046
:1039C00028B907A8FFF766FF09B0BDE8F0830E49E4
:1039D00003C9CDE9050103AF2946384600F09DFE35
:1039E00000BF00BFB0688046DDE90301CDE90001FA
:1039F000A0684146DDE9052300F08DFB07A8FFF72D
:103A000049FF00BFE0E700001427010870B5044635
:103A10000D462946204600F001F870BD70B50346FA
:103A20001868401C1860586830B9596099600020C7
:103A300088604860084670BD5A6800241CE0104643
:103A40000D46854201D3012600E00026012E02D159
:103A50001446926810E0506838B1506881608A60FE
:103A60005068486051600846E5E78A600020486079
:103A7000516059600846DEE7002AE0D1A1600020CD
:103A8000886099604C600846D5E770B504460D46DD
:103A90002946204600F001F870BD10B502460C46DC
:103AA000106808B9204610BD1068401E106061689B
:103AB000A36829B923B90020506090602046F2E73E
:103AC00019B953600020586000E08B601BB90020DA
:103AD0008860916000E059602046E4E70021416081
:103AE000816070470146086808B90020704708687F
:103AF000401E08604A68906820B9002048608860CD
:103B00001046F3E79068486000204B685860104604
:103B1000ECE710B502460C46106808B9204610BD07
:103B20001068401E10606168A36829B923B900209D
:103B3000506090602046F2E719B953600020586049
:103B400000E08B601BB900208860916000E0596044
:103B50002046E4E710B502461068401C106050682B
:103B600040B95160916000209468A0605468606022
:103B7000084610BD93684B60002088609960916092
:103B80000846F6E710B502460B4618461468641C52
:103B9000146054682CB950609060002484604460C4
:103BA00006E051688160002444604860506000BFB6
:103BB00010BD002141608160704770B505460C461C
:103BC000296851F8141C481900F053FD064600BF3F
:103BD00000BFF46000BF00BF304670BD2DE9F0416A
:103BE00004460F464FF0000800BFA068206119E0AE
:103BF00020698169B94212D12569E869012801D19A
:103C000000200AE000BFEE6800BF294606F10C0064
:103C100000F02AF90120E8613046BDE8F081206912
:103C20008068206120690028E2D14046F5E72DE94F
:103C3000F05F04468B4690469946DDF828A021683F
:103C400051F8141C081900F00CFD05460DB9BDE82B
:103C5000F09F216851F8141C0819494600F052FDE4
:103C600006463EB9216851F8141C0819294600F08F
:103C700034FDECE7216851F8181C0819434600226E
:103C80005946FEF7DEFD074677B9216851F8141C46
:103C90000819294600F021FD216851F8141C081963
:103CA000314600F010FDD2E700BF2E61C5F8149038
:103CB000EF60C5F820A0C5F818800020E86100BFBB
:103CC00028466268521C6260A2683AB9A060E0604F
:103CD0000022E3689A60A3685A6006E0E1684160E8
:103CE000002282608860E06000BF00BFAFE72DE97E
:103CF000F04104460F4615461E4600BFA0682061ED
:103D000012E020698169A9420BD120683946826896
:103D100020469047804632464146206900F080F8B0
:103D200005E020698068206120690028E9D100BF92
:103D3000BDE8F08170B504460D460DB9012000E0E4
:103D4000002006000CD0104D286820602046FFF7A8
:103D500013FC044605F10C012046FEF791FD0446D4
:103D6000286820606868216851F8141C6050A868B1
:103D7000216851F8181C6050201D002141608160AD
:103D800000BF041F204670BDFC240108F0B50446A6
:103D90000B466069904200D903B9F0BD02EB4205C1
:103DA000206900EB85011E4630460F687F1C0F60BE
:103DB0004F682FB94860886000278760476006E039
:103DC0004D688560002747606860486000BF00BF9D
:103DD00000BFE2E72DE9F04105460E466869B042B2
:103DE00001D8BDE8F08106EB4602296901EB8200AB
:103DF000846800BF10E02F6AD4E90401884203D22E
:103E00002069401C206106E0A069206100BFE068D5
:103E10000146384688476468002CECD100BFE0E7D3
:103E2000F0B504460B466069904200D903B9F0BD75
:103E300002EB4205206900EB85011E4630460F6803
:103E40007F1C0F604F682FB948608860002787602B
:103E5000476006E04D6885600027476068604860FD
:103E600000BF00BF00BFE2E741610022027170475E
:103E70002DE9FF4105460C46174697B901212171EE
:103E8000E168A1F140002168016061690162009070
:103E900094F905100191DDE90012C5E90012BDE8B1
:103EA000FF812079A8B9E068A0F140063946304684
:103EB000FEF724FC2068B063606930620120207145
:103EC000009694F905000190DDE90001C5E90001C3
:103ED000E5E72079012809D1E069009094F905000F
:103EE0000190DDE90001C5E90001D8E7002002905A
:103EF0000390DDE90201C5E9000100BFCFE72DE92C
:103F0000FF4780460E4600BFB08800BFF18800FB27
:103F100001F52946404600F08BFB044604F10C07EE
:103F2000314602A800F00BFC8146A760494668466E
:103F300000F005FC05462888208068886080A888F5
:103F4000A080E888E08000BF00BF204604B0BDE844
:103F5000F087F8B504460D461646D4F80C0100B9B2
:103F6000F8BD0A2D08D12089D4F80C11497A0844EB
:103F7000208100206081F3E700BF00BFD4F80C016E
:103F8000416804F10C00405D01EBC00047680096F9
:103F9000228961893B46204600F018F86089D4F8F0
:103FA0000C11097A084460816089216851F80C1C61
:103FB00021448988884207DB002060812089D4F869
:103FC0000C11497A0844208100BFC9E72DE9FC4F54
:103FD00004460D4616469A88D8880190D4F8048085
:103FE000D3F800900198504300900020216851F8C8
:103FF0000C1C2144C98801FB05F71DE006EB070CEA
:104000000146DDF800B00BEB000A0CE039F811B006
:104010004FF6FF7EF34503D0DDF82CB028F81CB036
:104020000CF1010C11445145F0D3216851F80C1CDE
:104030002144C9880F44401C9042DFDB0020BDE8CA
:10404000FC8F00002DE9FF4104460E4617460EB9CD
:10405000012000E000205FEA000808D0164E30681A
:10406000206004F5887000F07AFBA0F58874306851
:10407000206000BFB86860600020208160812068F7
:1040800050F80C0C0519394602A800F046FBDDE992
:104090000201CDE90001BDF800002880BDF8020052
:1040A0006880BDF80400A880BDF80600E88000BF65
:1040B000204604B0BDE8F081FC2601082DE9F84F48
:1040C00082468B4614461D46DDE90A6733462A467A
:1040D00021465046009700F00FFA5946504600F02E
:1040E0006AFAB0460EE0B94604E0504600F06CFAB9
:1040F000A9F10109B9F1000FF7DC504600F085F98C
:10410000A8F10108B8F1000FEDDA504600F0B4F95B
:104110000020BDE8F88F2DE9FF4F83B0BDF84000C7
:10412000BDF81410441ABDF81800A04204DA4FF08C
:10413000FF3007B0BDE8F08FBDF84200BDF81610A3
:10414000451ABDF81A00A84202DA4FF0FF30F0E736
:10415000BDF8446004EB060ABAF1000F02DA4FF032
:10416000FF30E6E7BDF81800504502DABDF8180048
:10417000061BBDF8468005EB080BBBF1000F02DA09
:104180004FF0FF30D5E7BDF81A00584503DABDF807
:104190001A00A0EB0508002C0ADD4FF4A071A0B2B4
:1041A00000231A46CDE9000119460398FFF786FF60
:1041B000002D09DDA8B2B1B2A2B20023CDE90010F2
:1041C00019460398FFF77AFF1FFA88F0B3B2AAB234
:1041D000A1B20090039800F08FF904EB84008401F1
:1041E00006EB860004EB801717E0B94608EB0700E2
:1041F00002900AE0049830F81910039800F056F97C
:10420000039800F0E1F909F1010902988145F1DB19
:10421000039800F0FAF8A7F5A077A742E5DA0020A6
:1042200087E72DE9FF4F81B081468846BDF81070C1
:10423000BDF8124007FB04FA3B460094BDF80E207F
:10424000BDF80C10484600F057F9554617E02E46C9
:1042500004EB050B0DE038F81610484600F026F97F
:104260000121484600F038F90021484600F034F9B1
:10427000761C5E45EFD3484600F0C7F82D1B002D95
:10428000E5DC484600F0F8F8002005B0BDE8F08F06
:10429000012904D100BF1022044B1A6005E000BFC1
:1042A0004FF48012014B1A6000BF7047180802409B
:1042B00010B5044600BF01212046FFF7E9FF0121A8
:1042C000204600F09BF800212046FFF7E1FF012186
:1042D000204600F093F801212046FFF7D9FF9621F0
:1042E000204600F08BF800BF0121204600F04FF976
:1042F0006421204600F082F8C021204600F047F9F2
:104300001521204600F04DF91221204600F049F910
:10431000C121204600F03BF94121204600F041F93F
:10432000C521204600F033F90021204600F039F97C
:104330004A21204600F035F98021204600F031F96D
:104340003621204600F023F94821204600F029F9C3
:104350003A21204600F01BF95021204600F021F9B7
:10436000B021204600F013F90221204600F019F98F
:10437000B421204600F00BF90021204600F011F98D
:10438000B621204600F003F92021204600F009F96B
:104390000F21204600F005F9E921204600F0F7F84A
:1043A0000021204600F0FDF8F721204600F0EFF84C
:1043B000A921204600F0F5F85221204600F0F1F83E
:1043C0002C21204600F0EDF88221204600F0E9F88B
:1043D0006421204600F012F81121204600F0D7F8A1
:1043E0009621204600F00AF82921204600F0CFF857
:1043F0000F21204600F002F8002010BD70B50546E0
:104400000C462046FCF724FA70BD10B50446002186
:10441000204600F051F80021204600F00DF803215D
:10442000204600F037F80121204600F005F8012170
:10443000204600F041F810BD012904D100BF082238
:10444000044B1A6005E000BF4FF40022014B1A60D4
:1044500000BF7047181C0240012904D100BF102280
:10446000044B1A6005E000BF4FF48012014B1A6044
:1044700000BF7047181C024010B5044600212046BA
:10448000FFF7EAFF2046FFF7C0FF01212046FFF7B4
:10449000E3FF10BD70B505460C4602E0284600F06B
:1044A00093F82000A4F10104F8D170BD00BF0268A8
:1044B000516100BF70470000012904D100BF2022D4
:1044C000044B1A6005E000BF4FF40012014B1A6064
:1044D00000BF7047181C0240012904D100BF04220C
:1044E000044B1A6005E000BF4FF48022014B1A60B4
:1044F00000BF7047181C02402DE9FC4107460C46DE
:1045000015461E46DDF82080019505EB080080B2B7
:1045100000902A21384600F03AF89DF805103846F8
:1045200000F03FF89DF80410384600F03AF89DF886
:104530000110384600F035F89DF80010384600F0BC
:1045400030F80194A01980B200902B21384600F079
:104550001EF89DF80510384600F023F89DF8041069
:10456000384600F01EF89DF80110384600F019F8A2
:104570009DF80010384600F014F801213846FFF786
:1045800089FF3846FFF778FF0020BDE8FC8170B551
:1045900004460D462A4600216068FEF78DF900208A
:1045A00070BD70B504460D462A4601216068FEF7CD
:1045B00083F9002070BD70B504460D46294620469B
:1045C000FFF774FF70BD000000BF0421034A1160B3
:1045D00000BF00BF0904116000BF7047181C0240F3
:1045E0002DE9F0410546884600BFD5F8BC010646D6
:1045F0001AE03446B66800BFA08D80B2002807DDFF
:10460000A08D401EE16A60F30F01E162002000E02E
:10461000012048B105F5DC7721463846FFF779FAE5
:1046200021462846FEF740FE002EE2D1BDE8F0818B
:1046300070B504460D4605F10C012068026820465D
:10464000904770BD70B505460C462046FDF7A8FEA4
:1046500070BD10B5044620681C21026820469047B2
:1046600010BD10B5044620682421026820469047FA
:1046700010BD10B5044620681021026820469047FE
:1046800010BD70B504460D4605F13C012068026876
:104690002046904770BD70B505460C462046FDF794
:1046A00075FE70BD70B505460C462046FDF778FED8
:1046B00070BD70B504460D46206829464268204604
:1046C0009047002070BD70B504460D46206829460D
:1046D000426820469047002070BD70B504460D46E4
:1046E00020682946426820469047002070BD70B57A
:1046F00004460D4605EB450081002068026820460F
:10470000904770BD70B504460D4605EB450081002D
:10471000206802682046904770BD0CB50A88ADF845
:1047200000204A88ADF802208A88ADF80420CA88A3
:10473000ADF80620009A0260019A42600CBD0A881A
:1047400002804A8842808A888280CA88C2807047F4
:1047500030B5039C018042808380C48030BD00213D
:10476000018041808180C18070474FF04070E1EE50
:10477000100A704710010000000000000000000057
:10478000FFFFFFFFFFFFFFFFFFFFFFFFFFFFFFFF39
:10479000FFFFFFFFFFFFFFFFFFFFFFFFFFFFFFFF29
:1047A000FFFFFFFFFFFFFFFFFFFFFFFFFFFFFFFF19
:1047B000FFFFFFFFFFFFFFFFFFFFFFFFFFFFFFFF09
:1049C0008047000810001200FFFFFFFFFFFFFFFFFE
:1049D000FFFFFFFFFFFFFFFFFFFFFFFFFFFFFFFFE7
:1049E000FFFFFFFFFFFFFFFFFFFFFFFFFFFFFFFFD7
:1049F000FFFFFFFFFFFFFFFFFFFFFFFFFFFFFFFFC7
:104A0000FFFFFFFFFFFFFFFFFFFFFFFFFFFFFFFFB6
:104A1000FFFFFFFFFFFFFFFFFFFFFFFFFFFFFFFFA6
:104A2000FFFFFFFFFFFFFFFFFFFFFFFFFFFFFFFF96
:104A3000FFFFFFFFFFFF208F208FFFFFFFFFFFFF24
:104A4000FFFFFFFFFFFFFFFFFFFFFFFFFFFFFFFF76
:104A5000FFFFFFFF208F208F208FFFFFFFFFFFFF53
:104A6000FFFFFFFFFFFFFFFFFFFFFFFFFFFFFFFF56
:104A7000FFFFFFFF208F208F208FFFFFFFFFFFFF33
:104A8000FFFFFFFFFFFFFFFFFFFFFFFFFFFFFFFF36
:104A9000FFFFFFFF208F208F208FFFFFFFFFFFFF13
:104AA000FFFFFFFFFFFFFFFFFFFFFFFFFFFFFFFF16
:104AB000FFFFFFFF208F208F208FFFFFFFFFFFFFF3
:104AC000FFFFFFFFFFFFFFFFFFFFFFFFFFFFFFFFF6
:104AD000FFFFFFFFFFFF208F208FFFFFFFFFFFFF84
:104AE000FFFFFFFFFFFFFFFFFFFFFFFFFFFFFFFFD6
:104AF000FFFFFFFFFFFF208F208FFFFFFFFFFFFF64
:104B0000FFFFFFFFFFFFFFFFFFFFFFFFFFFFFFFFB5
:104B1000FFFFFFFFFFFFFFFFFFFFFFFFFFFFFFFFA5
:104B2000FFFFFFFFFFFFFFFFFFFFFFFFFFFFFFFF95
:104B3000FFFFFFFF208F208F208FFFFFFFFFFFFF72
:104B4000FFFFFFFFFFFFFFFFFFFFFFFFFFFFFFFF75
:104B5000FFFFFFFF208F208F208FFFFFFFFFFFFF52
:104B6000FFFFFFFFFFFFFFFFFFFFFFFFFFFFFFFF55
:104B7000FFFFFFFFFFFFFFFFFFFFFFFFFFFFFFFF45
:104B8000FFFFFFFFFFFFFFFFFFFFFFFFFFFFFFFF35
:104B9000FFFFFFFFFFFFFFFFFFFFFFFFFFFFFFFF25
:104BA000FFFFFFFFFFFFFFFFFFFFFFFFFFFFFFFF15
:104BB000FFFFFFFFFFFFFFFFFFFFFFFFFFFFFFFF05
:104BC000FFFFFFFFFFFFFFFFFFFFFFFFFFFFFFFFF5
:104BD000FFFFFFFFFFFFFFFFFFFFFFFFFFFFFFFFE5
:104BE000FFFFFFFFFFFFFFFFFFFFFFFFFFFFFFFFD5
:104BF000FFFFFFFFFFFFFFFFFFFFFFFFFFFFFFFFC5
:104C0000FFFFFFFFFFFFFFFFC84900081000120071
:104C1000FFFFFFFFFFFFFFFFFFFFFFFFFFFFFFFFA4
:104C2000FFFFFFFFFFFFFFFFFFFFFFFFFFFFFFFF94
:104C3000FFFFFFFFFFFFFFFFFFFFFFFFFFFFFFFF84
:104C4000FFFFFFFFFFFFFFFFFFFFFFFFFFFFFFFF74
:104C5000FFFFFFFFFFFFFFFFFFFFFFFFFFFF208FB3
:104C6000208FFFFF208F208FFFFFFFFFFFFFFFFF41
:104C7000FFFFFFFFFFFFFFFFFFFFFFFF208F208FE2
:104C8000208F208F208F208FFFFFFFFFFFFFFFFF70
:104C9000FFFFFFFFFFFFFFFFFFFFFFFF208F208FC2
:104CA000FFFF208F208FFFFFFFFFFFFFFFFFFFFFB2
:104CB000FFFFFFFFFFFFFFFFFFFFFFFF208F208FA2
:104CC000FFFF208F208FFFFFFFFFFFFFFFFFFFFF92
:104CD000FFFFFFFFFFFFFFFFFFFF208F208FFFFF82
:104CE000208F208FFFFFFFFFFFFFFFFFFFFFFFFF72
:104CF000FFFFFFFFFFFFFFFFFFFFFFFFFFFFFFFFC4
:104D0000FFFFFFFFFFFFFFFFFFFFFFFFFFFFFFFFB3
:104D1000FFFFFFFFFFFFFFFFFFFFFFFFFFFFFFFFA3
:104D2000FFFFFFFFFFFFFFFFFFFFFFFFFFFFFFFF93
:104D3000FFFFFFFFFFFFFFFFFFFFFFFFFFFFFFFF83
:104D4000FFFFFFFFFFFFFFFFFFFFFFFFFFFFFFFF73
:104D5000FFFFFFFFFFFFFFFFFFFFFFFFFFFFFFFF63
:104D6000FFFFFFFFFFFFFFFFFFFFFFFFFFFFFFFF53
:104D7000FFFFFFFFFFFFFFFFFFFFFFFFFFFFFFFF43
:104D8000FFFFFFFFFFFFFFFFFFFFFFFFFFFFFFFF33
:104D9000FFFFFFFFFFFFFFFFFFFFFFFFFFFFFFFF23
:104DA000FFFFFFFFFFFFFFFFFFFFFFFFFFFFFFFF13
:104DB000FFFFFFFFFFFFFFFFFFFFFFFFFFFFFFFF03
:104DC000FFFFFFFFFFFFFFFFFFFFFFFFFFFFFFFFF3
:104DD000FFFFFFFFFFFFFFFFFFFFFFFFFFFFFFFFE3
:104DE000FFFFFFFFFFFFFFFFFFFFFFFFFFFFFFFFD3
:104DF000FFFFFFFFFFFFFFFFFFFFFFFFFFFFFFFFC3
:104E0000FFFFFFFFFFFFFFFFFFFFFFFFFFFFFFFFB2
:104E1000FFFFFFFFFFFFFFFFFFFFFFFFFFFFFFFFA2
:104E2000FFFFFFFFFFFFFFFFFFFFFFFFFFFFFFFF92
:104E3000FFFFFFFFFFFFFFFFFFFFFFFFFFFFFFFF82
:104E4000FFFFFFFFFFFFFFFFFFFFFFFFFFFFFFFF72
:104E5000104C000810001200FFFFFFFFFFFFFFFFD4
:104E6000FFFFFFFFFFFFFFFFFFFFFFFFFFFFFFFF52
:104E7000FFFFFFFFFFFFFFFFFFFFFFFFFFFFFFFF42
:104E8000FFFFFFFFFFFFFFFFFFFFFFFFFFFFFFFF32
:104E9000FFFFFFFFFFFFFFFFFFFFFFFFFFFFFFFF22
:104EA000FFFFFFFFFFFFFFFFFFFFFFFFFFFFFFFF12
:104EB000FFFFFFFFFFFFFFFFFFFFFFFFFFFFFFFF02
:104EC000FFFF208F208FFFFF208F208FFFFFFFFF2E
:104ED000FFFFFFFFFFFFFFFFFFFFFFFFFFFFFFFFE2
:104EE000FFFF208F208FFFFF208F208FFFFFFFFF0E
:104EF000FFFFFFFFFFFFFFFFFFFFFFFFFFFFFFFFC2
:104F0000FFFF208F208FFFFF208F208FFFFFFFFFED
:104F1000FFFFFFFFFFFFFFFFFFFFFFFFFFFF208FF0
:104F2000208F208F208F208F208F208F208F208F09
:104F3000FFFFFFFFFFFFFFFFFFFFFFFFFFFFFFFF81
:104F4000FFFF208F208FFFFF208F208FFFFFFFFFAD
:104F5000FFFFFFFFFFFFFFFFFFFFFFFFFFFFFFFF61
:104F6000FFFF208F208FFFFF208F208FFFFFFFFF8D
:104F7000FFFFFFFFFFFFFFFFFFFFFFFFFFFF208F90
:104F8000208F208F208F208F208F208F208F208FA9
:104F9000FFFFFFFFFFFFFFFFFFFFFFFFFFFFFFFF21
:104FA000FFFF208F208FFFFF208F208FFFFFFFFF4D
:104FB000FFFFFFFFFFFFFFFFFFFFFFFFFFFFFFFF01
:104FC000FFFF208F208FFFFF208F208FFFFFFFFF2D
:104FD000FFFFFFFFFFFFFFFFFFFFFFFFFFFFFFFFE1
:104FE000FFFF208F208FFFFF208F208FFFFFFFFF0D
:104FF000FFFFFFFFFFFFFFFFFFFFFFFFFFFFFFFFC1
:10500000FFFFFFFFFFFFFFFFFFFFFFFFFFFFFFFFB0
:10501000FFFFFFFFFFFFFFFFFFFFFFFFFFFFFFFFA0
:10502000FFFFFFFFFFFFFFFFFFFFFFFFFFFFFFFF90
:10503000FFFFFFFFFFFFFFFFFFFFFFFFFFFFFFFF80
:10504000FFFFFFFFFFFFFFFFFFFFFFFFFFFFFFFF70
:10505000FFFFFFFFFFFFFFFFFFFFFFFFFFFFFFFF60
:10506000FFFFFFFFFFFFFFFFFFFFFFFFFFFFFFFF50
:10507000FFFFFFFFFFFFFFFFFFFFFFFFFFFFFFFF40
:10508000FFFFFFFFFFFFFFFFFFFFFFFFFFFFFFFF30
:10509000FFFFFFFFFFFFFFFF584E00081000120048
:1050A000FFFFFFFFFFFFFFFFFFFFFFFFFFFFFFFF10
:1050B000FFFFFFFFFFFFFFFFFFFFFFFFFFFFFFFF00
:1050C000FFFFFFFFFFFFFFFFFFFFFFFFFFFFFFFFF0
:1050D000FFFFFFFFFFFFFFFFFFFFFFFFFFFFFFFFE0
:1050E000FFFFFFFFFFFFFFFFFFFFFFFFFFFF208F1F
:1050F000208FFFFFFFFFFFFFFFFFFFFFFFFFFFFF0F
:10510000FFFFFFFFFFFFFFFFFFFFFFFF208F208F4D
:10511000208F208F208FFFFFFFFFFFFFFFFFFFFF8C
:10512000FFFFFFFFFFFFFFFFFFFF208F208F208F7C
:10513000208F208FFFFFFFFFFFFFFFFFFFFFFFFF1D
:10514000FFFFFFFFFFFFFFFFFFFF208F208F208F5C
:10515000208FFFFFFFFFFFFFFFFFFFFFFFFFFFFFAE
:10516000FFFFFFFFFFFFFFFFFFFF208F208F208F3C
:10517000208FFFFFFFFFFFFFFFFFFFFFFFFFFFFF8E
:10518000FFFFFFFFFFFFFFFFFFFF208F208F208F1C
:10519000208F208FFFFFFFFFFFFFFFFFFFFFFFFFBD
:1051A000FFFFFFFFFFFFFFFFFFFFFFFF208F208FAD
:1051B000208F208F208FFFFFFFFFFFFFFFFFFFFFEC
:1051C000FFFFFFFFFFFFFFFFFFFFFFFFFFFF208F3E
:1051D000208F208F208FFFFFFFFFFFFFFFFFFFFFCC
:1051E000FFFFFFFFFFFFFFFFFFFFFFFFFFFF208F1E
:1051F000208F208F208FFFFFFFFFFFFFFFFFFFFFAC
:10520000FFFFFFFFFFFFFFFFFFFF208F208F208F9B
:10521000208F208F208FFFFFFFFFFFFFFFFFFFFF8B
:10522000FFFFFFFFFFFFFFFFFFFF208F208F208F7B
:10523000208F208FFFFFFFFFFFFFFFFFFFFFFFFF1C
:10524000FFFFFFFFFFFFFFFFFFFFFFFFFFFF208FBD
:10525000208FFFFFFFFFFFFFFFFFFFFFFFFFFFFFAD
:10526000FFFFFFFFFFFFFFFFFFFFFFFFFFFFFFFF4E
:10527000FFFFFFFFFFFFFFFFFFFFFFFFFFFFFFFF3E
:10528000FFFFFFFFFFFFFFFFFFFFFFFFFFFFFFFF2E
:10529000FFFFFFFFFFFFFFFFFFFFFFFFFFFFFFFF1E
:1052A000FFFFFFFFFFFFFFFFFFFFFFFFFFFFFFFF0E
:1052B000FFFFFFFFFFFFFFFFFFFFFFFFFFFFFFFFFE
:1052C000FFFFFFFFFFFFFFFFFFFFFFFFFFFFFFFFEE
:1052D000FFFFFFFFFFFFFFFFFFFFFFFFFFFFFFFFDE
:1052E000A050000810001200FFFFFFFFFFFFFFFFAC
:1052F000FFFFFFFFFFFFFFFFFFFFFFFFFFFFFFFFBE
:10530000FFFFFFFFFFFFFFFFFFFFFFFFFFFFFFFFAD
:10531000FFFFFFFFFFFFFFFFFFFFFFFFFFFFFFFF9D
:10532000FFFFFFFFFFFFFFFFFFFFFFFFFFFFFFFF8D
:10533000FFFFFFFFFFFFFFFFFFFFFFFFFFFFFFFF7D
:10534000FFFFFFFFFFFFFFFFFFFFFFFFFFFF208FBC
:10535000208F208FFFFFFFFFFFFF208F208FFFFF99
:10536000FFFFFFFFFFFFFFFFFFFFFFFF208F208FEB
:10537000FFFF208F208FFFFF208F208FFFFFFFFF79
:10538000FFFFFFFFFFFFFFFFFFFFFFFF208F208FCB
:10539000FFFF208F208FFFFF208F208FFFFFFFFF59
:1053A000FFFFFFFFFFFFFFFFFFFFFFFF208F208FAB
:1053B000FFFF208F208F208F208FFFFFFFFFFFFF39
:1053C000FFFFFFFFFFFFFFFFFFFFFFFF208F208F8B
:1053D000FFFF208F208F208F208FFFFF208F208FB7
:1053E000208FFFFFFFFFFFFFFFFFFFFFFFFF208F6B
:1053F000208F208F208F208FFFFF208F208FFFFF97
:10540000208F208FFFFFFFFFFFFFFFFFFFFFFFFF4A
:10541000FFFFFFFF208F208FFFFF208F208FFFFFD8
:10542000208F208FFFFFFFFFFFFFFFFFFFFFFFFF2A
:10543000FFFF208F208FFFFFFFFF208F208FFFFFB8
:10544000208F208FFFFFFFFFFFFFFFFFFFFFFFFF0A
:10545000FFFF208F208FFFFFFFFF208F208FFFFF98
:10546000208F208FFFFFFFFFFFFFFFFFFFFFFFFFEA
:10547000208F208FFFFFFFFFFFFFFFFF208F208F78
:10548000208FFFFFFFFFFFFFFFFFFFFFFFFFFFFF7B
:10549000FFFFFFFFFFFFFFFFFFFFFFFFFFFFFFFF1C
:1054A000FFFFFFFFFFFFFFFFFFFFFFFFFFFFFFFF0C
:1054B000FFFFFFFFFFFFFFFFFFFFFFFFFFFFFFFFFC
:1054C000FFFFFFFFFFFFFFFFFFFFFFFFFFFFFFFFEC
:1054D000FFFFFFFFFFFFFFFFFFFFFFFFFFFFFFFFDC
:1054E000FFFFFFFFFFFFFFFFFFFFFFFFFFFFFFFFCC
:1054F000FFFFFFFFFFFFFFFFFFFFFFFFFFFFFFFFBC
:10550000FFFFFFFFFFFFFFFFFFFFFFFFFFFFFFFFAB
:10551000FFFFFFFFFFFFFFFFFFFFFFFFFFFFFFFF9B
:10552000FFFFFFFFFFFFFFFFE8520008100012001F
:10553000FFFFFFFFFFFFFFFFFFFFFFFFFFFFFFFF7B
:10554000FFFFFFFFFFFFFFFFFFFFFFFFFFFFFFFF6B
:10555000FFFFFFFFFFFFFFFFFFFFFFFFFFFFFFFF5B
:10556000FFFFFFFFFFFFFFFFFFFFFFFFFFFFFFFF4B
:10557000FFFFFFFFFFFFFFFFFFFFFFFFFFFFFFFF3B
:10558000FFFFFFFFFFFFFFFFFFFFFFFFFFFFFFFF2B
:10559000FFFFFFFFFFFFFFFFFFFF208F208F208F08
:1055A000208FFFFFFFFFFFFFFFFFFFFFFFFFFFFF5A
:1055B000FFFFFFFFFFFFFFFF208F208FFFFFFFFF99
:1055C000208F208FFFFFFFFFFFFFFFFFFFFFFFFF89
:1055D000FFFFFFFFFFFFFFFF208F208FFFFFFFFF79
:1055E000208F208FFFFFFFFFFFFFFFFFFFFFFFFF69
:1055F000FFFFFFFFFFFFFFFF208F208F208F208FF7
:10560000208F208F208F208F208FFFFFFFFFFFFF35
:10561000FFFFFFFFFFFFFFFFFFFF208F208F208F87
:10562000FFFFFFFF208F208FFFFFFFFFFFFFFFFF28
:10563000FFFFFFFFFFFF208F208F208F208F208F05
:10564000208F208F208FFFFFFFFFFFFFFFFFFFFF57
:10565000FFFFFFFF208F208F208FFFFF208F208FE5
:10566000208F208F208FFFFFFFFFFFFFFFFFFFFF37
:10567000FFFFFFFF208F208F208FFFFFFFFF208F76
:10568000208F208FFFFFFFFFFFFFFFFFFFFFFFFFC8
:10569000FFFFFFFF208F208F208F208FFFFFFFFF56
:1056A000208F208F208FFFFF208F208FFFFFFFFF95
:1056B000FFFFFFFFFFFF208F208F208F208F208F85
:1056C000208F208F208F208F208FFFFFFFFFFFFF75
:1056D000FFFFFFFFFFFFFFFFFFFFFFFFFFFFFFFFDA
:1056E000FFFFFFFFFFFFFFFFFFFFFFFFFFFFFFFFCA
:1056F000FFFFFFFFFFFFFFFFFFFFFFFFFFFFFFFFBA
:10570000FFFFFFFFFFFFFFFFFFFFFFFFFFFFFFFFA9
:10571000FFFFFFFFFFFFFFFFFFFFFFFFFFFFFFFF99
:10572000FFFFFFFFFFFFFFFFFFFFFFFFFFFFFFFF89
:10573000FFFFFFFFFFFFFFFFFFFFFFFFFFFFFFFF79
:10574000FFFFFFFFFFFFFFFFFFFFFFFFFFFFFFFF69
:10575000FFFFFFFFFFFFFFFFFFFFFFFFFFFFFFFF59
:10576000FFFFFFFFFFFFFFFFFFFFFFFFFFFFFFFF49
:105770003055000810001200FFFFFFFFFFFFFFFF82
:10578000FFFFFFFFFFFFFFFFFFFFFFFFFFFFFFFF29
:10579000FFFFFFFFFFFFFFFFFFFFFFFFFFFFFFFF19
:1057A000FFFFFFFFFFFFFFFFFFFFFFFFFFFFFFFF09
:1057B000FFFFFFFFFFFFFFFFFFFFFFFFFFFFFFFFF9
:1057C000FFFFFFFFFFFFFFFF208F208FFFFFFFFF87
:1057D000FFFFFFFFFFFFFFFFFFFFFFFFFFFFFFFFD9
:1057E000FFFFFFFFFFFF208F208F208FFFFFFFFFB6
:1057F000FFFFFFFFFFFFFFFFFFFFFFFFFFFFFFFFB9
:10580000FFFFFFFFFFFF208F208FFFFFFFFFFFFF46
:10581000FFFFFFFFFFFFFFFFFFFFFFFFFFFFFFFF98
:10582000FFFFFFFFFFFF208F208FFFFFFFFFFFFF26
:10583000FFFFFFFFFFFFFFFFFFFFFFFFFFFFFFFF78
:10584000FFFFFFFF208F208FFFFFFFFFFFFFFFFF06
:10585000FFFFFFFFFFFFFFFFFFFFFFFFFFFFFFFF58
:10586000FFFFFFFFFFFFFFFFFFFFFFFFFFFFFFFF48
:10587000FFFFFFFFFFFFFFFFFFFFFFFFFFFFFFFF38
:10588000FFFFFFFFFFFFFFFFFFFFFFFFFFFFFFFF28
:10589000FFFFFFFFFFFFFFFFFFFFFFFFFFFFFFFF18
:1058A000FFFFFFFFFFFFFFFFFFFFFFFFFFFFFFFF08
:1058B000FFFFFFFFFFFFFFFFFFFFFFFFFFFFFFFFF8
:1058C000FFFFFFFFFFFFFFFFFFFFFFFFFFFFFFFFE8
:1058D000FFFFFFFFFFFFFFFFFFFFFFFFFFFFFFFFD8
:1058E000FFFFFFFFFFFFFFFFFFFFFFFFFFFFFFFFC8
:1058F000FFFFFFFFFFFFFFFFFFFFFFFFFFFFFFFFB8
:10590000FFFFFFFFFFFFFFFFFFFFFFFFFFFFFFFFA7
:10591000FFFFFFFFFFFFFFFFFFFFFFFFFFFFFFFF97
:10592000FFFFFFFFFFFFFFFFFFFFFFFFFFFFFFFF87
:10593000FFFFFFFFFFFFFFFFFFFFFFFFFFFFFFFF77
:10594000FFFFFFFFFFFFFFFFFFFFFFFFFFFFFFFF67
:10595000FFFFFFFFFFFFFFFFFFFFFFFFFFFFFFFF57
:10596000FFFFFFFFFFFFFFFFFFFFFFFFFFFFFFFF47
:10597000FFFFFFFFFFFFFFFFFFFFFFFFFFFFFFFF37
:10598000FFFFFFFFFFFFFFFFFFFFFFFFFFFFFFFF27
:10599000FFFFFFFFFFFFFFFFFFFFFFFFFFFFFFFF17
:1059A000FFFFFFFFFFFFFFFFFFFFFFFFFFFFFFFF07
:1059B000FFFFFFFFFFFFFFFF7857000810001200F6
:1059C000FFFFFFFFFFFFFFFFFFFFFFFFFFFFFFFFE7
:1059D000FFFFFFFFFFFFFFFFFFFFFFFFFFFFFFFFD7
:1059E000FFFFFFFFFFFFFFFFFFFFFFFFFFFFFFFFC7
:1059F000FFFF208F208FFFFFFFFFFFFFFFFFFFFF55
:105A0000FFFFFFFFFFFFFFFFFFFFFFFFFFFFFFFFA6
:105A1000208F208FFFFFFFFFFFFFFFFFFFFFFFFF34
:105A2000FFFFFFFFFFFFFFFFFFFFFFFFFFFF208FD5
:105A3000208F208FFFFFFFFFFFFFFFFFFFFFFFFF14
:105A4000FFFFFFFFFFFFFFFFFFFFFFFFFFFF208FB5
:105A5000208F208FFFFFFFFFFFFFFFFFFFFFFFFFF4
:105A6000FFFFFFFFFFFFFFFFFFFFFFFF208F208FE4
:105A7000208FFFFFFFFFFFFFFFFFFFFFFFFFFFFF85
:105A8000FFFFFFFFFFFFFFFFFFFFFFFF208F208FC4
:105A9000208FFFFFFFFFFFFFFFFFFFFFFFFFFFFF65
:105AA000FFFFFFFFFFFFFFFFFFFFFFFF208F208FA4
:105AB000208FFFFFFFFFFFFFFFFFFFFFFFFFFFFF45
:105AC000FFFFFFFFFFFFFFFFFFFFFFFF208F208F84
:105AD000208FFFFFFFFFFFFFFFFFFFFFFFFFFFFF25
:105AE000FFFFFFFFFFFFFFFFFFFFFFFF208F208F64
:105AF000208FFFFFFFFFFFFFFFFFFFFFFFFFFFFF05
:105B0000FFFFFFFFFFFFFFFFFFFFFFFF208F208F43
:105B1000208FFFFFFFFFFFFFFFFFFFFFFFFFFFFFE4
:105B2000FFFFFFFFFFFFFFFFFFFFFFFFFFFF208FD4
:105B3000208F208FFFFFFFFFFFFFFFFFFFFFFFFF13
:105B4000FFFFFFFFFFFFFFFFFFFFFFFFFFFF208FB4
:105B5000208F208FFFFFFFFFFFFFFFFFFFFFFFFFF3
:105B6000FFFFFFFFFFFFFFFFFFFFFFFFFFFFFFFF45
:105B7000208F208FFFFFFFFFFFFFFFFFFFFFFFFFD3
:105B8000FFFFFFFFFFFFFFFFFFFFFFFFFFFFFFFF25
:105B9000FFFF208F208FFFFFFFFFFFFFFFFFFFFFB3
:105BA000FFFFFFFFFFFFFFFFFFFFFFFFFFFFFFFF05
:105BB000FFFFFFFFFFFFFFFFFFFFFFFFFFFFFFFFF5
:105BC000FFFFFFFFFFFFFFFFFFFFFFFFFFFFFFFFE5
:105BD000FFFFFFFFFFFFFFFFFFFFFFFFFFFFFFFFD5
:105BE000FFFFFFFFFFFFFFFFFFFFFFFFFFFFFFFFC5
:105BF000FFFFFFFFFFFFFFFFFFFFFFFFFFFFFFFFB5
:105C0000C059000810001200FFFFFFFFFFFFFFFF59
:105C1000FFFFFFFFFFFFFFFFFFFFFFFFFFFFFFFF94
:105C2000FFFFFFFFFFFFFFFFFFFFFFFFFFFFFFFF84
:105C3000FFFFFFFF208F208FFFFFFFFFFFFFFFFF12
:105C4000FFFFFFFFFFFFFFFFFFFFFFFFFFFFFFFF64
:105C5000FFFFFFFFFFFF208F208FFFFFFFFFFFFFF2
:105C6000FFFFFFFFFFFFFFFFFFFFFFFFFFFFFFFF44
:105C7000FFFFFFFFFFFF208F208F208FFFFFFFFF21
:105C8000FFFFFFFFFFFFFFFFFFFFFFFFFFFFFFFF24
:105C9000FFFFFFFFFFFF208F208F208FFFFFFFFF01
:105CA000FFFFFFFFFFFFFFFFFFFFFFFFFFFFFFFF04
:105CB000FFFFFFFFFFFFFFFF208F208F208FFFFFE1
:105CC000FFFFFFFFFFFFFFFFFFFFFFFFFFFFFFFFE4
:105CD000FFFFFFFFFFFFFFFF208F208F208FFFFFC1
