:020000040800F2
:10000000D8B40020D9020008F71E0008A902000891
:10001000F31E0008E7070008652000080000000044
:100020000000000000000000000000008502000841
:10003000EB07000800000000850200085D020008D0
:10004000F3020008F3020008F3020008F3020008BC
:10005000F3020008F3020008ED070008F3020008AD
:10006000F3020008F3020008F3020008F30200089C
:10007000F3020008F3020008F3020008F30200088C
:10008000F3020008F3020008F3020008F30200087C
:10009000F3020008F3020008F3020008F30200086C
:1000A000F3020008611F0008F3020008F3020008D1
:1000B000711F0008F3020008F3020008F3020008B1
:1000C000F3020008F3020008F3020008F30200083C
:1000D000F3020008F3020008F3020008F30200082C
:1000E000F3020008F3020008F3020008F30200081C
:1000F000F3020008F3020008F3020008F30200080C
:10010000F3020008F3020008F3020008F3020008FB
:10011000F3020008F3020008F3020008F3020008EB
:10012000F3020008F3020008F3020008F3020008DB
:10013000F3020008F3020008F3020008F3020008CB
:10014000F3020008F3020008F3020008F3020008BB
:10015000F3020008F3020008F3020008F3020008AB
:10016000F3020008F3020008F3020008F30200089B
:10017000F3020008F3020008F3020008F30200088B
:10018000F3020008F302000800F002F800F042F861
:100190000AA090E8000C82448344AAF10107DA45E2
:1001A00001D100F037F8AFF2090EBAE80F0013F0F2
:1001B000010F18BFFB1A43F001031847DC3A010096
:1001C000FC3A0100103A24BF78C878C1FAD8520727
:1001D00024BF30C830C144BF04680C6070470000C1
:1001E0000023002400250026103A28BF78C1FBD840
:1001F000520728BF30C148BF0B6070471FB505F0DC
:1002000066FC9DE8030000F06FF900F005F91FBDE2
:1002100010B510BD00F0FAF91146FFF7EFFF03F03B
:10022000F9FF00F037FA03B4FFF7F2FF03BC00F068
:1002300065FA000080F31488704702DF704772B6D9
:10024000BFF34F8F00F03CF801F01FFFBFF35F8F4B
:1002500080F3098881F3148862B600BD72B6BFF3DB
:100260004F8FEFF3098020E9F00F00B501F01DFF7B
:10027000BFF35F8FB0E8F00F80F3098881F3148833
:1002800062B600BD72B6BFF34F8F00B5EFF30983BE
:1002900023E9F00F01F0FFFEB0E8F00F80F30988CA
:1002A00081F3148862B600BD72B6BFF34F8F00B5FC
:1002B000EFF3098323E9F00F01F0D6FE00F00CB84C
:1002C0000448016841F470010160BFF34F8FBFF330
:1002D0006F8F704788ED00E0094880470948004764
:1002E000FEE7FEE7FEE7FEE7FEE7FEE7FEE7FEE7E6
:1002F000FEE7FEE704480549054A064B7047000043
:10030000FD1E000889010008D8A20020D8B40020F2
:10031000D8AA0020D8AA00200048704778A2002060
:1003200010B5431C02E010F8011B71B18107FAD12E
:100330004FF0013202C88C1A8C4314EAC211F9D072
:10034000C01A0A0603D0C01E10BDC01A10BD0A0490
:1003500001D0801E10BD0902FCD0401E10BD10B59A
:10036000203AC0F00B80B1E81850203AA0E81850AD
:10037000B1E81850A0E81850BFF4F5AF5FEA027C6E
:1003800024BFB1E81850A0E8185044BF18C918C0DD
:10039000BDE810405FEA827C24BF51F8043B40F87E
:1003A000043B08BF7047D20728BF31F8023B48BF63
:1003B00011F8012B28BF20F8023B48BF00F8012BA1
:1003C00070474FF0000200B5134694469646203918
:1003D00022BFA0E80C50A0E80C50B1F12001BFF4FE
:1003E000F7AF090728BFA0E80C5048BF0CC05DF864
:1003F00004EB890028BF40F8042B08BF704748BFB2
:1004000020F8022B11F0804F18BF00F8012B704725
:10041000704770477047000070B5064C7C44064D2D
:100420007D4403E0206820448047241DAC42F9D17C
:1004300070BD0000983801009C38010000487047EA
:1004400078A2002000487047ACA2002070B5064694
:1004500000F02EF8056806F10B0020F00704B44206
:100460009CBF002070BD2B466A68BAB11068A042DC
:1004700010D304F1080188423CBF5068586007D38C
:100480005168101941601168091B016058601460BF
:10049000101D70BD13465268002AE7D12146284638
:1004A00000F00EF80028DED170BD00F07AB8000030
:1004B0000048704780A2002070477047704770471F
:1004C00038B504460A4600206946AFF3008000288C
:1004D00008BF38BD02460099204600F0C1F801204F
:1004E00038BD012000F0E4B8F8B5AFF30080054650
:1004F00000200C46102000BF0646A819A0420DD9C6
:10050000324669460020AFF30080070008BF00F0C4
:10051000CFF80098A04218BF0546C419FFF7C8FFDE
:1005200005600746F01D20F007004619284600F038
:100530000AF8B44208BFF8BDA21B31463868BDE8CE
:10054000F84000F08DB800210160C0E9011070474B
:100550001020704770B50446051FFFF7A9FF00681B
:10056000002C14BF446870BD002C18BFAC423CBFC7
:1005700020466468F8D301680A18AA4218BF45608B
:1005800003D12A6805461144016028684119A14237
:100590001CBF6C6070BD6168696021680844286098
:1005A00070BD10B500F00DF8016919B100220261AB
:1005B000884701E08068804700F072F810B500F0CD
:1005C0006FF870B500F048F804680546A4B920201B
:1005D000FFF73CFF040011D0094900202C60C4E95A
:1005E00000010849A1602073206160610649A06193
:1005F00009B100F064F8E061204670BD00F050F8E9
:1006000000000000BD050008000000007546FFF76F
:1006100015FFAE4605006946534620F007008546A3
:1006200018B020B5FFF766FEBDE820404FF0000689
:100630004FF000074FF000084FF0000B21F00701CA
:10064000AC46ACE8C009ACE8C009ACE8C009ACE80D
:10065000C0098D467047000000487047B4A20020D2
:10066000034640688C46002818BF88423CBF0346BA
:100670004068F8D318681844884207D00CF103008A
:1006800020F00700001D411A521A0146081D0A6099
:10069000FFF760BF0446AFF300802046FFF7C3FDBD
:1006A000002000F037F8FFF7B3FD012000F026F836
:1006B00010B500F037F8BDE8104000F026B810B5CE
:1006C0008820FFF7C3FE002801D00021017010BD73
:1006D000802902D808B1017809B1002070470121B2
:1006E00000F8081B704718B100F10802914201D0D0
:1006F0000020704700210170704700000149182058
:10070000ABBEFEE7260002007047002801D0FFF7CD
:10071000F5BF704710B500F047F8BDE81040FFF78F
:10072000F4BF000010B5012805D0002103A000F09F
:1007300021F8012010BD09A1F8E7000053494752F4
:10074000544D454D3A204F7574206F6620686561A1
:1007500070206D656D6F7279000000003A20486569
:100760006170206D656D6F727920636F7272757044
:100770007465640070B505460C460A2000E06D1CE7
:1007800000F02AF835B128780028F8D102E0641C7E
:1007900000F022F814B120780028F8D1BDE87040AC
:1007A0000A2000F019B8000010B5002102A0FFF7E0
:1007B000E1FF012010BD0000534947414252543A25
:1007C0002041626E6F726D616C207465726D696E2E
:1007D0006174696F6E00000008B569468DF800000D
:1007E0000320ABBE08BD00BFFEE77047704770B581
:1007F00004461D460023B5F5804F1BD154F8223026
:1008000003F04043D1E9000640EA06108E6840EA52
:1008100006208E8940EA0646088A401E46EA0056AF
:10082000087D801E46EA00608E693043034344F829
:10083000223003E06FF0704044F82200002070BDC9
:1008400010B503460022086853F8202011480240E2
:10085000D1E901042043CC6820430C6920434C6952
:1008600020438C692043CC6920430C6A20434C6AA6
:1008700020438C6A2043CC6A20430C6B2043024304
:100880008868082801D142F04002086843F8202017
:10089000002010BD8000F7FF30B503460024501C37
:1008A00053F8204004F04044D1E9000540EA051027
:1008B0008D6840EA05208D8940EA0545088A401E7A
:1008C00045EA0055087D801E45EA00608D69284391
:1008D0000443501C43F82040002030BD0146002254
:1008E00009B901207047486A00B100BF022081F8B1
:1008F00035000868026817480240D1E9010318432F
:10090000CB6818430B6918434B6918438B6918432C
:10091000CB6918430B6A18430243486A042803D181
:10092000D1E90B0318430243086802600868426972
:1009300022F00702486A0243486A042801D1886A03
:100940000243086842610020C864012081F8350034
:100950000020C7E73F8010F031B5002400F014F903
:10096000044600BF00F010F9001B00998842F9D33B
:1009700038BD0000F8B502460B46002500240020D3
:100980000021DEE0012606FA01F51E6806EA0504EC
:10099000AC4270D15E68022E02D05E68122E13D176
:1009A000CF0802F1200656F827004E07F70E0F2653
:1009B000BE40B0434F07FF0E1E69BE403043CF0814
:1009C00002F1200646F8270010684F000326BE40BB
:1009D000B0431E7906F003064F00BE40304310605E
:1009E0005E68012E08D05E68022E05D05E68112E6A
:1009F00002D05E68122E13D190684F000326BE40CD
:100A0000B0434F00DE68BE4030439060506801261E
:100A10008E40B0431E79C6F300168E4030435060BE
:100A2000D0684F000326BE40B0434F009E68BE40D2
:100A30003043D0605E6806F08056B6F1805F7FD1AB
:100A400000BF424E366846F48046404F3E603E4608
:100A5000366806F48046009600BF3D4E8F0856F873
:100A600027008E07370F0F26BE40B043394EB242E3
:100A700002D1002629E063E0374EB24201D10126BF
:100A800023E0364EB24201D102261EE0344EB2427D
:100A900001D1032619E0334EB24201D1042614E0FD
:100AA000314EB24201D105260FE0304EB24201D1A3
:100AB00006260AE02E4EB24201D1072605E02D4E51
:100AC000B24201D1082600E009268F073F0FBE4041
:100AD00030431F4E8F0846F82700274E3068A0434A
:100AE0005E6806F48036B6F5803F00D12043224E82
:100AF0003060361D3068A0435E6806F40036B6F5F7
:100B0000003F00D120431C4E361D3060361D30683A
:100B1000A0435E6806F48016B6F5801F00D120431E
:100B2000154E08363060361D3068A0435E6806F406
:100B30000016B6F5001F00D120430F4E0C36306072
:100B4000491C1029FFF41EAFF8BD000044380240D4
:100B50000838014000000240000402400008024042
:100B6000000C024000100240001402400018024035
:100B7000001C024000200240003C01400148006887
:100B8000000C7047002004E0014800687047000036
:100B90001400002002480068401C014908607047AA
:100BA0001400002010B50A48006840F4007008499D
:100BB00008600846006840F480600860032000F088
:100BC00067F80F2000F006F800F016F8002010BDBE
:100BD000003C024070B5044600F0C6F94FF47A714B
:100BE000B0FBF1F5284601F04AF800222146501EDC
:100BF00000F010F8002070BD704700BF00F01F0229
:100C0000012191404209920002F1E022C2F8001154
:100C100000BF70472DE9F05F80460D46164600275D
:100C200002F002FD074639462A46334601F0070026
:100C3000C0F1070ABAF1040F02D94FF0040A01E02B
:100C4000C0F1070AD14600F1040ABAF1070F02D237
:100C50004FF0000A01E0A0F1030AD4464FF0010A68
:100C60000AFA09FAAAF1010A0AEA020A0AFA0CFACD
:100C70004FF0010B0BFA0CFBABF1010B0BEA030B72
:100C80004AEA0B042146404602F0BAFCBDE8F09F58
:100C900000BF00F00702064B19684FF6FF0319402A
:100CA000044B0B4343EA0221014B196000BF70471C
:100CB0000CED00E00000FA0570B504460E46002574
:100CC000A748006800F00F00B0426FD2A4490E7030
:100CD0000846006800F00F00B04201D0012070BD4E
:100CE000207800F00200022807D19E48006820F01A
:100CF000F000A16808439B490860207800F00100DB
:100D000000283ED06068012807D19648083800685E
:100D1000C0F34040B8B90120E1E76068022802D082
:100D20006068032807D18F4808380068C0F3406026
:100D300048B90120D3E78B4808380068C0F3400069
:100D400008B90120CBE78748006820F003006168FC
:100D5000084384490860FFF717FF054660680128CB
:100D600010D108E0FFF710FF401B41F288318842A4
:100D700001D90320B3E77B48006800F00C00042889
:100D8000F0D1CDE06068022811D108E0FFF7FCFE49
:100D9000401B41F28831884201D903209FE7714806
:100DA000006800F00C000828F0D1B9E024E0606889
:100DB000032810D108E0FFF7E7FE401B41F288311D
:100DC000884201D903208AE76648006800F00C00D9
:100DD0000328F0D1A4E008E0FFF7D6FE401B41F263
:100DE0008831884201D9032079E75E48006800F025
:100DF0000C000028F0D193E0207800F002000228D7
:100E000007D15848006820F0F000A1680843554910
:100E10000860207800F00100002877D06068012881
:100E200007D1504808380068C0F34040B8B90120E5
:100E300055E76068022802D06068032807D1494856
:100E400008380068C0F3406048B9012047E74548CA
:100E500008380068C0F3400008B901203FE7414866
:100E6000006820F00300616808433E490860FFF70E
:100E70008BFE05466068012810D108E0FFF784FE6C
:100E8000401B41F28831884201D9032027E73548C9
:100E9000006800F00C000428F0D137E060680228F8
:100EA00010D108E0FFF770FE401B41F28831884204
:100EB00001D9032013E72B48006800F00C00082834
:100EC000F0D123E06068032810D108E0FFF75CFE52
:100ED000401B41F28831884201D90320FFE62148B6
:100EE000006800F00C000328F0D10FE008E0FFF7E5
:100EF0004BFE401B41F28831884201D90320EEE6C7
:100F00001848006800F00C000028F0D114490E7059
:100F10000846006800F00F00B04201D00120DEE674
:100F2000207800F00400042807D10E48006820F45F
:100F3000E050E16808430B490860207800F00800A1
:100F4000082808D10748006820F46040216940EA79
:100F5000C100044908600F20FFF73CFE0020BEE6F8
:100F6000003C02400838024010B500F019F8094969
:100F7000096801F0F001F02292FAA2F2B2FA82F2CC
:100F8000D140054A515CC8400449086008460068E1
:100F900010BD000008380240F0370108180000209A
:100FA00070B50021002200230020274C246804F0A3
:100FB0000C0424B1042C04D0082C41D103E02348B4
:100FC00040E023483EE0204C241F246804F03F0109
:100FD0001D4C241F246804F4800484B11C4CB4FB11
:100FE000F1F5194C241F246847F6C076344096FA70
:100FF000A6F6B6FA86F6F44005FB04F20FE0134CB1
:10100000B4FBF1F5104C241F246847F6C076344039
:1010100096FAA6F6B6FA86F6F44005FB04F20A4CF8
:10102000241F246804F440344FF4403595FAA5F5A4
:10103000B5FA85F5EC40641C6300B2FBF3F001E007
:10104000024800BF00BF70BD083802400024F40011
:1010500000127A0038B504460025207800F001001F
:10106000002866D0F748006800F00C0004280DD076
:10107000F448006800F00C00082813D1F148001F64
:10108000006800F48000B0F5800F0BD1ED480838FF
:101090000068C0F3404000284BD06068002848D169
:1010A000012038BD0020E749891F0870FFF76CFD5B
:1010B000054608E0FFF768FD401B41F28831884291
:1010C00001D90320EDE7DF4808380068C0F340404D
:1010D0000028EFD12079DB49891F08706068A0B132
:1010E000FFF752FD054608E0FFF74EFD401B41F2B9
:1010F0008831884201D90320D3E7D24808380068F4
:10110000C0F340400028EFD013E0FFF73DFD054657
:1011100008E0FFF739FD401B41F28831884201D9D0
:101120000320BEE7C74808380068C0F340400028E5
:10113000EFD1207800F00200022869D1C148006890
:1011400000F00C0058B1BF48006800F00C000828FF
:1011500021D1BC48001F006800F48000D8B9B9480C
:1011600008380068C0F3400020B1E068012801D0D1
:10117000012096E7B3480838006820F0F800F8220C
:1011800092FAA2F2B2FA82F2216991400843AD4983
:10119000083908603CE0E06828B30120AA490860EB
:1011A000FFF7F2FC054606E0FFF7EEFC401B642863
:1011B00001D9032075E7A34808380068C0F3400050
:1011C0000028F1D09F480838006820F0F800F82285
:1011D00092FAA2F2B2FA82F2216991400843994947
:1011E0000839086014E0002097490860FFF7CCFC3C
:1011F000054606E0FFF7C8FC401B642801D9032020
:101200004FE7904808380068C0F340000028F1D14B
:10121000207800F0080008282CD16069A8B10120CE
:101220008A490860FFF7B0FC054606E0FFF7ACFC12
:10123000401B642801D9032033E782486C300068E2
:10124000C0F340000028F1D014E000207F4908607E
:10125000FFF79AFC054606E0FFF796FC401B642862
:1012600001D903201DE777486C300068C0F34000C7
:101270000028F1D1207800F0040004286CD100BFD0
:1012800070483830006840F080506E49383108604E
:101290000846006800F08050009000BF6C4800686D
:1012A00040F480706A490860FFF76EFC054606E06E
:1012B000FFF76AFC401B642801D90320F1E664486B
:1012C000006800F480700028F2D000205D49683189
:1012D0000870FFF759FC054608E0FFF755FC401B76
:1012E00041F28831884201D90320DAE65548683056
:1012F0000068C0F340000028EFD1207A51496831DE
:101300000870A068A0B1FFF73FFC054608E0FFF7B2
:101310003BFC401B41F28831884201D90320C0E6E2
:10132000484868300068C0F340000028EFD013E060
:10133000FFF72AFC054608E0FFF726FC401B41F2B8
:101340008831884201D90320ABE63E486830006806
:10135000C0F340000028EFD1A069E8B33948006825
:1013600000F00C00082869D0A069022850D10020A4
:1013700035490866FFF708FC054606E0FFF704FC60
:10138000401B642801D903208BE62E4808380068EA
:10139000C0F340600028F1D1D4E90701084347F6C3
:1013A000C07292FAA2F2B2FA82F2616A91400843E4
:1013B0000122A16AC2EB51014FF4403292FAA2F22B
:1013C000B2FA82F2914008434FF0706292FAA2F2B0
:1013D000B2FA82F2E16A00E032E091400843194932
:1013E000091F0860012018490866FFF7CDFB054674
:1013F00006E0FFF7C9FB401B642801D9032050E633
:10140000104808380068C0F340600028F1D017E0A9
:1014100000200D490866FFF7B7FB054606E0FFF719
:10142000B3FB401B642801D903203AE6054808387D
:101430000068C0F340600028F1D101E0012030E6EF
:1014400000202EE60838024000004742800E474246
:101450000070004010B504460CB9012010BD94F88E
:10146000510028B9002084F85000204600F036F8DA
:10147000022084F851002068006820F040002168B4
:101480000860D4E901010843E16808432169084381
:1014900061690843218B01F400710843E169084345
:1014A000216A0843A16A0843216808600421A069F1
:1014B00001EA1040616A0843216848602168E06AD7
:1014C00008612068C06920F400602168C8610020BC
:1014D0006065012084F851000020BFE770472DE9C6
:1014E000FC4104460E4615461F464FF0000894F88E
:1014F000510001287AD106B115B90120BDE8FC815F
:1015000000BF94F85000012801D10220F6E7012025
:1015100084F8500000BF222084F85100002060654C
:10152000A663A587E587A064E064A086E086A0683E
:10153000B0F5004F05D12068006820F48040216894
:101540000860A06AB0F5005F0DD100BF2068006898
:1015500020F40050216808602068006840F40050C2
:101560002168086000BF6068B0F5827F0ED1A06876
:1015700060B900BF002084F8500000BF2B463246FF
:1015800031462046009700F0A5F9B7E720680068CB
:1015900000F04000402805D02068006840F040007E
:1015A00021680860E06810BB12E03B460022012180
:1015B000204601F09BFF08B103209FE72068C06828
:1015C000C1B2A26B501CA0631170E08F401EE08777
:1015D000E08F0128E9DCA06AB0F5005F28D120681F
:1015E000006840F480502168086021E092E012E039
:1015F0003B4600220121204601F078FF08B103207C
:101600007CE72068C068A16B0880A06B801CA06389
:10161000E08F401EE087E08F0128E9DCA06AB0F58A
:10162000005F05D12068006840F4805021680860A0
:101630003B4600220121204601F058FF08B103205B
:101640005CE7E06838B92068C068C1B2A26B501C82
:10165000A063117006E02068C068A16B0880A06BD1
:10166000801CA063E08F401EE087A06AB0F5005F99
:1016700011D13B4600220121204601F037FF28B15D
:10168000606D40F002006065032037E72068C068A5
:1016900080B2019000BF6068B0F5827F0DD1A06874
:1016A000B0F5004F03D0A068B0F5806F05D1206879
:1016B000006820F0400021680860012084F8510093
:1016C00020688068C0F30018A06AB0F5005F1BD1E5
:1016D000B8F1000F18D0606D40F00200606500BFE7
:1016E0002068006820F400502168086020680068C5
:1016F00040F400502168086000BF00BF002084F85B
:10170000500000BF0120F9E600BF002084F850001F
:1017100000BFF3E60220F1E6F8B504460E46154692
:101720001F4694F85100012873D106B10DB901206C
:10173000F8BD00BF94F85000012801D10220F7E75E
:10174000012084F8500000BF122084F851000020CE
:1017500060652663A586E586E064A064A087E087CF
:10176000A06AB0F5005F0DD100BF2068006820F4CA
:101770000050216808602068006840F4005021682B
:10178000086000BFA068B0F5004F05D12068006870
:1017900040F48040216808602068006800F0400044
:1017A000402805D02068006840F0400021680860AB
:1017B000E06878BB606810B1E08E012808D1216B29
:1017C000481C206308782168C860E08E401EE086CF
:1017D00011E03B4600220221204601F087FE08B1BD
:1017E0000320A5E7216B481C206308782168C860A6
:1017F000E08E401EE086E08E0028EADCA06AB0F5AC
:10180000005F38D12068006840F48050216808608B
:1018100031E05DE0FFE7606810B1E08E012809D19A
:10182000206B00882168C860206B801C2063E08EDC
:10183000401EE08612E03B4600220221204601F0D5
:1018400055FE08B1032073E7206B00882168C8604B
:10185000206B801C2063E08E401EE086E08E002816
:10186000E9DCA06AB0F5005F05D12068006840F4AB
:101870008050216808603B4600220221204601F08A
:1018800035FE28B1606D40F01000606503204FE721
:101890003B4601228021204601F028FE28B1606DE0
:1018A00040F010006065032042E7A06838B900BF2F
:1018B0002068C068009020688068009000BF012008
:1018C00084F8510000BF002084F8500000BF2FE7CB
:1018D00002202DE72DE9F84F04460E4617461D4617
:1018E000DDF828904FF00008C24694F85180B8F116
:1018F000010F02D0B8F1220F76D10EB107B115B9A0
:101900000120BDE8F88F00BF94F85000012801D1F4
:101910000220F6E7012084F8500000BF94F851003F
:10192000012802D1322084F8510000206065A763AD
:10193000A587E5872663A586E586A064E064A06A9E
:10194000B0F5005F0DD100BF2068006820F40050A2
:10195000216808602068006840F400502168086031
:1019600000BF2068006800F04000402805D02068D3
:10197000006840F0400021680860E068B0F5006F42
:1019800075D1606830B16068B0F5827F0CD1E08EAF
:10199000012809D1206B00882168C860206B801C59
:1019A0002063E08E401EE086E08EF0B9A06AB0F5BC
:1019B000005F05D12068006840F48050216808600D
:1019C0004B4600220121204601F090FD08B1032082
:1019D00097E72068C068A16B0880A06B801CA0639B
:1019E000E08F401EE087C7E01AE131E04B4600225D
:1019F0000221204601F07AFD08B1032081E7206B27
:101A000000882168C860206B801C2063E08E401E27
:101A1000E086E08E48B9A06AB0F5005F05D1206885
:101A2000006840F48050216808604B460022012184
:101A3000204601F05BFD08B1032062E72068C06822
:101A4000A16B0880A06B801CA063E08F401EE08724
:101A5000E08E0028CADC60680028C4D14B46002212
:101A60000121204601F042FD10B1032049E70AE0C0
:101A70002068C068A16B0880A06B801CA063E08F09
:101A8000401EE08778E0606830B16068B0F5827F22
:101A90000BD1E08E012808D1216B481C2063087807
:101AA0002168C860E08E401EE086E08ED0B9A06A52
:101AB000B0F5005F05D12068006840F480502168CF
:101AC00008604B4600220121204601F00FFD08B1BD
:101AD000032016E72068C068A16B0870E08F401EE5
:101AE000E08749E030E04B4600220221204601F029
:101AF000FDFC08B1032004E7216B481C2063087833
:101B00002168C860E08E401EE086E08E48B9A06A79
:101B1000B0F5005F05D12068006840F4805021686E
:101B200008604B4600220121204601F0DFFC08B18D
:101B30000320E6E62068C068C1B2A26B501CA06317
:101B40001170E08F401EE087E08E0028CBDC6068DB
:101B500090B94B4600220121204601F0C7FC08B194
:101B60000320CEE62068C068C1B2A26B501CA063FF
:101B70001170E08F401EE087A06AB0F5005F11D1C0
:101B80004B4600220121204601F0B0FC28B1606DD7
:101B900040F0020060650320B3E62068C06880B2B0
:101BA000009000BF4B4601228021204601F09EFCA0
:101BB00028B1606D40F0100060650320A1E60120AF
:101BC00084F8510020688068C0F3001AA06AB0F55C
:101BD000005F1FD1BAF1000F1CD0606D40F0020011
:101BE0006065A06AB0F5005F0DD100BF2068006895
:101BF00020F40050216808602068006840F400501C
:101C00002168086000BF00BF002084F8500000BFBA
:101C1000012076E600BF002084F8500000BF70E687
:101C200002206EE670B504460E4615460CB901203A
:101C300070BD94F83D0028B9002084F83C0020468F
:101C400000F01CF804F108012068FEF7F9FD3146A8
:101C5000A2682068FEF720FE2946236BD4E9010222
:101C6000FEF7C5FDA168206850F8210040F0010092
:101C7000A268216841F822000020D9E7704770B5BA
:101C800004462546681EB0F1807F01D301200FE095
:101C9000681E4FF0E02148610F214FF0FF3001F046
:101CA000AFFC00204FF0E021886107200861002090
:101CB00070BD7047704710B504460CB9012010BDC7
:101CC00094F8390028B9002084F83800204600F044
:101CD0000CF8022084F83900211D206800F050F92A
:101CE000012084F839000020E9E7704701460868C0
:101CF000C06840F001000A68D0600868006840F0E1
:101D000001000A68106000207047704710B5044653
:101D100020680069C0F34000D8B12068C068C0F3F3
:101D20004000B0B16FF00200216808610120207608
:101D30002068806900F0030018B12046FFF7E5FF36
:101D400005E0204600F0ADF8204600F0ABF800209A
:101D5000207620680069C0F38000D8B12068C06890
:101D6000C0F38000B0B16FF0040021680861022068
:101D700020762068806900F4407018B12046FFF793
:101D8000C4FF05E0204600F08CF8204600F08AF8F9
:101D90000020207620680069C0F3C000D8B1206818
:101DA000C068C0F3C000B0B16FF0080021680861DE
:101DB000042020762068C06900F0030018B1204696
:101DC000FFF7A3FF05E0204600F06BF8204600F087
:101DD00069F80020207620680069C0F30010D8B1AF
:101DE0002068C068C0F30010B0B16FF01000216827
:101DF0000861082020762068C06900F4407018B19E
:101E00002046FFF782FF05E0204600F04AF8204612
:101E100000F048F8002020762068006900F00100FA
:101E200058B12068C06800F0010030B16FF00100C7
:101E300021680861204600F037F820680069C0F387
:101E4000C01058B12068C068C0F3C01030B16FF046
:101E50008000216808612046FFF72BFF2068006999
:101E6000C0F3801058B12068C068C0F3801030B152
:101E70006FF0400021680861204600F039F82068C2
:101E80000069C0F3401058B12068C068C0F340102A
:101E900030B16FF02000216808612046FFF70AFF8B
:101EA00010BD70477047000070B504462068B0F15F
:101EB000804F11D00A49084478B90A4801F049F81E
:101EC00048B109490748BC3802F07CFC0546294660
:101ED000064801F093FE00E000BF00BF70BD0000A7
:101EE0000000FFBFA09E002000F001F02C9D00200C
:101EF000704700BFFEE77047704700001448006855
:101F000040F47000124908601248006840F0010077
:101F10001049086000200F49083108600D4800682A
:101F20000D4908400B4908600C48091D0860081F4E
:101F3000006820F48020091F0860002005490C314A
:101F400008604FF000600249803908607047000067
:101F500088ED00E000380240FFFFF6FE103000245C
:101F600010B50248FFF7D2FE10BD000000A200200D
:101F700010B50248FFF7CAFE10BD00003CA20020C9
:101F8000002202682C4B98420ED0B0F1804F0BD04B
:101F90002A4B984208D02A4B984205D0294B9842A8
:101FA00002D0294B984201D1012300E000231BB14C
:101FB00022F070024B681A431F4B984220D0B0F1B8
:101FC000804F1DD01D4B98421AD01D4B984217D000
:101FD0001C4B984214D01C4B984211D01B4B98427A
:101FE0000ED01B4B98420BD01A4B984208D01A4B7C
:101FF000984205D0194B984202D0194B984201D112
:10200000012300E000231BB122F44072CB681A4385
:1020100002608B68C3620B688362074B984202D0F0
:10202000094B984201D1012300E000230BB10B6959
:102030000363012343617047000001400004004036
:1020400000080040000C0040000401400040014036
:10205000004401400048014000180040001C0040BE
:102060000020004000BFFEE70FB583B003A80FC8F3
:1020700000F012FDCDE9010107B000BD1FB5DDE99B
:10208000010100F023FC04B010BD1CB500F064FE9B
:10209000CDE900011CBD0FB583B003A80FC800F047
:1020A000F9FBCDE9010107B000BD1CB5044600F005
:1020B00006F8204600F016FCCDE900011CBD10B565
:1020C000FEF768FD10BD000008B500BF6748006856
:1020D00040F00100654908600846006800F0010012
:1020E000009000BF00BF0846006840F00200086092
:1020F0000846006800F00200009000BF00BF0846DC
:10210000006840F0040008600846006800F0040021
:10211000009000BF00BF0846006840F0080008605B
:102120000846006800F00800009000BF00BF0846A5
:10213000006840F0100008600846006800F01000D9
:10214000009000BF00BF0846006840F02000086013
:102150000846006800F02000009000BF00BF08465D
:10216000006840F0400008600846006800F0400049
:10217000009000BF00BF0846006840F08000086083
:102180000846006800F08000009000BF00BF37489C
:102190001430006840F480703449143108600846F7
:1021A000006800F48070009000BF00BF084600681F
:1021B00040F4007008600846006800F40070009069
:1021C00000BF00BF081F006840F00050091F0860F2
:1021D0000846006800F00050009000BF00BF234890
:1021E0000830006840F001002049083108600846C6
:1021F000006800F00100009000BF00BF1B481030D5
:10220000006840F400401949103108600846006831
:1022100000F40040009000BF00BF1448006840F484
:102220008000124908600846006800F480000090B1
:1022300000BF00BF0D481430006840F001000B499A
:10224000143108600846006800F00100009000BFEB
:1022500000BF081F006840F00100091F0860084621
:10226000006800F00100009000BF08BD3038024057
:1022700001460448006800F50040024A1060002052
:10228000704700000000002000BF01F0D7F8FCE715
:1022900006461348007800F0010040B9104801F0EC
:1022A0007BFF20B10F4806600D48AFF3008000BFF0
:1022B0000C480468002504E02946204602F00EFC84
:1022C0006D1C6069A842F7D800BF0120FEF744FBEF
:1022D000044908680021C16100BF01F0AFF8E7E7D9
:1022E0002C000020300000202DE9F04107460C466C
:1022F00015461E4606484560866003200449C860AE
:10230000084604603846FEF735FB0020BDE8F08142
:1023100080A0002000BFFEE72DE9F04107460C46F3
:1023200015461E4601200749886008464560022080
:10233000C8600846046006613846FEF71BFB0020B3
:10234000BDE8F08180A0002030B58FB0044625465E
:10235000294601A800F078FE182201A907A8FDF778
:10236000FEFFDDE90901CDE90D010648DDE90D12A9
:1023700003880B44038043881344438000BF0FB09D
:1023800030BD0000009D002086B0FEF70BFC00F081
:10239000DDF8FFF799FE00F07FFD00F0AFFA00F0E6
:1023A000FFFA00F025FB00F0EFFC394A4FF0C04186
:1023B000384801F009F83848384A394900230261A1
:1023C0004161836100BF00F11003836000BF00BF63
:1023D00001F046F90121304801F02EF9314801F0B1
:1023E00015F831A1324801F04DF832A1344801F01E
:1023F00049F80221334801F057F80221324800F031
:10240000F3FF0121314800F0EFFF4FF4A0704FF4CB
:10241000F07300221146009002A803F04BFB2C4CF5
:1024200002A904A803F03DFB05466E4628882080DB
:1024300068886080A888A080E888E08021463046CF
:1024400003F02FFB064600BF9FED220A84ED030A2E
:1024500084ED020A9FED200A84ED050A84ED040A4A
:1024600000BF204600210A469FED1A0A80ED030AAC
:1024700080ED020A9FED190A80ED050A80ED040A3D
:102480000180428000BF00BF0520FEF765FAFBE730
:10249000FFFF07005CA00020FC9E0020000402401B
:1024A000100000208D280008757365720000000080
:1024B000A127000852656E64657265720000000015
:1024C000FD250008B5280008CD270008492300088D
:1024D000009D0020000000009A99993E9A99193FAA
:1024E00008B50646344600BF206A834600BF00BFD9
:1024F000DBF83C0007460020009081461DE007F015
:102500000100B8B109F101086069404500D810E048
:1025100008EB4802216901EB8200856800BF05E0F5
:10252000D4F820A05046E96888476D68002DF7D19F
:1025300000BF00BF09F101097F08002FDFD100BFF4
:102540000020E06100BF00F079FFD0E700B593B054
:1025500000BF2748006840F08050254908600846C1
:10256000006800F08050019000BF00BF2148006863
:1025700040F480401F4908600846006800F480402D
:10258000019000BF012002900390022008904105B5
:10259000099110210A914FF4B4710B9102210C9111
:1025A00007210D9102A8FEF755FD08B1FFF7B2FE15
:1025B0000F200E9002200F90002010904FF4A0509A
:1025C0001190129005210EA8FEF776FB08B1FFF7D7
:1025D000A1FEFEF7D3FA41F20101884205D1064877
:1025E000006840F480700449086013B000BD00002A
:1025F0004038024000700040003C02408EB00DA800
:1026000000BF6049D1F85C0101F038FF054600BF0A
:102610005D4800F05BFF5D4A11885A4AD2F85C01C0
:1026200001F047FF574909B11C3100E0002108467D
:1026300002F0FBFB534909B11C3100E000210846C0
:1026400053A102F021FC00BF5048008804464D49C8
:1026500009B11C3100E000210846214602F0FEFBD2
:10266000484909B11C3100E00021084648A102F0A8
:102670000BFC00BF454840880446424909B11C3163
:1026800000E000210846214602F0E8FB2C463D49C7
:1026900009B11C3100E00021084601680F464FF6E1
:1026A000FF7800260020A080E08005E0B95D42466A
:1026B000204602F035FD761CB85D0028F6D100BF3B
:1026C0003248408800F56E4080B2C8210B46002297
:1026D000CDE90010114605F5087001F0D8FD2E492E
:1026E00003C9CDE9070103A832210A460A230C24B5
:1026F000016042608360C46000BF284903C9CDE91E
:102700000101059800EBD071019AA2EB61010391E0
:10271000069800EBD071029AA2EB6101049100BF10
:1027200009A803990160049941600599816006999F
:10273000C16000BF04464AF2A002214605F50770B9
:1027400002F0B9FA0F48D0F85C6100BF00BF00BFCB
:10275000F068044604E0204602F090FDA0680446BC
:10276000002CF8D100BF00BF0649D1F85C01016818
:102770000C460023054A034801F0E7FE002000F064
:102780006BFE45E7FC9E002071220008009D0020A2
:102790002020202000000000403701080400002015
:1027A00008B5684600BF0121064800F045FF00BF9C
:1027B00005480068401C044908600A2000F04CFEEF
:1027C000F6E70000FC9E002000000020F0B58FB06E
:1027D00005462F46394601A800F036FC182201A90B
:1027E00007A8FDF7BCFDDDE90701CDE90D0118489B
:1027F000D0F858410D9E04F11C0002F016FB314642
:1028000004F11C0002F02AFB00BF114811A6D0F809
:102810005841314604F11C0002F012FB00BF0C4885
:10282000D0F858410E9E314604F11C0002F016FB10
:1028300000BF0A4909880D980844094908600749FA
:1028400049880E98401A064948600FB0F0BD000054
:10285000FC9E00202020202000000000009D002081
:102860000400002010B504462146024800F01FFD78
:1028700010BD00005CA0002010B5044621460248AF
:1028800000F0DCFC10BD00005CA000200146002030
:10289000704700000FB583B006980090044803A964
:1028A0000EC901F00BF8CDE9010107B000BD000031
:1028B0002C9D0020014604480068401C024A10601C
:1028C00010460068704700000C00002070B50446F8
:1028D0000D462A462146024801F012F970BD00005B
:1028E0002C9D00201CB504462146034801F0B7F991
:1028F000CDE900011CBD00002C9D002010B54FF05B
:10290000007023494860002121488160C1604FF474
:10291000806101610021416181614FF48071C16179
:102920004902016200214162032181620021C162EA
:1029300001631848164908600846FDF7CFFF08B143
:10294000FFF7E8FC002014494860802112488160AC
:102950000021C1604FF4806101614900416189003B
:1029600081610021C1614FF40031016200214162A7
:10297000032181620021C1620163084806490860A1
:102980000846FDF7ABFF08B1FFF7C4FC10BD00001F
:1029900008A100205864024058A10020286002408D
:1029A00010B511481149086030211048C16100215B
:1029B0008160416102210161002181620721C162C0
:1029C0000021C16001624FF40071816110214162F8
:1029D0004FF48270054948600846FEF73BFD08B198
:1029E000FFF798FC10BD0000003C0040A8A10020AB
:1029F00010B52548006840086421B0FBF1F0441E82
:102A000022482349086031212148C16044600021E7
:102A100001618160FFF74FF908B1FFF77BFC1C48AB
:102A2000FFF764F908B1FFF775FC17480068400824
:102A30006421B0FBF1F0441E0807164908606321C9
:102A40001448C16044600A21016100218160FFF7E0
:102A500032F908B1FFF75EFC0E48FFF747F908B1FD
:102A6000FFF758FC012200211920FEF7D3F81920A6
:102A7000FEF7C3F8012200211C20FEF7CBF81C2032
:102A8000FEF7BBF810BD0000180000200000014058
:102A900000A200203CA200202DE9FF4782B084491B
:102AA000D1F85C014168894681484FF44045D0F82F
:102AB0005C312946186800BF8288B0F806C002FB66
:102AC0000CF6324604E0D0F808C02CF81210521E62
:102AD000002AF8DC00BF00BF059C754909B11C3114
:102AE00000E000210846816803E0002203685A5490
:102AF000491E0029F9DA0021416000BF6C4909B183
:102B00001C3100E0002108466AA102F0BDF96849C5
:102B100009B11C3100E0002108466FA102F0B4F9B0
:102B2000634AA16B0AB11C3200E00022104602F099
:102B3000BBF95F4909B11C3100E00021084669A1D9
:102B400002F0A2F9A26B1168594A0AB11C3200E0E6
:102B50000022104602F0A8F9554909B11C3100E0E5
:102B60000021084663A102F08FF9A26B52F8041C01
:102B70004F4A0AB11C3200E00022104602F094F9DC
:102B80004B4909B11C3100E0002108465CA102F06C
:102B90007BF9474AE16B0AB11C3200E00022104683
:102BA00002F082F9424909B11C3100E000210846D7
:102BB00056A102F069F95949D1F8F40000F13C013D
:102BC0000D463B4909B11C3100E000210846294669
:102BD00002F036F9364909B11C3100E000210846FF
:102BE0004FA102F051F9324A05990AB11C3200E0B6
:102BF0000022104602F058F92D4909B11C3100E0BD
:102C0000002108464DA102F03FF94449D1F8F400F3
:102C1000876900BFD1F8F400C1698D0813E057F847
:102C20002510234A0AB11C3200E00022104602F0AF
:102C30003BF91F4909B11C3100E00021084644A1BD
:102C400002F0FEF86D1E002DE9DA4D46184909B173
:102C50001C3100E00021084606684FF6FF7A4FF06D
:102C600000080020A880E88007E016F80810524607
:102C7000284602F055FA08F1010816F80800002865
:102C8000F3D100BF0A49D1F85C0101680D4608483C
:102C900001F022FC00200090019000BF2D4800F0C0
:102CA00058F90028FAD0DDE9000106B0BDE8F08748
:102CB000FC9E002048617264204661756C7420455A
:102CC00072726F7220617420616464726573732024
:102CD0003A20200A000000000A50437E7E7E7E7E5D
:102CE0007E0000000A285043202D2031297E7E7E60
:102CF0007E7E7E000A285043297E7E7E7E7E7E0078
:102D00000A585053527E7E7E7E7E7E000A54687240
:102D10006561647E7E7E7E7E7E0000002C9D0020AC
:102D20000A54687265616420537461636B20616446
:102D300064726573737E7E7E7E7E7E000A5374614C
:102D4000636B2044756D70203A200A0A0000000071
:102D500020200000A09E00201FB50A4C04F1F800BE
:102D600001F0B4FCC4F8F400D4F8F40000F10C0154
:102D70000022684601F000FFDDE90001CDE9020113
:102D800004B010BD2C9D002010B501231A4604216B
:102D90003948FFF7A9FA0223002201213748FFF73B
:102DA000A3FA01231A4602213448FFF79DFA0123B2
:102DB0001A4604213148FFF797FA01231A460821E1
:102DC0002E48FFF791FA01231A4610212B48FFF7EE
:102DD0008BFA0223012204212948FFF785FA0223F6
:102DE000012210212648FFF77FFA02230122082141
:102DF0002348FFF779FA0223012220212048FFF718
:102E000073FA01231A464FF6FF711E48FFF76CFA5A
:102E10000C2302224FF6B3711B48FFF77DFA0C23F7
:102E200002224FF683711448FFF776FA0C23022230
:102E30004FF23F011548FFF76FFA0C2302223F21A2
:102E40001348FFF769FA0623022251020B48FFF7E5
:102E500063FA06230222D1020848FFF75DFA06232F
:102E6000022291020548FFF757FA00230122D103FD
:102E70000848FFF739FA10BD001002400008024070
:102E8000001C024000040240000C024000140240FA
:102E9000001802400000024010B54FF020401949D0
:102EA00008601948486004201849086000204860FC
:102EB000052088600020C860042008610020486167
:102EC00088611049886000210E48C16001611021AD
:102ED000416100218161C1614FF480610162002183
:102EE00041624FF4805181620021C16201634163FC
:102EF0008163064A1146FEF795FE08B1FFF70AFA0C
:102F000010BD0000A8A00020040100A0ECA000203B
:102F10000A6A02624A6A42628A6A8262CA6AC26251
:102F2000CA69C2618A6982614A6942610A69026149
:102F3000CA68C2608A6882604A6842600A68026041
:102F40000A6B02634A6B42638A6B8263CA6BC26319
:102F5000704730B587B004460020E06304F12400D8
:102F600001F0B3F82062206AB42859DDD4E90001E9
:102F7000C4E9040103AD04F1240105A801F0ACF893
:102F8000DDE90501CDE90101019A1001029A110163
:102F9000112290FBF2F2D010192291FBF2F2D11023
:102FA00001900291019A0192DDE90123C5E9002314
:102FB00000BFDDE90301C4E90001A268A169881A24
:102FC00000EBD07102EB6101A160E269E168501A87
:102FD00000EBD0714A10E1680A44E260E06B40F017
:102FE0000100E06394F84000012807D121682069BE
:102FF000401AA06161686069091AE16194F84200B1
:10300000012809D13C34207100206071A071206832
:1030100040F0020044F83C09012084F8400010E030
:1030200094F84000012809D184F84100002084F878
:103030004000E06B40F00400E06302E0012084F80F
:103040004200E06B07B030BD30B587B005460C4696
:10305000182101A8FDF7B5F9D4E90001CDE9010176
:10306000D4E90601CDE90301182201A92846FDF79C
:1030700076F907B030BD000070B504460D460DB9B5
:10308000012000E00020060006D0084D28682060DE
:10309000204600F04DFF04462868206068682168DB
:1030A00051F8141C6050204670BD000050390108D2
:1030B00030B505460B46144600BF4FF480201E492C
:1030C000086000BF00BF1BB100BF0220086005E020
:1030D00000BF4FF400301849086000BF00BF284609
:1030E00000F02CF800BF04201349086000BF07203F
:1030F0001CE000BF4FF480210F4A116000BF00BFE9
:1031000044FA00F101F0010119B100BF0221116080
:1031100005E000BF4FF40031074A116000BF00BF57
:1031200000BF0421044A116000BF401E0028E0DAFD
:10313000284600F00DF830BD1808024000BF4FF4DB
:103140000021024A116000BF7047000018080240C9
:1031500000BF0821014A116000BF704718080240F3
:1031600070B504460D460DB9012000E000200600B0
:1031700010D0134D2868206004F1240000F0D8FE20
:10318000A0F1240405F10C0104F12400FFF774FF01
:10319000A0F1240420460B49016000BF0A490160E8
:1031A00000BF0446286820606868216851F80C1C3C
:1031B0006050A868216851F8101C6050204670BD0E
:1031C00084390108EC390108D03901082DE9F84F9C
:1031D00004468A4616469846DDF82890216851F83C
:1031E0000C1C0819314602F034FC07460FB9BDE843
:1031F000F88F11480090216851F8101C08194346B7
:103200000022514601F0E9FB05463DB9216851F81D
:103210000C1C0819394602F0FEFBE8E700BF2761E5
:103220006661E560C4F82090C4F818800020E06171
:1032300000BF00BFDBE70000343C01082DE9F0418E
:1032400005460E4616B90020BDE8F08100BF6C6847
:1032500000BF21E0E068B0421DD32146284601F0BE
:1032600008FA06F12000E168814209D3324621467E
:10327000284600F08FF807463946284601F0BAF98B
:10328000214605F10C0001F0B5F9A869401CA861C0
:1032900004F11000D8E7A468002CDBD1FDF73CF85E
:1032A00006210160E869401CE8610020CCE770B5A8
:1032B00004460D4645B9E069401CE061FDF72CF875
:1032C00005210160084670BDFDF726F80021016068
:1032D000A5F11006FDF720F80068052803D1FDF7D9
:1032E0001BF80068EFE7314604F10C0001F0C1F96A
:1032F0003146204601F07EF92146204600F004F8D0
:10330000FDF70AF80068DEE72DE9F04107460E46B2
:1033100000BF3068022803D24FF0FF30BDE8F081D3
:1033200000BFB068846800BFB56800BF12E0E868FD
:1033300028441030A0420BD1E968E06810300844FE
:10334000E8602146304601F094F9386A401C386242
:1033500025466468002CEAD100BF7068846800BF0D
:103360007068054612E0E86828441030A0420BD18E
:10337000E968E06810300844E8602146304601F012
:1033800078F9386A401C38622546A468002CEAD1D6
:103390000020C3E710B5034600208C1804F110008C
:1033A000CC68A41A103CC460CA6010BD10B50446B5
:1033B000204601F087F9044604F10C0001F082F97F
:1033C000A0F10C04204610BD2DE9F04107460C4643
:1033D00015462646A5F11400F0603146384601F046
:1033E00009F9BDE8F08100007FB504460D46064BA3
:1033F0000FCB8DE80F00019402959DE80F00FCF7BC
:103400001CFF04B070BD0000703801081FB50446F1
:10341000054B0FCB8DE80F0001949DE80F00FCF7E2
:103420000CFF04B010BD00003038010870B5044630
:103430000D4629462046FFF749FA70BD1FB5054BDA
:103440000FCB8DE80F009DE80F00FCF7F6FE04B0EF
:1034500010BD0000503801081FB50446054B0FCBC6
:103460008DE80F0001949DE80F00FCF7E6FE04B024
:1034700010BD00002038010810B5FCF7E0FE002068
:1034800010BD00007FB504460D46064B0FCB8DE8FE
:103490000F00019402959DE80F00FCF7CEFE04B0EA
:1034A00070BD0000003801087FB504460D46064B8C
:1034B0000FCB8DE80F00019402959DE80F00FCF7FB
:1034C000BCFE04B070BD0000603801081FB50446A2
:1034D000054B0FCB8DE80F0001949DE80F00FCF722
:1034E000ACFE04B010BD0000403801082DE9F041E9
:1034F00004460E4617461D464FF00008FDF744FBF4
:103500008046002F3ED132E0681C78B32DB1FDF724
:103510003BFBA0EB0800A84229D92068406820F0B6
:10352000E000216848602068006820F040002168C1
:103530000860A06AB0F5005F0DD100BF2068006888
:1035400020F40050216808602068006840F40050B2
:103550002168086000BF012084F8510000BF0020EE
:1035600084F8500000BF0320BDE8F081FFE7206829
:1035700080683040B04201D1012000E000200028E6
:10358000C2D03BE030E0681C70B32DB1FDF7FCFA0F
:10359000A0EB0800A84227D92068406820F0E0008E
:1035A000216848602068006820F0400021680860B9
:1035B000A06AB0F5005F0DD100BF2068006820F45C
:1035C0000050216808602068006840F400502168BD
:1035D000086000BF012084F8510000BF002084F87B
:1035E000500000BF0320BFE7206880683040B04231
:1035F00001D1012000E000200028C4D10020B3E761
:1036000010B5002807DA0A07140E054A00F00F0368
:103610001B1FD45403E00A07130E024A135410BDB3
:1036200018ED00E000E400E002480068C0F302206A
:10363000704700000CED00E010B50246084620B1CE
:1036400000BF0423054CA36105E000BF4FF48023B5
:10365000024CA36100BF00BF10BD0000001002407B
:103660002DE9F04F89B00446614DE560A06801F096
:10367000FFFF00BF4FF4A0704FF4F073002211461B
:10368000009005A802F016FA05A907A802F009FAA9
:103690000546294604F5AA7001F0B5FA80461420C3
:1036A00000F054FD07463E46454606F1080000215D
:1036B0004160816000BFA0F108063560294603A87B
:1036C00002F0DDF94FF40E7000F040FD8246D34663
:1036D0002A460021584601F02BFE8246706000BF4A
:1036E0003746C4F85C61D4F85C0100F0C7FE0546BB
:1036F000404EC5F808613078002107E0D5F8082170
:10370000526812F8301005F1080250540200A0F17E
:103710000100F3D100BFD4F85C0100F0AFFE00F56A
:103720008675344EC5F80C613078002107E0D5F875
:103730000C21526812F8301005F10C0250540200AE
:10374000A0F10100F3D100BF642000F0FFFC81462E
:1037500004F5AC74606800F091FE054629464846C1
:1037600001F0B8FD81462060266806F10C00642156
:103770000A46C8232825016042608360C56000BFF7
:10378000D4E9001000F07DFE6068A4F5AC744AF640
:10379000AA2100F08EFE2546D4F85C01066800BF21
:1037A000294603A800F03CFE00BF9DF8100018B9A0
:1037B00003A800F03FFE0FE0314601A802F05FF9D8
:1037C000B0688246A8685146DDE9012301F006FF92
:1037D00003A800F02FFE00BF4FF4947204F12901FA
:1037E00004F11C0001F091FB09B0BDE8F08F00006E
:1037F000443C01083437010800F1100100BFA1F179
:10380000100001460C4A0A6000BF0C4A0A6000BF63
:10381000084600F11C0100220A7300BFA1F11C0040
:103820000749016000F5AA71064A074A0A60A1F536
:10383000AA7100BF08467047D8380108C03801088F
:103840002C3A0108843B0108DC3901082DE9F04FCE
:1038500085B004460E4617469846206850F8100C6E
:103860000519B146C246DFF850B00397296851F8F0
:10387000141C48194FF4966102F0B5F802900298B2
:1038800008B900200EE0032053464FF496624946E3
:10389000CDE9000B029800F0F7FADDE9020102F031
:1038A0006BF802980146049004F1F80000F046FF1E
:1038B00005B0BDE8F08F000000A0000A0FB430B5DD
:1038C0008BB00446214605A800F0BBFD00BF9DF863
:1038D0001800A0B9D4F8F40000F10C01002203A8EC
:1038E00001F04AF9DDE90301CDE9090105A800F07D
:1038F000BAFDDDE909010BB030BC5DF814FB129D87
:103900002946D4F8F40000F010FB10A807C88DE891
:1039100007002A46214603A80F9B00F02FF8DDE997
:103920000301CDE9070105A800F09DFDDDE90701D0
:10393000E1E72DE9F04105460F4600260020044648
:1039400017E004EB440205F1F80101EB8200016885
:1039500009B1002100E0012149B904EB440205F15D
:10396000F80101EB820000F0B1FEBDE8F081601CBF
:103970000446082CE5DB3046F7E700000FB42DE9DC
:10398000FE4F81460C46D4F8F40041698A460E98F1
:103990000190CDF808A00F98801E092877D2DFE8A3
:1039A00000F0050C0D57317F58778E00002320461C
:1039B000DDE91012FFF74AFF00BF8CE0494882455D
:1039C00000D188E0D4F8F4001099C26A61F30F02C4
:1039D000C26200BF04F5AC70D4F8F41000F0C6FE6B
:1039E00000212046FFF7A5FFC4F8F400D4F8F40046
:1039F00000F10C0148460E9A01F0BEF8BDE8FE0F3A
:103A00005DF814FB102104F1D000FFF717FC064607
:103A10001098F06000BF31460846D4F864315B1C52
:103A2000C4F86431D4F868313BB9C4F86801C4F80B
:103A30006C0100238360436008E0D4F86821826051
:103A4000002343605060C4F8680100BF00BF42E03B
:103A500041E04FF0000BDDE91058216851F80C1CD3
:103A6000081901F0A8FF074600BF00203861C7F819
:103A70001480C7F818B000BFFD6000BF00BF00BFD2
:103A8000002239462046009701F004F823E021E0A7
:103A9000154A04F1B800DDE9101300F01DFF1AE02B
:103AA00000212046FFF745FFC4F8F400D4F8F400E5
:103AB00000F10C0148460E9A01F05EF89EE704F111
:103AC000B800109900F07EFE05462946204600F019
:103AD00095F800BF00BF00BFDDE90101C9E90001A1
:103AE00000BF8BE7AAAA000A00F001F070B50446F7
:103AF0000D46294604F1D000FFF7D9FB70BD000048
:103B00002DE9FC4105460E4617463A46314605F179
:103B1000D000FFF759FC2B4C2B480090296851F836
:103B2000101C4819294B0622214600F025FF80462B
:103B3000414605F1F80000F019FE00BF00202449BD
:103B40000123244ACDE90010234905F1B80000F013
:103B500060FE00201F4B5B1E01222049009028467A
:103B6000FFF734FB05F5BA7400231A46194604F131
:103B7000240000F01BFA0020E0639FED190A84ED99
:103B8000110A9FED180A84ED120A9FED170A84EDC1
:103B9000130A9FED160A84ED140AA0610021E16169
:103BA000206161612060606000BF204610490623EB
:103BB000104ACDE900101049BC3800F02AFE002060
:103BC000BDE8FC81892300086D3C0108AAAA000A0F
:103BD0004C3C010802B0000B892200089122000829
:103BE000DF4F0D3ECDCCCC3D00008C420000484262
:103BF000593C010800F001F0E12400087CB50546BD
:103C00000C462946684600F01CFC00BF9DF80400E5
:103C100018B9684600F027FC7CBD94B12046017CB1
:103C200009B9002103E0C16A41F30441491C01EBD9
:103C3000410105F1F80000EB81062146304600F015
:103C40007DFD684600F00FFC00BFE5E770B5044657
:103C50000D46294604F1D000FFF7F0FA70BD2DE9BA
:103C6000F0418AB004460E460496D4F8F40090F968
:103C7000111005910F21D4F87001B0FBF1F201FB96
:103C8000120010B9D4F87001A8B92546E8690128D6
:103C900001D100200AE00120E86100BFEF6800BF09
:103CA000294607F10C0000F063FF38468046414684
:103CB0002046FFF7A3FFD4F87011481CC4F8700128
:103CC0000A20B1FBF0F200FB121010B9D4F8700119
:103CD00020B9DDE904010AB0BDE8F081214602A85F
:103CE00000F0AFFB00BF9DF80C0048B9DDE904010E
:103CF000CDE9080102A800F0B6FBDDE90801EAE71A
:103D000000BF00BFD4F86801054604E000BFE868C2
:103D1000804700BFAD68002DF8D100BF3146D4F810
:103D2000F40000F002F92146204601F0FDFD204696
:103D3000D4F8F410FFF762FF00BF00212046FFF720
:103D4000F8FDC4F8F400D4F8F40000F10C01324698
:103D5000684600F011FFDDE90001CDE9060102A887
:103D600000F081FBDDE90601B5E7000070B504460F
:103D70000D460DB9012000E00020060017D03D4D92
:103D80002868206004F5E4703B490160204600BFCC
:103D9000044604F1B80000F0CBF8A0F1B80405F136
:103DA0002C0104F1B800FFF767F9A0F1B80404F1A1
:103DB000240000BF2021803081600021C16041606B
:103DC00040F8801900BF00BF00BFA0F12404291DE6
:103DD0002046FFF7C5F9044605F1100104F1B800CB
:103DE00000F09EFDA0F1B80404F1CC0000F0A0F8B2
:103DF000A0F1CC0428682060E869216851F8141CFF
:103E00006050286A216851F80C1C6050686A21686B
:103E100051F8101C6050A86AC4F8B8001748C4F8DC
:103E2000CC0004F1D000FFF7C1FAA0F1D0040823C0
:103E30000C22134904F1F80000F09CF9A0F1F804F9
:103E400004F5AC7000F0A9FCA0F5AC7404F5B270F8
:103E500000214160816000BFA0F5B27404F5BA7121
:103E6000084A4A6200BFA1F5BA740020C4F8F40001
:103E7000204670BD483B0108F0380108183B010896
:103E80009B470008DC3B01082DE9F04704460D463E
:103E900016469946DDE90878E661361F04EB060A06
:103EA00004F10C0051460422002303710560C16037
:103EB000026187604FFA88F3437100BF494620468C
:103EC00000F002F8BDE8F087C26A22F08072C26298
:103ED000C26A6FF30F02C262C26A22F08052C262EB
:103EE000C26A22F08042C262C26A22F00052C262FA
:103EF000C26A22F08062C262C26A22F40002C26216
:103F0000C26A22F40012C262C26A22F00072C26265
:103F1000C26A22F00062C262C26A22F48002C262F5
:103F2000C26A61F31442C262704781627047000046
:103F30000149016070470000A43B010870B50546C7
:103F40000C46164600BF4FF000400849886100BF8C
:103F50000A23022221460648FDF7C1FA00BF4FF4AA
:103F600000400249886100BF002070BD000002408F
:103F7000A8A1002070B505460C46164600BF4FF0BC
:103F800000400849886100BF0A23012221460648F3
:103F9000FDF7C2FB00BF4FF400400249886100BF3B
:103FA000002070BD00000240A8A10020F8B5044622
:103FB0000F4615461E460120A06060600020E0818B
:103FC000A081009820F00100401C0090009820F093
:103FD0000E00801C0090009867F304100090009879
:103FE00020F020000090009820F0C000009069466A
:103FF000204600F042F8A074009820F00E000A302D
:104000000090009865F3041000906946204600F087
:1040100034F8E074009820F00E00801D00900098A5
:1040200066F3041000906946204600F026F82075DB
:104030004620A0813220E08101206060A060F8BDB0
:1040400070B504460D462574002161742068012274
:1040500004F110014368204698472068022204F1C9
:104060001001036820469847268A05F0080008B921
:10407000361100E03612304670BD10B502460B789E
:10408000DB071B0E0C78C4F3420443EA04130C78DC
:10409000C4F3001443EAC4030C78C4F3401443EAA5
:1040A00084030C78C4F3811443EA040010BD10B5F6
:1040B0000446A17C2046FFF7C3FF10BD10B504469F
:1040C000E17C2046FFF7BCFF10BD10B50446217D02
:1040D0002046FFF7B5FF10BD7CB504460D462846C7
:1040E000FFF7E5FF00902846FFF7E8FF0190DDE9C4
:1040F0000001C4E900017CBD70B504460D46CC3C0E
:1041000029462046FFF7F2FC70BD70B504460D4607
:10411000CC3C29462046FFF799FD70BD70B504469A
:104120000D46206850F80C0C044429462046FFF741
:104130008DFD70BD70B504460D46206850F8100C1A
:10414000044429462046FFF7D1FC70BD10B5040099
:1041500007D1012405E0FCF775F9006800B90448AF
:1041600080472046FCF772F90028F4D010BD00000B
:10417000AB0400082DE9F0411C4617460E008046AE
:1041800007D0054602E02846B0473D442046641E5D
:10419000F9D24046BDE8F081016809B100207047BE
:1041A000012101600846704710B5064C00212046E9
:1041B000FFF7DCFD0448FFF71FFB0448FFF7F6F8A4
:1041C00010BD00002C9D0020FC9E00205CA0002063
:1041D00010B50B480B4A02600B4A0146426000BF13
:1041E00008460A49016010314160002101614161C6
:1041F00000BF074C204601F064FC044600BF10BD20
:1042000048000020943B010808390108B43B01082C
:10421000009D00201CB549F640411148FFF706F902
:10422000FFF72AF91BE00F4C4FF6FF752146684651
:1042300000F0F6F800BF9DF8040018B9684600F0D9
:10424000F9F80BE0A9B24FF4A0734FF4F072A06834
:1042500001F0C0F8684600F0EDF800BF00BFE2E7EB
:1042600060000020FC9E002030B50446206850F815
:104270000C0C2044406800EB4205206850F8100CFC
:104280002044C088484325F81030002030BD2DE977
:10429000FF4F8BB00C9807900D9808900E980990DE
:1042A00018980A90079C089DDDF82480DDF8289076
:1042B000B8EB040003D5C8F10000001B01E0A8EB37
:1042C00004000646B9EB050003D5C9F10000401B08
:1042D00001E0A9EB05000746A04501DB012001E054
:1042E0004FF0FF308246A94501DB012001E04FF08D
:1042F000FF300690B7422FDCC6EB470B78000590E5
:10430000B81B400004902A462146199B0B98FFF7E2
:10431000ABFF04EB0A00039002950120019017E027
:10432000BBF1000F06DD0498834406990298084407
:10433000029001E005988344199BDDE902210B9866
:10434000FFF792FF0198401C01900398504403909E
:104350000198B042E4DD2FE0C7EB460B70000590FA
:10436000F01B400004902A462146199B0B98FFF74A
:104370007BFF03940698284402900120019017E0E7
:10438000BBF1000F05DD049883440398504403906B
:1043900001E005988344199BDDE902210B98FFF7A2
:1043A00063FF0198401C019006990298084402900E
:1043B0000198B842E4DD00BF00200FB0BDE8F08FE7
:1043C0002DE9F04104460D4616460DB9012000E0E6
:1043D0000020070010D0114D2868206004F1100063
:1043E00001F06FFBA0F1100405F1080104F10800D1
:1043F00000F018FBA0F108042868206068682168B4
:1044000051F80C1C6050216851F80C1C08193146F9
:1044100000F020FB2046BDE8F08100009038010844
:1044200001600A79012A01D10022027101220A7178
:10443000027170470179012902D1002102681171CE
:10444000704701600A6852F8142C0A441279012A54
:1044500001D10022027101220B6853F8143C0B4475
:104460001A71027170470179012906D10021026891
:10447000136853F8143C1A44117170470146486898
:10448000704730B502460C46204695686D1C956015
:10449000D5682DB9D060106100258560456006E0C3
:1044A000D3688360002545605860D06000BF00BFBE
:1044B00030BD70B502460B461C4610688188C68820
:1044C00001FB06F5294603E0866826F81140491EDF
:1044D0000029F9DC00BF70BD70B586B005460C46FA
:1044E00004A8294601600A79012A01D1002202713B
:1044F00001220A71027100BF00BF9DF8140020B9AB
:1045000004A8FFF797FF06B070BD02A82188ADF898
:1045100000106188ADF80210A188ADF80410E188A0
:10452000ADF80610009901600199416000BF00BF1D
:10453000A0680646A8683146DDE9022301F04EF87E
:1045400004A8FFF777FF00BFDDE72DE9F04194B045
:1045500006460F4614469846314612A8FFF760FFFC
:1045600000BF9DF84C0028B912A8FFF763FF14B0F4
:10457000BDE8F0810CAD2146284601F092FA0546CF
:1045800094ED020A80ED020A94ED030A80ED030A1D
:1045900094ED040A80ED040A94ED050A80ED050A05
:1045A00008A8BDF830100291BDF832100391BDF893
:1045B00034100491BDF83610059102A991E80E104F
:1045C00080E80E1000BF394606A801F058FAB86816
:1045D0000546CDF8108008A80FC88DE80F00B06818
:1045E0002946DDE9062300F055FF12A8FFF722FF58
:1045F00000BFBCE770B504460D462946204600F0D2
:1046000001F870BD70B503461868401C1860586802
:1046100030B959609960002088604860084670BDD4
:104620005A6800241CE010460D46854201D301263D
:1046300000E00026012E02D11446926810E0506876
:1046400038B1506881608A6050684860516008469F
:10465000E5E78A6000204860516059600846DEE75F
:10466000002AE0D1A1600020886099604C60084673
:10467000D5E770B504460D462946204600F001F8FE
:1046800070BD10B502460C46106808B9204610BD32
:104690001068401E10606168A36829B923B9002022
:1046A000506090602046F2E719B9536000205860CE
:1046B00000E08B601BB900208860916000E05960C9
:1046C0002046E4E7002141608160704701460868A8
:1046D00008B9002070470868401E08604A68906862
:1046E00020B90020486088601046F3E79068486071
:1046F00000204B6858601046ECE710B502460C46A7
:10470000106808B9204610BD1068401E106061682E
:10471000A36829B923B90020506090602046F2E7D1
:1047200019B953600020586000E08B601BB900206D
:104730008860916000E059602046E4E710B50246C9
:104740001068401C1060506840B9516091600020B2
:104750009468A06054686060084610BD93684B6020
:1047600000208860996091600846F6E710B502461F
:104770000B4618461468641C146054682CB95060C9
:10478000906000248460446006E0516881600024E9
:1047900044604860506000BF10BD002141608160EE
:1047A000704770B505460C46296851F8141C481925
:1047B00001F011F9064600BF00BFF46000BF00BF62
:1047C000304670BD30B502460B46002400BF9068ED
:1047D000106119E010698169994212D11069C569A7
:1047E000012D01D100250AE00125C56100BFC16886
:1047F00000BF00BF086200250D7400BF0D462846AB
:1048000030BD10698068106110690028E2D120462F
:10481000F6E72DE9FF4F81B0044690469946DDE961
:104820000EBA216851F8141C081901F0CCF805469D
:1048300015B905B0BDE8F08F216851F8141C0819AE
:10484000494601F011F906463EB9216851F8141C99
:104850000819294601F0F3F8EBE7CDF800B021681C
:1048600051F8181C081943460022029900F0B5F8C7
:10487000074677B9216851F8141C0819294601F038
:10488000DEF8216851F8141C0819314601F0CDF802
:10489000CFE700BF2E61C5F81490EF60C5F820A0E7
:1048A000C5F818800020E86100BF28466268521CE5
:1048B0006260A2683AB9A060E0600022E3689A6092
:1048C000A3685A6006E0E168416000228260886067
:1048D000E06000BF00BFACE72DE9F04104460F46A1
:1048E00015461E4600BFA068206112E0206981695C
:1048F000A9420BD1206839468268204690478046FD
:1049000032464146206900F00FF905E020698068D1
:10491000206120690028E9D100BFBDE8F0810000D6
:1049200070B504460D460DB9012000E000200600D8
:104930000CD0104D286820602046FFF7F9FA044695
:1049400005F10C012046FEF797FB0446286820601D
:104950006868216851F8141C6050A868216851F8F3
:10496000181C6050201D00214160816000BF041FA1
:10497000204670BD183901082DE9FC4704468846D9
:1049800016461F46DDF82890216851F8141C0819B6
:104990004FF4966101F027F8054615B90020BDE8EF
:1049A000FC87022033464FF496624146CDE900076A
:1049B0002846FFF769FA2A464946002006E011F822
:1049C00000C002F13C0303F800C0401C0B5C0BB1BB
:1049D0000C28F4DB00BF2846E1E72DE9FC4704463C
:1049E000884615461E46DDF82890216851F8141CAB
:1049F00008194FF4966100F0F6FF074617B900203A
:104A0000BDE8FC8702202B464FF496624146CDE973
:104A100000063846FFF738FA4946384600F0ACFF42
:104A20003846EDE770B504460D460DB9012000E0AB
:104A30000020060008D0064D2868206004F1080018
:104A400001F03FF8A0F1080428682060204670BDFE
:104A5000743901087FB505460E4600BFB06868602E
:104A6000286850F80C0C4419314602A801F007F8E8
:104A7000DDE90201CDE90001BDF800002080BDF8AC
:104A800002006080BDF80400A080BDF80600E08050
:104A900000BF7FBDF0B504460B466069904200D967
:104AA00003B9F0BD02EB4205206900EB85011E460B
:104AB00030460F687F1C0F604F682FB948608860D0
:104AC00000278760476006E04D68856000274760E3
:104AD0006860486000BF00BF00BFE2E72DE9F04119
:104AE00005460E466869B04201D8BDE8F08106EB84
:104AF0004602296901EB8200846800BF10E02F6A3A
:104B0000D4E90401884203D22069401C206106E0F8
:104B1000A069206100BFE0680146384688476468A4
:104B2000002CECD100BFE0E7F0B504460B4660690D
:104B3000904200D903B9F0BD02EB4205206900EBB9
:104B400085011E4630460F687F1C0F604F682FB9E5
:104B50004860886000278760476006E04D68856090
:104B6000002747606860486000BF00BF00BFE2E701
:104B700041610022027170472DE9FF4105460C4654
:104B8000174697B901212171E168A1F14000216820
:104B9000016061690162009094F905100191DDE9FD
:104BA0000012C5E90012BDE8FF812079A8B9E068CC
:104BB000A0F1400639463046FEF7AAF92068B063F6
:104BC0006069306201202071009694F9050001901F
:104BD000DDE90001C5E90001E5E72079012809D1F7
:104BE000E069009094F905000190DDE90001C5E954
:104BF0000001D8E7002002900390DDE90201C5E939
:104C0000000100BFCFE72DE9FF4780460E4600BFF9
:104C1000B08800BFF18800FB01F52946404600F04E
:104C2000B9FE044604F10C07314602A800F039FF32
:104C30008146A7604946684600F033FF054628884C
:104C4000208068886080A888A080E888E08000BF15
:104C500000BF204604B0BDE8F0872DE9FF410446BF
:104C6000BDF80470BDF80650206850F8100C2044C0
:104C7000C18801FB07F6BDF8082001FB026014E0C3
:104C8000BDF80AC0AC44ACF101020BE0D4F800C09E
:104C90005CF80CCCA444DCF804C002EB00082CF84F
:104CA0001830521EAA42F1D8401AB042E8D800206B
:104CB00004B0BDE8F0812DE9F04303461546D1F874
:104CC00000C04E68186850F8100C1844C28802FBE7
:104CD0000CF78C6802FB047014E0D1F80C80B0442F
:104CE000A8F101040BE0D3F8008058F80C8C98442C
:104CF000D8F8048004EB000928F81950641EB44267
:104D0000F1D8801AB842E8D80020BDE8F08300004E
:104D10002DE9F04104460D4616460DB9012000E08C
:104D2000002007000ED0104D2868206004F10C0010
:104D300000F0C7FEA0F10C0405F10801201DFFF7EB
:104D400071FE041F286820606868216851F80C1CF7
:104D50006050216851F80C1C08193146FFF77AFEA3
:104D60002046BDE8F0810000FC3901082DE9F05F24
:104D70000F4616469846B6F1000B00DA76424FF021
:104D8000000900BF96FBF8F008FB10603030C2B29B
:104D9000484609F101093A5496FBF8F0061EF1DC89
:104DA000BBF1000F04DA2D22484609F101093A54FB
:104DB0003C462046FBF7B4FA2044451E06E094F832
:104DC00000A0287804F8010B05F801A9AC42F6D33D
:104DD0002846BDE8F09F2DE9F05F83460E46174652
:104DE00098464FF0000A00BFB7FBF8F008FB1070C0
:104DF0003030C2B250460AF1010A3254B7FBF8F023
:104E00000700F1D134462046FBF78AFA2044451EBC
:104E100006E094F80090287804F8010B05F8019951
:104E2000AC42F6D32846BDE8F09F816803E000223B
:104E300003685A54491E0029F9DA0021416070477D
:104E400070B506460C46002504E0615D304600F072
:104E500047F86D1C605D0028F7D170BDFEB50546B2
:104E60000C46084A07CA8DE807000A23224669460D
:104E70002846FFF77BFF064631462846FFF7E0FF4E
:104E8000FEBD0000743C010870B504460D46207B51
:104E900000B970BD0A21204600F022F829462046BC
:104EA000FFF7CEFF00BFF4E7FEB505460C460A4A01
:104EB00007CA8DE8070009492846FFF7C1FF1023FC
:104EC000224669462846FFF786FF064631462846B1
:104ED000FFF7B6FFFEBD00008C3C0108413C010815
:104EE0000246107B10B94FF0FF3070475068401CED
:104EF0009368984202D94FF0FF30F6E75368581C88
:104F000050601068C1540020EFE701600023436047
:104F100082600123037370472DE9FF4F85B0064679
:104F20000C46DDE912A7079860600898A06030255C
:104F30004FF0000B63E058460BF1010B1AF80050DC
:104F4000A088D4F80C11097A0844BDF82010BDF8E7
:104F50001C201144884201DC0A2D11D1BDF81C002F
:104F6000A080BDF820102181E088D4F80C11497A86
:104F70000844E0806089D4F80C11497A401A6081B5
:104F8000E088D4F80C11497A0844BDF82210BDF825
:104F90001E201144884206DD60683060A0687060A1
:104FA00009B0BDE8F08F0A2D29D00DF10C09606819
:104FB0000190A0680290D4F80C01406804F10C0143
:104FC000495D00EBC100D0F80480434600972046BD
:104FD000DDE9011200F01DF8B8F80400BDF8041076
:104FE0000844A0802089B8F80410401A2081606825
:104FF000C9F80000A068C9F8040000BF00BF1AF893
:105000000B00002897D160683060A068706000BF16
:10501000C6E72DE9FF4F04469888BDF8081088427E
:1050200001DA988801E0BDF808000246D888BDF88A
:105030000A10884201DAD88801E0BDF80A008146EA
:10504000206850F80C0C204445681E6809FB02F7E4
:105050000020BDF80410D4F8008058F8108CA0444B
:10506000B8F8068001FB08FC1DE0BDF806B00BEBAC
:105070000C08014607EB000A0CE036F811B04FF6B9
:10508000FF7EF34503D0DDF834B025F818B008F101
:10509000010811445145F0D3216851F8101C2144F6
:1050A000C9888C44401C9042DFDB002004B0BDE87E
:1050B000F08F00002DE9F04104460D4616460DB96B
:1050C000012000E00020070010D0144D2868206067
:1050D00004F58C7000F0F5FCA0F58C7405F1080166
:1050E00004F58870FFF79EFCA0F58874286820609E
:1050F0006868216851F80C1C60500020A0800021D5
:10510000E18021816181216851F80C1C0819314628
:10511000FFF7A0FC2046BDE8F0810000E43B010859
:10512000F8B504460D461646D4F8080100B9F8BD96
:105130000A2D08D1A088D4F80811497A0844A08023
:105140000020E080F3E700BF00BFD4F80801416809
:1051500004F10800405D01EBC00047680096A2889A
:10516000E1883B46204600F018F8E088D4F80811A2
:10517000097A0844E080E088216851F8101C214435
:105180008988884207DB0020E080A088D4F80811D5
:10519000497A0844A08000BFC9E72DE9FC4F0446C6
:1051A0000D4616469A88D8880190206850F80C0C55
:1051B0002044D0F80480D3F8009001985043009028
:1051C0000020216851F8101C2144C98801FB05F713
:1051D0001DE006EB070C0146DDF800B00BEB000A02
:1051E0000CE039F811B04FF6FF7EF34503D0DDF83F
:1051F0002CB028F81CB00CF1010C11445145F0D32F
:10520000216851F8101C2144C9880F44401C904269
:10521000DFDB0020BDE8FC8F2DE9F04104460D46A0
:1052200016460DB9012000E00020070010D0124DF5
:105230002868206004F58A7000F043FCA0F58A74A9
:1052400005F1080104F58670FFF7ECFBA0F5867404
:10525000286820606868216851F80C1C60500020A4
:10526000A080E080216851F80C1C08193146FFF736
:10527000F1FB2046BDE8F0810C3C010830B587B059
:105280000446A08980B2ADF81400208A80B2ADF83F
:105290001600A08A80B2ADF81800208B80B2ADF85D
:1052A0001A00238EE16A01F50770DDE90512FFF7A8
:1052B000D4FC00BFE0690546608ECDE90050E06A8D
:1052C00000F5867103A8DDE90523FFF725FE07B089
:1052D00030BD000070B504460D4604F10C000021FD
:1052E000016041608160C16000BFA0F10C042046F4
:1052F0000D49216000BF044604F11C000021017328
:1053000000BFA0F11C0409482060E5624FF6FF7061
:10531000208600206086302204F1340104F11C0054
:10532000FFF7F3FD204670BDF8390108443A010843
:105330002DE9F04104460D4616460DB9012000E066
:105340000020070010D0224D2868206004F50C7062
:1053500000F0B7FBA0F50C7405F1340104F50A70F8
:10536000FFF760FBA0F50A743246291D2046FFF7BF
:1053700053FF0446324605F10C0104F58670FFF731
:1053800099FEA0F58674324605F1140104F5077004
:10539000FFF7BEFCA0F50774324605F11C0104F5C9
:1053A0000870FFF70DF8A0F5087428682060686A97
:1053B000216851F80C1C6050A86AC4F80C01E86A16
:1053C000C4F81C02286BC4F820022046BDE8F08116
:1053D000483A01082DE9F0410746884614461D4623
:1053E000384600F00FFA4146384600F095FA264656
:1053F00011E0284609E000BF04210B4A116000BFFC
:1054000000BF0904116000BF401E0028F3DC3846CD
:1054100000F0DCF9761E002EEBDA384600F0F2F9E7
:105420000020BDE8F0810000181C02402DE9F84F73
:1054300081468A4614461D46DDE90A6733462A46F8
:1054400021464846009700F008FA5146484600F0C9
:1054500063FAB04612E0384609E000BF04210C4A66
:10546000116000BF00BF0904116000BF401E00288A
:10547000F3DC484600F0AAF9A8F10108B8F1000FE2
:10548000E9DA484600F0BEF90020BDE8F88F0000D8
:10549000181C02402DE9FF4F83B08346BDF814105D
:1054A0001098441A002C03DA64421298001B1290E0
:1054B000BDF81800A04204DA4FF0FF3007B0BDE895
:1054C000F08FBDF816101198451A002D03DA6D42C1
:1054D0001398401B1390BDF81A00A84202DA4FF04F
:1054E000FF30EBE7129E04EB0609B9F1000F02DA78
:1054F0004FF0FF30E2E7BDF81800BDF81410084483
:10550000484505DABDF81800BDF814100844061B1C
:10551000DDF84C8005EB080ABAF1000F02DA4FF013
:10552000FF30CBE7BDF81A00BDF81610084450450F
:1055300006DABDF81A00BDF816100844A0EB0508FD
:10554000002C0ADD4FF4A071A0B200231A46CDE969
:10555000000158461499FFF769FF002D09DDA8B234
:10556000B1B2A2B20023CDE9001058461499FFF75A
:105570005DFF1FFA88F0B3B2AAB2A1B200905846FC
:1055800000F06BF904EB8400840106EB860004EB69
:1055900080171CE0384608EB070111E000BF049AB1
:1055A00032F81020DBF800305A6100BF00BF04223F
:1055B000094B1A6000BF00BF12041A6000BF401CF4
:1055C0008842EBDB584600F001F9A7F5A077A74227
:1055D000E0DA002072E70000181C02402DE9FF4FBE
:1055E00081B081468846BDF81070BDF8124007FBB7
:1055F00004FA3B460094BDF80E20BDF80C10484656
:1056000000F02BF9554618E02E4604EB050B0EE092
:1056100038F81610484600F01BF900BF04200B496B
:10562000086000BF00BF0004086000BF761C5E4534
:10563000EED3484600F0CAF82D1B002DE4DC4846A6
:1056400000F0E0F8002005B0BDE8F08F181C024023
:10565000012904D100BF1022044B1A6005E000BFED
:105660004FF48012014B1A6000BF704718080240C7
:1056700010B5044600BF01212046FFF7E9FF0121D4
:10568000204600F09BF800212046FFF7E1FF0121B2
:10569000204600F093F801212046FFF7D9FF96211C
:1056A000204600F08BF800BF0121204600F020F9D1
:1056B0006421204600F082F8C021204600F018F94D
:1056C0001521204600F01EF91221204600F01AF99B
:1056D000C121204600F00CF94121204600F012F9CA
:1056E000C521204600F004F90021204600F00AF907
:1056F0004A21204600F006F98021204600F002F9F8
:105700003621204600F0F4F84821204600F0FAF84F
:105710003A21204600F0ECF85021204600F0F2F843
:10572000B021204600F0E4F80221204600F0EAF81B
:10573000B421204600F0DCF80021204600F0E2F819
:10574000B621204600F0D4F82021204600F0DAF8F7
:105750000F21204600F0D6F8E921204600F0C8F8D5
:105760000021204600F0CEF8F721204600F0C0F8D6
:10577000A921204600F0C6F85221204600F0C2F8C8
:105780002C21204600F0BEF88221204600F0BAF815
:105790006421204600F012F81121204600F0A8F8FC
:1057A0009621204600F00AF82921204600F0A0F8B2
:1057B0000F21204600F002F8002010BD70B505460C
:1057C0000C462046FBF7C8F870BD000010B5044633
:1057D00000BF4FF400100A49086000BF00BF8010EE
:1057E000086000BF0321204600F020F800BF082019
:1057F0000349086000BF00BF2020086000BF10BD43
:10580000181C024010B5044600BF4FF48010064932
:10581000086000BF2046FFF7D9FF00BF10200249F3
:10582000086000BF10BD0000181C024009E000BF66
:105830004FF48022054B1A6000BF00BF04221A609B
:1058400000BF0A00A1F10101F1D17047181C02400C
:1058500000BF0268516100BF70472DE9FC41074657
:105860000C4615461E46DDF82080019505EB080024
:1058700080B200902A21384600F03AF89DF80510D1
:10588000384600F03FF89DF80410384600F03AF82A
:105890009DF80110384600F035F89DF800103846A4
:1058A00000F030F80194A01980B200902B21384606
:1058B00000F01EF89DF80510384600F023F89DF81A
:1058C0000410384600F01EF89DF80110384600F02C
:1058D00019F89DF80010384600F014F801213846F8
:1058E000FFF7A4FF3846FFF78DFF0020BDE8FC81DD
:1058F00070B504460D462A4600216068FDF7D8FBC6
:10590000002070BD70B504460D462A46012160682E
:10591000FDF7CEFB002070BD70B504460D4629464C
:105920002046FFF795FF70BD2DE9F04105468846FA
:1059300000BFD5F85C0106461AE03446B66800BFE1
:10594000A08D80B2002807DDA08D401EE16A60F3C3
:105950000F01E162002000E0012048B105F5AC77BD
:1059600021463846FEF7C9FE21462846FEF746F98D
:10597000002EE2D1BDE8F08110B50246002004E01F
:105980000C5C02F13C031C54401C0B5C0BB10C285A
:10599000F6DB10BD70B504460D4605F10C0120681C
:1059A00002682046904770BD70B505460C462046FB
:1059B000FCF762FF70BD10B5044620681C21026828
:1059C0002046904710BD10B5044620682421026887
:1059D0002046904710BD10B504462068102102688B
:1059E0002046904710BD70B504460D4605F14801AC
:1059F000206802682046904770BD70B505460C4689
:105A00002046FCF72FFF70BD70B505460C462046BA
:105A1000FCF732FF70BD70B504460D46206829467C
:105A2000426820469047002070BD70B504460D4680
:105A300020682946426820469047002070BD70B516
:105A400004460D46206829464268204690470020BB
:105A500070BD70B504460D4605EB45008100206819
:105A600002682046904770BD70B504460D4605EBB0
:105A700045008100206802682046904770BD0CB543
:105A80000A88ADF800204A88ADF802208A88ADF86F
:105A90000420CA88ADF80620009A0260019A42608C
:105AA0000CBD0A8802804A8842808A888280CA881F
:105AB000C280704730B5039C018042808380C480DF
:105AC00030BD0021018041808180C18070474FF04E
:105AD0004070E1EE100A704708000000000000006E
