:020000040800F2
:10000000C0B30020D9020008D71E0008A9020008CA
:10001000D31E0008E7070008452000080000000084
:100020000000000000000000000000008502000841
:10003000EB07000800000000850200085D020008D0
:10004000F3020008F3020008F3020008F3020008BC
:10005000F3020008F3020008ED070008F3020008AD
:10006000F3020008F3020008F3020008F30200089C
:10007000F3020008F3020008F3020008F30200088C
:10008000F3020008F3020008F3020008F30200087C
:10009000F3020008F3020008F3020008F30200086C
:1000A000F3020008411F0008F3020008F3020008F1
:1000B000511F0008F3020008F3020008F3020008D1
:1000C000F3020008F3020008F3020008F30200083C
:1000D000F3020008F3020008F3020008F30200082C
:1000E000F3020008F3020008F3020008F30200081C
:1000F000F3020008F3020008F3020008F30200080C
:10010000F3020008F3020008F3020008F3020008FB
:10011000F3020008F3020008F3020008F3020008EB
:10012000F3020008F3020008F3020008F3020008DB
:10013000F3020008F3020008F3020008F3020008CB
:10014000F3020008F3020008F3020008F3020008BB
:10015000F3020008F3020008F3020008F3020008AB
:10016000F3020008F3020008F3020008F30200089B
:10017000F3020008F3020008F3020008F30200088B
:10018000F3020008F302000800F002F800F042F861
:100190000AA090E8000C82448344AAF10107DA45E2
:1001A00001D100F037F8AFF2090EBAE80F0013F0F2
:1001B000010F18BFFB1A43F0010318479C2D0100E3
:1001C000BC2D0100103A24BF78C878C1FAD8520774
:1001D00024BF30C830C144BF04680C6070470000C1
:1001E0000023002400250026103A28BF78C1FBD840
:1001F000520728BF30C148BF0B6070471FB504F0DD
:10020000BCFE9DE8030000F06FF900F005F91FBD8A
:1002100010B510BD00F0FAF91146FFF7EFFF03F03B
:1002200011FE00F037FA03B4FFF7F2FF03BC00F051
:1002300065FA000080F31488704702DF704772B6D9
:10024000BFF34F8F00F03BF801F00FFFBFF35F8F5C
:1002500080F3098881F3148862B600BD72B6BFF3DB
:100260004F8FEFF3098020E9F00F00B501F00DFF8B
:10027000BFF35F8FB0E8F00F80F3098881F3148833
:1002800062B600BD72B6BFF34F8F00B5EFF30983BE
:1002900023E9F00F01F0EFFEB0E8F00F80F30988DA
:1002A00081F3148862B600BD72B6BFF34F8F00B5FC
:1002B000EFF3098323E9F00F01F0C6FEFEE70548DE
:1002C000016841F470010160BFF34F8FBFF36F8F7E
:1002D0007047000088ED00E0094880470948004762
:1002E000FEE7FEE7FEE7FEE7FEE7FEE7FEE7FEE7E6
:1002F000FEE7FEE704480549054A064B7047000043
:10030000DD1E000889010008C0A10020C0B3002044
:10031000C0A90020C0A900200048704750A10020BB
:1003200010B5431C02E010F8011B71B18107FAD12E
:100330004FF0013202C88C1A8C4314EAC211F9D072
:10034000C01A0A0603D0C01E10BDC01A10BD0A0490
:1003500001D0801E10BD0902FCD0401E10BD10B59A
:10036000203AC0F00B80B1E81850203AA0E81850AD
:10037000B1E81850A0E81850BFF4F5AF5FEA027C6E
:1003800024BFB1E81850A0E8185044BF18C918C0DD
:10039000BDE810405FEA827C24BF51F8043B40F87E
:1003A000043B08BF7047D20728BF31F8023B48BF63
:1003B00011F8012B28BF20F8023B48BF00F8012BA1
:1003C00070474FF0000200B5134694469646203918
:1003D00022BFA0E80C50A0E80C50B1F12001BFF4FE
:1003E000F7AF090728BFA0E80C5048BF0CC05DF864
:1003F00004EB890028BF40F8042B08BF704748BFB2
:1004000020F8022B11F0804F18BF00F8012B704725
:10041000704770477047000070B5064C7C44064D2D
:100420007D4403E0206820448047241DAC42F9D17C
:1004300070BD0000582B01005C2B01000048704784
:1004400050A100200048704784A1002070B50646E6
:1004500000F02EF8056806F10B0020F00704B44206
:100460009CBF002070BD2B466A68BAB11068A042DC
:1004700010D304F1080188423CBF5068586007D38C
:100480005168101941601168091B016058601460BF
:10049000101D70BD13465268002AE7D12146284638
:1004A00000F00EF80028DED170BD00F07AB8000030
:1004B0000048704758A10020704770477047704748
:1004C00038B504460A4600206946AFF3008000288C
:1004D00008BF38BD02460099204600F0C1F801204F
:1004E00038BD012000F0E4B8F8B5AFF30080054650
:1004F00000200C46102000BF0646A819A0420DD9C6
:10050000324669460020AFF30080070008BF00F0C4
:10051000CFF80098A04218BF0546C419FFF7C8FFDE
:1005200005600746F01D20F007004619284600F038
:100530000AF8B44208BFF8BDA21B31463868BDE8CE
:10054000F84000F08DB800210160C0E9011070474B
:100550001020704770B50446051FFFF7A9FF00681B
:10056000002C14BF446870BD002C18BFAC423CBFC7
:1005700020466468F8D301680A18AA4218BF45608B
:1005800003D12A6805461144016028684119A14237
:100590001CBF6C6070BD6168696021680844286098
:1005A00070BD10B500F00DF8016919B100220261AB
:1005B000884701E08068804700F072F810B500F0CD
:1005C0006FF870B500F048F804680546A4B920201B
:1005D000FFF73CFF040011D0094900202C60C4E95A
:1005E00000010849A1602073206160610649A06193
:1005F00009B100F064F8E061204670BD00F050F8E9
:1006000000000000BD050008000000007546FFF76F
:1006100015FFAE4605006946534620F007008546A3
:1006200018B020B5FFF766FEBDE820404FF0000689
:100630004FF000074FF000084FF0000B21F00701CA
:10064000AC46ACE8C009ACE8C009ACE8C009ACE80D
:10065000C0098D4670470000004870478CA10020FB
:10066000034640688C46002818BF88423CBF0346BA
:100670004068F8D318681844884207D00CF103008A
:1006800020F00700001D411A521A0146081D0A6099
:10069000FFF760BF0446AFF300802046FFF7C3FDBD
:1006A000002000F037F8FFF7B3FD012000F026F836
:1006B00010B500F037F8BDE8104000F026B810B5CE
:1006C0008820FFF7C3FE002801D00021017010BD73
:1006D000802902D808B1017809B1002070470121B2
:1006E00000F8081B704718B100F10802914201D0D0
:1006F0000020704700210170704700000149182058
:10070000ABBEFEE7260002007047002801D0FFF7CD
:10071000F5BF704710B500F047F8BDE81040FFF78F
:10072000F4BF000010B5012805D0002103A000F09F
:1007300021F8012010BD09A1F8E7000053494752F4
:10074000544D454D3A204F7574206F6620686561A1
:1007500070206D656D6F7279000000003A20486569
:100760006170206D656D6F727920636F7272757044
:100770007465640070B505460C460A2000E06D1CE7
:1007800000F02AF835B128780028F8D102E0641C7E
:1007900000F022F814B120780028F8D1BDE87040AC
:1007A0000A2000F019B8000010B5002102A0FFF7E0
:1007B000E1FF012010BD0000534947414252543A25
:1007C0002041626E6F726D616C207465726D696E2E
:1007D0006174696F6E00000008B569468DF800000D
:1007E0000320ABBE08BD00BFFEE77047704770B581
:1007F00004461D460023B5F5804F1BD154F8223026
:1008000003F04043D1E9000640EA06108E6840EA52
:1008100006208E8940EA0646088A401E46EA0056AF
:10082000087D801E46EA00608E693043034344F829
:10083000223003E06FF0704044F82200002070BDC9
:1008400010B503460022086853F8202011480240E2
:10085000D1E901042043CC6820430C6920434C6952
:1008600020438C692043CC6920430C6A20434C6AA6
:1008700020438C6A2043CC6A20430C6B2043024304
:100880008868082801D142F04002086843F8202017
:10089000002010BD8000F7FF30B503460024501C37
:1008A00053F8204004F04044D1E9000540EA051027
:1008B0008D6840EA05208D8940EA0545088A401E7A
:1008C00045EA0055087D801E45EA00608D69284391
:1008D0000443501C43F82040002030BD0146002254
:1008E00009B901207047486A00B100BF022081F8B1
:1008F00035000868026817480240D1E9010318432F
:10090000CB6818430B6918434B6918438B6918432C
:10091000CB6918430B6A18430243486A042803D181
:10092000D1E90B0318430243086802600868426972
:1009300022F00702486A0243486A042801D1886A03
:100940000243086842610020C864012081F8350034
:100950000020C7E73F8010F031B5002400F014F903
:10096000044600BF00F010F9001B00998842F9D33B
:1009700038BD0000F8B502460B46002500240020D3
:100980000021DEE0012606FA01F51E6806EA0504EC
:10099000AC4270D15E68022E02D05E68122E13D176
:1009A000CF0802F1200656F827004E07F70E0F2653
:1009B000BE40B0434F07FF0E1E69BE403043CF0814
:1009C00002F1200646F8270010684F000326BE40BB
:1009D000B0431E7906F003064F00BE40304310605E
:1009E0005E68012E08D05E68022E05D05E68112E6A
:1009F00002D05E68122E13D190684F000326BE40CD
:100A0000B0434F00DE68BE4030439060506801261E
:100A10008E40B0431E79C6F300168E4030435060BE
:100A2000D0684F000326BE40B0434F009E68BE40D2
:100A30003043D0605E6806F08056B6F1805F7FD1AB
:100A400000BF424E366846F48046404F3E603E4608
:100A5000366806F48046009600BF3D4E8F0856F873
:100A600027008E07370F0F26BE40B043394EB242E3
:100A700002D1002629E063E0374EB24201D10126BF
:100A800023E0364EB24201D102261EE0344EB2427D
:100A900001D1032619E0334EB24201D1042614E0FD
:100AA000314EB24201D105260FE0304EB24201D1A3
:100AB00006260AE02E4EB24201D1072605E02D4E51
:100AC000B24201D1082600E009268F073F0FBE4041
:100AD00030431F4E8F0846F82700274E3068A0434A
:100AE0005E6806F48036B6F5803F00D12043224E82
:100AF0003060361D3068A0435E6806F40036B6F5F7
:100B0000003F00D120431C4E361D3060361D30683A
:100B1000A0435E6806F48016B6F5801F00D120431E
:100B2000154E08363060361D3068A0435E6806F406
:100B30000016B6F5001F00D120430F4E0C36306072
:100B4000491C1029FFF41EAFF8BD000044380240D4
:100B50000838014000000240000402400008024042
:100B6000000C024000100240001402400018024035
:100B7000001C024000200240003C01400148006887
:100B8000000C7047002004E0014800687047000036
:100B90001000002002480068401C014908607047AE
:100BA0001000002010B50A48006840F400700849A1
:100BB00008600846006840F480600860032000F088
:100BC00067F80F2000F006F800F016F8002010BDBE
:100BD000003C024070B5044600F0C6F94FF47A714B
:100BE000B0FBF1F5284601F04AF800222146501EDC
:100BF00000F010F8002070BD704700BF00F01F0229
:100C0000012191404209920002F1E022C2F8001154
:100C100000BF70472DE9F05F80460D46164600275D
:100C200002F0E8FB074639462A46334601F0070042
:100C3000C0F1070ABAF1040F02D94FF0040A01E02B
:100C4000C0F1070AD14600F1040ABAF1070F02D237
:100C50004FF0000A01E0A0F1030AD4464FF0010A68
:100C60000AFA09FAAAF1010A0AEA020A0AFA0CFACD
:100C70004FF0010B0BFA0CFBABF1010B0BEA030B72
:100C80004AEA0B042146404602F0A0FBBDE8F09F73
:100C900000BF00F00702064B19684FF6FF0319402A
:100CA000044B0B4343EA0221014B196000BF70471C
:100CB0000CED00E00000FA0570B504460E46002574
:100CC000A748006800F00F00B0426FD2A4490E7030
:100CD0000846006800F00F00B04201D0012070BD4E
:100CE000207800F00200022807D19E48006820F01A
:100CF000F000A16808439B490860207800F00100DB
:100D000000283ED06068012807D19648083800685E
:100D1000C0F34040B8B90120E1E76068022802D082
:100D20006068032807D18F4808380068C0F3406026
:100D300048B90120D3E78B4808380068C0F3400069
:100D400008B90120CBE78748006820F003006168FC
:100D5000084384490860FFF717FF054660680128CB
:100D600010D108E0FFF710FF401B41F288318842A4
:100D700001D90320B3E77B48006800F00C00042889
:100D8000F0D1CDE06068022811D108E0FFF7FCFE49
:100D9000401B41F28831884201D903209FE7714806
:100DA000006800F00C000828F0D1B9E024E0606889
:100DB000032810D108E0FFF7E7FE401B41F288311D
:100DC000884201D903208AE76648006800F00C00D9
:100DD0000328F0D1A4E008E0FFF7D6FE401B41F263
:100DE0008831884201D9032079E75E48006800F025
:100DF0000C000028F0D193E0207800F002000228D7
:100E000007D15848006820F0F000A1680843554910
:100E10000860207800F00100002877D06068012881
:100E200007D1504808380068C0F34040B8B90120E5
:100E300055E76068022802D06068032807D1494856
:100E400008380068C0F3406048B9012047E74548CA
:100E500008380068C0F3400008B901203FE7414866
:100E6000006820F00300616808433E490860FFF70E
:100E70008BFE05466068012810D108E0FFF784FE6C
:100E8000401B41F28831884201D9032027E73548C9
:100E9000006800F00C000428F0D137E060680228F8
:100EA00010D108E0FFF770FE401B41F28831884204
:100EB00001D9032013E72B48006800F00C00082834
:100EC000F0D123E06068032810D108E0FFF75CFE52
:100ED000401B41F28831884201D90320FFE62148B6
:100EE000006800F00C000328F0D10FE008E0FFF7E5
:100EF0004BFE401B41F28831884201D90320EEE6C7
:100F00001848006800F00C000028F0D114490E7059
:100F10000846006800F00F00B04201D00120DEE674
:100F2000207800F00400042807D10E48006820F45F
:100F3000E050E16808430B490860207800F00800A1
:100F4000082808D10748006820F46040216940EA79
:100F5000C100044908600F20FFF73CFE0020BEE6F8
:100F6000003C02400838024010B500F019F8094969
:100F7000096801F0F001F02292FAA2F2B2FA82F2CC
:100F8000D140054A515CC8400449086008460068E1
:100F900010BD000008380240F42B010814000020A6
:100FA00070B50021002200230020274C246804F0A3
:100FB0000C0424B1042C04D0082C41D103E02348B4
:100FC00040E023483EE0204C241F246804F03F0109
:100FD0001D4C241F246804F4800484B11C4CB4FB11
:100FE000F1F5194C241F246847F6C076344096FA70
:100FF000A6F6B6FA86F6F44005FB04F20FE0134CB1
:10100000B4FBF1F5104C241F246847F6C076344039
:1010100096FAA6F6B6FA86F6F44005FB04F20A4CF8
:10102000241F246804F440344FF4403595FAA5F5A4
:10103000B5FA85F5EC40641C6300B2FBF3F001E007
:10104000024800BF00BF70BD083802400024F40011
:1010500000127A0038B504460025207800F001001F
:10106000002866D0F748006800F00C0004280DD076
:10107000F448006800F00C00082813D1F148001F64
:10108000006800F48000B0F5800F0BD1ED480838FF
:101090000068C0F3404000284BD06068002848D169
:1010A000012038BD0020E749891F0870FFF76CFD5B
:1010B000054608E0FFF768FD401B41F28831884291
:1010C00001D90320EDE7DF4808380068C0F340404D
:1010D0000028EFD12079DB49891F08706068A0B132
:1010E000FFF752FD054608E0FFF74EFD401B41F2B9
:1010F0008831884201D90320D3E7D24808380068F4
:10110000C0F340400028EFD013E0FFF73DFD054657
:1011100008E0FFF739FD401B41F28831884201D9D0
:101120000320BEE7C74808380068C0F340400028E5
:10113000EFD1207800F00200022869D1C148006890
:1011400000F00C0058B1BF48006800F00C000828FF
:1011500021D1BC48001F006800F48000D8B9B9480C
:1011600008380068C0F3400020B1E068012801D0D1
:10117000012096E7B3480838006820F0F800F8220C
:1011800092FAA2F2B2FA82F2216991400843AD4983
:10119000083908603CE0E06828B30120AA490860EB
:1011A000FFF7F2FC054606E0FFF7EEFC401B642863
:1011B00001D9032075E7A34808380068C0F3400050
:1011C0000028F1D09F480838006820F0F800F82285
:1011D00092FAA2F2B2FA82F2216991400843994947
:1011E0000839086014E0002097490860FFF7CCFC3C
:1011F000054606E0FFF7C8FC401B642801D9032020
:101200004FE7904808380068C0F340000028F1D14B
:10121000207800F0080008282CD16069A8B10120CE
:101220008A490860FFF7B0FC054606E0FFF7ACFC12
:10123000401B642801D9032033E782486C300068E2
:10124000C0F340000028F1D014E000207F4908607E
:10125000FFF79AFC054606E0FFF796FC401B642862
:1012600001D903201DE777486C300068C0F34000C7
:101270000028F1D1207800F0040004286CD100BFD0
:1012800070483830006840F080506E49383108604E
:101290000846006800F08050009000BF6C4800686D
:1012A00040F480706A490860FFF76EFC054606E06E
:1012B000FFF76AFC401B642801D90320F1E664486B
:1012C000006800F480700028F2D000205D49683189
:1012D0000870FFF759FC054608E0FFF755FC401B76
:1012E00041F28831884201D90320DAE65548683056
:1012F0000068C0F340000028EFD1207A51496831DE
:101300000870A068A0B1FFF73FFC054608E0FFF7B2
:101310003BFC401B41F28831884201D90320C0E6E2
:10132000484868300068C0F340000028EFD013E060
:10133000FFF72AFC054608E0FFF726FC401B41F2B8
:101340008831884201D90320ABE63E486830006806
:10135000C0F340000028EFD1A069E8B33948006825
:1013600000F00C00082869D0A069022850D10020A4
:1013700035490866FFF708FC054606E0FFF704FC60
:10138000401B642801D903208BE62E4808380068EA
:10139000C0F340600028F1D1D4E90701084347F6C3
:1013A000C07292FAA2F2B2FA82F2616A91400843E4
:1013B0000122A16AC2EB51014FF4403292FAA2F22B
:1013C000B2FA82F2914008434FF0706292FAA2F2B0
:1013D000B2FA82F2E16A00E032E091400843194932
:1013E000091F0860012018490866FFF7CDFB054674
:1013F00006E0FFF7C9FB401B642801D9032050E633
:10140000104808380068C0F340600028F1D017E0A9
:1014100000200D490866FFF7B7FB054606E0FFF719
:10142000B3FB401B642801D903203AE6054808387D
:101430000068C0F340600028F1D101E0012030E6EF
:1014400000202EE60838024000004742800E474246
:101450000070004010B504460CB9012010BD94F88E
:10146000510028B9002084F85000204600F036F8DA
:10147000022084F851002068006820F040002168B4
:101480000860D4E901010843E16808432169084381
:1014900061690843218B01F400710843E169084345
:1014A000216A0843A16A0843216808600421A069F1
:1014B00001EA1040616A0843216848602168E06AD7
:1014C00008612068C06920F400602168C8610020BC
:1014D0006065012084F851000020BFE770472DE9C6
:1014E000FC4104460E4615461F464FF0000894F88E
:1014F000510001287AD106B115B90120BDE8FC815F
:1015000000BF94F85000012801D10220F6E7012025
:1015100084F8500000BF222084F85100002060654C
:10152000A663A587E587A064E064A086E086A0683E
:10153000B0F5004F05D12068006820F48040216894
:101540000860A06AB0F5005F0DD100BF2068006898
:1015500020F40050216808602068006840F40050C2
:101560002168086000BF6068B0F5827F0ED1A06876
:1015700060B900BF002084F8500000BF2B463246FF
:1015800031462046009700F0A5F9B7E720680068CB
:1015900000F04000402805D02068006840F040007E
:1015A00021680860E06810BB12E03B460022012180
:1015B000204601F081FE08B103209FE72068C06843
:1015C000C1B2A26B501CA0631170E08F401EE08777
:1015D000E08F0128E9DCA06AB0F5005F28D120681F
:1015E000006840F480502168086021E092E012E039
:1015F0003B4600220121204601F05EFE08B1032097
:101600007CE72068C068A16B0880A06B801CA06389
:10161000E08F401EE087E08F0128E9DCA06AB0F58A
:10162000005F05D12068006840F4805021680860A0
:101630003B4600220121204601F03EFE08B1032076
:101640005CE7E06838B92068C068C1B2A26B501C82
:10165000A063117006E02068C068A16B0880A06BD1
:10166000801CA063E08F401EE087A06AB0F5005F99
:1016700011D13B4600220121204601F01DFE28B178
:10168000606D40F002006065032037E72068C068A5
:1016900080B2019000BF6068B0F5827F0DD1A06874
:1016A000B0F5004F03D0A068B0F5806F05D1206879
:1016B000006820F0400021680860012084F8510093
:1016C00020688068C0F30018A06AB0F5005F1BD1E5
:1016D000B8F1000F18D0606D40F00200606500BFE7
:1016E0002068006820F400502168086020680068C5
:1016F00040F400502168086000BF00BF002084F85B
:10170000500000BF0120F9E600BF002084F850001F
:1017100000BFF3E60220F1E6F8B504460E46154692
:101720001F4694F85100012873D106B10DB901206C
:10173000F8BD00BF94F85000012801D10220F7E75E
:10174000012084F8500000BF122084F851000020CE
:1017500060652663A586E586E064A064A087E087CF
:10176000A06AB0F5005F0DD100BF2068006820F4CA
:101770000050216808602068006840F4005021682B
:10178000086000BFA068B0F5004F05D12068006870
:1017900040F48040216808602068006800F0400044
:1017A000402805D02068006840F0400021680860AB
:1017B000E06878BB606810B1E08E012808D1216B29
:1017C000481C206308782168C860E08E401EE086CF
:1017D00011E03B4600220221204601F06DFD08B1D8
:1017E0000320A5E7216B481C206308782168C860A6
:1017F000E08E401EE086E08E0028EADCA06AB0F5AC
:10180000005F38D12068006840F48050216808608B
:1018100031E05DE0FFE7606810B1E08E012809D19A
:10182000206B00882168C860206B801C2063E08EDC
:10183000401EE08612E03B4600220221204601F0D5
:101840003BFD08B1032073E7206B00882168C86066
:10185000206B801C2063E08E401EE086E08E002816
:10186000E9DCA06AB0F5005F05D12068006840F4AB
:101870008050216808603B4600220221204601F08A
:101880001BFD28B1606D40F01000606503204FE73C
:101890003B4601228021204601F00EFD28B1606DFB
:1018A00040F010006065032042E7A06838B900BF2F
:1018B0002068C068009020688068009000BF012008
:1018C00084F8510000BF002084F8500000BF2FE7CB
:1018D00002202DE72DE9F84F04460E4617461D4617
:1018E000DDF828904FF00008C24694F85180B8F116
:1018F000010F02D0B8F1220F76D10EB107B115B9A0
:101900000120BDE8F88F00BF94F85000012801D1F4
:101910000220F6E7012084F8500000BF94F851003F
:10192000012802D1322084F8510000206065A763AD
:10193000A587E5872663A586E586A064E064A06A9E
:10194000B0F5005F0DD100BF2068006820F40050A2
:10195000216808602068006840F400502168086031
:1019600000BF2068006800F04000402805D02068D3
:10197000006840F0400021680860E068B0F5006F42
:1019800075D1606830B16068B0F5827F0CD1E08EAF
:10199000012809D1206B00882168C860206B801C59
:1019A0002063E08E401EE086E08EF0B9A06AB0F5BC
:1019B000005F05D12068006840F48050216808600D
:1019C0004B4600220121204601F076FC08B103209D
:1019D00097E72068C068A16B0880A06B801CA0639B
:1019E000E08F401EE087C7E01AE131E04B4600225D
:1019F0000221204601F060FC08B1032081E7206B42
:101A000000882168C860206B801C2063E08E401E27
:101A1000E086E08E48B9A06AB0F5005F05D1206885
:101A2000006840F48050216808604B460022012184
:101A3000204601F041FC08B1032062E72068C0683D
:101A4000A16B0880A06B801CA063E08F401EE08724
:101A5000E08E0028CADC60680028C4D14B46002212
:101A60000121204601F028FC10B1032049E70AE0DB
:101A70002068C068A16B0880A06B801CA063E08F09
:101A8000401EE08778E0606830B16068B0F5827F22
:101A90000BD1E08E012808D1216B481C2063087807
:101AA0002168C860E08E401EE086E08ED0B9A06A52
:101AB000B0F5005F05D12068006840F480502168CF
:101AC00008604B4600220121204601F0F5FB08B1D9
:101AD000032016E72068C068A16B0870E08F401EE5
:101AE000E08749E030E04B4600220221204601F029
:101AF000E3FB08B1032004E7216B481C206308784E
:101B00002168C860E08E401EE086E08E48B9A06A79
:101B1000B0F5005F05D12068006840F4805021686E
:101B200008604B4600220121204601F0C5FB08B1A8
:101B30000320E6E62068C068C1B2A26B501CA06317
:101B40001170E08F401EE087E08E0028CBDC6068DB
:101B500090B94B4600220121204601F0ADFB08B1AF
:101B60000320CEE62068C068C1B2A26B501CA063FF
:101B70001170E08F401EE087A06AB0F5005F11D1C0
:101B80004B4600220121204601F096FB28B1606DF2
:101B900040F0020060650320B3E62068C06880B2B0
:101BA000009000BF4B4601228021204601F084FBBB
:101BB00028B1606D40F0100060650320A1E60120AF
:101BC00084F8510020688068C0F3001AA06AB0F55C
:101BD000005F1FD1BAF1000F1CD0606D40F0020011
:101BE0006065A06AB0F5005F0DD100BF2068006895
:101BF00020F40050216808602068006840F400501C
:101C00002168086000BF00BF002084F8500000BFBA
:101C1000012076E600BF002084F8500000BF70E687
:101C200002206EE670B504460E4615460CB901203A
:101C300070BD94F83D0028B9002084F83C0020468F
:101C400000F01CF804F108012068FEF7F9FD3146A8
:101C5000A2682068FEF720FE2946236BD4E9010222
:101C6000FEF7C5FDA168206850F8210040F0010092
:101C7000A268216841F822000020D9E7704770B5BA
:101C800004462546681EB0F1807F01D301200FE095
:101C9000681E4FF0E02148610F214FF0FF3001F046
:101CA00095FB00204FF0E0218861072008610020AB
:101CB00070BD7047704710B504460CB9012010BDC7
:101CC00094F8390028B9002084F83800204600F044
:101CD0000CF8022084F83900211D206800F040F93A
:101CE000012084F839000020E9E7704701460868C0
:101CF000C06840F001000A68D0600868006840F0E1
:101D000001000A68106000207047704710B5044653
:101D100020680069C0F34000D8B12068C068C0F3F3
:101D20004000B0B16FF00200216808610120207608
:101D30002068806900F0030018B12046FFF7E5FF36
:101D400005E0204600F0ADF8204600F0ABF800209A
:101D5000207620680069C0F38000D8B12068C06890
:101D6000C0F38000B0B16FF0040021680861022068
:101D700020762068806900F4407018B12046FFF793
:101D8000C4FF05E0204600F08CF8204600F08AF8F9
:101D90000020207620680069C0F3C000D8B1206818
:101DA000C068C0F3C000B0B16FF0080021680861DE
:101DB000042020762068C06900F0030018B1204696
:101DC000FFF7A3FF05E0204600F06BF8204600F087
:101DD00069F80020207620680069C0F30010D8B1AF
:101DE0002068C068C0F30010B0B16FF01000216827
:101DF0000861082020762068C06900F4407018B19E
:101E00002046FFF782FF05E0204600F04AF8204612
:101E100000F048F8002020762068006900F00100FA
:101E200058B12068C06800F0010030B16FF00100C7
:101E300021680861204600F037F820680069C0F387
:101E4000C01058B12068C068C0F3C01030B16FF046
:101E50008000216808612046FFF72BFF2068006999
:101E6000C0F3801058B12068C068C0F3801030B152
:101E70006FF0400021680861204600F029F82068D2
:101E80000069C0F3401058B12068C068C0F340102A
:101E900030B16FF02000216808612046FFF70AFF8B
:101EA00010BD70477047000010B504462068B0F1BF
:101EB000804F06D00449084420B9044800F02BFFA5
:101EC00000E000BF00BF10BD0000FFBFBC9E0020AF
:101ED000704700BFFEE77047704700001448006875
:101EE00040F47000124908601248006840F0010098
:101EF0001049086000200F49083108600D4800684B
:101F00000D4908400B4908600C48091D0860081F6E
:101F1000006820F48020091F0860002005490C316A
:101F200008604FF000600249803908607047000087
:101F300088ED00E000380240FFFFF6FE103000247C
:101F400010B50248FFF7E2FE10BD0000D8A0002047
:101F500010B50248FFF7DAFE10BD000014A1002002
:101F6000002202682C4B98420ED0B0F1804F0BD06B
:101F70002A4B984208D02A4B984205D0294B9842C8
:101F800002D0294B984201D1012300E000231BB16C
:101F900022F070024B681A431F4B984220D0B0F1D8
:101FA000804F1DD01D4B98421AD01D4B984217D020
:101FB0001C4B984214D01C4B984211D01B4B98429A
:101FC0000ED01B4B98420BD01A4B984208D01A4B9C
:101FD000984205D0194B984202D0194B984201D132
:101FE000012300E000231BB122F44072CB681A43A6
:101FF00002608B68C3620B688362074B984202D011
:10200000094B984201D1012300E000230BB10B6979
:102010000363012343617047000001400004004056
:1020200000080040000C0040000401400040014056
:10203000004401400048014000180040001C0040DE
:102040000020004000BFFEE70FB583B003A80FC813
:1020500000F060FCCDE9010107B000BD1FB5DDE96E
:10206000010100F06FFB04B010BD1CB500F056FD7F
:10207000CDE900011CBD0FB583B003A80FC800F067
:102080002FFBCDE9010107B000BD1CB5044600F0EF
:1020900006F8204600F062FBCDE900011CBD10B53A
:1020A000FEF778FD10BD000008B500BF6748006866
:1020B00040F00100654908600846006800F0010032
:1020C000009000BF00BF0846006840F002000860B2
:1020D0000846006800F00200009000BF00BF0846FC
:1020E000006840F0040008600846006800F0040042
:1020F000009000BF00BF0846006840F0080008607C
:102100000846006800F00800009000BF00BF0846C5
:10211000006840F0100008600846006800F01000F9
:10212000009000BF00BF0846006840F02000086033
:102130000846006800F02000009000BF00BF08467D
:10214000006840F0400008600846006800F0400069
:10215000009000BF00BF0846006840F080000860A3
:102160000846006800F08000009000BF00BF3748BC
:102170001430006840F48070344914310860084617
:10218000006800F48070009000BF00BF084600683F
:1021900040F4007008600846006800F40070009089
:1021A00000BF00BF081F006840F00050091F086012
:1021B0000846006800F00050009000BF00BF2348B0
:1021C0000830006840F001002049083108600846E6
:1021D000006800F00100009000BF00BF1B481030F5
:1021E000006840F400401949103108600846006852
:1021F00000F40040009000BF00BF1448006840F4A5
:102200008000124908600846006800F480000090D1
:1022100000BF00BF0D481430006840F001000B49BA
:10222000143108600846006800F00100009000BF0B
:1022300000BF081F006840F00100091F0860084641
:10224000006800F00100009000BF08BD3038024077
:1022500001460448006800F50040024A1060002072
:10226000704700000000002000BF00F0CDFFFCE739
:1022700006461348007800F0010040B9104801F00C
:10228000A3FD20B10F4806600D48AFF3008000BFEA
:102290000C480468002504E02946204602F0E0F8D6
:1022A0006D1C6069A842F7D800BF06490868002184
:1022B000C16100BF0120FEF74FFB00F0A5FFE7E77B
:1022C000280000202C0000202DE9F04107460C4694
:1022D00015461E4606484560866003200449C860CE
:1022E000084604603846FEF745FB0020BDE8F08153
:1022F000589F002000BFFEE72DE9F04107460C463D
:1023000015461E46012007498860084645600220A0
:10231000C8600846046006613846FEF72BFB0020C3
:10232000BDE8F081589F002070B594B00446254662
:1023300006AE18216846FEF744F8D5E90401CDE958
:102340000001D5E90601CDE90201182269463046AF
:10235000FEF705F800BF182206A90CA8FDF7FFFF3D
:10236000DDE90E01CDE912010548DDE9121203880D
:102370000B44038043881344438000BF14B070BDF6
:102380000C9D002086B0FEF70DFC00F0C7F8FFF7AB
:102390008BFE00F063FC00F0EDF900F03DFA00F078
:1023A00063FA00F0D3FB314A4FF0C041304800F0EF
:1023B000E1FE3048304A31490023026141618361C6
:1023C00000BF00F11003836000BF00BF01F02EF8D2
:1023D0000121284801F016F8294800F0FDFE29A146
:1023E0002A4800F035FF2AA12C4800F031FF0221D5
:1023F0002B4800F03FFF01212A4800F0DBFE4FF49C
:10240000A0704FF4F07300221146009002A802F071
:10241000A7FD254C02A904A802F099FD05466E46C9
:102420002888208068886080A888A080E888E0806C
:102430002146304602F08BFD064600BF9FED1B0A89
:1024400084ED030A84ED020A00BF204600210A46FB
:102450009FED160A80ED030A80ED020A018042809A
:1024600000BF00BF0520FEF777FAFBE7FFFF07007C
:10247000349F0020109F0020000402400C00002028
:10248000D9260008757365720000000085260008D3
:1024900052656E646572657200000000CD2500080B
:1024A00021270008292300080C9D002000000000BF
:1024B00008B50646344600BF206A834600BF00BF09
:1024C000DBF83C0007460020009081461DE007F045
:1024D0000100B8B109F101086069404500D810E079
:1024E00008EB4802216901EB8200856800BF05E026
:1024F000D4F820A05046E96888476D68002DF7D1D0
:1025000000BF00BF09F101097F08002FDFD100BF24
:102510000020E06100BF00F077FED0E700B593B087
:1025200000BF2748006840F08050254908600846F1
:10253000006800F08050019000BF00BF2148006893
:1025400040F480401F4908600846006800F480405D
:10255000019000BF012002900390022008904105E5
:10256000099110210A914FF4B4710B9102210C9141
:1025700007210D9102A8FEF76DFD08B1FFF7BAFE25
:102580000F200E9002200F90002010904FF4A050CA
:102590001190129005210EA8FEF78EFB08B1FFF7EF
:1025A000A9FEFEF7EBFA41F20101884205D1064887
:1025B000006840F480700449086013B000BD00005A
:1025C0004038024000700040003C024008B56846B8
:1025D00000BF2649086A41680F4600BF244800F042
:1025E0005BFE2249086A4FF42A4101F066FC3C4632
:1025F00020A54FF6FF78002600202081608105E0AD
:10260000A95D4246204602F05DF8761CA85D0028D0
:10261000F6D100BF00BF1A48008805462946384653
:1026200002F08EF804464FF6FF722146384602F05B
:1026300095F800BF1248408805462946384602F002
:102640007FF804464FF6FF722146384602F086F8BE
:102650000649086A01680C460023094A034801F04C
:10266000AAFC002000F0DEFDB8E70000109F00206B
:10267000512200082020202020202020202020007F
:102680000C9D002008B5684600BF0121064800F0F7
:10269000B9FE00BF05480068401C044908600A20D4
:1026A00000F0C0FDF6E70000109F002000000020B1
:1026B00010B504462146024800F0CFFC10BD0000D2
:1026C000349F002010B504462146024800F08CFCDF
:1026D00010BD0000349F002001460020704700001C
:1026E0003FB58BB00D4C0BA80FC805AD0FC5089DAD
:1026F0002946D4F8FC0001F031FA06A807C88DE895
:1027000007002A46214603A8059B00F079FFDDE972
:102710000301CDE909010FB030BD0000389D002054
:1027200010B50446054800F035FD05480068401C1A
:10273000034908600846006810BD000000F001F081
:102740000800002070B504460D462A46214602487E
:1027500001F01EF870BD0000389D00201CB5044635
:102760002146034801F0B5F8CDE900011CBD000089
:10277000389D002010B54FF00070234948600021BB
:1027800021488160C1604FF4806101610021416195
:1027900081614FF48071C16149020162002141628F
:1027A000032181620021C162016318481649086053
:1027B0000846FEF793F808B1FFF79CFD0020144986
:1027C00048608021124881600021C1604FF480611F
:1027D000016149004161890081610021C1614FF4BB
:1027E0000031016200214162032181620021C16246
:1027F00001630848064908600846FEF76FF808B10B
:10280000FFF778FD10BD0000E09F002058640240F3
:1028100030A000202860024010B51148114908601E
:1028200030211048C16100218160416102210161B4
:10283000002181620721C1620021C16001624FF461
:1028400000718161102141624FF482700549486036
:102850000846FEF7FFFD08B1FFF74CFD10BD000074
:10286000003C004080A0002010B5264800684008C9
:102870004FF47A71B0FBF1F0441E234823490860FD
:1028800031212248C1604460002101618160FFF76D
:1028900012FA08B1FFF72EFD1C48FFF727FA08B11E
:1028A000FFF728FD1748006840084FF47A71B0FB25
:1028B000F1F0441EC8061649086040F2E73114489A
:1028C000C16044600A21016100218160FFF7F3F9D2
:1028D00008B1FFF70FFD0E48FFF708FA08B1FFF740
:1028E00009FD012200211920FEF794F91920FEF7B5
:1028F00084F9012200211C20FEF78CF91C20FEF730
:102900007CF910BD1400002000000140D8A0002078
:1029100014A100202DE9FF4383B06049086A416893
:1029200088465E484FF44045036A2946186800BF50
:102930008288C78802FB07F6324603E0876827F8DB
:102940001210521E002AF9DC00BF00BF069C45464B
:1029500053A64FF6FF79002700202881688105E003
:10296000F15D4A46284601F0ADFE7F1CF05D00286F
:10297000F6D100BF4FF6FF7252A1404601F0EEFEC5
:102980004046A16B01F02CFE05464FF6FF7229462A
:10299000404601F0E3FE4FF6FF724CA1404601F0C5
:1029A000DDFE4FF6FF724AA1404601F0D7FEA06B54
:1029B0000168404601F014FE05464FF6FF722946B5
:1029C000404601F0CBFE4FF6FF7244A1404601F0B5
:1029D000C5FEA06B50F8041C404601F001FE054600
:1029E0004FF6FF722946404601F0B8FE4FF6FF72DF
:1029F00036A1404601F0B2FE4FF6FF723AA14046C2
:102A000001F0ACFE4046E16B01F0EAFD05464FF6F1
:102A1000FF722946404601F0A1FE4FF6FF722BA13E
:102A2000404601F09BFE4FF6FF7232A1404601F096
:102A300095FE3349D1F8FC0000F13C010D464FF6FC
:102A4000FF72404601F08AFE4FF6FF721FA140461A
:102A500001F084FE4FF6FF722AA1404601F07EFE8F
:102A60004046069901F0BCFD05464FF6FF72294627
:102A7000404601F073FE4FF6FF7214A1404601F08C
:102A80006DFE0649086A01680D46044801F05AFACD
:102A9000DDE9010107B0BDE8F0830000109F0020D0
:102AA00048617264204661756C74204572726F7261
:102AB0002061742061646472657373203A20200A77
:102AC000000000005043202D3E2000003B0A000083
:102AD000285043202D203129202D3E003B0A28502C
:102AE0004329202D3E00000058505352202D3E20F7
:102AF00000000000546872656164202D3E200000D3
:102B0000389D002054687265616420537461636B62
:102B100020616464726573732D3E20001FB50A4CFA
:102B200004F5827001F0FDFAC4F8FC00D4F8FC0052
:102B300000F10C010022684601F0E0FCDDE9000133
:102B4000CDE9020104B010BD389D002010B501236D
:102B50001A4604213948FFF7B7FB0223002201215E
:102B60003748FFF7B1FB01231A4602213448FFF72B
:102B7000ABFB01231A4604213148FFF7A5FB0123D3
:102B80001A4608212E48FFF79FFB01231A46102101
:102B90002B48FFF799FB0223012204212948FFF764
:102BA00093FB0223012210212648FFF78DFB02230D
:102BB000012208212348FFF787FB0223012220215D
:102BC0002048FFF781FB01231A464FF6FF711E488C
:102BD000FFF77AFB0C2302224FF6B3711B48FFF775
:102BE0008BFB0C2302224FF683711448FFF784FB02
:102BF0000C2302224FF23F011548FFF77DFB0C2307
:102C000002223F211348FFF777FB062302225102DD
:102C10000B48FFF771FB06230222D1020848FFF799
:102C20006BFB0623022291020548FFF765FB002398
:102C30000122D1030848FFF747FB10BD00100240F6
:102C400000080240001C024000040240000C024048
:102C500000140240001802400000024010B54FF07E
:102C60002040194908601948486004201849086044
:102C700000204860052088600020C86004200861AA
:102C80000020486188611049886000210E48C160B9
:102C900001611021416100218161C1614FF48061B6
:102CA0000162002141624FF4805181620021C162C2
:102CB000016341638163064A1146FEF7B3FF08B121
:102CC000FFF718FB10BD0000809F0020040100A04A
:102CD000C49F00200A6A02624A6A42628A6A826269
:102CE000CA6AC262CA69C2618A6982614A6942610A
:102CF0000A690261CA68C2608A6882604A68426082
:102D00000A6802600A6B02634A6B42638A6B8263E1
:102D1000CA6BC263704730B587B004460020E063D9
:102D200004F1240000F0E9FF2062206AB0F5BE7FC4
:102D30005BDDD4E90001C4E9040103AD04F1240121
:102D400005A800F0E1FFDDE90501CDE90101019AE7
:102D50001001029A1101112290FBF2F2D0101922F7
:102D600091FBF2F2D11001900291019AC2F5F0723A
:102D70000192DDE90123C5E9002300BFDDE903017C
:102D8000C4E90001A268A169881A00EBD07102EBC6
:102D90006101A160E269E168501A00EBD0714A104C
:102DA000E1680A44E260E06B40F00100E06394F8FF
:102DB0004000012807D121692068401AA06161689C
:102DC0006069091AE16194F84200012809D13C3494
:102DD000207100206071A071206840F0020044F86A
:102DE0003C09012084F8400018E094F840000128D4
:102DF00009D184F84100002084F84000E06B40F0E5
:102E00000400E06302E0012084F842000020A06199
:102E10000021E1612061616120606060E06B07B0CA
:102E200030BD000070B504460D460DB9012000E02C
:102E30000020060006D0084D28682060204600F0DB
:102E40008FFE0446286820606868216851F8141CC9
:102E50006050204670BD0000442D010830B5054685
:102E60000B46144600BF4FF480201E49086000BF87
:102E700000BF1BB100BF0220086005E000BF4FF497
:102E800000301849086000BF00BF284600F02CF849
:102E900000BF04201349086000BF07201CE000BFEA
:102EA0004FF480210F4A116000BF00BF44FA00F1C7
:102EB00001F0010119B100BF0221116005E000BF5E
:102EC0004FF40031074A116000BF00BF00BF04216A
:102ED000044A116000BF401E0028E0DA284600F0D6
:102EE0000DF830BD1808024000BF4FF40021024A1F
:102EF000116000BF704700001808024000BF0821A1
:102F0000014A116000BF70471808024070B50446BE
:102F10000D460DB9012000E00020060010D0134D31
:102F20002868206004F1240000F01AFEA0F12404B7
:102F300005F10C0104F12400FFF774FFA0F1240453
:102F400020460B49016000BF0A49016000BF0446EA
:102F5000286820606868216851F80C1C6050A868D7
:102F6000216851F8101C6050204670BD682D010882
:102F7000D02D0108B42D01082DE9F84F04468A46EA
:102F800016469846DDF82890216851F80C1C08195F
:102F9000314601F0B4FF07460FB9BDE8F88F11487C
:102FA0000090216851F8101C081943460022514630
:102FB00001F00EFA05463DB9216851F80C1C0819BC
:102FC000394601F07EFFE8E700BF27616661E560F2
:102FD000C4F82090C4F818800020E06100BF00BF52
:102FE000DBE700001C2F01082DE9F04105460E46E5
:102FF00016B90020BDE8F08100BF6C6800BF21E079
:10300000E068B0421DD32146284601F05DF806F184
:103010002000E168814209D332462146284600F06B
:103020008FF807463946284601F00FF8214605F18A
:103030000C0001F00AF8A869401CA86104F1100016
:10304000D8E7A468002CDBD1FDF766F90621016002
:10305000E869401CE8610020CCE770B504460D46E5
:1030600045B9E069401CE061FDF756F905210160B2
:10307000084670BDFDF750F900210160A5F110066A
:10308000FDF74AF90068052803D1FDF745F9006806
:10309000EFE7314604F10C0001F016F83146204606
:1030A00000F0D3FF2146204600F004F8FDF734F984
:1030B0000068DEE72DE9F04107460E4600BF3068A4
:1030C000022803D24FF0FF30BDE8F08100BFB068A6
:1030D000846800BFB56800BF12E0E868284410307B
:1030E000A0420BD1E968E06810300844E86021464E
:1030F000304600F0E9FF386A401C386225466468B3
:10310000002CEAD100BF7068846800BF7068054673
:1031100012E0E86828441030A0420BD1E968E0686A
:1031200010300844E8602146304600F0CDFF386A90
:10313000401C38622546A468002CEAD10020C3E771
:1031400010B5034600208C1804F11000CC68A41AB6
:10315000103CC460CA6010BD10B50446204600F0A3
:10316000DCFF044604F10C0000F0D7FFA0F10C04D2
:10317000204610BD2DE9F04107460C46154626466F
:10318000A5F11400F0603146384600F05EFFBDE85E
:10319000F08100001FB50446054B0FCB8DE80F00F2
:1031A00001949DE80F00FDF748F804B010BD000041
:1031B000842C01087FB504460D46064B0FCB8DE8E5
:1031C0000F00019402959DE80F00FDF736F804B05A
:1031D00070BD0000742C01081FB50446054B0FCBD1
:1031E0008DE80F0001949DE80F00FDF726F804B06C
:1031F00010BD0000342C010870B504460D46294668
:103200002046FFF79FFA70BD1FB5054B0FCB8DE829
:103210000F009DE80F00FDF710F804B010BD00008E
:10322000542C01081FB50446054B0FCB8DE80F0049
:1032300001949DE80F00FDF700F804B010BD0000F8
:10324000242C010810B5FCF7FAFF002010BD000087
:103250007FB504460D46064B0FCB8DE80F00019459
:1032600002959DE80F00FCF7E8FF04B070BD000078
:10327000042C01087FB504460D46064B0FCB8DE8A4
:103280000F00019402959DE80F00FCF7D6FF04B0F3
:1032900070BD0000642C01081FB50446054B0FCB20
:1032A0008DE80F0001949DE80F00FCF7C6FF04B005
:1032B00010BD0000442C01082DE9F04104460E46E3
:1032C00017461D464FF00008FDF75EFC8046002FB4
:1032D0003ED132E0681C78B32DB1FDF755FCA0EB70
:1032E0000800A84229D92068406820F0E000216841
:1032F00048602068006820F0400021680860A06AEB
:10330000B0F5005F0DD100BF2068006820F40050C8
:10331000216808602068006840F400502168086057
:1033200000BF012084F8510000BF002084F8500045
:1033300000BF0320BDE8F081FFE7206880683040CF
:10334000B04201D1012000E000200028C2D03BE0C3
:1033500030E0681C70B32DB1FDF716FCA0EB08003F
:10336000A84227D92068406820F0E0002168486022
:103370002068006820F0400021680860A06AB0F56D
:10338000005F0DD100BF2068006820F40050216864
:1033900008602068006840F400502168086000BFA1
:1033A000012084F8510000BF002084F8500000BFC5
:1033B0000320BFE7206880683040B04201D101207F
:1033C00000E000200028C4D10020B3E710B5002899
:1033D00007DA0A07140E054A00F00F031B1FD45426
:1033E00003E00A07130E024A135410BD18ED00E063
:1033F00000E400E002480068C0F3022070470000CB
:103400000CED00E010B50246084620B100BF0423D1
:10341000054CA36105E000BF4FF48023024CA3617B
:1034200000BF00BF10BD0000001002402DE9F043B6
:1034300089B00446304DE560A06801F06FFB00BF25
:103440004FF4A0704FF4F07300221146009005A8CD
:1034500001F086FD05A907A801F079FD054629467A
:1034600004F11C0001F091F88046082000F086FC71
:103470000746414600F034FD07462062226A506844
:103480001E49C0F80C110A78002307E0D0F80C514F
:103490006D6815F8323000F10C05EA541500A2F100
:1034A0000102F3D100BF4AF6AA21206A00F005FD0F
:1034B0002546206A066800BF294603A800F0ECFCF8
:1034C00000BF9DF8100018B903A800F0EFFC0FE052
:1034D000314601A801F029FDB0688146A868494637
:1034E000DDE9012301F0D0FA03A800F0DFFC00BF02
:1034F00009B0BDE8F0830000292F0108402B010826
:1035000000F1100100BFA1F110000146084A0A6055
:1035100000BF084A0A6000BF08460749016000F181
:103520001C01064A064A41F81C2900BF084670479C
:10353000E42C0108B42C0108DC2D0108AC2E010894
:10354000C02D01082DE9F04F85B004460E46174600
:103550009846206850F8100C0519B146C246DFF8AD
:1035600050B00397296851F8141C48194FF40071A2
:1035700001F08FFC0290029808B900200EE00320B1
:1035800053464FF400724946CDE9000B029800F013
:1035900095FADDE9020101F045FC0298014604902C
:1035A00004F5827000F0F5FD05B0BDE8F08F000075
:1035B00000A0000A2DE9F04104460F46D4F800614E
:1035C0000020054617E005EB450204F5827101EB8A
:1035D0008200016809B1002100E0012149B905EB31
:1035E000450204F5827101EB820000F09AFDBDE80E
:1035F000F081681C0546082DE5DB3046F7E7000042
:103600000FB42DE9FF5F82460C46D4F8FC004169F7
:10361000039110980190039802901198801E092838
:103620007CD2DFE800F0050C0D583284597C930001
:1036300000232046DDE91212FFF784FF00BF91E06E
:103640004C490398884200D18CE0D4F8FC001299D0
:10365000C26A61F30F02C26200BF04F5B270D4F80F
:10366000FC1000F0AEFD00212046FFF7A3FFC4F8D8
:10367000FC00D4F8FC0000F10C015046109A00F058
:103680003DFFBDE8FF1F5DF814FB102104F1D800D9
:10369000FFF7AAFC06461298F06000BF31460846C4
:1036A000D4F874315B1CC4F87431D4F878313BB968
:1036B000C4F87801C4F87C0100238360436008E00B
:1036C000D4F878218260002343605060C4F8780108
:1036D00000BF00BF46E045E004F19C0B4FF000093D
:1036E000DDE91258DBF8001051F80C1C01EB0B005F
:1036F00001F0B7FB074600BF00203861C7F814800F
:10370000C7F8189000BFFD6000BF00BF00BF0022D7
:1037100039465846009700F07FFE23E021E0164A24
:1037200004F1C000DDE9121300F003FE1AE00021ED
:103730002046FFF73FFFC4F8FC00D4F8FC0000F17E
:103740000C015046109A00F0D9FE9AE704F1C0002F
:10375000129900F062FD05462946204600F098F8CF
:1037600000BF00BF00BFDDE90101CAE9000100BFE1
:1037700087E70000AAAA000A00F001F070B504462D
:103780000D46294604F1D800FFF767FC70BD000024
:103790002DE9FC4105460E4617463A46314605F1ED
:1037A000D800FFF7E7FC2C4C2C480090296851F812
:1037B000101C48192A4B0622214600F009FE8046BB
:1037C000414605F5827000F0FCFC00BF0020254951
:1037D0000123254ACDE90010244905F1C00000F07D
:1037E00045FD0020204B5B1E01222149009005F180
:1037F0009C00FFF7C1FB05F5C27400231A46194669
:1038000004F1240000F0EAF90020E0639FED190ABA
:1038100084ED110A9FED180A84ED120A9FED170A34
:1038200084ED130A9FED160A84ED140AA0610021AD
:10383000E161206161612060606000BF2046114944
:103840000623114ACDE900101049C43800F00EFDDE
:103850000020BDE8FC81000085230008522F0108EC
:10386000AAAA000A312F010802B0000B6922000841
:1038700071220008DF4F0D3ECDCCCC3D00008C42C4
:10388000000048423E2F010800F001F0B12400087A
:1038900070B505460C4694B12046017C09B900215B
:1038A00003E0C16A41F30441491C01EB410105F504
:1038B000827000EB81062146304600F06AFC70BD44
:1038C00070B504460D46294604F1D800FFF78CFB7D
:1038D00070BD2DE9FF4104460E460296D4F8FC0067
:1038E00090F911100391D4F88011481CC4F880019C
:1038F0000A20B1FBF0F200FB121010B9D4F88001DD
:1039000020B9DDE9020104B0BDE8F08104F19C05B5
:10391000E869012801D100200AE000BFEF6800BF7C
:10392000294607F10C0000F0E5FD0120E86138466A
:10393000804641462046FFF7ABFF00BF00BFD4F8EA
:103940007801054604E000BFE868804700BFAD6825
:10395000002DF8D100BF3146D4F8FC0000F0FEF88D
:103960002146204601F036FA2046D4F8FC10FFF735
:103970008FFF00BF00212046FFF71CFEC4F8FC00AB
:10398000D4F8FC0000F10C013246684600F0B6FDA8
:10399000DDE90001B7E7000070B504460D460DB93A
:1039A000012000E00020060010D03E4D2868206075
:1039B00004F1C00000F0D4F8A0F1C00405F12C011E
:1039C00004F1C000FFF72EFAA0F1C0042046014622
:1039D000354A026000BF08463449016000F1080121
:1039E000202280318A600022CA604A6041F8802922
:1039F00000BFA1F1080000BF0446291D04F19C008E
:103A0000FFF784FAA0F19C0405F1100104F1C00055
:103A100000F0B2FCA0F1C00404F1D40000F0A0F862
:103A2000A0F1D40428682060286A216851F80C1C91
:103A30006050686A216851F8101C6050E86944F8C9
:103A40009C0FA86A60621A48A0639C3C04F1D800ED
:103A5000FFF782FBA0F1D80408230C22154904F5D6
:103A6000827000F09FF9A0F5827404F5B27000F046
:103A7000BFFBA0F5B27404F5BA700021416081600B
:103A800000BFA0F5BA7404F5C2710B4A4A6200BFC8
:103A9000A1F5C2740020C4F8FC00401EC4F87001F7
:103AA000204670BD702E0108CC2C01089C2C01080A
:103AB000682E0108F1410008042F01082DE9F047A4
:103AC00005460C4616469946DDE90878361F05EB93
:103AD000060A05F10C00514604220023037104601C
:103AE000C160026187604FFA88F3437100BF4946A5
:103AF000284600F002F8BDE8F087C26A22F0807222
:103B0000C262C26A6FF30F02C262C26A22F08052BE
:103B1000C262C26A22F08042C262C26A22F00052CD
:103B2000C262C26A22F08062C262C26A22F40002E9
:103B3000C262C26A22F40012C262C26A22F0007239
:103B4000C262C26A22F00062C262C26A22F48002C9
:103B5000C262C26A61F31442C262704781627047F6
:103B60000149016070470000CC2E010870B5054680
:103B70000C46164600BF4FF000400849886100BF60
:103B80000A23022221460648FDF7A9FC00BF4FF494
:103B900000400249886100BF002070BD0000024063
:103BA00080A0002070B505460C46164600BF4FF0B9
:103BB00000400849886100BF0A23012221460648C7
:103BC000FDF7AAFD00BF4FF400400249886100BF25
:103BD000002070BD0000024080A00020F8B504461F
:103BE0000F4615461E460120A06060600020E0815F
:103BF000A081009820F00100401C0090009820F067
:103C00000E00801C0090009867F30410009000984C
:103C100020F020000090009820F0C000009069463D
:103C2000204600F042F8A074009820F00E000A3000
:103C30000090009865F3041000906946204600F05B
:103C400034F8E074009820F00E00801D0090009879
:103C500066F3041000906946204600F026F82075AF
:103C60004620A0813220E08101206060A060F8BD84
:103C700070B504460D462574002161742068012248
:103C800004F110014368204698472068022204F19D
:103C90001001036820469847268A05F0080008B9F5
:103CA000361100E03612304670BD10B502460B7872
:103CB000DB071B0E0C78C4F3420443EA04130C78B0
:103CC000C4F3001443EAC4030C78C4F3401443EA79
:103CD00084030C78C4F3811443EA040010BD10B5CA
:103CE0000446A17C2046FFF7C3FF10BD10B5044673
:103CF000E17C2046FFF7BCFF10BD10B50446217DD6
:103D00002046FFF7B5FF10BD7CB504460D4628469A
:103D1000FFF7E5FF00902846FFF7E8FF0190DDE997
:103D20000001C4E900017CBD70B504460D46D43CD9
:103D300029462046FFF722FD70BD70B504460D46AA
:103D4000D43C29462046FFF7BBFD70BD70B5044644
:103D50000D46206850F80C0C044429462046FFF715
:103D6000AFFD70BD70B504460D46206850F8100CCC
:103D7000044429462046FFF701FD70BD10B504003C
:103D800007D1012405E0FCF75DFB006800B9044899
:103D900080472046FCF75AFB0028F4D010BD0000F5
:103DA000AB0400082DE9F0411C4617460E00804682
:103DB00007D0054602E02846B0473D442046641E31
:103DC000F9D24046BDE8F081016809B10020704792
:103DD000012101600846704710B5064C00212046BD
:103DE000FFF7DAFD0448FFF78BFB0448FFF7B4F94F
:103DF00010BD0000389D0020109F0020349F00203F
:103E000010B50B480B4A02600B4A0146426000BFE6
:103E100008460A4901601031416000210161416199
:103E200000BF074C204601F0A2F8044600BF10BDB9
:103E300054000020BC2E0108FC2C0108DC2E0108D7
:103E40000C9D00201CB549F640411148FFF7D4F9FC
:103E5000FFF7F8F91BE00F4C4FF6FF752146684657
:103E600000F01AF800BF9DF8040018B9684600F089
:103E70001DF80BE0A9B24FF4A0734FF4F072A068E4
:103E800000F0F6FC684600F011F800BF00BFE2E762
:103E90006C000020109F002001600A79012A01D1E6
:103EA0000022027101220A71027170470179012911
:103EB00002D1002102681171704770B502460B46AD
:103EC0001C4610688188C68801FB06F5294603E078
:103ED000866826F81140491E0029F9DC00BF70BD34
:103EE0002DE9FE4F07460E463E60314601A801F01F
:103EF0001CF84FF48C70FFF741FF8046C246B34672
:103F000054460025D9460DB9012000E0002000905C
:103F100040B10B4D2868206004F5887001F027F847
:103F2000A0F588744A46291D204600F065FC044629
:103F30002868206000BFA0467C603846BDE8FE8F40
:103F4000EC2D010870B586B005460C4604A829463C
:103F500001600A79012A01D10022027101220A714D
:103F6000027100BF00BF9DF8140020B904A8FFF73C
:103F70009DFF06B070BD02A82188ADF800106188D1
:103F8000ADF80210A188ADF80410E188ADF8061074
:103F9000009901600199416000BF00BFA06806461A
:103FA000A8683146DDE9022300F06EFD04A8FFF7A2
:103FB0007DFF00BFDDE72DE9F04790B006460F46D4
:103FC0001446984631460EA8FFF766FF00BF9DF8DD
:103FD0003C0028B90EA8FFF769FF10B0BDE8F087D4
:103FE00008AD2146284600F0B2FF054694ED020ACE
:103FF00080ED020A94ED030A80ED030A94ED040AB1
:1040000080ED040A94ED050A80ED050A06AD0DF178
:1040100020094946284600F088FF00BF394604A819
:1040200000F083FFB8688246CDF80880DDE906011C
:10403000CDE90001B0685146DDE9042300F078FCC9
:104040000EA8FFF733FF00BFC7E770B504460D4663
:104050002946204600F001F870BD70B50346186887
:10406000401C1860586830B9596099600020886019
:104070004860084670BD5A6800241CE010460D4692
:10408000854201D3012600E00026012E02D114460C
:10409000926810E0506838B1506881608A6050685A
:1040A000486051600846E5E78A600020486051603A
:1040B00059600846DEE7002AE0D1A1600020886050
:1040C00099604C600846D5E770B504460D46294610
:1040D000204600F001F870BD10B502460C4610688D
:1040E00008B9204610BD1068401E10606168A368C2
:1040F00029B923B90020506090602046F2E719B931
:1041000053600020586000E08B601BB9002088607D
:10411000916000E059602046E4E700214160816041
:1041200070470146086808B9002070470868401EBB
:1041300008604A68906820B900204860886010468E
:10414000F3E79068486000204B6858601046ECE741
:1041500010B502460C46106808B9204610BD10681C
:10416000401E10606168A36829B923B9002050601F
:1041700090602046F2E719B953600020586000E0D3
:104180008B601BB900208860916000E05960204678
:10419000E4E710B502461068401C1060506840B952
:1041A0005160916000209468A06054686060084687
:1041B00010BD93684B60002088609960916008464C
:1041C000F6E710B502460B4618461468641C1460E6
:1041D00054682CB95060906000248460446006E00C
:1041E00051688160002444604860506000BF10BD89
:1041F000002141608160704770B505460C46296812
:1042000051F8141C481900F03CFE064600BF00BFE0
:10421000F46000BF00BF304670BD2DE9F041044698
:104220000F464FF0000800BFA068206119E0206928
:104230008169B94212D12569E869012801D10020BC
:104240000AE000BFEE6800BF294606F10C0000F04E
:1042500051F90120E8613046BDE8F08120698068AD
:10426000206120690028E2D14046F5E72DE9FF4FA3
:1042700081B0044690469946DDE90EBA216851F8AE
:10428000141C081900F0F5FD054615B905B0BDE888
:10429000F08F216851F8141C0819494600F03AFEC5
:1042A00006463EB9216851F8141C0819294600F049
:1042B0001CFEEBE7CDF800B0216851F8181C081976
:1042C00043460022029900F083F8074677B9216837
:1042D00051F8141C0819294600F007FE216851F80E
:1042E000141C0819314600F0F6FDCFE700BF2E611F
:1042F000C5F81490EF60C5F820A0C5F8188000201C
:10430000E86100BF28466268521C6260A2683AB940
:10431000A060E0600022E3689A60A3685A6006E04B
:10432000E1684160002282608860E06000BF00BFF9
:10433000ACE72DE9F04104460F4615461E4600BF86
:10434000A068206112E020698169A9420BD1206830
:104350003946826820469047804632464146206969
:1043600000F0A4F805E02069806820612069002839
:10437000E9D100BFBDE8F08170B504460D460DB926
:10438000012000E0002006000CD0104D28682060BD
:104390002046FFF7E5FB044605F10C012046FEF739
:1043A00041FD0446286820606868216851F8141CA3
:1043B0006050A868216851F8181C6050201D002129
:1043C0004160816000BF041F204670BD0C2D0108B4
:1043D0002DE9FC470446884615461E46DDF8289020
:1043E000216851F8141C08194FF4007100F051FDB8
:1043F000074617B90020BDE8FC8702202B460202C1
:104400004146CDE900063846FFF758FB4946384695
:1044100000F008FD3846EEE7F0B504460B4660694B
:10442000904200D903B9F0BD02EB4205206900EBD0
:1044300085011E4630460F687F1C0F604F682FB9FC
:104440004860886000278760476006E04D688560A7
:10445000002747606860486000BF00BF00BFE2E718
:104460002DE9F04105460E466869B04201D8BDE825
:10447000F08106EB4602296901EB8200846800BFE7
:1044800010E02F6AD4E90401884203D22069401C5D
:10449000206106E0A069206100BFE068014638465F
:1044A00088476468002CECD100BFE0E7F0B5044613
:1044B0000B466069904200D903B9F0BD02EB42059A
:1044C000206900EB85011E4630460F687F1C0F6097
:1044D0004F682FB94860886000278760476006E012
:1044E0004D688560002747606860486000BF00BF76
:1044F00000BFE2E741610022027170472DE9FF41F0
:1045000005460C46174697B901212171E168A1F1D2
:1045100040002168016061690162009094F9051012
:104520000191DDE90012C5E90012BDE8FF812079A3
:10453000A8B9E068A0F1400639463046FEF7CAFB4C
:104540002068B0636069306201202071009694F9A0
:1045500005000190DDE90001C5E90001E5E72079EA
:10456000012809D1E069009094F905000190DDE986
:104570000001C5E90001D8E7002002900390DDE9C1
:104580000201C5E9000100BFCFE72DE9FF478046E2
:104590000E4600BFB08800BFF18800FB01F5294638
:1045A000404600F04DFC044604F10C07314602A8D9
:1045B00000F0CDFC8146A7604946684600F0C7FC84
:1045C00005462888208068886080A888A080E888C0
:1045D000E08000BF00BF204604B0BDE8F0870000C7
:1045E00070B505460C46102322460349284600F0C4
:1045F0003DF80148801E70BD320000202DE9F05FBB
:104600000E4617469946B7F1000B00DA7F424FF08D
:10461000000800BF97FBF9F009FB10703030C2B200
:10462000404608F10108325497FBF9F0071EF1DC0F
:10463000BBF1000F04DA2D22404608F10108325484
:10464000002006F8080034462046FBF769FE2044A7
:10465000451E06E094F800A0287804F8010B05F840
:1046600001A9AC42F6D32846BDE8F09F2DE9F05FE2
:1046700083460E46174698464FF0000A00BFB7FB28
:10468000F8F008FB10703030C2B250460AF1010A4F
:104690003254B7FBF8F00700F1D106F80A003446AF
:1046A0002046FBF73DFE2044451E06E094F80090AE
:1046B000287804F8010B05F80199AC42F6D3284696
:1046C000BDE8F09FF8B504460D461646D4F80C0137
:1046D00000B9F8BD0A2D08D12089D4F80C11497A07
:1046E0000844208100206081F3E700BF00BFD4F8B8
:1046F0000C01416804F10C00405D01EBC00047680B
:104700000096228961893B46204600F039F860898D
:10471000D4F80C11097A084460816089216851F845
:104720000C1C21448988884207DB00206081208995
:10473000D4F80C11497A0844208100BFC9E7000071
:1047400070B505460C460A23224603492846FFF762
:1047500055FF014870BD0000B0A100202DE9F041D7
:1047600006460C461746002505E0615D3A46304690
:10477000FFF7A8FF6D1C605D0028F6D1BDE8F08151
:104780002DE9FC4F04460D4616469A88D8880190BC
:10479000D4F80480D3F80090019850430090002092
:1047A000216851F80C1C2144C98801FB05F71DE064
:1047B00006EB070C0146DDF800B00BEB000A0CE03D
:1047C00039F811B04FF6FF7EF34503D0DDF82CB079
:1047D00028F81CB00CF1010C11445145F0D32168AC
:1047E00051F80C1C2144C9880F44401C9042DFDB67
:1047F0000020BDE8FC8F00002DE9FF4104460E4675
:1048000017460EB9012000E000205FEA000808D03A
:10481000164E3068206004F5887000F0A8FBA0F503
:1048200088743068206000BFB86860600020208114
:104830006081206850F80C0C0519394602A800F078
:1048400074FBDDE90201CDE90001BDF8000028801C
:10485000BDF802006880BDF80400A880BDF806001D
:10486000E88000BF204604B0BDE8F0810C2F0108AD
:104870002DE9F0410746884614461D46384600F0AB
:1048800017FA4146384600F09DFA264611E02846C0
:1048900009E000BF04210B4A116000BF00BF0904FA
:1048A000116000BF401E0028F3DC384600F0E4F938
:1048B000761E002EEBDA384600F0FAF90020BDE84B
:1048C000F0810000181C02402DE9F84F81468A460D
:1048D00014461D46DDE90A6733462A462146484606
:1048E000009700F010FA5146484600F06BFAB046C7
:1048F00012E0384609E000BF04210C4A116000BFF5
:1049000000BF0904116000BF401E0028F3DC4846C8
:1049100000F0B2F9A8F10108B8F1000FE9DA484651
:1049200000F0C6F90020BDE8F88F0000181C024016
:104930002DE9FF4F83B08346BDF84000BDF8141049
:10494000441A002C06DA6442BDF84400001B80B211
:10495000ADF84400BDF81800A04204DA4FF0FF3073
:1049600007B0BDE8F08FBDF84200BDF81610451A3B
:10497000002D06DA6D42BDF84600401B80B2ADF84E
:104980004600BDF81A00A84202DA4FF0FF30E7E710
:10499000BDF8446004EB0609B9F1000F02DA4FF0EC
:1049A000FF30DDE7BDF81800BDF814100844484595
:1049B00005DABDF81800BDF814100844061BBDF850
:1049C000468005EB080ABAF1000F02DA4FF0FF301B
:1049D000C6E7BDF81A00BDF816100844504506DABF
:1049E000BDF81A00BDF816100844A0EB0508002C0D
:1049F0000ADD4FF4A071A0B200231A46CDE90001F0
:104A000058461299FFF760FF002D09DDA8B2B1B238
:104A1000A2B20023CDE9001058461299FFF754FFC7
:104A20001FFA88F0B3B2AAB2A1B20090584600F0C3
:104A30006AF904EB8400840106EB860004EB80171E
:104A40001CE0384608EB070111E000BF049A32F879
:104A50001020DBF800305A6100BF00BF0422094B70
:104A60001A6000BF00BF12041A6000BF401C8842D9
:104A7000EBDB584600F000F9A7F5A077A742E0DA93
:104A800000206DE7181C02402DE9FF4F81B08146E0
:104A90008846BDF81070BDF8124007FB04FA3B468B
:104AA0000094BDF80E20BDF80C10484600F02BF91C
:104AB000554618E02E4604EB050B0EE038F81610AC
:104AC000484600F01BF900BF04200B49086000BFF6
:104AD00000BF0004086000BF761C5E45EED3484668
:104AE00000F0CAF82D1B002DE4DC484600F0E0F889
:104AF000002005B0BDE8F08F181C0240012904D148
:104B000000BF1022044B1A6005E000BF4FF4801272
:104B1000014B1A6000BF70471808024010B50446E8
:104B200000BF01212046FFF7E9FF0121204600F0E8
:104B30009BF800212046FFF7E1FF0121204600F00D
:104B400093F801212046FFF7D9FF9621204600F077
:104B50008BF800BF0121204600F020F96421204697
:104B600000F082F8C021204600F018F915212046F7
:104B700000F01EF91221204600F01AF9C12120464A
:104B800000F00CF94121204600F012F9C521204621
:104B900000F004F90021204600F00AF94A212046DD
:104BA00000F006F98021204600F002F93621204667
:104BB00000F0F4F84821204600F0FAF83A212046A7
:104BC00000F0ECF85021204600F0F2F8B021204629
:104BD00000F0E4F80221204600F0EAF8B421204673
:104BE00000F0DCF80021204600F0E2F8B621204673
:104BF00000F0D4F82021204600F0DAF80F212046FA
:104C000000F0D6F8E921204600F0C8F8002120463F
:104C100000F0CEF8F721204600F0C0F8A921204688
:104C200000F0C6F85221204600F0C2F82C212046A0
:104C300000F0BEF88221204600F0BAF86421204638
:104C400000F012F81121204600F0A8F89621204625
:104C500000F00AF82921204600F0A0F80F21204694
:104C600000F002F8002010BD70B505460C46204645
:104C7000FBF772FE70BD000010B5044600BF4FF494
:104C800000100A49086000BF00BF8010086000BF24
:104C90000321204600F020F800BF082003490860E7
:104CA00000BF00BF2020086000BF10BD181C0240DC
:104CB00010B5044600BF4FF480100649086000BFDD
:104CC0002046FFF7D9FF00BF10200249086000BF4F
:104CD00010BD0000181C024009E000BF4FF4802204
:104CE000054B1A6000BF00BF04221A6000BF0A0013
:104CF000A1F10101F1D17047181C024000BF026808
:104D0000516100BF70472DE9FC4107460C4615462E
:104D10001E46DDF82080019505EB080080B200906A
:104D20002A21384600F03AF89DF80510384600F080
:104D30003FF89DF80410384600F03AF89DF801104D
:104D4000384600F035F89DF80010384600F030F88D
:104D50000194A01980B200902B21384600F01EF873
:104D60009DF80510384600F023F89DF804103846E9
:104D700000F01EF89DF80110384600F019F89DF873
:104D80000010384600F014F801213846FFF7A4FF60
:104D90003846FFF78DFF0020BDE8FC8170B5044662
:104DA0000D462A4600216068FEF758F8002070BDC5
:104DB00070B504460D462A4601216068FEF74EF89C
:104DC000002070BD70B504460D4629462046FFF709
:104DD00095FF70BD2DE9F0410546884600BFD5F826
:104DE000680106461AE03446B66800BFA08D80B25E
:104DF000002807DDA08D401EE16A60F30F01E1622B
:104E0000002000E0012048B105F5B2772146384680
:104E1000FFF79EF921462846FEF73AFD002EE2D123
:104E2000BDE8F08110B50246002004E00C5C02F100
:104E30003C031C54401C0B5C0BB10C28F6DB10BD72
:104E400070B504460D4605F10C0120680268204645
:104E5000904770BD70B505460C462046FDF732FC04
:104E600070BD10B5044620681C210268204690479A
:104E700010BD10B5044620682421026820469047E2
:104E800010BD10B5044620681021026820469047E6
:104E900010BD70B504460D4605F148012068026852
:104EA0002046904770BD70B505460C462046FDF77C
:104EB000FFFB70BD70B505460C462046FDF702FCB1
:104EC00070BD70B504460D462068294642682046EC
:104ED0009047002070BD70B504460D4620682946F5
:104EE000426820469047002070BD70B504460D46CC
:104EF00020682946426820469047002070BD70B562
:104F000004460D4605EB45008100206802682046F6
:104F1000904770BD70B504460D4605EB4500810015
:104F2000206802682046904770BD0CB50A88ADF82D
:104F300000204A88ADF802208A88ADF80420CA888B
:104F4000ADF80620009A0260019A42600CBD0A8802
:104F500002804A8842808A888280CA88C2807047DC
:104F600030B5039C018042808380C48030BD002125
:104F7000018041808180C18070474FF04070E1EE38
:104F8000100A70471001000000000000000000003F
:104F9000FFFFFFFFFFFFFFFFFFFFFFFFFFFFFFFF21
:104FA000FFFFFFFFFFFFFFFFFFFFFFFFFFFFFFFF11
:104FB000FFFFFFFFFFFFFFFFFFFFFFFFFFFFFFFF01
:104FC000FFFFFFFFFFFFFFFFFFFFFFFFFFFFFFFFF1
:1051D000904F000810001200FFFFFFFFFFFFFFFFCE
:1051E000FFFFFFFFFFFFFFFFFFFFFFFFFFFFFFFFCF
:1051F000FFFFFFFFFFFFFFFFFFFFFFFFFFFFFFFFBF
:10520000FFFFFFFFFFFFFFFFFFFFFFFFFFFFFFFFAE
:10521000FFFFFFFFFFFFFFFFFFFFFFFFFFFFFFFF9E
:10522000FFFFFFFFFFFFFFFFFFFFFFFFFFFFFFFF8E
:10523000FFFFFFFFFFFFFFFFFFFFFFFFFFFFFFFF7E
:10524000FFFFFFFFFFFF208F208FFFFFFFFFFFFF0C
:10525000FFFFFFFFFFFFFFFFFFFFFFFFFFFFFFFF5E
:10526000FFFFFFFF208F208F208FFFFFFFFFFFFF3B
:10527000FFFFFFFFFFFFFFFFFFFFFFFFFFFFFFFF3E
:10528000FFFFFFFF208F208F208FFFFFFFFFFFFF1B
:10529000FFFFFFFFFFFFFFFFFFFFFFFFFFFFFFFF1E
:1052A000FFFFFFFF208F208F208FFFFFFFFFFFFFFB
:1052B000FFFFFFFFFFFFFFFFFFFFFFFFFFFFFFFFFE
:1052C000FFFFFFFF208F208F208FFFFFFFFFFFFFDB
:1052D000FFFFFFFFFFFFFFFFFFFFFFFFFFFFFFFFDE
:1052E000FFFFFFFFFFFF208F208FFFFFFFFFFFFF6C
:1052F000FFFFFFFFFFFFFFFFFFFFFFFFFFFFFFFFBE
:10530000FFFFFFFFFFFF208F208FFFFFFFFFFFFF4B
:10531000FFFFFFFFFFFFFFFFFFFFFFFFFFFFFFFF9D
:10532000FFFFFFFFFFFFFFFFFFFFFFFFFFFFFFFF8D
:10533000FFFFFFFFFFFFFFFFFFFFFFFFFFFFFFFF7D
:10534000FFFFFFFF208F208F208FFFFFFFFFFFFF5A
:10535000FFFFFFFFFFFFFFFFFFFFFFFFFFFFFFFF5D
:10536000FFFFFFFF208F208F208FFFFFFFFFFFFF3A
:10537000FFFFFFFFFFFFFFFFFFFFFFFFFFFFFFFF3D
:10538000FFFFFFFFFFFFFFFFFFFFFFFFFFFFFFFF2D
:10539000FFFFFFFFFFFFFFFFFFFFFFFFFFFFFFFF1D
:1053A000FFFFFFFFFFFFFFFFFFFFFFFFFFFFFFFF0D
:1053B000FFFFFFFFFFFFFFFFFFFFFFFFFFFFFFFFFD
:1053C000FFFFFFFFFFFFFFFFFFFFFFFFFFFFFFFFED
:1053D000FFFFFFFFFFFFFFFFFFFFFFFFFFFFFFFFDD
:1053E000FFFFFFFFFFFFFFFFFFFFFFFFFFFFFFFFCD
:1053F000FFFFFFFFFFFFFFFFFFFFFFFFFFFFFFFFBD
:10540000FFFFFFFFFFFFFFFFFFFFFFFFFFFFFFFFAC
:10541000FFFFFFFFFFFFFFFFD85100081000120041
:10542000FFFFFFFFFFFFFFFFFFFFFFFFFFFFFFFF8C
:10543000FFFFFFFFFFFFFFFFFFFFFFFFFFFFFFFF7C
:10544000FFFFFFFFFFFFFFFFFFFFFFFFFFFFFFFF6C
:10545000FFFFFFFFFFFFFFFFFFFFFFFFFFFFFFFF5C
:10546000FFFFFFFFFFFFFFFFFFFFFFFFFFFF208F9B
:10547000208FFFFF208F208FFFFFFFFFFFFFFFFF29
:10548000FFFFFFFFFFFFFFFFFFFFFFFF208F208FCA
:10549000208F208F208F208FFFFFFFFFFFFFFFFF58
:1054A000FFFFFFFFFFFFFFFFFFFFFFFF208F208FAA
:1054B000FFFF208F208FFFFFFFFFFFFFFFFFFFFF9A
:1054C000FFFFFFFFFFFFFFFFFFFFFFFF208F208F8A
:1054D000FFFF208F208FFFFFFFFFFFFFFFFFFFFF7A
:1054E000FFFFFFFFFFFFFFFFFFFF208F208FFFFF6A
:1054F000208F208FFFFFFFFFFFFFFFFFFFFFFFFF5A
:10550000FFFFFFFFFFFFFFFFFFFFFFFFFFFFFFFFAB
:10551000FFFFFFFFFFFFFFFFFFFFFFFFFFFFFFFF9B
:10552000FFFFFFFFFFFFFFFFFFFFFFFFFFFFFFFF8B
:10553000FFFFFFFFFFFFFFFFFFFFFFFFFFFFFFFF7B
:10554000FFFFFFFFFFFFFFFFFFFFFFFFFFFFFFFF6B
:10555000FFFFFFFFFFFFFFFFFFFFFFFFFFFFFFFF5B
:10556000FFFFFFFFFFFFFFFFFFFFFFFFFFFFFFFF4B
:10557000FFFFFFFFFFFFFFFFFFFFFFFFFFFFFFFF3B
:10558000FFFFFFFFFFFFFFFFFFFFFFFFFFFFFFFF2B
:10559000FFFFFFFFFFFFFFFFFFFFFFFFFFFFFFFF1B
:1055A000FFFFFFFFFFFFFFFFFFFFFFFFFFFFFFFF0B
:1055B000FFFFFFFFFFFFFFFFFFFFFFFFFFFFFFFFFB
:1055C000FFFFFFFFFFFFFFFFFFFFFFFFFFFFFFFFEB
:1055D000FFFFFFFFFFFFFFFFFFFFFFFFFFFFFFFFDB
:1055E000FFFFFFFFFFFFFFFFFFFFFFFFFFFFFFFFCB
:1055F000FFFFFFFFFFFFFFFFFFFFFFFFFFFFFFFFBB
:10560000FFFFFFFFFFFFFFFFFFFFFFFFFFFFFFFFAA
:10561000FFFFFFFFFFFFFFFFFFFFFFFFFFFFFFFF9A
:10562000FFFFFFFFFFFFFFFFFFFFFFFFFFFFFFFF8A
:10563000FFFFFFFFFFFFFFFFFFFFFFFFFFFFFFFF7A
:10564000FFFFFFFFFFFFFFFFFFFFFFFFFFFFFFFF6A
:10565000FFFFFFFFFFFFFFFFFFFFFFFFFFFFFFFF5A
:105660002054000810001200FFFFFFFFFFFFFFFFA4
:10567000FFFFFFFFFFFFFFFFFFFFFFFFFFFFFFFF3A
:10568000FFFFFFFFFFFFFFFFFFFFFFFFFFFFFFFF2A
:10569000FFFFFFFFFFFFFFFFFFFFFFFFFFFFFFFF1A
:1056A000FFFFFFFFFFFFFFFFFFFFFFFFFFFFFFFF0A
:1056B000FFFFFFFFFFFFFFFFFFFFFFFFFFFFFFFFFA
:1056C000FFFFFFFFFFFFFFFFFFFFFFFFFFFFFFFFEA
:1056D000FFFF208F208FFFFF208F208FFFFFFFFF16
:1056E000FFFFFFFFFFFFFFFFFFFFFFFFFFFFFFFFCA
:1056F000FFFF208F208FFFFF208F208FFFFFFFFFF6
:10570000FFFFFFFFFFFFFFFFFFFFFFFFFFFFFFFFA9
:10571000FFFF208F208FFFFF208F208FFFFFFFFFD5
:10572000FFFFFFFFFFFFFFFFFFFFFFFFFFFF208FD8
:10573000208F208F208F208F208F208F208F208FF1
:10574000FFFFFFFFFFFFFFFFFFFFFFFFFFFFFFFF69
:10575000FFFF208F208FFFFF208F208FFFFFFFFF95
:10576000FFFFFFFFFFFFFFFFFFFFFFFFFFFFFFFF49
:10577000FFFF208F208FFFFF208F208FFFFFFFFF75
:10578000FFFFFFFFFFFFFFFFFFFFFFFFFFFF208F78
:10579000208F208F208F208F208F208F208F208F91
:1057A000FFFFFFFFFFFFFFFFFFFFFFFFFFFFFFFF09
:1057B000FFFF208F208FFFFF208F208FFFFFFFFF35
:1057C000FFFFFFFFFFFFFFFFFFFFFFFFFFFFFFFFE9
:1057D000FFFF208F208FFFFF208F208FFFFFFFFF15
:1057E000FFFFFFFFFFFFFFFFFFFFFFFFFFFFFFFFC9
:1057F000FFFF208F208FFFFF208F208FFFFFFFFFF5
:10580000FFFFFFFFFFFFFFFFFFFFFFFFFFFFFFFFA8
:10581000FFFFFFFFFFFFFFFFFFFFFFFFFFFFFFFF98
:10582000FFFFFFFFFFFFFFFFFFFFFFFFFFFFFFFF88
:10583000FFFFFFFFFFFFFFFFFFFFFFFFFFFFFFFF78
:10584000FFFFFFFFFFFFFFFFFFFFFFFFFFFFFFFF68
:10585000FFFFFFFFFFFFFFFFFFFFFFFFFFFFFFFF58
:10586000FFFFFFFFFFFFFFFFFFFFFFFFFFFFFFFF48
:10587000FFFFFFFFFFFFFFFFFFFFFFFFFFFFFFFF38
:10588000FFFFFFFFFFFFFFFFFFFFFFFFFFFFFFFF28
:10589000FFFFFFFFFFFFFFFFFFFFFFFFFFFFFFFF18
:1058A000FFFFFFFFFFFFFFFF685600081000120018
:1058B000FFFFFFFFFFFFFFFFFFFFFFFFFFFFFFFFF8
:1058C000FFFFFFFFFFFFFFFFFFFFFFFFFFFFFFFFE8
:1058D000FFFFFFFFFFFFFFFFFFFFFFFFFFFFFFFFD8
:1058E000FFFFFFFFFFFFFFFFFFFFFFFFFFFFFFFFC8
:1058F000FFFFFFFFFFFFFFFFFFFFFFFFFFFF208F07
:10590000208FFFFFFFFFFFFFFFFFFFFFFFFFFFFFF6
:10591000FFFFFFFFFFFFFFFFFFFFFFFF208F208F35
:10592000208F208F208FFFFFFFFFFFFFFFFFFFFF74
:10593000FFFFFFFFFFFFFFFFFFFF208F208F208F64
:10594000208F208FFFFFFFFFFFFFFFFFFFFFFFFF05
:10595000FFFFFFFFFFFFFFFFFFFF208F208F208F44
:10596000208FFFFFFFFFFFFFFFFFFFFFFFFFFFFF96
:10597000FFFFFFFFFFFFFFFFFFFF208F208F208F24
:10598000208FFFFFFFFFFFFFFFFFFFFFFFFFFFFF76
:10599000FFFFFFFFFFFFFFFFFFFF208F208F208F04
:1059A000208F208FFFFFFFFFFFFFFFFFFFFFFFFFA5
:1059B000FFFFFFFFFFFFFFFFFFFFFFFF208F208F95
:1059C000208F208F208FFFFFFFFFFFFFFFFFFFFFD4
:1059D000FFFFFFFFFFFFFFFFFFFFFFFFFFFF208F26
:1059E000208F208F208FFFFFFFFFFFFFFFFFFFFFB4
:1059F000FFFFFFFFFFFFFFFFFFFFFFFFFFFF208F06
:105A0000208F208F208FFFFFFFFFFFFFFFFFFFFF93
:105A1000FFFFFFFFFFFFFFFFFFFF208F208F208F83
:105A2000208F208F208FFFFFFFFFFFFFFFFFFFFF73
:105A3000FFFFFFFFFFFFFFFFFFFF208F208F208F63
:105A4000208F208FFFFFFFFFFFFFFFFFFFFFFFFF04
:105A5000FFFFFFFFFFFFFFFFFFFFFFFFFFFF208FA5
:105A6000208FFFFFFFFFFFFFFFFFFFFFFFFFFFFF95
:105A7000FFFFFFFFFFFFFFFFFFFFFFFFFFFFFFFF36
:105A8000FFFFFFFFFFFFFFFFFFFFFFFFFFFFFFFF26
:105A9000FFFFFFFFFFFFFFFFFFFFFFFFFFFFFFFF16
:105AA000FFFFFFFFFFFFFFFFFFFFFFFFFFFFFFFF06
:105AB000FFFFFFFFFFFFFFFFFFFFFFFFFFFFFFFFF6
:105AC000FFFFFFFFFFFFFFFFFFFFFFFFFFFFFFFFE6
:105AD000FFFFFFFFFFFFFFFFFFFFFFFFFFFFFFFFD6
:105AE000FFFFFFFFFFFFFFFFFFFFFFFFFFFFFFFFC6
:105AF000B058000810001200FFFFFFFFFFFFFFFF7C
:105B0000FFFFFFFFFFFFFFFFFFFFFFFFFFFFFFFFA5
:105B1000FFFFFFFFFFFFFFFFFFFFFFFFFFFFFFFF95
:105B2000FFFFFFFFFFFFFFFFFFFFFFFFFFFFFFFF85
:105B3000FFFFFFFFFFFFFFFFFFFFFFFFFFFFFFFF75
:105B4000FFFFFFFFFFFFFFFFFFFFFFFFFFFFFFFF65
:105B5000FFFFFFFFFFFFFFFFFFFFFFFFFFFF208FA4
:105B6000208F208FFFFFFFFFFFFF208F208FFFFF81
:105B7000FFFFFFFFFFFFFFFFFFFFFFFF208F208FD3
:105B8000FFFF208F208FFFFF208F208FFFFFFFFF61
:105B9000FFFFFFFFFFFFFFFFFFFFFFFF208F208FB3
:105BA000FFFF208F208FFFFF208F208FFFFFFFFF41
:105BB000FFFFFFFFFFFFFFFFFFFFFFFF208F208F93
:105BC000FFFF208F208F208F208FFFFFFFFFFFFF21
:105BD000FFFFFFFFFFFFFFFFFFFFFFFF208F208F73
:105BE000FFFF208F208F208F208FFFFF208F208F9F
:105BF000208FFFFFFFFFFFFFFFFFFFFFFFFF208F53
:105C0000208F208F208F208FFFFF208F208FFFFF7E
:105C1000208F208FFFFFFFFFFFFFFFFFFFFFFFFF32
:105C2000FFFFFFFF208F208FFFFF208F208FFFFFC0
:105C3000208F208FFFFFFFFFFFFFFFFFFFFFFFFF12
:105C4000FFFF208F208FFFFFFFFF208F208FFFFFA0
:105C5000208F208FFFFFFFFFFFFFFFFFFFFFFFFFF2
:105C6000FFFF208F208FFFFFFFFF208F208FFFFF80
:105C7000208F208FFFFFFFFFFFFFFFFFFFFFFFFFD2
:105C8000208F208FFFFFFFFFFFFFFFFF208F208F60
:105C9000208FFFFFFFFFFFFFFFFFFFFFFFFFFFFF63
:105CA000FFFFFFFFFFFFFFFFFFFFFFFFFFFFFFFF04
:105CB000FFFFFFFFFFFFFFFFFFFFFFFFFFFFFFFFF4
:105CC000FFFFFFFFFFFFFFFFFFFFFFFFFFFFFFFFE4
:105CD000FFFFFFFFFFFFFFFFFFFFFFFFFFFFFFFFD4
