:020000040800F2
:1000000030E10020CD020008DF1B00089B02000841
:10001000DB1B00089F0400084D1D000800000000C5
:10002000000000000000000000000000770200084F
:10003000A304000800000000770200084F02000837
:10004000E7020008E7020008E7020008E7020008EC
:10005000E7020008E7020008A5040008E70200081C
:10006000E7020008E7020008E7020008E7020008CC
:10007000E7020008E7020008E7020008E7020008BC
:10008000E7020008E7020008E7020008E7020008AC
:10009000E7020008E7020008E7020008E70200089C
:1000A000E7020008491C0008E7020008E702000810
:1000B000591C0008E7020008E7020008E7020008F0
:1000C000E7020008E7020008E7020008E70200086C
:1000D000E7020008E7020008E7020008E70200085C
:1000E000E7020008E7020008E7020008E70200084C
:1000F000E7020008E7020008E7020008E70200083C
:10010000E7020008E7020008E7020008E70200082B
:10011000E7020008E7020008E7020008E70200081B
:10012000E7020008E7020008E7020008E70200080B
:10013000E7020008E7020008E7020008E7020008FB
:10014000E7020008E7020008E7020008E7020008EB
:10015000E7020008E7020008E7020008E7020008DB
:10016000E7020008E7020008E7020008E7020008CB
:10017000E7020008E7020008E7020008E7020008BB
:10018000E7020008E702000800F002F800F03EF87D
:100190000AA090E8000C82448344AAF10107DA45E2
:1001A00001D100F033F8AFF2090EBAE80F0013F0F6
:1001B000010F18BFFB1A43F00103184784FB01002D
:1001C000A4FB0100103A24BF78C878C1FAD85207BE
:1001D00024BF30C830C144BF04680C6070470000C1
:1001E0000023002400250026103A28BF78C1FBD840
:1001F000520728BF30C148BF0B6070471FB508F0D9
:100200005AFE00F003F91FBD10B510BD00F014F93F
:100210001146FFF7F3FF04F0DFFB00F032F903B4FF
:10022000FFF7F2FF03BC00F033F9000002DF704774
:1002300072B6BFF34F8F00F03CF801F09AFDBFF3A8
:100240005F8F80F3098881F3148862B600BD72B6AF
:10025000BFF34F8FEFF3098020E9F00F00B501F0F5
:1002600098FDBFF35F8FB0E8F00F80F3098881F34A
:10027000148862B600BD72B6BFF34F8F00B5EFF3BE
:10028000098323E9F00F01F07AFDB0E8F00F80F365
:10029000098881F3148862B600BD72B6BFF34F8F30
:1002A00000B5EFF3098323E9F00F01F051FD00F0F1
:1002B0000DB80548016841F470010160BFF34F8F2C
:1002C000BFF36F8F7047000088ED00E0094880475A
:1002D00009480047FEE7FEE7FEE7FEE7FEE7FEE728
:1002E000FEE7FEE7FEE7FEE704480549054A064B40
:1002F00070470000E51B00088901000830C300209A
:1003000030E1002030D2002030D200200048704779
:10031000D0C2002010B5431C02E010F8011B71B1DF
:100320008107FAD14FF0013202C88C1A8C4314EACB
:10033000C211F9D0C01A0A0603D0C01E10BDC01ADF
:1003400010BD0A0401D0801E10BD0902FCD0401E61
:1003500010BD10B5203AC0F00B80B1E81850203A1B
:10036000A0E81850B1E81850A0E81850BFF4F5AF55
:100370005FEA027C24BFB1E81850A0E8185044BFDF
:1003800018C918C0BDE810405FEA827C24BF51F84C
:10039000043B40F8043B08BF7047D20728BF31F840
:1003A000023B48BF11F8012B28BF20F8023B48BF91
:1003B00000F8012B70474FF0000200B51346944639
:1003C0009646203922BFA0E80C50A0E80C50B1F1AD
:1003D0002001BFF4F7AF090728BFA0E80C5048BFC1
:1003E0000CC05DF804EB890028BF40F8042B08BF5F
:1003F000704748BF20F8022B11F0804F18BF00F85B
:10040000012B7047704770477047000070B5064C6D
:100410007C44064D7D4403E0206820448047241D31
:10042000AC42F9D170BD00004CF9010050F9010057
:1004300000487047D0C200207546FFF7F9FFAE466E
:1004400005006946534620F00700854618B020B5E0
:10045000FFF74AFFBDE820404FF000064FF00007CD
:100460004FF000084FF0000B21F00701AC46ACE85C
:10047000C009ACE8C009ACE8C009ACE8C0098D46C9
:1004800070470446AFF300802046FFF7C8FE000027
:1004900001491820ABBEFEE726000200704700BFEE
:1004A000FEE77047704770B504461D460023B5F55A
:1004B000804F1BD154F8223003F04043D1E90006AD
:1004C00040EA06108E6840EA06208E8940EA064619
:1004D000088A401E46EA0056087D801E46EA0060F3
:1004E0008E693043034344F8223003E06FF07040DC
:1004F00044F82200002070BD10B5034600220868B1
:1005000053F8202011480240D1E901042043CC686F
:1005100020430C6920434C6920438C692043CC69FB
:1005200020430C6A20434C6A20438C6A2043CC6AE7
:1005300020430C6B204302438868082801D142F015
:100540004002086843F82020002010BD8000F7FF1B
:1005500030B503460024501C53F8204004F04044BA
:10056000D1E9000540EA05108D6840EA05208D8933
:1005700040EA0545088A401E45EA0055087D801E70
:1005800045EA00608D6928430443501C43F820402D
:10059000002030BD0146002209B901207047486A99
:1005A00000B100BF022081F83500086802681748D2
:1005B0000240D1E901031843CB6818430B69184383
:1005C0004B6918438B691843CB6918430B6A18436E
:1005D0000243486A042803D1D1E90B0318430243BC
:1005E000086802600868426922F00702486A02430C
:1005F000486A042801D1886A0243086842610020E1
:10060000C864012081F835000020C7E73F8010F062
:1006100031B5002400F014F9044600BF00F010F9D1
:10062000001B00998842F9D338BD0000F8B5024696
:100630000B460025002400200021DEE0012606FAFA
:1006400001F51E6806EA0504AC4270D15E68022E10
:1006500002D05E68122E13D1CF0802F1200656F8A0
:1006600027004E07F70E0F26BE40B0434F07FF0E80
:100670001E69BE403043CF0802F1200646F827002D
:1006800010684F000326BE40B0431E7906F00306F3
:100690004F00BE40304310605E68012E08D05E6897
:1006A000022E05D05E68112E02D05E68122E13D184
:1006B00090684F000326BE40B0434F00DE68BE4046
:1006C00030439060506801268E40B0431E79C6F3D7
:1006D00000168E4030435060D0684F000326BE4065
:1006E000B0434F009E68BE403043D0605E6806F065
:1006F0008056B6F1805F7FD100BF424E366846F427
:100700008046404F3E603E46366806F4804600967E
:1007100000BF3D4E8F0856F827008E07370F0F2673
:10072000BE40B043394EB24202D1002629E063E018
:10073000374EB24201D1012623E0364EB24201D1FA
:1007400002261EE0344EB24201D1032619E0334E98
:10075000B24201D1042614E0314EB24201D1052645
:100760000FE0304EB24201D106260AE02E4EB242D0
:1007700001D1072605E02D4EB24201D1082600E046
:1007800009268F073F0FBE4030431F4E8F0846F8A3
:100790002700274E3068A0435E6806F48036B6F521
:1007A000803F00D12043224E3060361D3068A04388
:1007B0005E6806F40036B6F5003F00D120431C4EBB
:1007C000361D3060361D3068A0435E6806F4801622
:1007D000B6F5801F00D12043154E08363060361D17
:1007E0003068A0435E6806F40016B6F5001F00D11D
:1007F00020430F4E0C363060491C1029FFF41EAF09
:10080000F8BD0000443802400838014000000240B2
:100810000004024000080240000C024000100240A8
:100820000014024000180240001C02400020024058
:10083000003C014001480068000C7047002004E0C3
:10084000014800687047000060000020024800680E
:10085000401C0149086070476000002010B50A483C
:10086000006840F40070084908600846006840F4D9
:1008700080600860032000F067F80F2000F006F8A1
:1008800000F016F8002010BD003C024070B5044690
:1008900000F0C6F94FF47A71B0FBF1F5284601F08B
:1008A0004AF800222146501E00F010F8002070BDCA
:1008B000704700BF00F01F020121914042099200E1
:1008C00002F1E022C2F8001100BF70472DE9F05F8D
:1008D00080460D461646002703F016F807463946AF
:1008E0002A46334601F00700C0F1070ABAF1040FA7
:1008F00002D94FF0040A01E0C0F1070AD14600F125
:10090000040ABAF1070F02D24FF0000A01E0A0F189
:10091000030AD4464FF0010A0AFA09FAAAF1010AB9
:100920000AEA020A0AFA0CFA4FF0010B0BFA0CFB66
:10093000ABF1010B0BEA030B4AEA0B0421464046DC
:1009400002F0CEFFBDE8F09F00BF00F00702064BAB
:1009500019684FF6FF031940044B0B4343EA022189
:10096000014B196000BF70470CED00E00000FA0574
:1009700070B504460E460025A748006800F00F0039
:10098000B0426FD2A4490E700846006800F00F0014
:10099000B04201D0012070BD207800F00200022892
:1009A00007D19E48006820F0F000A16808439B49E9
:1009B0000860207800F0010000283ED0606801281F
:1009C00007D1964808380068C0F34040B8B9012004
:1009D000E1E76068022802D06068032807D18F48E9
:1009E00008380068C0F3406048B90120D3E78B485D
:1009F00008380068C0F3400008B90120CBE78748F9
:100A0000006820F003006168084384490860FFF72C
:100A100017FF05466068012810D108E0FFF710FFB6
:100A2000401B41F28831884201D90320B3E77B485B
:100A3000006800F00C000428F0D1CDE060680228C6
:100A400011D108E0FFF7FCFE401B41F288318842DB
:100A500001D903209FE77148006800F00C000828C6
:100A6000F0D1B9E024E06068032810D108E0FFF776
:100A7000E7FE401B41F28831884201D903208AE712
:100A80006648006800F00C000328F0D1A4E008E0FC
:100A9000FFF7D6FE401B41F28831884201D903207E
:100AA00079E75E48006800F00C000028F0D193E080
:100AB000207800F00200022807D15848006820F092
:100AC000F000A168084355490860207800F0010053
:100AD000002877D06068012807D15048083800689E
:100AE000C0F34040B8B9012055E76068022802D041
:100AF0006068032807D1494808380068C0F340609F
:100B000048B9012047E7454808380068C0F340006D
:100B100008B901203FE74148006820F00300616800
:100B200008433E490860FFF78BFE054660680128D0
:100B300010D108E0FFF784FE401B41F28831884263
:100B400001D9032027E73548006800F00C0004288D
:100B5000F0D137E06068022810D108E0FFF770FE9E
:100B6000401B41F28831884201D9032013E72B480A
:100B7000006800F00C000828F0D123E0606803282A
:100B800010D108E0FFF75CFE401B41F2883188423B
:100B900001D90320FFE62148006800F00C0003287B
:100BA000F0D10FE008E0FFF74BFE401B41F2883127
:100BB000884201D90320EEE61848006800F00C00D6
:100BC0000028F0D114490E700846006800F00F00AC
:100BD000B04201D00120DEE6207800F004000428B5
:100BE00007D10E48006820F4E050E16808430B4943
:100BF0000860207800F00800082808D1074800683D
:100C000020F46040216940EAC100044908600F20D7
:100C1000FFF73CFE0020BEE6003C024008380240E0
:100C200010B500F019F80949096801F0F001F02247
:100C300092FAA2F2B2FA82F2D140054A515CC8405F
:100C4000044908600846006810BD000008380240EA
:100C5000B4F501087000002070B5002100220023C7
:100C60000020274C246804F00C0424B1042C04D088
:100C7000082C41D103E0234840E023483EE0204CCB
:100C8000241F246804F03F011D4C241F246804F431
:100C9000800484B11C4CB4FBF1F5194C241F24686A
:100CA00047F6C076344096FAA6F6B6FA86F6F440D1
:100CB00005FB04F20FE0134CB4FBF1F5104C241FBC
:100CC000246847F6C076344096FAA6F6B6FA86F659
:100CD000F44005FB04F20A4C241F246804F4403459
:100CE0004FF4403595FAA5F5B5FA85F5EC40641C4E
:100CF0006300B2FBF3F001E0024800BF00BF70BD2B
:100D0000083802400024F40000127A0038B5044686
:100D10000025207800F00100002866D0F748006820
:100D200000F00C0004280DD0F448006800F00C001E
:100D3000082813D1F148001F006800F48000B0F5C6
:100D4000800F0BD1ED4808380068C0F34040002800
:100D50004BD06068002848D1012038BD0020E74909
:100D6000891F0870FFF76CFD054608E0FFF768FD76
:100D7000401B41F28831884201D90320EDE7DF486A
:100D800008380068C0F340400028EFD12079DB49E3
:100D9000891F08706068A0B1FFF752FD054608E0A2
:100DA000FFF74EFD401B41F28831884201D90320F4
:100DB000D3E7D24808380068C0F340400028EFD09D
:100DC00013E0FFF73DFD054608E0FFF739FD401B46
:100DD00041F28831884201D90320BEE7C74808386C
:100DE0000068C0F340400028EFD1207800F00200F6
:100DF000022869D1C148006800F00C0058B1BF4812
:100E0000006800F00C00082821D1BC48001F0068D1
:100E100000F48000D8B9B94808380068C0F3400031
:100E200020B1E068012801D0012096E7B3480838D6
:100E3000006820F0F800F82292FAA2F2B2FA82F2E8
:100E4000216991400843AD49083908603CE0E068F9
:100E500028B30120AA490860FFF7F2FC054606E026
:100E6000FFF7EEFC401B642801D9032075E7A34877
:100E700008380068C0F340000028F1D09F480838C7
:100E8000006820F0F800F82292FAA2F2B2FA82F298
:100E900021699140084399490839086014E000200D
:100EA00097490860FFF7CCFC054606E0FFF7C8FC51
:100EB000401B642801D903204FE790480838006898
:100EC000C0F340000028F1D1207800F00800082885
:100ED0002CD16069A8B101208A490860FFF7B0FCF5
:100EE000054606E0FFF7ACFC401B642801D903204F
:100EF00033E782486C300068C0F340000028F1D02E
:100F000014E000207F490860FFF79AFC054606E0E0
:100F1000FFF796FC401B642801D903201DE77748A2
:100F20006C300068C0F340000028F1D1207800F058
:100F3000040004286CD100BF70483830006840F0CD
:100F400080506E49383108600846006800F08050D3
:100F5000009000BF6C48006840F480706A490860E7
:100F6000FFF76EFC054606E0FFF76AFC401B6428AD
:100F700001D90320F1E66448006800F4807000287D
:100F8000F2D000205D4968310870FFF759FC054632
:100F900008E0FFF755FC401B41F28831884201D937
:100FA0000320DAE6554868300068C0F340000028A6
:100FB000EFD1207A514968310870A068A0B1FFF7DD
:100FC0003FFC054608E0FFF73BFC401B41F288313F
:100FD000884201D90320C0E6484868300068C0F361
:100FE00040000028EFD013E0FFF72AFC054608E098
:100FF000FFF726FC401B41F28831884201D90320CB
:10100000ABE63E4868300068C0F340000028EFD1EE
:10101000A069E8B33948006800F00C00082869D0DE
:10102000A069022850D1002035490866FFF708FC66
:10103000054606E0FFF704FC401B642801D90320A5
:101040008BE62E4808380068C0F340600028F1D1D4
:10105000D4E90701084347F6C07292FAA2F2B2FA45
:1010600082F2616A914008430122A16AC2EB5101F8
:101070004FF4403292FAA2F2B2FA82F2914008435F
:101080004FF0706292FAA2F2B2FA82F2E16A00E0E4
:1010900032E0914008431949091F086001201849AE
:1010A0000866FFF7CDFB054606E0FFF7C9FB401BCE
:1010B000642801D9032050E6104808380068C0F3BE
:1010C00040600028F1D017E000200D490866FFF7C6
:1010D000B7FB054606E0FFF7B3FB401B642801D9C8
:1010E00003203AE6054808380068C0F3406000284D
:1010F000F1D101E0012030E600202EE60838024060
:1011000000004742800E47420070004010B5044680
:101110000CB9012010BD94F8510028B9002084F8C2
:101120005000204600F036F8022084F85100206874
:10113000006820F0400021680860D4E901010843FC
:10114000E16808432169084361690843218B01F480
:1011500000710843E1690843216A0843A16A084312
:10116000216808600421A06901EA1040616A08430F
:10117000216848602168E06A08612068C06920F43D
:1011800000602168C86100206065012084F851007A
:101190000020BFE770472DE9FC4104460E46154686
:1011A0001F464FF0000894F8510001287AD106B18B
:1011B00015B90120BDE8FC8100BF94F8500001285A
:1011C00001D10220F6E7012084F8500000BF222060
:1011D00084F8510000206065A663A587E587A064B8
:1011E000E064A086E086A068B0F5004F05D12068D5
:1011F000006820F4804021680860A06AB0F5005FB4
:101200000DD100BF2068006820F4005021680860FC
:101210002068006840F400502168086000BF6068E2
:10122000B0F5827F0ED1A06860B900BF002084F8BD
:10123000500000BF2B46324631462046009700F052
:10124000A5F9B7E72068006800F04000402805D005
:101250002068006840F0400021680860E06810BB2A
:1012600012E03B4600220121204602F0AEFA08B10E
:1012700003209FE72068C068C1B2A26B501CA06326
:101280001170E08F401EE087E08F0128E9DCA06A42
:10129000B0F5005F28D12068006840F480502168D4
:1012A000086021E092E012E03B4600220121204646
:1012B00002F08BFA08B103207CE72068C068A16BBC
:1012C0000880A06B801CA063E08F401EE087E08F49
:1012D0000128E9DCA06AB0F5005F05D1206800684C
:1012E00040F48050216808603B46002201212046DE
:1012F00002F06BFA08B103205CE7E06838B92068B7
:10130000C068C1B2A26B501CA063117006E02068D7
:10131000C068A16B0880A06B801CA063E08F401E9A
:10132000E087A06AB0F5005F11D13B4600220121A1
:10133000204602F04AFA28B1606D40F00200606574
:10134000032037E72068C06880B2019000BF606862
:10135000B0F5827F0DD1A068B0F5004F03D0A06832
:10136000B0F5806F05D12068006820F0400021684A
:101370000860012084F8510020688068C0F30018DC
:10138000A06AB0F5005F1BD1B8F1000F18D0606DF6
:1013900040F00200606500BF2068006820F4005043
:1013A000216808602068006840F4005021680860E7
:1013B00000BF00BF002084F8500000BF0120F9E604
:1013C00000BF002084F8500000BFF3E60220F1E6E1
:1013D000F8B504460E4615461F4694F851000128FC
:1013E00073D106B10DB90120F8BD00BF94F85000CB
:1013F000012801D10220F7E7012084F8500000BF46
:10140000122084F85100002060652663A586E586D9
:10141000E064A064A087E087A06AB0F5005F0DD10A
:1014200000BF2068006820F4005021680860206830
:10143000006840F400502168086000BFA068B0F563
:10144000004F05D12068006840F4804021680860A2
:101450002068006800F04000402805D0206800683F
:1014600040F0400021680860E06878BB606810B117
:10147000E08E012808D1216B481C20630878216880
:10148000C860E08E401EE08611E03B46002202214B
:10149000204602F09AF908B10320A5E7216B481C09
:1014A000206308782168C860E08E401EE086E08EE8
:1014B0000028EADCA06AB0F5005F38D12068006837
:1014C00040F480502168086031E05DE0FFE760682B
:1014D00010B1E08E012809D1206B00882168C86016
:1014E000206B801C2063E08E401EE08612E03B46AD
:1014F00000220221204602F068F908B1032073E7B8
:10150000206B00882168C860206B801C2063E08EFF
:10151000401EE086E08E0028E9DCA06AB0F5005F9E
:1015200005D12068006840F48050216808603B467F
:1015300000220221204602F048F928B1606D40F0F7
:101540001000606503204FE73B46012280212046C2
:1015500002F03BF928B1606D40F010006065032097
:1015600042E7A06838B900BF2068C06800902068D2
:101570008068009000BF012084F8510000BF002067
:1015800084F8500000BF2FE702202DE72DE9F84F27
:1015900004460E4617461D46DDF828904FF0000819
:1015A000C24694F85180B8F1010F02D0B8F1220F71
:1015B00076D10EB107B115B90120BDE8F88F00BF93
:1015C00094F85000012801D10220F6E7012084F8A8
:1015D000500000BF94F85100012802D1322084F855
:1015E000510000206065A763A587E5872663A5866F
:1015F000E586A064E064A06AB0F5005F0DD100BF8D
:101600002068006820F400502168086020680068A5
:1016100040F400502168086000BF2068006800F0B6
:101620004000402805D02068006840F04000216854
:101630000860E068B0F5006F75D1606830B160682F
:10164000B0F5827F0CD1E08E012809D1206B008893
:101650002168C860206B801C2063E08E401EE086FD
:10166000E08EF0B9A06AB0F5005F05D1206800688F
:1016700040F48050216808604B460022012120463A
:1016800002F0A3F808B1032097E72068C068A16BB7
:101690000880A06B801CA063E08F401EE087C7E03D
:1016A0001AE131E04B4600220221204602F08DF87B
:1016B00008B1032081E7206B00882168C860206B97
:1016C000801C2063E08E401EE086E08E48B9A06A50
:1016D000B0F5005F05D12068006840F480502168B3
:1016E00008604B4600220121204602F06EF808B146
:1016F000032062E72068C068A16B0880A06B801C93
:10170000A063E08F401EE087E08E0028CADC60689E
:101710000028C4D14B4600220121204602F055F892
:1017200010B1032049E70AE02068C068A16B088077
:10173000A06B801CA063E08F401EE08778E06068AB
:1017400030B16068B0F5827F0BD1E08E012808D1FE
:10175000216B481C206308782168C860E08E401E19
:10176000E086E08ED0B9A06AB0F5005F05D12068B0
:10177000006840F48050216808604B460022012137
:10178000204602F022F808B1032016E72068C0685E
:10179000A16B0870E08F401EE08749E030E04B46C7
:1017A00000220221204602F010F808B1032004E7CD
:1017B000216B481C206308782168C860E08E401EB9
:1017C000E086E08E48B9A06AB0F5005F05D12068D8
:1017D000006840F48050216808604B4600220121D7
:1017E000204601F0F2FF08B10320E6E62068C06859
:1017F000C1B2A26B501CA0631170E08F401EE08745
:10180000E08E0028CBDC606890B94B4600220121B5
:10181000204601F0DAFF08B10320CEE62068C06858
:10182000C1B2A26B501CA0631170E08F401EE08714
:10183000A06AB0F5005F11D14B460022012120467D
:1018400001F0C3FF28B1606D40F002006065032025
:10185000B3E62068C06880B2009000BF4B4601220A
:101860008021204601F0B1FF28B1606D40F01000EA
:1018700060650320A1E6012084F85100206880689B
:10188000C0F3001AA06AB0F5005F1FD1BAF1000FD3
:101890001CD0606D40F002006065A06AB0F5005F8A
:1018A0000DD100BF2068006820F400502168086056
:1018B0002068006840F400502168086000BF00BF45
:1018C000002084F8500000BF012076E600BF002011
:1018D00084F8500000BF70E602206EE670B5044642
:1018E0000E4615460CB9012070BD94F83D0028B98C
:1018F000002084F83C00204600F01CF804F10801A8
:101900002068FEF7F9FD3146A2682068FEF720FE48
:101910002946236BD4E90102FEF7C5FDA1682068C2
:1019200050F8210040F00100A268216841F822002F
:101930000020D9E7704770B504462546681EB0F10F
:10194000807F01D301200FE0681E4FF0E021486145
:101950000F214FF0FF3001F0C3FF00204FF0E021D6
:10196000886107200861002070BD7047704710B57E
:1019700004460CB9012010BD94F8390028B90020A4
:1019800084F83800204600F00CF8022084F8390072
:10199000211D206800F068F9012084F8390000203A
:1019A000E9E7704701460868C06840F001000A682E
:1019B000D0600868006840F001000A6810600020EC
:1019C0007047704710B5044620680069C0F34000B6
:1019D000D8B12068C068C0F34000B0B16FF0020019
:1019E00021680861012020762068806900F00300EA
:1019F00018B12046FFF7E5FF05E0204600F0ADF8FE
:101A0000204600F0ABF80020207620680069C0F383
:101A10008000D8B12068C068C0F38000B0B16FF01A
:101A2000040021680861022020762068806900F4A3
:101A3000407018B12046FFF7C4FF05E0204600F0D3
:101A40008CF8204600F08AF8002020762068006993
:101A5000C0F3C000D8B12068C068C0F3C000B0B106
:101A60006FF0080021680861042020762068C069B2
:101A700000F0030018B12046FFF7A3FF05E0204661
:101A800000F06BF8204600F069F80020207620680E
:101A90000069C0F30010D8B12068C068C0F300101E
:101AA000B0B16FF01000216808610820207620682E
:101AB000C06900F4407018B12046FFF782FF05E0CE
:101AC000204600F04AF8204600F048F80020207632
:101AD0002068006900F0010058B12068C06800F07B
:101AE000010030B16FF0010021680861204600F06C
:101AF00037F820680069C0F3C01058B12068C0688A
:101B0000C0F3C01030B16FF080002168086120463A
:101B1000FFF72BFF20680069C0F3801058B12068E0
:101B2000C068C0F3801030B16FF0400021680861D8
:101B3000204600F051F820680069C0F3401058B109
:101B40002068C068C0F3401030B16FF020002168F9
:101B500008612046FFF70AFF10BD7047704700007C
:101B60002DE9F04106463068B0F1804F11D016499A
:101B7000084428BB154801F000FB48B1144913483C
:101B8000C03804F00EFF04462146124802F096FACF
:101B900016E0104CE069012801D100200AE0012084
:101BA000E06100BFE56800BF214605F10C0005F0CB
:101BB000C6F8284607463946064802F07FFA00BFB5
:101BC00000BFBDE8F08100000000FFBF5CBE002048
:101BD00000F001F0E4BC0020704700BFFEE7704752
:101BE000704700001448006840F470001249086013
:101BF0001248006840F001001049086000200F49B9
:101C0000083108600D4800680D4908400B4908601C
:101C10000C48091D0860081F006820F48020091F77
:101C20000860002005490C3108604FF0006002494F
:101C3000803908607047000088ED00E000380240FD
:101C4000FFFFF6FE1030002410B50248FFF7BAFE81
:101C500010BD000058C2002010B50248FFF7B2FEC8
:101C600010BD000094C20020002202682C4B984254
:101C70000ED0B0F1804F0BD02A4B984208D02A4B9F
:101C8000984205D0294B984202D0294B984201D165
:101C9000012300E000231BB122F070024B681A43BD
:101CA0001F4B984220D0B0F1804F1DD01D4B984261
:101CB0001AD01D4B984217D01C4B984214D01C4B85
:101CC000984211D01B4B98420ED01B4B98420BD020
:101CD0001A4B984208D01A4B984205D0194B98429B
:101CE00002D0194B984201D1012300E000231BB11F
:101CF00022F44072CB681A4302608B68C3620B689F
:101D00008362074B984202D0094B984201D10123CC
:101D100000E000230BB10B690363012343617047AB
:101D2000000001400004004000080040000C00409A
:101D300000040140004001400044014000480140CF
:101D400000180040001C00400020004000BFFEE7DB
:101D50000FB583B003A80FC800F092FFCDE90101D1
:101D600007B000BD1FB5DDE9010100F0A3FE04B01E
:101D700010BD1CB501F004F9CDE900011CBD0FB583
:101D800083B003A80FC800F073FECDE9010107B0CE
:101D900000BD1CB5044600F006F8204600F096FE93
:101DA000CDE900011CBD10B5FEF750FD10BD0000CF
:101DB00008B500BF6748006840F001006549086049
:101DC0000846006800F00100009000BF00BF084610
:101DD000006840F0020008600846006800F0020059
:101DE000009000BF00BF0846006840F00400086093
:101DF0000846006800F00400009000BF00BF0846DD
:101E0000006840F0080008600846006800F008001C
:101E1000009000BF00BF0846006840F01000086056
:101E20000846006800F01000009000BF00BF0846A0
:101E3000006840F0200008600846006800F02000BC
:101E4000009000BF00BF0846006840F040000860F6
:101E50000846006800F04000009000BF00BF084640
:101E6000006840F0800008600846006800F08000CC
:101E7000009000BF00BF37481430006840F4807005
:101E80003449143108600846006800F480700090FE
:101E900000BF00BF0846006840F4007008600846B4
:101EA000006800F40070009000BF00BF081F0068C9
:101EB00040F00050091F08600846006800F000501C
:101EC000009000BF00BF23480830006840F00100C8
:101ED0002049083108600846006800F001000090C1
:101EE00000BF00BF1B481030006840F40040194993
:101EF000103108600846006800F40040009000BF00
:101F000000BF1448006840F4800012490860084689
:101F1000006800F48000009000BF00BF0D4814303E
:101F2000006840F001000B49143108600846006861
:101F300000F00100009000BF00BF081F006840F0E3
:101F40000100091F08600846006800F001000090C9
:101F500000BF08BD3038024001460448006800F563
:101F60000040024A10600020704700004800002036
:101F700000BF01F001FCFCE706461248007800F0C3
:101F8000010040B90F4802F0E9FC20B10E4806609C
:101F90000C48AFF3008000BF0B480468002504E044
:101FA0002946204604F07FFE6D1C6069A842F7D8E0
:101FB00000BF054908680021C16100BF01F0DCFBDA
:101FC000EAE7000084000020880000202DE9F041AD
:101FD00007460C4615461E460648456086600320A7
:101FE0000449C860084604603846FEF71FFB00201D
:101FF000BDE8F081D8C0002000BFFEE72DE9F04128
:1020000007460C4615461E460120074988600846CB
:1020100045600220C8600846046006613846FEF745
:1020200005FB0020BDE8F081D8C000200FB410B53A
:102030000949D1F8E01101F10C00DDE9021206F0C6
:10204000ACFE0549D1F8E0011821816200BF0120F2
:1020500010BC5DF814FB0000CCBE002092B0FEF76F
:10206000FDFB00F0B9F8FFF7A3FE01F029F800F03E
:1020700039FD00F089FD00F0AFFD00F099FF2F4A17
:102080004FF0C0412E4801F047FB2E482E4A2F4901
:10209000002302614161836100BF00F1100383608E
:1020A00000BF00BF01F04CFC0121264801F034FCC8
:1020B000274801F052FB27A1284801F06FFB28A117
:1020C0002A4801F06BFB0221294801F06FFB4FF415
:1020D000A0704FF4F07300221146009006A806F09D
:1020E000C4FE244C06A90CA806F0B6FE05462A46F6
:1020F0002146684606F0C6FE0020E061A0619FED23
:102100001E0A84ED090A84ED080AA062E062606399
:10211000206300BF014600222346DA619A619FEDE9
:10212000170A1A4682ED090A82ED080A106051600A
:1021300000BF00BF0520FEF76BFAFBE7FFFF0700BB
:10214000B4C00020CCBE0020000402405C0000208F
:10215000692A000875736572000000009D2300085D
:1021600052656E6465726572000000008922000885
:10217000912A000880BC00209A99993E9A99193FAB
:1021800007463C4600BF206A814600BF01F0D8FAEE
:1021900000BFD9F83C00461E6069B04201D9002E4C
:1021A00000DA10E006EB4602216901EB8200856847
:1021B00000BF05E0D4F820804046E96888476D6894
:1021C000002DF7D100BF01F0B6FA00BF0020E0619A
:1021D00000BF01F0D1FAD9E700B593B000BF27489E
:1021E000006840F08050254908600846006800F00B
:1021F0008050019000BF00BF2148006840F480403B
:102200001F4908600846006800F48040019000BF44
:1022100001200290039002200890410509911021AD
:102220000A914FF4B4710B9102210C9107210D9189
:1022300002A8FEF76BFD08B1FFF7DEFE0F200E903F
:1022400002200F90002010904FF4A0501190129097
:1022500005210EA8FEF78CFB08B1FFF7CDFEFEF7B7
:10226000E9FA41F20101884205D10648006840F4CC
:1022700080700449086013B000BD0000403802407F
:1022800000700040003C02401CB501A800BF3A4964
:10229000D1F8E41101F1380004F05CFE0020009058
:1022A0003549D1F8C001354902F084FC3249D1F8F2
:1022B000C001334902F088FC2F49D1F8E411081D10
:1022C000304902F077FC2C49D1F8C41101F10C001F
:1022D0002D4902F079FC2849D1F8C81101F10C0010
:1022E0002A4902F071FC2449D1F8CC1101F10C000B
:1022F000274902F069FC2049D1F8D01101F10C0006
:10230000244902F061FC1C49D1F8C0111A4AD2F8E4
:10231000C021126852F8102C88184FF6FF7104F093
:102320001CFE1549D1F8E41101F1380041F20C41CD
:1023300004F013FE00BF184801F040FA0E48D0F830
:10234000E4114422535A886D00BFD0E9022502FBF4
:1023500005F4224603E0856925F81230521E002A52
:10236000F9DC00BF00BF0021034801F047FC00205A
:1023700001F007FADFE70000CCBE0020B923000817
:10238000D12300082D200008092500087925000820
:10239000E925000859260008591F000808B56846B5
:1023A00000BF0121034801F0B7FA00BF0A2001F085
:1023B000E8F9FBE7CCBE002010B50449D1F8C01104
:1023C00001F1340002F0BBFF012010BDCCBE0020A3
:1023D0000FB470B51448007800F0010048B91248F5
:1023E00002F0BCFA28B111490A9808600E48AFF310
:1023F00000800E480468049D04F14C0005F051F97A
:10240000294604F14C0005F073F900BF08A1074804
:10241000006805F092FC05480599006805F096FCF7
:10242000012070BC5DF814FB54000020580000200F
:10243000202020200000000030B591B00446254641
:1024400029460BA800F02BFF1C2104A8FDF7B3FFC1
:10245000DDE90B01CDE90401DDE90D01CDE906015E
:102460000F98099007A80FC88DE80F00034804A92A
:102470000EC9006802F01DF811B030BD64000020E4
:1024800030B591B00446254629460BA800F007FF59
:102490001C2104A8FDF78FFFDDE90B01CDE9040144
:1024A000DDE90D01CDE9060107A80FC88DE80F0091
:1024B000034804A90EC9006802F035F811B030BD18
:1024C0006400002030B591B00446254629460BA88B
:1024D00000F0E5FE1C2104A8FDF76DFFDDE90B010E
:1024E000CDE90401DDE90D01CDE9060107A80FC81A
:1024F0008DE80F00034804A90EC9006802F047F8F0
:1025000011B030BD640000200FB410B5144A029918
:10251000D2F8C40105F00AFE1149D1F8C41101F145
:10252000400002F00CFF0E49D1F8C0010DA105F0EA
:10253000F7FB0B49D1F8C0010DA105F0FEFB0849DE
:10254000D1F8C40105F0EFFD04460549D1F8C001FA
:10255000214605F0FBFB012010BC5DF814FB0000D8
:10256000CCBE0020534C494445525F31203A2000F4
:1025700020202020000000000FB410B5144A02995A
:10258000D2F8C80105F0D2FD1149D1F8C81101F106
:10259000400002F0D4FE0E49D1F8C0010DA105F0B3
:1025A000BFFB0B49D1F8C0010DA105F0C6FB0849DE
:1025B000D1F8C80105F0B7FD04460549D1F8C001BE
:1025C000214605F0C3FB012010BC5DF814FB0000A0
:1025D000CCBE0020534C494445525F32203A200083
:1025E00020202020000000000FB410B5144A0299EA
:1025F000D2F8CC0105F09AFD1149D1F8CC1101F1C6
:10260000400002F09CFE0E49D1F8C0010DA105F07A
:1026100087FB0B49D1F8C0010DA105F08EFB0849DD
:10262000D1F8CC0105F07FFD04460549D1F8C00181
:10263000214605F08BFB012010BC5DF814FB000067
:10264000CCBE0020534C494445525F33203A200011
:1026500020202020000000000FB410B5144A029979
:10266000D2F8D00105F062FD1149D1F8D01101F185
:10267000400002F064FE0E49D1F8C0010DA105F042
:102680004FFB0B49D1F8C0010DA105F056FB0849DD
:10269000D1F8D00105F047FD04460549D1F8C00145
:1026A000214605F053FB012010BC5DF814FB00002F
:1026B000CCBE0020534C494445525F34203A2000A0
:1026C000202020200000000030B591B004462546AF
:1026D00029460BA800F0E3FD1C2104A8FDF76BFEC2
:1026E000DDE90B01CDE90401DDE90D01CDE90601CC
:1026F00007A80FC88DE80F00034804A90EC9006899
:1027000001F09CFF11B030BD64000020F0B589B02D
:1027100005462E46304604F074FC044694F93C000D
:10272000002843DD94F93C0010B101283CD100E0C1
:102730003BE04348006804281DDA214605A806F05E
:102740004BFB94F93D0000223E493D4B1B6851F87C
:102750002310CDE90112039008980090A16901F1BE
:10276000300005A90EC904F029FD35480068401C59
:102770003349086017E0002084F83C00214605A892
:1027800006F02AFB94F93D0000222F494968CDE963
:102790000112039008980090A16901F1300005A989
:1027A0000EC904F00BFD00E000BF45E0B4F92C00B9
:1027B00000282CDDB4F92E10206808442060B4F9FC
:1027C0003010606808446060A08D401E00B2A08593
:1027D000204604F04FFB0A2190FBF1F201FB1200AE
:1027E000194951F82070214605A806F0F5FA94F928
:1027F0003D000021CDE90171039008980090A16986
:1028000001F1300005A90EC904F0D8FC14E02146FE
:1028100005A806F0E1FA94F93D0000220A4949684A
:10282000CDE90112039008980090A16901F13000F0
:1028300005A90EC904F0C2FC002009B0F0BD0000DB
:102840006800002028000020000000200FB410B510
:10285000089C2046029902F0BAFA2046029902F03A
:10286000B3FA002010BC5DF814FB00000FB42DE992
:10287000F0410C9F384604F0C4FB044606982168DA
:10288000451A07986168461A002D03DA022084F879
:102890003D0002E0002084F83D000B9802280CDB8C
:1028A000002027490860012084F83C0094F93D206D
:1028B0000A21204604F08EFA3BE0069961630799ED
:1028C000A163002184F83C100020002D01DD294681
:1028D00000E06942002E01DD324600E07242914282
:1028E00013DD002D01DD052101E06FF00401E1851C
:1028F000B4F92E1095FBF1F109B2A185B4F92C10B1
:1029000096FBF1F109B2218612E0002E01DD0521CE
:1029100001E06FF004012186B4F9301096FBF1F16B
:1029200009B2A185B4F92C1095FBF1F109B2E1854A
:1029300000BF4FF0FF30BDE8F0015DF814FB000070
:10294000680000200FB470B50A9C204604F059FBC3
:1029500005464FF0FF3070BC5DF814FB0FB410B5A6
:10296000089C2046029902F02FFA00BF012084F84B
:102970003C000A20608700BF002010BC5DF814FBFB
:102980000FB470B50A9C204604F03BFB05464FF09F
:10299000FF3070BC5DF814FB0FB410B5089C00212B
:1029A000204602F014FA0021204602F00DFA002021
:1029B00010BC5DF814FB0000F0B589B005462C464C
:1029C0001C480068032802DD00201A4908602068BE
:1029D00050F8100C011905A806F0FEF9216851F80D
:1029E0000C1C0819416801F13006002111480368E8
:1029F0000068401C0F4F38600F4850F82300CDE9A5
:102A00000101039108980090304605A90EC904F011
:102A1000C8FC206850F8100C2058216851F8101C90
:102A2000214409690844216851F8101C605009B01C
:102A3000F0BD00006C0000203800002010B50446F6
:102A40002146024800F0DBFD10BD0000B4C00020AC
:102A500070B504462146034800F096FD0546284619
:102A600070BD0000B4C00020014600207047000087
:102A70000FB583B006980090044803A90EC901F071
:102A800099F9CDE9010107B000BD0000E4BC0020C8
:102A9000014606480068401C044A1060044800686B
:102AA000401C034A10601046006870474800002030
:102AB0004C00002070B504460D462A4621460248C7
:102AC00001F0A4FA70BD0000E4BC00201CB504466F
:102AD0002146034801F023FBCDE900011CBD0000A5
:102AE000E4BC002010B54FF000702349486000217D
:102AF00021488160C1604FF4806101610021416122
:102B000081614FF48071C16149020162002141621B
:102B1000032181620021C1620163184816490860DF
:102B20000846FDF737FD08B1FFF766FA00201449A3
:102B300048608021124881600021C1604FF48061AB
:102B4000016149004161890081610021C1614FF447
:102B50000031016200214162032181620021C162D2
:102B600001630848064908600846FDF713FD08B1EF
:102B7000FFF742FA10BD000060C100205864024017
:102B8000B0C100202860024010B51148114908600A
:102B900030211048C1610021816041610221016141
:102BA000002181620721C1620021C16001624FF4EE
:102BB00000718161102141624FF4827005494860C3
:102BC0000846FEF7A3FA08B1FFF716FA10BD000099
:102BD000003C004000C2002010B5254800684008B5
:102BE0006421B0FBF1F0441E2248234908603121E2
:102BF0002148C1604460002101618160FEF7B7FE99
:102C000008B1FFF7F9F91C48FEF7CCFE08B1FFF751
:102C1000F3F917480068400842F21071B0FBF1F078
:102C2000441E88061549086042F20F711348C160BE
:102C30004460002101618160FEF799FE08B1FFF751
:102C4000DBF90E48FEF7AEFE08B1FFF7D5F9022218
:102C500003211920FDF73AFE1920FDF72AFE022272
:102C600003211C20FDF732FE1C20FDF722FE10BDC3
:102C7000700000200000014058C2002094C20020D3
:102C80002DE9FF4F83B08C49D1F8E41101F13800F0
:102C90004168894688484FF44045D0F8E4312946D8
:102CA000986D00BFD0E9022C02FB0CF6324604E01E
:102CB000D0F818C02CF81210521E002AF8DC00BF01
:102CC00000BF069C7C4909B11C3100E00021084688
:102CD000816803E0002203685A54491E0029F9DA8A
:102CE0000021416000BF744909B11C3100E000219E
:102CF000084672A104F012FD6F4909B11C3100E0D1
:102D00000021084676A104F009FD6B4AA16B0AB1C7
:102D10001C3200E00022104604F010FD664909B1A3
:102D20001C3100E00021084670A104F0F7FC624964
:102D300009B11C3100E00021084674A104F0EEFC4A
:102D4000A26B11685C4A0AB11C3200E000221046F6
:102D500004F0F4FC584909B11C3100E00021084698
:102D60006EA104F0DBFCA26B52F8041C524A0AB1BB
:102D70001C3200E00022104604F0E0FC4E4909B18C
:102D80001C3100E00021084667A104F0C7FC4A4A54
:102D9000E16B0AB11C3200E00022104604F0CEFCC8
:102DA000454909B11C3100E00021084661A104F049
:102DB000B5FC6449D1F8F40000F13C010D463E49F0
:102DC00009B11C3100E000210846294604F082FCCC
:102DD000394909B11C3100E0002108465AA104F02C
:102DE0009DFC354A06990AB11C3200E000221046CB
:102DF00004F0A4FC304909B11C3100E00021084670
:102E000058A104F08BFC4F49D1F8F400876900BF4A
:102E1000D1F8F400C1698D0813E057F82510264A4F
:102E20000AB11C3200E00022104604F087FC22495F
:102E300009B11C3100E0002108464FA104F03CFC20
:102E40006D1E002DE9DA4D461B4909B11C3100E029
:102E50000021084606684FF6FF7A4FF00008002070
:102E6000A880E880A8684168D1F804B008E016F8A6
:102E700008105B465246284604F050FE08F101084F
:102E800016F808000028F2D100BF0B49D1F8E40180
:102E9000816D0D46084803F0E1FA00200190029090
:102EA00000BF364800F069F90028FAD0DDE90101D9
:102EB00007B0BDE8F08F0000CCBE0020486172640E
:102EC000204661756C74204572726F7220617420A7
:102ED00061646472657373203A20200A0000000068
:102EE0000A50437E7E7E7E7E7E00000043617573C5
:102EF00065203A20426164204D656D6F72792041F2
:102F0000646472657373200A000000000A2850434D
:102F1000202D2031297E7E7E7E7E7E000A28504331
:102F2000297E7E7E7E7E7E000A585053527E7E7EB3
:102F30007E7E7E000A5468726561647E7E7E7E7E3F
:102F40007E000000E4BC00200A54687265616420C1
:102F5000537461636B20616464726573737E7E7EFB
:102F60007E7E7E000A537461636B2044756D702011
:102F70003A200A0A00000000202000005CBE002069
:102F80001FB50A4C04F1F80003F039FCC4F8F40052
:102F9000D4F8F40000F10C010022684603F0D3FEDF
:102FA000DDE90001CDE9020104B010BDE4BC002060
:102FB00010B501231A4604213948FFF707F8022308
:102FC000002201213748FFF701F801231A460221A8
:102FD0003448FEF7FBFF01231A4604213148FEF76F
:102FE000F5FF01231A4608212E48FEF7EFFF0123C3
:102FF0001A4610212B48FEF7E9FF02230122042183
:103000002948FEF7E3FF0223012210212648FEF79C
:10301000DDFF0223012208212348FEF7D7FF022308
:10302000012220212048FEF7D1FF01231A464FF646
:10303000FF711E48FEF7CAFF0C2302224FF6B37140
:103040001B48FEF7DBFF0C2302224FF68371144866
:10305000FEF7D4FF0C2302224FF23F011548FEF782
:10306000CDFF0C2302223F211348FEF7C7FF0623A2
:10307000022251020B48FEF7C1FF06230222D102B1
:103080000848FEF7BBFF0623022291020548FEF71F
:10309000B5FF00230122D1030848FEF797FF10BDBA
:1030A0000010024000080240001C024000040240E0
:1030B000000C0240001402400018024000000240D0
:1030C00010B54FF0204019490860194848600420A5
:1030D0001849086000204860052088600020C8600A
:1030E000042008610020486188611049886000213F
:1030F0000E48C16001611021416100218161C161FF
:103100004FF480610162002141624FF4805181627D
:103110000021C162016341638163064A1146FEF7E3
:10312000DDFB08B1FEF768FF10BD000000C1002004
:10313000040100A044C100200A6A02624A6A426295
:103140008A6A8262CA6AC262CA69C2618A69826123
:103150004A6942610A690261CA68C2608A6882601B
:103160004A6842600A6802600A6B02634A6B426303
:103170008A6B8263CA6BC263704730B587B00446FE
:103180000020E06304F1240001F085FB2062E06C84
:10319000401CE064206A50285FDDD4E90001C4E9E6
:1031A000040104F1240105A801F07CFB05982060CE
:1031B0000698606003AAD4E90001CDE90101019BF2
:1031C0001801029B1901112390FBF3F3D810192366
:1031D00091FBF3F3D91001900291019BC3F5F073B9
:1031E0000193DDE90135C2E9003500BFDDE90301E6
:1031F000C4E90001A268A169881A00EBD07102EB52
:103200006101A160E269E168501A00EBD0714A10D7
:10321000E1680A44E26094F84000012807D121697E
:103220002068401AA06161686069091AE16194F838
:10323000420001280BD104F8400F00206070A070FC
:103240006068401C606000206061403C01E001203B
:10325000E063012084F840001FE094F8400001285A
:1032600007D184F84100002084F840000320E06387
:1032700002E0012084F84200606D06280ADD606CDF
:1032800000280ADD606CA064002060640220E06316
:1032900007B030BD606D401C6065E06BF8E730B58D
:1032A00087B005460C46182101A8FDF784F8D4E93B
:1032B0000001CDE90101D4E90601CDE90301A06CCB
:1032C0000590182201A92846FDF743F807B030BD44
:1032D00010B5044600231A46194604F1240001F0F3
:1032E0004BFA0020E0639FED0E0A84ED160A9FED75
:1032F0000D0A84ED170A9FED0C0A84ED180A9FED64
:103300000B0A84ED190AA0610021E161206161616D
:10331000206060606064E06420656065A06410BD4A
:10332000DF4F0D3ECDCCCC3D00008C42000048422A
:1033300070B504460D460DB9012000E000200600DE
:1033400006D0084D28682060204601F05DF804464C
:10335000286820606868216851F8141C6050204675
:1033600070BD0000FCF7010830B505460B46144659
:1033700000BF4FF480201E49086000BF00BF1BB192
:1033800000BF0220086005E000BF4FF4003018497C
:10339000086000BF00BF284600F02CF800BF0420E2
:1033A0001349086000BF07201CE000BF4FF48021D4
:1033B0000F4A116000BF00BF44FA00F101F00101A3
:1033C00019B100BF0221116005E000BF4FF40031C8
:1033D000074A116000BF00BF00BF0421044A11600A
:1033E00000BF401E0028E0DA284600F00DF830BD8E
:1033F0001808024000BF4FF40021024A116000BFCC
:10340000704700001808024000BF0821014A1160FF
:1034100000BF7047180802402DE9FF5F07460C46C1
:103420003C600020824601904FF42F7002904FF4D0
:10343000AA700390842001F079FA05460090D4F830
:103440003CB05A46002103F01DFE05462E46039867
:103450000090316851F80C1C88195246DDE90113BF
:1034600005F0C8FC316851F8101C8819214603F09A
:1034700076FD00BFB046454604F198062946304621
:1034800003F067F900BF402001F050FA8146414641
:1034900003F016FD814678600020B860384604B01D
:1034A000BDE8F09F70B504460D460DB9012000E05F
:1034B0000020060010D0154D2868206004F124007B
:1034C00000F0A2FFA0F1240405F10C0104F1240096
:1034D000FFF72EFFA0F1240420460D4901600021D2
:1034E0004160816000BF0B49016000BF044628684D
:1034F00020606868216851F80C1C6050A868216839
:1035000051F8101C6050204670BD000030F80108D2
:103510002CF901087CF801082DE9F84F04468A4689
:1035200016469846DDF82890216851F80C1C0819B9
:10353000314605F0FBFB07460FB9BDE8F88F11488F
:103540000090216851F8101C08194346002251468A
:1035500003F032FB05463DB9216851F80C1C0819EF
:10356000394605F0C5FBE8E700BF27616661E56005
:10357000C4F82090C4F818800020E06100BF00BFAC
:10358000DBE70000DCFC01082DE9F04105460E46B2
:1035900016B90020BDE8F08146F0040600BF6C6853
:1035A00000BF21E0E068B0421DD32146284603F069
:1035B0004CF806F13000E168814209D332462146D9
:1035C000284600F08FF807463946284602F0FEFFED
:1035D000214605F10C0002F0F9FFA869401CA86122
:1035E00004F11000D6E7A468002CDBD1FCF78EFEB6
:1035F00006210160E869401CE8610020CAE770B557
:1036000004460D4645B9E069401CE061FCF77EFECA
:1036100005210160084670BDFCF778FE00210160BD
:10362000A5F11006FCF772FE0068052803D1FCF72F
:103630006DFE0068EFE7314604F10C0003F005F879
:103640003146204602F0C2FF2146204600F004F831
:10365000FCF75CFE0068DEE72DE9F04107460E4608
:1036600000BF3068022803D24FF0FF30BDE8F08180
:1036700000BFB068846800BFB56800BF12E0E868AA
:1036800028441030A0420BD1E968E06810300844AB
:10369000E8602146304602F0D8FF386A401C3862A4
:1036A00025466468002CEAD100BF7068846800BFBA
:1036B0007068054612E0E86828441030A0420BD13B
:1036C000E968E06810300844E8602146304602F0BE
:1036D000BCFF386A401C38622546A468002CEAD139
:1036E0000020C3E710B5034600208C1804F1100039
:1036F000CC68A41A103CC460CA6010BD10B5044662
:10370000204602F0CCFF044604F10C0002F0C7FF93
:10371000A0F10C04204610BD2DE9F04107460C46EF
:1037200015462646A5F11400F0603146384602F0F1
:103730004DFFBDE8F081002211460C2002DF7047EA
:10374000002211460B2002DF704770B504460D467B
:103750002A462146092002DF70BD10B5044600222A
:103760002146062002DF10BD70B504460D462946ED
:103770002046FFF79FF970BD00220121072002DFDC
:10378000704710B5044600222146042002DF10BD18
:103790001CB5FCF74DFDCDE900011CBD70B504461C
:1037A0000D462A462146022002DF70BD70B5044650
:1037B0000D462A462146082002DF70BD10B504469A
:1037C00000222146052002DF10BD2DE9F04104460C
:1037D0000E4617461D464FF00008FDF731F88046AB
:1037E000002F3ED132E0681C78B32DB1FDF728F8E8
:1037F000A0EB0800A84229D92068406820F0E0002A
:10380000216848602068006820F040002168086056
:10381000A06AB0F5005F0DD100BF2068006820F4F9
:103820000050216808602068006840F4005021685A
:10383000086000BF012084F8510000BF002084F818
:10384000500000BF0320BDE8F081FFE720688068DA
:103850003040B04201D1012000E000200028C2D059
:103860003BE030E0681C70B32DB1FCF7E9FFA0EB42
:103870000800A84227D92068406820F0E0002168AD
:1038800048602068006820F0400021680860A06A55
:10389000B0F5005F0DD100BF2068006820F4005033
:1038A000216808602068006840F4005021680860C2
:1038B00000BF012084F8510000BF002084F85000B0
:1038C00000BF0320BFE7206880683040B04201D1CC
:1038D000012000E000200028C4D10020B3E7000050
:1038E00010B5002807DA0A07140E054A00F00F0386
:1038F0001B1FD45403E00A07130E024A135410BDD1
:1039000018ED00E000E400E002480068C0F3022087
:10391000704700000CED00E010B50246084620B1EB
:1039200000BF0423054CA36105E000BF4FF48023D2
:10393000024CA36100BF00BF10BD00000010024098
:103940002DE9F04F8FB0044604F5AA75A84805602C
:103950004FF4A0704FF4F07300221146009005F16F
:10396000280005F047FAA34905F1100001F08EFC8C
:103970006866284600F052FD4FF0FF30A86600BF91
:103980009D4DE560A06804F0C5FF00BF04F5AA7571
:10399000002637464FF42F784FF4AA7943463A462B
:1039A000314601A8CDF8009005F05FFA01A907A8FB
:1039B00005F052FA82465146284603F0F1FA28668D
:1039C000286E0D9028460D9900F044FD04F5E07432
:1039D00060624FF06408C1464FF0C80A2820676A49
:1039E0000C90B82000F0A2FF05460B90D7F83CB031
:1039F0005A46002104F0B4F905462E460C98009072
:103A0000316851F80C1C881953464A46414605F066
:103A1000F1F9316851F8101C8819394603F09FFA02
:103A200000BF266028200090B42332220021606A63
:103A300001F006FD606028200090B423642200217C
:103A4000606A01F0FDFCA06028200090B42396225B
:103A50000021606A01F0F4FCE06028200090B423AB
:103A6000C8220021606A01F0EBFC20614FF00008E1
:103A70004FF0FA094FF0B40A2820676A0C90C4206E
:103A800000F054FF0546AB46F86B024600210B9050
:103A9000584601F049FA05462E460C9800903168C8
:103AA00051F80C1C881953464A46414605F0A2F9C4
:103AB000316851F8101C8819394603F050FA00BFDC
:103AC000666161680A6852F80C2C881805F0A4F940
:103AD00005462946606804F09BF9A1680A6852F817
:103AE0000C2C881805F098F905462946A06804F0C2
:103AF0008FF9E1680A6852F80C2C881805F08CF9E7
:103B000005462946E06804F083F921690A6852F8FD
:103B10000C2C881805F080F905462946206904F028
:103B200077F921680A6852F80C2C88180BAA636A86
:103B3000A4F5E0741D6855F80C5C59198B6803EB0B
:103B4000D3750E6806EB650507954B680893DDE9AC
:103B50000735C2E9003500BFDDE90B12CDE90912D6
:103B6000816801EBD172099BA3EB620202600A99A2
:103B7000416000BF04F5E0746168606A02F0A6FB72
:103B8000A168606A02F0A2FBE168606A02F09EFB35
:103B90002169606A02F09AFB666A256806F15C0793
:103BA0002946384602F000FE00BF666A656906F1E4
:103BB00080072946384602F0DEFC00BF626A02F147
:103BC00038000121017400BF626A02F138004174BB
:103BD00000BF0C2000F0AAFE0E90616AFFF71CFCEB
:103BE0000E90A061A4F5E0740FB0BDE8F08F000066
:103BF00064000020986C0108ECFC01082DE9FF41ED
:103C000005460F4602AE05F5AA7000F003FC044617
:103C1000A06A0090E06A0190DDE90001C6E90001B8
:103C200000BFD5F8E01101F10C00DDE9021205F04A
:103C3000B4F805F5AA70D5F8E44100F0EBFB0646B0
:103C40004820005D10B14920005D00B924E03246F3
:103C500004F18001204602F037FA324604F168018F
:103C6000204602F0DDFA324604F15C01204602F003
:103C7000ACFA324604F17401204602F0FCFA3246F6
:103C800004F19801204602F075FA324604F18C01E5
:103C9000204602F044FA00BF05F5AA70D5F8D841D5
:103CA00000F0B8FB0646A068401CA060606803F006
:103CB000E1F800BF05F5AA7000F0ACFB0646D5F8A8
:103CC000E401816D0C463B463246284602F0FFFB7C
:103CD000BDE8FF8170B5044604F1100000BFA0F1FB
:103CE000100420461549016000BF1549016000BF5E
:103CF000044604F11C0004F129014FF494720160A0
:103D000000234360826001230373134602E0002511
:103D1000CD545B1E002BFADAA0F11C040948206088
:103D200004F2511000BFA0F2511404F5AA7000F083
:103D3000B5FCA0F5AA74204670BD000034F7010858
:103D40001CF7010890F901082DE9FF5F04460E46B3
:103D50001746206850F8100C0519B0464FF00309BB
:103D6000DFF84CA0BB46296851F8141C48194FF4E1
:103D7000806104F0A5FF0290029808B900200EE0CF
:103D800003204B464FF480624146CDE9000A029879
:103D900000F0B4FA5946029804F06CFF029801460C
:103DA000039004F1F80002F063FDBDE8FF9F0000FE
:103DB00000A0000A0FB430B58BB00446214605A818
:103DC00001F003FB00BF9DF81800A0B9D4F8F4007F
:103DD00000F10C01002203A802F0B5FFDDE90301A8
:103DE000CDE9090105A801F002FBDDE909010BB0ED
:103DF00030BC5DF814FB129D2946D4F8F40000F0A5
:103E0000CEFA10A807C88DE807002A46214603A865
:103E10000F9B00F02FF8DDE90301CDE9070105A8AC
:103E200001F0E5FADDE90701E1E72DE9F04105469A
:103E30000F4600260020044617E004EB440205F17B
:103E4000F80101EB8200016809B1002100E00121C5
:103E500049B904EB440205F1F80101EB820002F0DC
:103E6000CEFCBDE8F081601C0446082CE5DB304642
:103E7000F7E700000FB42DE9FE4F81460C46D4F859
:103E8000F40041698A460E980190CDF808A00F9879
:103E9000801E0B2878D2DFE800F0060D0E58328025
:103EA00059788F9A9E0000232046DDE91012FFF713
:103EB0004BFF00BF94E04E48824500D190E0D4F81B
:103EC000F4001099C26A61F30F02C26200BF04F5E8
:103ED000AC70D4F8F41002F0E3FC00212046FFF7A8
:103EE000A4FFC4F8F400D4F8F40000F10C01484633
:103EF0000E9A02F028FFBDE8FE0F5DF814FB1021BA
:103F000004F1D000FFF740FB06461098F06000BFB8
:103F100031460846D4F868315B1CC4F86831D4F8DF
:103F20006C313BB9C4F86C01C4F8700100238360A4
:103F3000436008E0D4F86C21826000234360506045
:103F4000C4F86C0100BF00BF4AE049E04FF0000B2D
:103F5000DDE91058216851F80C1C081904F098FE8E
:103F6000074600BF00203861C7F81480C7F818B0B2
:103F700000BFFD6000BF00BF00BF002239462046E1
:103F8000009702F06CFE2BE029E01A4A04F1B80019
:103F9000DDE9101302F08FFD22E000212046FFF73B
:103FA00044FFC4F8F400D4F8F40000F10C014846D2
:103FB0000E9A02F0C8FE9EE704F1B800109902F0D4
:103FC000F0FC05462946204600F078F800BF0020A6
:103FD00084F8640104E0012084F8640100E000BF7B
:103FE00000BFDDE90101C9E9000100BF83E700006E
:103FF000AAAA000A00F001F070B504460D46294651
:1040000004F1D000FFF7FBFA70BD00002DE9FC4180
:1040100004460E4617463A46314604F1D000FFF7F3
:104020007BFB1C4D1C480090216851F8101C08199E
:104030001A4B0622294602F08FFD8046414604F1C4
:10404000F80002F02DFC00BF002015490123154A9D
:10405000CDE90010144904F1B80002F0C9FC0020B9
:10406000104B5B1E0122114900902046FFF754FAC5
:1040700004F5BC70FFF72CF904F5BC700C4906235D
:104080000C4ACDE900100C49C03802F0B1FC002008
:10409000BDE8FC815D20000815FD0108AAAA000A00
:1040A000F4FC010802B0000B711F0008791F000822
:1040B00001FD010800F001F0812100087CB50546F2
:1040C0000C462946684601F080F900BF9DF80400BF
:1040D00018B9684601F08BF97CBD94B12046017C8B
:1040E00009B9002103E0C16A41F30441491C01EB15
:1040F000410105F1F80000EB81062146304602F04F
:10410000B7FB684601F073F900BFE5E770B50446F8
:104110000D46294604F1D000FFF736FA70BD30B5E0
:104120008BB004460D460595D4F8F40090F91110B3
:10413000069194F87411D4F87401401CC4F8740109
:1041400001F0030010B9D4F8740118B9DDE90501D4
:104150000BB030BD94F8640110B9DDE90501F7E753
:10416000214603A801F031F900BF9DF8100048B9BD
:10417000DDE90501CDE9090103A801F038F9DDE920
:104180000901E5E72946D4F8F40000F008F92146D2
:10419000204604F047FD2046D4F8F410FFF78EFFC8
:1041A00000BF00212046FFF740FEC4F8F400D4F819
:1041B000F40000F10C012A4601A802F0C4FDDDE97B
:1041C0000101CDE9070103A801F011F9DDE90701BB
:1041D000BEE7000070B504460D460DB9012000E0B1
:1041E0000020060017D0404D2868206004F5F070CC
:1041F0003E490160204600BF044604F1B80000F0CB
:1042000003F9A0F1B80405F12C0104F1B800FFF79F
:104210008FF8A0F1B80404F1240000BF2021803001
:1042200081600021C160416040F8801900BF00BF7B
:1042300000BFA0F12404291D2046FFF733F90446EE
:1042400005F1100104F1B80002F058FCA0F1B80427
:1042500004F1CC0000F0D8F8A0F1CC04286820606C
:10426000E869216851F8141C6050286A216851F8E7
:104270000C1C6050686A216851F8101C6050A86AD4
:10428000C4F8B8001A48C4F8CC0004F1D000FFF715
:1042900035FAA0F1D00408230C22164904F1F800E5
:1042A00000F04AFBA0F1F80404F5AC7002F00FFB3B
:1042B000A0F5AC7404F5B470002141608160016028
:1042C000A0F5B47000BF044604F5BC710A4A4A6206
:1042D00000BFA1F5BC740020C4F8F400012084F8EC
:1042E0006401204670BD0000C8FB01084CF70108BE
:1042F00098FB0108CF68000884FC01082DE9F0470D
:1043000005460E4614469946DDE90878EC61241FFF
:1043100005EB040A05F10C00514622460023037107
:104320000660C160026187604FFA88F3437100BF85
:104330004946284600F002F8BDE8F087C26A22F03C
:104340008072C262C26A6FF30F02C262C26A22F056
:104350008052C262C26A22F08042C262C26A22F005
:104360000052C262C26A22F08062C262C26A22F451
:104370000002C262C26A22F40012C262C26A22F061
:104380000072C262C26A22F00062C262C26A22F491
:104390008002C262C26A61F31442C26270478162E3
:1043A00070470CB58A6A0092CA6A0192DDE900235F
:1043B000C0E900230CBD07B501990268891A816222
:1043C00002994268891AC1620EBDF0B50346986829
:1043D000461AD868841A1F68F51B002D01DA0027D9
:1043E00010E09F68AF4201DA00270BE05F68E01B36
:1043F000002801DA002705E0DF68874201DA00279C
:1044000000E001273846F0BD014901607047000017
:1044100024FC0108014601F12800704710B504464C
:1044200000210848FFF791F901210748FFF78DF9AE
:1044300002210648FFF789F907210548FFF785F9AA
:1044400010BD0000C524000839240008C926000852
:10445000812400082DE9F04705460F46C82000F0EA
:1044600065FA0446A0463A460021404601F046FF60
:104470000446264605F10408B1464946404602F086
:1044800013F906F1380002F065FD8046D5F8649016
:10449000C8F8089000BF06F1380002F05BFD00F19B
:1044A0000C09D5F86480C9F81C8000BF3046BDE80F
:1044B000F0870FB470B58EB0044604F12800DDE932
:1044C0001312FFF778FF04F128010CA8FFF769FF2A
:1044D000DDE90C01CDE91301201D07C804AB07C3BA
:1044E0001C2213A907A8FBF734FF04A802F007F960
:1044F000054600260EE00AA80FC88DE80F002846E2
:1045000007A90EC901F018FB0646002E01DB304654
:1045100003E06D6D002DEED1681EA06600200EB088
:1045200070BC5DF814FB0FB470B58EB0044604F196
:1045300028010CA8FFF735FFDDE90C01CDE91301D7
:10454000201D07C804AB07C31C2213A907A8FBF74B
:1045500000FF04A802F0D3F8054600260EE00AA8E2
:104560000FC88DE80F00284607A90EC901F058FBB7
:104570000646002E01DB304603E06D6D002DEED1C6
:10458000681EA06600200EB070BC5DF814FB0FB46E
:1045900070B58EB00446A06E002819DADDE9150169
:1045A000CDE90C01A06A0C990844A062E06A0D995B
:1045B0000844E062206D0C99401A2065606D0D99E9
:1045C000401A60650C98A0650D98E06500BF00BFBB
:1045D00004F12800DDE91312FFF7EDFE04F12801D4
:1045E0000CA8FFF7DEFEDDE90C01CDE91301201D6B
:1045F00007C804AB07C31C2213A907A8FBF7A9FE31
:1046000004A802F07CF8054600260EE00AA80FC8B0
:104610008DE80F00284607A90EC901F0DAFB06460F
:10462000002E01DB304603E06D6D002DEED1681EDB
:10463000A06600200EB070BC5DF814FB0FB470B51E
:104640008EB0044604F128010CA8FFF7AAFEDDE9AC
:104650000C01CDE91301201D07C804AB07C31C22C0
:1046600013A907A8FBF775FE04A802F048F8054651
:1046700000260AE00AA80FC88DE80F00284607A9FF
:104680000EC901F07CFC06466D6D002DF2D1A666C8
:1046900000200EB070BC5DF814FB000010B502469F
:1046A000104600BF0246101D00214160816040F8A5
:1046B000041900BF024602F1100108460F4C0460C5
:1046C0000F4C0346446000BF18460E4B0360103386
:1046D000436000230361436100BFA0F1100202F1B7
:1046E000280000BF0021016041608160C16000BFFF
:1046F00000BF00BFA0F12802104610BD04FC010855
:1047000064F7010834FC010870B505460C461646EE
:1047100000BF4FF000400849886100BF0A23022211
:1047200021460648FCF737FD00BF4FF40040024920
:10473000886100BF002070BD0000024000C2002060
:1047400070B505460C46164600BF4FF000400849BC
:10475000886100BF0A23012221460648FCF738FE83
:1047600000BF4FF400400249886100BF002070BDC7
:104770000000024000C20020F8B504460F4615466E
:104780001E460120A06060600020E081A0810098AA
:1047900020F00100401C0090009820F00E00801CCA
:1047A0000090009867F304100090009820F020001B
:1047B0000090009820F0C00000906946204600F06C
:1047C00042F8A074009820F00E000A300090009883
:1047D00065F3041000906946204600F034F8E07458
:1047E000009820F00E00801D0090009866F30410E1
:1047F00000906946204600F026F820754620A081EA
:104800003220E08101206060A060F8BD70B50446F0
:104810000D462574002161742068012204F1100105
:104820004368204698472068022204F1100103687B
:1048300020469847268A05F0080008B9361100E09E
:104840003612304670BD10B502460B78DB071B0EE2
:104850000C78C4F3420443EA04130C78C4F3001444
:1048600043EAC4030C78C4F3401443EA84030C788D
:10487000C4F3811443EA040010BD10B50446A17CC2
:104880002046FFF7C3FF10BD10B50446E17C20466B
:10489000FFF7BCFF10BD10B50446217D2046FFF791
:1048A000B5FF10BD7CB504460D462846FFF7E5FF71
:1048B00000902846FFF7E8FF0190DDE90001C4E918
:1048C00000017CBD70B504460D46CC3C294620460F
:1048D000FFF792FB70BD70B504460D46CC3C2946EF
:1048E0002046FFF713FC70BD70B504460D462068E6
:1048F00050F80C0C044429462046FFF707FC70BD15
:1049000070B504460D46206850F8100C0444294642
:104910002046FFF771FB70BD10B504462046FEF738
:104920008DF810BD10B500F001F810BD10B50446AB
:104930002046FEF78DF810BD2DE9F0411C461746C4
:104940000E00804607D0054602E02846B0473D44A9
:104950002046641EF9D24046BDE8F081016809B1E5
:1049600000207047012101600846704710B5064CD1
:1049700000212046FFF72EFC0448FFF7ABF904485E
:10498000FEF7BCFE10BD0000E4BC0020CCBE002041
:10499000B4C0002010B50B4C204604F06DFA04465C
:1049A00000BF0948094A0260094A0146426000BF47
:1049B00008460849016010314160002101614161F0
:1049C00000BF10BD80BC0020B8BC002014FC010852
:1049D0007CF701085CFC01081CB54BF680311148DE
:1049E000FEF7C2FEFEF7D4FE1BE00F4C4FF6FF753C
:1049F0002146684600F0D8FC00BF9DF8040018B9B5
:104A0000684600F0DBFC0BE0A9B24FF4A0734FF452
:104A1000F072A06803F02EFD684600F0CFFC00BFE6
:104A200000BFE2E7C0000020CCBE00202DE9F0412D
:104A300080460D4616461020FFF778FF04461249BF
:104A4000016000214160816000BF10490160C660C3
:104A500000BF27460FB9BDE8F0813A4610462B68E3
:104A60005B1C2B606B682BB96860A86000238360B7
:104A7000436006E0696881600023436048606860C5
:104A800000BF00BF00BFE6E738F901089CF8010845
:104A90000FB42DE9F0438BB004460E46216851F85F
:104AA0000C1C0819DDE9141204F0B9F930B94FF003
:104AB000FF300BB0BDE8F0035DF814FB0DF1240CE2
:104AC000216851F80C1C0819DDE91412CDE9071210
:104AD0006246DDE90731D0F80080A3EB0803002B24
:104AE00000DA0368D0F80080A1EB0801002900DAA1
:104AF000016805930691DDE90589C2E9008900BFD7
:104B000000BFDDE90901CDE914011A9400BF756801
:104B100000BF01270FE01C2214A904A8FBF719FC11
:104B200008A807C88DE80700D5F80CC004A80FC86E
:104B3000E0470746AD68002DEDD13846B9E70FB420
:104B400010B586B0044614220BA96846FBF701FC99
:104B500004F110012046DDE90923FFF799FF06B0B3
:104B600010BC5DF814FB0FB410B586B004461422D7
:104B70000BA96846FBF7EDFB04F128012046DDE9AF
:104B80000923FFF785FF06B010BC5DF814FB0FB4D6
:104B900010B586B0044614220BA96846FBF7D9FB72
:104BA000211D2046DDE90923FFF772FF06B010BC86
:104BB0005DF814FB70B505460C46224605F1100160
:104BC0002846FFF733FF70BD70B505460C462246F8
:104BD000291D2846FFF72AFF70BD0FB410B586B017
:104BE000044614220BA96846FBF7B3FB04F11C0131
:104BF0002046DDE90923FFF74BFF06B010BC5DF846
:104C000014FB70B505460C46224605F11C012846EA
:104C1000FFF70CFF70BD000070B504460D460DB9DE
:104C2000012000E00020060008D0114D2868206017
:104C300004F1340004F020F9A0F134042868206065
:104C4000201D01F081FD041F04F1100001F07CFD26
:104C5000A0F1100404F11C0001F076FDA0F11C0489
:104C600004F1280001F070FDA0F12804204670BD79
:104C7000D4F501080FB42DE9F04104460B9E079FBF
:104C8000089B206850F8100C2044C16801FB07F510
:104C9000099A01FB025014E0DDF828C09C44ACF1F5
:104CA00001020BE0D4F800C05CF80CCCA444DCF8A2
:104CB00004C002EB00082CF81860521E9A42F1D88A
:104CC000401AA842E8DC0020BDE8F0015DF814FBC2
:104CD0000FB470B592B00646DDE91B4517980E90EB
:104CE00018980F90199810901194199917980844D2
:104CF000001B0A9018980B900C941A980D90179816
:104D000006901A9918980844001B07901998089063
:104D10000994179802901898039004941A98059093
:104D200001951198009030460EA90EC9FFF7A2FF19
:104D300001950D98009030460AA90EC9FFF79AFF19
:104D4000019509980090304606A90EC9FFF792FF19
:104D5000019505980090304602A90EC9FFF78AFF19
:104D6000002012B070BC5DF814FB00002DE9F0418A
:104D700004460D4616460DB9012000E0002007004C
:104D80000ED0104D2868206004F10C0004F074F877
:104D9000A0F10C0405F10801201D01F031FF041FF2
:104DA000286820606868216851F80C1C60502168F0
:104DB00051F80C1C0819314601F03AFF2046BDE8B5
:104DC000F0810000E4F50108C0F890107047C0F8C9
:104DD0008C1070472DE9F0478EB00446206850F8DB
:104DE0000C0C2558206850F80C0C204446682068AC
:104DF00050F80C0C20448768206850F80C0C2044B4
:104E0000D0F80C803B463246294602A8CDF80080F7
:104E100004F02BF802A908A804F01EF881462168C6
:104E200051F8101C21448A89216851F8101C214432
:104E3000496801F13000494602F076F9D4E92301CE
:104E4000884227DD4FF47041206850F80C0C204454
:104E5000C068CDE90001D4E923C9ACEB0903D4F85B
:104E600000C05CF80CCC54F80CC00CEB0901D4F871
:104E700000C05CF80CCCA444DCF80420D4F800C0DA
:104E80005CF810CCA444DCF804C00CF1300002F053
:104E900077F926E04FF47041206850F80C0C20445C
:104EA000C068CDE90001D4E9239CACEB0903D4F838
:104EB00000C05CF80CCC54F80CC00CEB0901D4F821
:104EC00000C05CF80CCCA444DCF80420D4F800C08A
:104ED0005CF810CCA444DCF804C00CF1300002F003
:104EE0004FF904F1340000F000FA00BFE06C814695
:104EF00002A908A803F0B0FF8246002000900190AC
:104F0000216851F8101C2144CB89216851F8101CEC
:104F10002144496801F10C004A46514602F04EFC1A
:104F20000EB0BDE8F08700002DE9F04104460D46C3
:104F300016460DB9012000E00020070011D02F4DCA
:104F40002868206004F1980003F096FFA0F198040F
:104F5000324605F1180104F1B00002F005F8A0F1A5
:104F6000B004291D2046FFF757FE0446324605F1DE
:104F7000080104F1340000F0E7F9A0F1340404F171
:104F800040001F49216400214160816000BFA0F101
:104F90004004302204F1590104F14C0002F0FFFBFF
:104FA000A0F14C04286820602869216851F8101C81
:104FB00060506869606313482064022104F1340082
:104FC00000F0BBF910492046FFF7F4FD0F492046D9
:104FD000FFF7FAFD0E492046FFF713FE4FF6FF706C
:104FE000216851F8101C214488810020C4F88C00ED
:104FF000C4F890002046BDE8F081000050F601089A
:1050000008F9010838F601084D2800085D29000854
:10501000992900082DE9FF4F89B00446A06808B916
:105020000220A0600A9D0B9EDDF83090DDF858A0AC
:10503000B9EB050003D5C9F10000401B01E0A9EB65
:1050400005000746BAEB060003D5CAF10000801B35
:1050500001E0AAEB06008046A94501DBA06801E05B
:10506000A06840420890B24501DBA06801E0A0685A
:1050700040420790B84535DCC7EB480B4FEA480083
:105080000690A8EB0700400005900898284404907B
:105090000396012002901EE0BBF1000F06DD05988B
:1050A0008344079903980844039001E006988344D9
:1050B000207A1799CDE90010A16803980B180246D1
:1050C0002046049900F079F80298401C0290089953
:1050D000049808440490A06897FBF0F1029881427C
:1050E000DADA34E0C8EB470B78000690A7EB08004B
:1050F00040000590049507983044039001200290E9
:105100001EE0BBF1000F06DD059883440899049862
:105110000844049001E006988344207A1799CDE969
:105120000010A16804980B1801462046039A00F06D
:1051300012F80298401C02900799039808440390C3
:10514000A06898FBF0F102988142DADA00BF0020F3
:105150000DB0BDE8F08FF0B50446DDE905672068C5
:1051600050F8100C2044C56801FB052103FB052302
:1051700010E038460BE0D4F800C05CF80CCCA44436
:10518000DCF804C00CEB430C2CF81060401E002827
:10519000F1D15B1B8B42ECDC0020F0BD0FB47CB581
:1051A00004460B9D0A98CDE90005204607A90EC9C3
:1051B000FFF730FF7CBC5DF814FBF0B50446DDE979
:1051C0000567206850F8100C2044C06800FB01F50A
:1051D0002A442B4420E0D4F800C05CF810CCA4444E
:1051E000DCF80CC00CFB07F013E0D4F800C05CF84E
:1051F0000CCCA444DCF804C00CEB430C2CF810607D
:10520000D4F800C05CF810CCA444DCF80CC0A0EBCF
:105210000C000028E9DC5B1E9342DCDC0020F0BDC2
:105220002DE9F04104460D4616460DB9012000E077
:105230000020070010D0124D2868206004F11400EF
:1052400003F01AFEA0F1140405F1080104F10C00AA
:1052500001F0D6FCA0F10C04286820606868216881
:1052600051F80C1C60500720A060216851F80C1CFC
:105270000819314601F0DCFC2046BDE8F081000051
:105280006CF6010801464868407A70472DE9F04104
:1052900080460E464FF48070FFF744FB074617B96F
:1052A0000020BDE8F0810820FFF740FB05460760BD
:1052B000466000BF044624B93846FFF72DFB0020A6
:1052C000EFE739463078002203E0736813F83020A6
:1052D00088540300A0F10100F7D100BF00BF2146B0
:1052E000404603F039FD2046DBE710B588B00446A0
:1052F000B4F9060000281CDD206850F8100C0119D4
:1053000004A803F069FDA0886189CDE90110079820
:105310000090216851F80C1C2144496801F14400B7
:1053200004A90EC9FFF7D4FCE088401E00B2E0805B
:1053300001E00020207208B010BD418170470121BA
:1053400001720A21C18070472DE9F04104460D46E3
:1053500016460DB9012000E00020070011D0114DC4
:105360002868206004F1200003F086FDA0F12004ED
:10537000324605F1080104F10C0001F0F5FDA0F141
:105380000C04286820606868216851F80C1C605083
:1053900047F21210A0800020E080022060812046A9
:1053A000BDE8F08194F6010801600A79012A01D173
:1053B0000022027101220A710271704701790129EC
:1053C00002D1002102681171704701600A6852F829
:1053D000142C0A441279012A01D1002202710122FF
:1053E0000B6853F8143C0B441A7102717047017931
:1053F000012906D100210268136853F8143C1A44AD
:105400001171704730B502460C46204652F88C5F49
:105410006D1C156055688C3A3DB9C2F89000C2F811
:10542000940000258560456008E0D2F890308360E4
:10543000002545605860C2F8900000BF00BF30BD35
:105440002DE9FF4F81B0064689469246DDF838B017
:105450009C20FFF76BFA04462746D6F83C8042466C
:105460000021384602F064FE04462546CDF800B01F
:10547000296851F80C1C481952464946049B03F010
:10548000B9FC296851F8101C4819314601F067FD34
:10549000284605B0BDE8F08F0FB47FB504460E4630
:1054A000D4F8A400002805DBD4F8A40004B070BC34
:1054B0005DF814FB216851F80C1C0819DDE90A128B
:1054C00003F0ADFC10B94FF0FF30EFE70DA80FC8A7
:1054D0008DE80F00201D0AA90EC9FFF730FB00BFA1
:1054E000756800BF14E00DA80FC88DE80F002846AE
:1054F0000AA90EC9FFF723FBC4F8A400D4F8A4003E
:10550000002804DDC4F8AC50D4F8A400CEE7AD6C9C
:10551000002DE8D1681EC9E70FB47FB504460E46DA
:10552000D4F8A400002805DBD4F8A40004B070BCB3
:105530005DF814FB216851F80C1C0819DDE90A120A
:1055400003F06DFC10B94FF0FF30EFE70DA80FC866
:105550008DE80F00201D0AA90EC9FFF7F0FA00BF61
:10556000756800BF14E00DA80FC88DE80F0028462D
:105570000AA90EC9FFF7E3FAC4F8A400D4F8A400FE
:10558000002804DDC4F8AC50D4F8A400CEE7AD6C1C
:10559000002DE8D1681EC9E70FB47FB504460E465A
:1055A000D4F8A400002805DBD4F8A40004B070BC33
:1055B0005DF814FB216851F80C1C0819DDE90A128A
:1055C00003F02DFC10B94FF0FF30EFE70DA80FC826
:1055D0008DE80F00201D0AA90EC9FFF7B0FA00BF21
:1055E000756800BF14E00DA80FC88DE80F002846AD
:1055F0000AA90EC9FFF7A3FAC4F8A400D4F8A400BE
:10560000002804DDC4F8AC50D4F8A400CEE7AD6C9B
:10561000002DE8D1681EC9E70FB47FB504460E46D9
:10562000D4F8A400002805DBD4F8A40004B070BCB2
:105630005DF814FB216851F80C1C0819DDE90A1209
:1056400003F0EDFB10B94FF0FF30EFE70DA80FC8E6
:105650008DE80F00201D0AA90EC9FFF770FA00BFE0
:10566000756800BF15E00DA80FC88DE80F0005F1A3
:105670000C000AA90EC9FFF762FAC4F8A400D4F816
:10568000A400002804DDC4F8AC50D4F8A400CDE791
:10569000AD68002DE7D1681EC8E70FB47FB504469A
:1056A0000E46D4F8A400002805DBD4F8A40004B00A
:1056B00070BC5DF814FB216851F80C1C0819DDE979
:1056C0000A1203F0ACFB10B94FF0FF30EFE70DA862
:1056D0000FC88DE80F00201D0AA90EC9FFF72FFA89
:1056E00000BF756800BF14E00DA80FC88DE80F005B
:1056F00028460AA90EC9FFF722FAC4F8A400D4F874
:10570000A400002804DDC4F8AC50D4F8A400CEE70F
:10571000AD6C002DE8D1681EC9E70FB47FB5044613
:105720000E46216851F80C1C0819DDE90A1203F035
:1057300076FB28B94FF0FF3004B070BC5DF814FB65
:105740000DA80FC88DE80F00201D0AA90EC9FFF78C
:105750000AFA00BF756800BF14E00DA80FC88DE8F5
:105760000F0028460AA90EC9FFF7FDF9C4F8A400E6
:10577000D4F8A400002804DDC4F8AC50D4F8A40088
:10578000DAE7AD6C002DE8D1681ED5E70FB47FB520
:1057900004460E46216851F80C1C0819DDE90A126E
:1057A00003F03DFB28B94FF0FF3004B070BC5DF84A
:1057B00014FB0DA80FC88DE80F00201D0AA90EC903
:1057C000FFF7D1F900BF756800BF14E00DA80FC83E
:1057D0008DE80F0028460AA90EC9FFF7C4F9C4F8DE
:1057E000A400D4F8A400002804DDC4F8AC50D4F818
:1057F000A400DAE7AD6C002DE8D1681ED5E70FB440
:105800007FB504460E46216851F80C1C0819DDE9E5
:105810000A1203F004FB28B94FF0FF3004B070BC4B
:105820005DF814FB0DA80FC88DE80F00201D0AA914
:105830000EC9FFF798F900BF756800BF14E00DA806
:105840000FC88DE80F0028460AA90EC9FFF78BF98B
:10585000C4F8A400D4F8A400002804DDC4F8AC50B7
:10586000D4F8A400DAE7AD6C002DE8D1681ED5E7C6
:105870000FB47FB504460E46216851F80C1C081978
:10588000DDE90A1203F0CBFA28B94FF0FF3004B07B
:1058900070BC5DF814FB0DA80FC88DE80F00201D2B
:1058A0000AA90EC9FFF75FF900BF756800BF15E0D0
:1058B0000DA80FC88DE80F0005F10C000AA90EC94C
:1058C000FFF751F9C4F8A400D4F8A400002804DDBF
:1058D000C4F8AC50D4F8A400D9E7AD68002DE7D1E6
:1058E000681ED4E70FB47FB504460E46216851F810
:1058F0000C1C0819DDE90A1203F091FA28B94FF0DF
:10590000FF3004B070BC5DF814FB0DA80FC88DE823
:105910000F00201D0AA90EC9FFF725F900BF756801
:1059200000BF14E00DA80FC88DE80F0028460AA993
:105930000EC9FFF718F9C4F8A400D4F8A400002891
:1059400004DDC4F8AC50D4F8A400DAE7AD6C002D47
:10595000E8D1681ED5E70FB47FB504460E4621682E
:1059600051F80C1C0819DDE90A1203F058FA28B99D
:105970004FF0FF3004B070BC5DF814FB00BF7568D9
:1059800000BF14E00DA80FC88DE80F0028460AA933
:105990000EC9FFF7FCF8C4F8A400D4F8A40000284E
:1059A00004DDC4F8AC50D4F8A400E3E7AD6C002DDE
:1059B000E8D1681EDEE70FB47FB504460E462168C5
:1059C00051F80C1C0819DDE90A1203F028FA28B96D
:1059D0004FF0FF3004B070BC5DF814FB00BF756879
:1059E00000BF14E00DA80FC88DE80F0028460AA9D3
:1059F0000EC9FFF7CCF8C4F8A400D4F8A40000281E
:105A000004DDC4F8AC50D4F8A400E3E7AD6C002D7D
:105A1000E8D1681EDEE70FB47FB504460E46216864
:105A200051F80C1C0819DDE90A1203F0F8F928B93D
:105A30004FF0FF3004B070BC5DF814FB00BF756818
:105A400000BF14E00DA80FC88DE80F0028460AA972
:105A50000EC9FFF79CF8C4F8A400D4F8A4000028ED
:105A600004DDC4F8AC50D4F8A400E3E7AD6C002D1D
:105A7000E8D1681EDEE70FB47FB504460E46216804
:105A800051F80C1C0819DDE90A1203F0C8F928B90D
:105A90004FF0FF3004B070BC5DF814FB00BF7568B8
:105AA00000BF15E00DA80FC88DE80F0005F10C0030
:105AB0000AA90EC9FFF76BF8C4F8A400D4F8A40033
:105AC000002804DDC4F8AC50D4F8A400E2E7AD68C7
:105AD000002DE7D1681EDDE70FB47FB504460E4602
