:020000040800F2
:10000000D0090010C10200080F16000807160008EA
:100010000B1600087F070008BD160008000000004E
:10002000000000000000000000000000D3020008F3
:100030008307000800000000730200085302000854
:10004000DB020008DB020008DB020008DB0200081C
:10005000DB020008DB02000885070008DB0200085D
:10006000DB020008DB020008DB020008DB020008FC
:10007000DB020008DB020008DB020008DB020008EC
:10008000DB020008DB020008DB020008DB020008DC
:10009000DB020008DB020008DB020008DB020008CC
:1000A000DB0200089D160008DB020008DB020008E6
:1000B000AD160008DB020008DB020008DB020008C6
:1000C000DB020008DB020008DB020008DB0200089C
:1000D000DB020008DB020008DB020008DB0200088C
:1000E000DB020008DB020008DB020008DB0200087C
:1000F000DB020008DB020008DB020008DB0200086C
:10010000DB020008DB020008DB020008DB0200085B
:10011000DB020008DB020008DB020008DB0200084B
:10012000DB020008DB020008DB020008DB0200083B
:10013000DB020008DB020008DB020008DB0200082B
:10014000DB020008DB020008DB020008DB0200081B
:10015000DB020008DB020008DB020008DB0200080B
:10016000DB020008DB020008DB020008DB020008FB
:10017000DB020008DB020008DB020008DB020008EB
:10018000DB020008DB02000800F002F800F042F891
:100190000AA090E8000C82448344AAF10107DA45E2
:1001A00001D100F037F8AFF2090EBAE80F0013F0F2
:1001B000010F18BFFB1A43F001031847FC2A000087
:1001C0002C2B0000103A24BF78C878C1FAD8520707
:1001D00024BF30C830C144BF04680C6070470000C1
:1001E0000023002400250026103A28BF78C1FBD840
:1001F000520728BF30C148BF0B6070471FB502F0DF
:10020000B1FC9DE8030000F061F900F0D1F81FBDDA
:1002100010B510BD00F0C6F91146FFF7EFFF02F070
:100220005DF800F003FA03B4FFF7F2FF03BC00F03F
:1002300031FA000072B601F0EBF94FF0010101F064
:10024000F0F980F309884FF0060181F3148862B653
:1002500000BD72B6EFF3098020E9F00F00B54FF052
:10026000000101F0DEF9B0E8F00F80F3098862B612
:1002700000BDEFF3098020E9F00F00B54FF0000159
:1002800001F0D9F9B0E8F00F80F3098800BDEFF371
:10029000098020E9F00F00B54FF0000101F0CBF923
:1002A000B0E8F00F80F3098800BD0448016841F40C
:1002B00070010160BFF34F8FBFF36F8F88ED00E0D7
:1002C0000948804709480047FEE7FEE7FEE7FEE7EA
:1002D000FEE7FEE7FEE7FEE7FEE7FEE70448054926
:1002E000054A064B704700003916000889010008CE
:1002F000D0030010D0090010D0050010D005001068
:10030000004870476C03001010B5431C02E010F861
:10031000011B71B18107FAD14FF0013202C88C1A6A
:100320008C4314EAC211F9D0C01A0A0603D0C01EC9
:1003300010BDC01A10BD0A0401D0801E10BD0902F4
:10034000FCD0401E10BD10B5203AC0F00B80B1E8C3
:100350001850203AA0E81850B1E81850A0E81850FA
:10036000BFF4F5AF5FEA027C24BFB1E81850A0E803
:10037000185044BF18C918C0BDE810405FEA827C1D
:1003800024BF51F8043B40F8043B08BF7047D20734
:1003900028BF31F8023B48BF11F8012B28BF20F8D5
:1003A000023B48BF00F8012B704770477047704709
:1003B00070B5064C7C44064D7D4403E02068204423
:1003C0008047241DAC42F9D170BD000030290000E7
:1003D00034290000004870476C0300100048704743
:1003E000A003001070B5064600F054F8056806F149
:1003F0000B0020F00704B4429CBF002070BD2B46C8
:100400006A68BAB11068A04210D304F108018842AA
:100410003CBF5068586007D351681019416011689B
:10042000091B016058601460101D70BD13465268AE
:10043000002AE7D12146284600F034F80028DED112
:1004400070BD70B50446051F00F024F80068002C4C
:1004500014BF446870BD002C18BFAC423CBF20469E
:100460006468F8D301680A18AA4218BF456003D12E
:100470002A6805461144016028684119A1421CBF41
:100480006C6070BD6168696021680844286070BD57
:1004900000F052B80048704774030010704770476E
:1004A0007047704738B504460A4600206946AFF3E6
:1004B0000080002808BF38BD02460099204600F0A1
:1004C0009BF8012038BD012000F0BEB8F8B5AFF3AD
:1004D0000080054600200C46102000BF0646A819E3
:1004E000A0420DD9324669460020AFF300800700D4
:1004F00008BF00F0A9F80098A04218BF0546C4192B
:10050000FFF7C8FF05600746F01D20F007004619F9
:10051000284600F00AF8B44208BFF8BDA21B3146D5
:100520003868BDE8F84000F067B800210160C0E914
:10053000011070471020704710B500F00EF80169E7
:1005400019B100220261884701E08068804700F00D
:1005500073F8000010B500F06FF870B500F048F8BF
:1005600004680546A4B92020FFF73CFF040011D021
:10057000094900202C60C4E900010849A1602073EA
:10058000206160610649A06109B100F064F8E06192
:10059000204670BD00F050F800000000550500082E
:1005A000000000007546FFF715FFAE4605006946DE
:1005B000534620F00700854618B020B5FFF78EFEA1
:1005C000BDE820404FF000064FF000074FF0000854
:1005D0004FF0000B21F00701AC46ACE8C009ACE8D5
:1005E000C009ACE8C009ACE8C0098D4670470000FE
:1005F00000487047A8030010034640688C46002856
:1006000018BF88423CBF03464068F8D318681844B6
:10061000884207D00CF1030020F00700001D411AAA
:10062000521A0146081D0A60FFF70BBF0446AFF3DC
:1006300000802046FFF7F7FD002000F037F8FFF7B5
:10064000E7FD012000F026F810B500F037F8BDE80E
:10065000104000F026B810B58820FFF7C3FE002830
:1006600001D00021017010BD802902D808B10178A5
:1006700009B100207047012100F8081B704718B12C
:1006800000F10802914201D0002070470021017062
:100690007047000001491820ABBEFEE726000200AB
:1006A0007047002801D0FFF7F5BF704710B500F084
:1006B00047F8BDE81040FFF7F4BF000010B501286F
:1006C00005D0002103A000F021F8012010BD09A1F0
:1006D000F8E7000053494752544D454D3A204F75B5
:1006E00074206F662068656170206D656D6F72792A
:1006F000000000003A2048656170206D656D6F72E2
:100700007920636F727275707465640070B5054608
:100710000C460A2000E06D1C00F02AF835B128785C
:100720000028F8D102E0641C00F022F814B120780F
:100730000028F8D1BDE870400A2000F019B8000088
:1007400010B5002102A0FFF7E1FF012010BD00005D
:10075000534947414252543A2041626E6F726D6173
:100760006C207465726D696E6174696F6E00000053
:1007700008B569468DF800000320ABBE08BD00BF78
:10078000FEE77047704770B504461D460023B5F577
:10079000804F1BD154F8223003F04043D1E90006CA
:1007A00040EA06108E6840EA06208E8940EA064636
:1007B000088A401E46EA0056087D801E46EA006010
:1007C0008E693043034344F8223003E06FF07040F9
:1007D00044F82200002070BD10B5034600220868CE
:1007E00053F8202011480240D1E901042043CC688D
:1007F00020430C6920434C6920438C692043CC6919
:1008000020430C6A20434C6A20438C6A2043CC6A04
:1008100020430C6B204302438868082801D142F032
:100820004002086843F82020002010BD8000F7FF38
:1008300030B503460024501C53F8204004F04044D7
:10084000D1E9000540EA05108D6840EA05208D8950
:1008500040EA0545088A401E45EA0055087D801E8D
:1008600045EA00608D6928430443501C43F820404A
:10087000002030BD0146002209B901207047486AB6
:1008800000B100BF022081F83500086802681748EF
:100890000240D1E901031843CB6818430B691843A0
:1008A0004B6918438B691843CB6918430B6A18438B
:1008B0000243486A042803D1D1E90B0318430243D9
:1008C000086802600868426922F00702486A024329
:1008D000486A042801D1886A0243086842610020FE
:1008E000C864012081F835000020C7E73F8010F080
:1008F00031B5002400F014F9044600BF00F010F9EF
:10090000001B00998842F9D338BD0000F8B50246B3
:100910000B460025002400200021DEE0012606FA17
:1009200001F51E6806EA0504AC4270D15E68022E2D
:1009300002D05E68122E13D1CF0802F1200656F8BD
:1009400027004E07F70E0F26BE40B0434F07FF0E9D
:100950001E69BE403043CF0802F1200646F827004A
:1009600010684F000326BE40B0431E7906F0030610
:100970004F00BE40304310605E68012E08D05E68B4
:10098000022E05D05E68112E02D05E68122E13D1A1
:1009900090684F000326BE40B0434F00DE68BE4063
:1009A00030439060506801268E40B0431E79C6F3F4
:1009B00000168E4030435060D0684F000326BE4082
:1009C000B0434F009E68BE403043D0605E6806F082
:1009D0008056B6F1805F7FD100BF424E366846F444
:1009E0008046404F3E603E46366806F4804600969C
:1009F00000BF3D4E8F0856F827008E07370F0F2691
:100A0000BE40B043394EB24202D1002629E063E035
:100A1000374EB24201D1012623E0364EB24201D117
:100A200002261EE0344EB24201D1032619E0334EB5
:100A3000B24201D1042614E0314EB24201D1052662
:100A40000FE0304EB24201D106260AE02E4EB242ED
:100A500001D1072605E02D4EB24201D1082600E063
:100A600009268F073F0FBE4030431F4E8F0846F8C0
:100A70002700274E3068A0435E6806F48036B6F53E
:100A8000803F00D12043224E3060361D3068A043A5
:100A90005E6806F40036B6F5003F00D120431C4ED8
:100AA000361D3060361D3068A0435E6806F480163F
:100AB000B6F5801F00D12043154E08363060361D34
:100AC0003068A0435E6806F40016B6F5001F00D13A
:100AD00020430F4E0C363060491C1029FFF41EAF26
:100AE000F8BD0000443802400838014000000240D0
:100AF0000004024000080240000C024000100240C6
:100B00000014024000180240001C02400020024075
:100B1000003C014001480068000C7047002004E0E0
:100B20000148006870470000040000100248006897
:100B3000401C0149086070470400001010B50A48C5
:100B4000006840F40070084908600846006840F4F6
:100B500080600860032000F05BF80F2000F006F8CA
:100B600000F016F8002010BD003C024070B50446AD
:100B700000F0BAF94FF47A71B0FBF1F5284600F0B5
:100B800056FC00222146501E00F003F8002070BDE4
:100B900070472DE9F05F80460D461646002701F0AC
:100BA00097F9074639462A46334601F00700C0F157
:100BB000070ABAF1040F02D94FF0040A01E0C0F1AC
:100BC000070AD14600F1040ABAF1070F02D24FF02A
:100BD000000A01E0A0F1030AD4464FF0010A0AFA24
:100BE00009FAAAF1010A0AEA020A0AFA0CFA4FF013
:100BF000010B0BFA0CFBABF1010B0BEA030B4AEAFE
:100C00000B042146404601F04FF9BDE8F09F00007B
:100C100000BF00F00702064B19684FF6FF031940AA
:100C2000044B0B4343EA0221014B196000BF70479C
:100C30000CED00E00000FA0570B504460E460025F4
:100C4000A748006800F00F00B0426FD2A4490E70B0
:100C50000846006800F00F00B04201D0012070BDCE
:100C6000207800F00200022807D19E48006820F09A
:100C7000F000A16808439B490860207800F001005B
:100C800000283ED06068012807D1964808380068DF
:100C9000C0F34040B8B90120E1E76068022802D003
:100CA0006068032807D18F4808380068C0F34060A7
:100CB00048B90120D3E78B4808380068C0F34000EA
:100CC00008B90120CBE78748006820F0030061687D
:100CD000084384490860FFF723FF05466068012840
:100CE00010D108E0FFF71CFF401B41F28831884219
:100CF00001D90320B3E77B48006800F00C0004280A
:100D0000F0D1CDE06068022811D108E0FFF708FFBC
:100D1000401B41F28831884201D903209FE7714886
:100D2000006800F00C000828F0D1B9E024E0606809
:100D3000032810D108E0FFF7F3FE401B41F2883191
:100D4000884201D903208AE76648006800F00C0059
:100D50000328F0D1A4E008E0FFF7E2FE401B41F2D7
:100D60008831884201D9032079E75E48006800F0A5
:100D70000C000028F0D193E0207800F00200022857
:100D800007D15848006820F0F000A1680843554991
:100D90000860207800F00100002877D06068012802
:100DA00007D1504808380068C0F34040B8B9012066
:100DB00055E76068022802D06068032807D14948D7
:100DC00008380068C0F3406048B9012047E745484B
:100DD00008380068C0F3400008B901203FE74148E7
:100DE000006820F00300616808433E490860FFF78F
:100DF00097FE05466068012810D108E0FFF790FED5
:100E0000401B41F28831884201D9032027E7354849
:100E1000006800F00C000428F0D137E06068022878
:100E200010D108E0FFF77CFE401B41F28831884278
:100E300001D9032013E72B48006800F00C000828B4
:100E4000F0D123E06068032810D108E0FFF768FEC6
:100E5000401B41F28831884201D90320FFE6214836
:100E6000006800F00C000328F0D10FE008E0FFF765
:100E700057FE401B41F28831884201D90320EEE63B
:100E80001848006800F00C000028F0D114490E70DA
:100E90000846006800F00F00B04201D00120DEE6F5
:100EA000207800F00400042807D10E48006820F4E0
:100EB000E050E16808430B490860207800F0080022
:100EC000082808D10748006820F46040216940EAFA
:100ED000C100044908600F20FFF748FE0020BEE66D
:100EE000003C02400838024010B500F019F80949EA
:100EF000096801F0F001F02292FAA2F2B2FA82F24D
:100F0000D140054A515CC840044908600846006861
:100F100010BD0000083802406E2B000808000010C9
:100F200070B50021002200230020274C246804F023
:100F30000C0424B1042C04D0082C41D103E0234834
:100F400040E023483EE0204C241F246804F03F0189
:100F50001D4C241F246804F4800484B11C4CB4FB91
:100F6000F1F5194C241F246847F6C076344096FAF0
:100F7000A6F6B6FA86F6F44005FB04F20FE0134C31
:100F8000B4FBF1F5104C241F246847F6C0763440BA
:100F900096FAA6F6B6FA86F6F44005FB04F20A4C79
:100FA000241F246804F440344FF4403595FAA5F525
:100FB000B5FA85F5EC40641C6300B2FBF3F001E088
:100FC000024800BF00BF70BD083802400024F40092
:100FD00000127A0038B504460025207800F00100A0
:100FE000002866D0F748006800F00C0004280DD0F7
:100FF000F448006800F00C00082813D1F148001FE5
:10100000006800F48000B0F5800F0BD1ED4808387F
:101010000068C0F3404000284BD06068002848D1E9
:10102000012038BD0020E749891F0870FFF778FDCF
:10103000054608E0FFF774FD401B41F28831884205
:1010400001D90320EDE7DF4808380068C0F34040CD
:101050000028EFD12079DB49891F08706068A0B1B2
:10106000FFF75EFD054608E0FFF75AFD401B41F221
:101070008831884201D90320D3E7D2480838006874
:10108000C0F340400028EFD013E0FFF749FD0546CC
:1010900008E0FFF745FD401B41F28831884201D945
:1010A0000320BEE7C74808380068C0F34040002866
:1010B000EFD1207800F00200022869D1C148006811
:1010C00000F00C0058B1BF48006800F00C00082880
:1010D00021D1BC48001F006800F48000D8B9B9488D
:1010E00008380068C0F3400020B1E068012801D052
:1010F000012096E7B3480838006820F0F800F8228D
:1011000092FAA2F2B2FA82F2216991400843AD4903
:10111000083908603CE0E06828B30120AA4908606B
:10112000FFF7FEFC054606E0FFF7FAFC401B6428CB
:1011300001D9032075E7A34808380068C0F34000D0
:101140000028F1D09F480838006820F0F800F82205
:1011500092FAA2F2B2FA82F22169914008439949C7
:101160000839086014E0002097490860FFF7D8FCB0
:10117000054606E0FFF7D4FC401B642801D9032094
:101180004FE7904808380068C0F340000028F1D1CC
:10119000207800F0080008282CD16069A8B101204F
:1011A0008A490860FFF7BCFC054606E0FFF7B8FC7B
:1011B000401B642801D9032033E782486C30006863
:1011C000C0F340000028F1D014E000207F490860FF
:1011D000FFF7A6FC054606E0FFF7A2FC401B6428CB
:1011E00001D903201DE777486C300068C0F3400048
:1011F0000028F1D1207800F0040004286CD100BF51
:1012000070483830006840F080506E4938310860CE
:101210000846006800F08050009000BF6C480068ED
:1012200040F480706A490860FFF77AFC054606E0E2
:10123000FFF776FC401B642801D90320F1E66448DF
:10124000006800F480700028F2D000205D49683109
:101250000870FFF765FC054608E0FFF761FC401BDE
:1012600041F28831884201D90320DAE655486830D6
:101270000068C0F340000028EFD1207A514968315E
:101280000870A068A0B1FFF74BFC054608E0FFF727
:1012900047FC401B41F28831884201D90320C0E657
:1012A000484868300068C0F340000028EFD013E0E1
:1012B000FFF736FC054608E0FFF732FC401B41F221
:1012C0008831884201D90320ABE63E486830006887
:1012D000C0F340000028EFD1A069E8B339480068A6
:1012E00000F00C00082869D0A069022850D1002025
:1012F00035490866FFF714FC054606E0FFF710FCC9
:10130000401B642801D903208BE62E48083800686A
:10131000C0F340600028F1D1D4E90701084347F643
:10132000C07292FAA2F2B2FA82F2616A9140084364
:101330000122A16AC2EB51014FF4403292FAA2F2AB
:10134000B2FA82F2914008434FF0706292FAA2F230
:10135000B2FA82F2E16A00E032E0914008431949B2
:10136000091F0860012018490866FFF7D9FB0546E8
:1013700006E0FFF7D5FB401B642801D9032050E6A7
:10138000104808380068C0F340600028F1D017E02A
:1013900000200D490866FFF7C3FB054606E0FFF78E
:1013A000BFFB401B642801D903203AE605480838F2
:1013B0000068C0F340600028F1D101E0012030E670
:1013C00000202EE60838024000004742800E4742C7
:1013D0000070004070B504460E4615460CB9012059
:1013E00070BD94F83D0028B9002084F83C002046E8
:1013F00000F01CF804F108012068FFF7EDF9314610
:10140000A2682068FFF714FA2946236BD4E9010289
:10141000FFF7B9F9A168206850F8210040F00100F9
:10142000A268216841F822000020D9E7704770B512
:1014300004462546681EB0F1807F01D301200FE0ED
:10144000681E4FF0E02148610F214FF0FF3000F09F
:101450002BFD00204FF0E02188610720086100206B
:1014600070BD70477047704710B50446206800692A
:10147000C0F34000D8B12068C068C0F34000B0B1EC
:101480006FF00200216808610120207620688069E1
:1014900000F0030018B12046FFF7E5FF05E0204605
:1014A00000F0ADF8204600F0ABF800202076206870
:1014B0000069C0F38000D8B12068C068C0F3800024
:1014C000B0B16FF004002168086102202076206826
:1014D000806900F4407018B12046FFF7C4FF05E0B2
:1014E000204600F08CF8204600F08AF80020207694
:1014F00020680069C0F3C000D8B12068C068C0F39C
:10150000C000B0B16FF008002168086104202076A7
:101510002068C06900F0030018B12046FFF7A3FF60
:1015200005E0204600F06BF8204600F069F8002046
:10153000207620680069C0F30010D8B12068C06828
:10154000C0F30010B0B16FF01000216808610820EE
:1015500020762068C06900F4407018B12046FFF77B
:1015600082FF05E0204600F04AF8204600F048F8E7
:10157000002020762068006900F0010058B1206842
:10158000C06800F0010030B16FF00100216808610F
:10159000204600F036F820680069C0F3C01058B14A
:1015A0002068C068C0F3C01030B16FF080002168BF
:1015B00008612046FFF755FF20680069C0F38010DE
:1015C00058B12068C068C0F3801030B16FF040009F
:1015D00021680861204600F015F820680069C0F312
:1015E000401058B12068C068C0F3401030B16FF0AF
:1015F0002000216808612046FFF734FF10BD7047C6
:1016000070477047704700BFFEE700BFFEE77047B6
:1016100010B586B0044601A800F0FCFA002006B020
:1016200010BD70B504460D4600F04AF82946204624
:1016300000F0E8F970BD70471448006840F470008D
:10164000124908601248006840F001001049086023
:1016500000200F49083108600D4800680D49084016
:101660000B4908600C48091D0860081F006820F439
:101670008020091F0860002005490C3108604FF0E8
:1016800000600249803908607047000088ED00E082
:1016900000380240FFFFF6FE1030002410B502486B
:1016A000FFF7E2FE10BD0000F402001010B5024882
:1016B000FFF7DAFE10BD00003003001000BFFEE7A8
:1016C00010B5FFF733FA10BD08B500BF67480068D2
:1016D00040F00100654908600846006800F001001C
:1016E000009000BF00BF0846006840F0020008609C
:1016F0000846006800F00200009000BF00BF0846E6
:10170000006840F0040008600846006800F004002B
:10171000009000BF00BF0846006840F00800086065
:101720000846006800F00800009000BF00BF0846AF
:10173000006840F0100008600846006800F01000E3
:10174000009000BF00BF0846006840F0200008601D
:101750000846006800F02000009000BF00BF084667
:10176000006840F0400008600846006800F0400053
:10177000009000BF00BF0846006840F0800008608D
:101780000846006800F08000009000BF00BF3748A6
:101790001430006840F48070344914310860084601
:1017A000006800F48070009000BF00BF0846006829
:1017B00040F4007008600846006800F40070009073
:1017C00000BF00BF081F006840F00050091F0860FC
:1017D0000846006800F00050009000BF00BF23489A
:1017E0000830006840F001002049083108600846D0
:1017F000006800F00100009000BF00BF1B481030DF
:10180000006840F4804019491031086008460068BB
:1018100000F48040009000BF00BF1448006840F40E
:101820008000124908600846006800F480000090BB
:1018300000BF00BF0D481430006840F001000B49A4
:10184000143108600846006800F00100009000BFF5
:1018500000BF081F006840F00100091F086008462B
:10186000006800F00100009000BF08BD3038024061
:101870002DE9F04107460C4615461E4606484560D0
:10188000866003200449C860084604603846FFF7B4
:101890003DF80020BDE8F0817401001000BFFEE7B4
:1018A0002DE9F04107460C4615461E460120074922
:1018B0008860084645600220C860084604600661EA
:1018C0003846FFF723F80020BDE8F08174010010CE
:1018D00000220749074800F087FB00BF01210648A6
:1018E00000F0FEFA4FF47A70FFF702F8F6E7000016
:1018F000C51900088C0000103801001000B593B025
:1019000000BF2748006840F080502549086008461D
:10191000006800F08050019000BF00BF21480068BF
:1019200040F480401F4908600846006800F4804089
:10193000019000BF01200290039002200890410511
:10194000099110210A914FF4B4710B9102210C916D
:1019500007210D9102A8FFF73DFB08B1FFF79EFF9D
:101960000F200E9002200F90002010904FF4805016
:101970001190129005210EA8FFF75EF908B1FFF74C
:101980008DFFFFF7C7F841F20101884205D10648F3
:10199000006840F480700449086013B000BD000086
:1019A0004038024000700040003C024000BF00216F
:1019B000034800F095FA4FF4FA70FEF799FFF6E746
:1019C0003801001000BF0121034800F089FA4FF4EC
:1019D0002F70FEF78DFFF6E73801001010B50446B2
:1019E0002146024800F0C5F910BD0000500100106A
:1019F00010B504462146024800F082F910BD0000EF
:101A00005001001070B504460D462A462146024892
:101A100000F014FB70BD00008C00001010B54FF0FA
:101A2000007023494860002121488160C1604FF463
:101A3000806101610021416181614FF48071C16168
:101A40004902016200214162032181620021C162D9
:101A500001631848164908600846FEF70BFF08B1F5
:101A6000FFF71CFF00201449486080211248816064
:101A70000021C1604FF4806101614900416189002A
:101A800081610021C1614FF4003101620021416296
:101A9000032181620021C162016308480649086090
:101AA0000846FEF7E7FE08B1FFF7F8FE10BD00009C
:101AB000FC010010586402404C02001028600240F3
:101AC00010B501231A4604212D48FFF7D1FE022349
:101AD000002201212B48FFF7CBFE01231A460221E9
:101AE0002848FFF7C5FE01231A4604212548FFF7C1
:101AF000BFFE01231A4608212248FFF7B9FE012341
:101B00001A4610211F48FFF7B3FE022301220421C9
:101B10001D48FFF7ADFE0223012210211A48FFF7EE
:101B2000A7FE0223012208211748FFF7A1FE022386
:101B3000012220211448FFF79BFE01231A464FF68D
:101B4000FF711248FFF794FE0C2302224FF6B37187
:101B50000F48FFF7A5FE0C2302224FF683710848B9
:101B6000FFF79EFE0C2302224FF23F010948FFF7C8
:101B700097FE0C2302223F210748FFF791FE10BD7C
:101B80000010024000080240001C02400004024015
:101B9000000C0240001402400018024010B54FF043
:101BA0002040194908601948486004201849086015
:101BB00000204860052088600020C860042008617B
:101BC0000020486188611049886000210E48C1608A
:101BD00001611021416100218161C1614FF4806187
:101BE0000162002141624FF4805181620021C16293
:101BF000016341638163064A1146FFF7EBFB08B1BD
:101C0000FFF74CFE10BD00009C010010040100A075
:101C1000E001001030B585B005460C484068046806
:101C2000200E0090C4F303500190C4F303400290CF
:101C3000C4F30B10039004F00F00049014226946C3
:101C40002846FEF780FB05B030BD00001C000010E8
:101C500030B505460B46144600BF4FF480201E49A0
:101C6000086000BF00BF1BB100BF0220086005E094
:101C700000BF4FF400301849086000BF00BF28467D
:101C800000F02CF800BF04201349086000BF0720B3
:101C90001CE000BF4FF480210F4A116000BF00BF5D
:101CA00044FA00F101F0010119B100BF02211160F5
:101CB00005E000BF4FF40031074A116000BF00BFCC
:101CC00000BF0421044A116000BF401E0028E0DA72
:101CD000284600F00DF830BD1808024000BF4FF450
:101CE0000021024A116000BF70470000180802403E
:101CF00000BF0821014A116000BF70471808024068
:101D00002DE9F04105460E4616B90020BDE8F081E8
:101D100000BF6C6800BF21E0E068B0421DD32146DF
:101D2000284600F001FC06F12000E168814209D359
:101D300032462146284600F08FF8074639462846A5
:101D400000F0A7FB214605F10C0000F0A2FBA869FA
:101D5000401CA86104F11000D8E7A468002CDBD176
:101D6000FEF7CEFA06210160E869401CE861002018
:101D7000CCE770B504460D4645B9E069401CE0610A
:101D8000FEF7BEFA05210160084670BDFEF7B8FAFD
:101D900000210160A5F11006FEF7B2FA00680528DF
:101DA00003D1FEF7ADFA0068EFE7314604F10C000D
:101DB00000F0BAFB3146204600F06BFB214620467E
:101DC00000F004F8FEF79CFA0068DEE72DE9F04128
:101DD00007460E4600BF3068022803D24FF0FF309E
:101DE000BDE8F08100BFB068846800BFB56800BF7F
:101DF00012E0E86828441030A0420BD1E968E0689E
:101E000010300844E8602146304600F08DFB386A07
:101E1000401C386225466468002CEAD100BF706817
:101E2000846800BF7068054612E0E86828441030F6
:101E3000A0420BD1E968E06810300844E860214610
:101E4000304600F071FB386A401C38622546A468B1
:101E5000002CEAD10020C3E710B5034600208C18FF
:101E600004F11000CC68A41A103CC460CA6010BD14
:101E700010B50446204600F080FB044604F10C0037
:101E800000F07BFBA0F10C04204610BD2DE9F041D1
:101E900007460C4615462646F5603146384600F0A2
:101EA000F8FABDE8F081000010B5002807DA0A074B
:101EB000140E054A00F00F031B1FD45403E00A0759
:101EC000130E024A135410BD18ED00E000E400E0C8
:101ED00002480068C0F30220704700000CED00E0EB
:101EE00070B504460D462946204600F003FD70BD3E
:101EF0002DE9F74F82B00D4691461021029800F06F
:101F00005BFD80460095002D00DA6D42002700BF82
:101F100095FBF9F009FB10503030C2B238467F1CF7
:101F200008F8002095FBF9F0051EF1DC0098002868
:101F300004DA2D2238467F1C08F80020002008F81B
:101F40000700102000F03AF9444601902046FEF7C1
:101F5000DBF92044461E06E094F800A0307804F82F
:101F6000010B06F801A9B442F6D3B34659460198CD
:101F700000F028FB019005B0BDE8F08F70B5044675
:101F80000D462946204600F001F870BD2DE9F047C6
:101F900004460E46A068B16800EB010808F108018C
:101FA000204600F0F9FC8146002504E06068405DB1
:101FB00009F805006D1CA068A842F7DC002705E0C1
:101FC0007068C05D09F805006D1C7F1C4545F7DB96
:101FD000C4F808800820E060606800F0EBF8C4F8FE
:101FE00004902046BDE8F0872DE9F04105460E46F5
:101FF000904600BF28682946426828469047002836
:10200000F8D040F2947105F10800FFF779FE04461C
:1020100004F28C70002161602660A060E06000BF67
:1020200005F14C072146384600F023FD2868294673
:10203000C268284690472046BDE8F0812DE9F0416E
:1020400004460D46164620682146426820469047C1
:1020500010B92846BDE8F081012E0DD0A06C58B112
:10206000A06C056100BF04F16407D4F848804146C4
:10207000384600F0D8FC00BF04F14C0000F0F2FC40
:1020800048BB04F14C0000F0C1FCA064A06C816866
:10209000A1F58077012E09D120682146C26820462B
:1020A0009047A06C016839603846D3E74022294642
:1020B0003846FEF748F9A06C0168B9630121A06CAD
:1020C00000BF00BF416000BF20682146C2682046B3
:1020D00090473846BEE704F1640000F0C3FC28B91D
:1020E00004F1640000F092FCA06411E004F17C00B3
:1020F00000F0B8FC28B904F17C0000F087FCA06473
:1021000006E020682146C268204690472846A1E79D
:1021100020682146C26820469047A06C01690846A5
:1021200098E700002DE9F04104460D4616460027C9
:102130003246294604F10800FFF7A8FE002215499F
:102140002046FFF751FF002213492046FFF74CFFBE
:102150000021A06C00BF00BF416000BF0F480078A5
:1021600000F0010048B90D4800F04EF828B10C48C5
:1021700000F0D0FB0948AFF300800948E16B00F0A4
:10218000CAFB0748606400210846FEF753F807467B
:10219000BDE8F081D1180008AD19000868000010F2
:1021A0006C0000100149016070470000502C0008CD
:1021B0000170704710B5FEF744F910BD10B504006A
:1021C00007D1012405E0FEF709F9006800B90448C9
:1021D00080472046FEF706F90028F4D010BD000025
:1021E000910400082DE9F0411C4617460E00804678
:1021F00007D0054602E02846B0473D442046641E0D
:10220000F9D24046BDE8F081016809B1002070476D
:10221000012101600846704710B51B4C20461B4940
:10222000216000BF04461A48206004F10800FFF74F
:102230001FFEA0F1080404F12C0000F039FCA0F10D
:102240002C0404231822134904F14C00FFF7CAFFA1
:10225000A0F14C040020A06400BF0F49084600BF55
:10226000014601F10C0000BFA0F10C0101F11400C6
:102270000A4A0B4A40F8142900BF014600BF09482A
:10228000FFF7F6FD10BD00008C000010942B000835
:10229000082C0008B12A000838010010202C000882
:1022A000DC2B0008500100100848094A0260094A66
:1022B0000146426000BF0846074901601031416095
:1022C00000210161416100BF70470000140000203F
:1022D000402C0008C42B0008882C00088AB0FEF7A8
:1022E0002DFC4FF4FA70FEF703FBFFF707FBFFF737
:1022F000EBF9FFF753FCFFF791FBFFF7E1FB504AC7
:102300004FF0C0414F48FFF7C1FD4F484F4901AA68
:10231000002301604260836000BF00BFC06000BF57
:1023200000BF00BF4A4C04610146C86800F0AAF92A
:1023300000BF00BF01214448FFF7D2FD44F62062F0
:1023400044494548FFF7EEFE44A106A800F01AF9FB
:1023500044A102A800F016F902A906A8FFF716FE8C
:1023600002AC424D0A2229462046FFF7C1FD014634
:102370002046FFF703FE00BF06AC00BF1020FFF7AA
:102380001DFF3B4900F0FEF8054629462046FFF7B1
:10239000F5FD00BF0120FFF711FF6821FFF708FFDF
:1023A0000146344800F09AFB0120FFF707FF652142
:1023B000FFF7FEFE01462F4800F090FB0120FFF7DB
:1023C000FDFE6C21FFF7F4FE01462A4800F086FB73
:1023D0000120FFF7F3FE6C21FFF7EAFE01462548D6
:1023E00000F07CFB0120FFF7E9FE6F21FFF7E0FE24
:1023F0000146204800F072FB1E4800F097FB06469D
:102400001DE0304600F08EFA20B91A4800F08EFB2D
:10241000064602E0304600F080FA0B4808B10C3066
:1024200000E0002005464FF6FF7421464FF4A073EC
:102430004FF4F072286800F0E5F800BF00BFE0E755
:10244000FFFF070050010010380100100004024097
:10245000A82C00082C0000208C0000106E6565641C
:10246000000000006A6176610000000005E31200D0
:10247000B02C0008140000200022027170470246B0
:102480001079012801D1002070470120107100BF90
:10249000FAE770B504460D462946204600F002F8DA
:1024A00070BD00003FB503461868401C18605868AE
:1024B00038B959609960002088604860084604B0C7
:1024C00030BD5A68002421E06846154D00954D68DE
:1024D00001958D680295134D0095CD6803950125F2
:1024E0001DB914469068024610E0506838B1506833
:1024F00081608A605068486051600846DFE78A6002
:1025000000204860516059600846D8E7002ADBD1B6
:10251000A1600020886099604C600846CFE7000009
:10252000EC2B0008882B000870B504460D462946A0
:10253000204600F001F870BD10B502460C46106848
:1025400008B9204610BD1068401E10606168A3687D
:1025500029B923B90020506090602046F2E719B9EC
:1025600053600020586000E08B601BB90020886039
:10257000916000E059602046E4E7002141608160FD
:102580007047000070B504460E462046FFF70AFE6D
:1025900004460B4820603021204600F00DFA6060B0
:1025A000002503E0705D616848556D1C705D08B1E1
:1025B000302DF7DBA560C5F13000E060204670BD2E
:1025C000F82B000870B504460E462046FFF7EAFDDA
:1025D00004460B4820603021204600F0EDF9606091
:1025E000002503E0705D616848556D1C705D08B1A1
:1025F000302DF7DBA560C5F13000E060204670BDEE
:10260000F82B00082DE9F04704460D4616461F46F4
:10261000204600F027F900BF2946204600F030F997
:1026200000BFB04615E0B9460BE000BF01212046CF
:1026300000F03CF90021204600F038F900BFA9F174
:102640000109B9F1000FF0DC204600F0C8F8A8F14C
:102650000108B8F1000FE6DC204600F003F9002085
:10266000BDE8F087012904D100BF1022044B1A6095
:1026700005E000BF4FF48012014B1A6000BF7047A5
:102680001808024010B5044600BF01212046FFF79C
:10269000E9FF0121204600F09BF800212046FFF7CA
:1026A000E1FF0121204600F093F801212046FFF7C9
:1026B000D9FF9621204600F08BF800BF012120466B
:1026C00000F004F96421204600F082F8C021204681
:1026D00000F0FCF81521204600F002F912212046F6
:1026E00000F0FEF8C121204600F0F0F8412120461C
:1026F00000F0F6F8C521204600F0E8F80021204659
:1027000000F0EEF84A21204600F0EAF88021204649
:1027100000F0E6F83621204600F0D8F8482120469F
:1027200000F0DEF83A21204600F0D0F85021204693
:1027300000F0D6F8B021204600F0C8F8022120466B
:1027400000F0CEF8B421204600F0C0F80021204669
:1027500000F0C6F8B621204600F0B8F82021204647
:1027600000F0BEF80F21204600F0BAF8E92120461B
:1027700000F0ACF80021204600F0B2F8F721204626
:1027800000F0A4F8A921204600F0AAF85221204622
:1027900000F0A6F82C21204600F0A2F88221204665
:1027A00000F09EF86421204600F012F81121204626
:1027B00000F08CF89621204600F00AF829212046E6
:1027C00000F084F80F21204600F002F8002010BD30
:1027D00070B505460C462046FEF78AF870BD70B508
:1027E00004460021204600F051F80021204600F068
:1027F00019F82546032607E00121284600F056F87F
:102800000021284600F052F83000A6F10106F3D16D
:1028100000BF0121204600F005F80121204600F00C
:1028200035F870BD012904D100BF0822044B1A609D
:1028300005E000BF4FF40022014B1A6000BF704753
:10284000181C0240012904D100BF1022044B1A6059
:1028500005E000BF4FF48012014B1A6000BF7047C3
:10286000181C024010B5044600212046FFF7EAFF7D
:102870002046FFF7B4FF01212046FFF7E3FF10BD1C
:1028800000BF0268516100BF70470000012904D1F8
:1028900000BF2022044B1A6005E000BF4FF4001275
:1028A000014B1A6000BF7047181C0240012904D177
:1028B00000BF0422044B1A6005E000BF4FF48022E1
:1028C000014B1A6000BF7047181C024070B50446E7
:1028D0000D462A4600216068FFF7BAF9002070BD56
:1028E00070B504460D462A4601216068FFF7B0F92D
:1028F000002070BD21B100BF0422054B9A6105E0A4
:1029000000BF4FF48022024B9A6100BF7047000065
:1029100000100240704701607047014608688068F7
:102920000860704701460868806808B10120704758
:102930000020FCE770470160704710B5044620682E
:102940000C2102682046904710BD70B505460C4624
:102950002046FFF743F870BD70B505460C4620468B
:10296000FFF746F870BD70B504460D46206829464D
:10297000426820469047002070BD10B5044620688C
:102980000C2102682046904710BD70B505460C46E4
:102990002046FFF72DF870BD70B504460D46691C42
:1029A000206802682046904770BD70B505460C4609
:1029B0002046FFF71DF870BD70B505460C46214650
:1029C000286802682846904770BD10B502460C463C
:1029D000D06808B9204610BDD068401ED06061683C
:1029E000A36829B923B90020106150612046F2E79D
:1029F00019B913610020586000E08B601BB90020FA
:102A00008860516100E059602046E4E770B50446F3
:102A100020462169FFF7A7FF20462169FFF7D5FF70
:102A20000546286870BD70B504460D462046FFF780
:102A300084FF064600BF356000BF3046E268521C86
:102A4000E26022692AB920616061002282604260EE
:102A500006E061694160002282608860606100BFB9
:102A6000284670BD0146C86808B1002070470120A3
:102A7000FCE770B504460D462046FFF75EFF0646AC
:102A800000BF356000BF3046E268521CE260226938
:102A90002AB92061606100228260426006E02169FB
:102AA0008160002242604860206100BF284670BDFE
:102AB000074A0260074A0146426000BF08460649CD
:102AC00001601031416000210161416170470000E7
:102AD000302C0008AC2B0008602C000870B50446B0
:102AE0000D462946204600F001F870BD70B5044639
:102AF0000D462046FFF741FF064600BF356000BF88
:102B00003046E268521CE26022692AB920616061A5
:102B100000228260426006E02169816000224260FA
:102B20004860206100BF284670BD000010B5044613
:102B30000A48007800F0010048B90848FFF764FB34
:102B400028B10748FFF7F6FE0448AFF300800448B9
:102B50002169FFF7F0FE024810BD00007000001070
:102B6000740000104FF04070E1EE100A7047000052
:102B70000000010203040102030406070809000023
:102B80000000000000000000000000000000000045
:102B900000000000000000007F240008000000008A
:102BA0007924000800000000000000000000000080
:102BB0000000000000000000000000000000000015
:102BC0000000000000000000000000000000000005
:102BD00000000000000000000000000000000000F5
:102BE00000000000000000000000000000000000E5
:102BF0000000000000000000AB29000800000000F9
:102C00000000000000000000000000007F24000819
:102C1000000000007924000800000000000000000F
:102C200000000000000000000000000000000000A4
:102C3000592900084B29000800000000000000008E
:102C40008B290008000000000000000000000000C8
:102C5000AB29000800000000000000000000000098
:102C6000592900084B290008FCFFFFFF0000000065
:102C70000000000000000000000000000000000054
:102C800000000000000000008B2900080000000088
:102C9000FCFFFFFF0000000000000000000000003B
:102CA0000000000000000000696C6939343836000B
:102CB0006465766963650000F02C00080000001070
:102CC00078000000C4010008F02C0008000000207B
:102CD000AC380100E0010008682D00087800001001
:102CE00058090000E0010008C1F5FFFF2DF5FFFFC6
:102CF00000000000000000000024F40000000000BC
:102D000000000000010203040607080908E000E0D3
:102D100000ED00E004ED00E008ED00E00CED00E067
:102D200010ED00E014ED00E018ED00E01CED00E017
:102D300020ED00E024ED00E028ED00E028ED00E0CB
:102D400029ED00E02AED00E02CED00E034ED00E09C
:102D500038ED00E03CED00E0000000000000000065
:082D600000000000000000006B
:040000050800018965
:00000001FF
