:020000040800F2
:10000000C0E00020CD020008DF1B00089B020008B2
:10001000DB1B00089F0400084D1D000800000000C5
:10002000000000000000000000000000770200084F
:10003000A304000800000000770200084F02000837
:10004000E7020008E7020008E7020008E7020008EC
:10005000E7020008E7020008A5040008E70200081C
:10006000E7020008E7020008E7020008E7020008CC
:10007000E7020008E7020008E7020008E7020008BC
:10008000E7020008E7020008E7020008E7020008AC
:10009000E7020008E7020008E7020008E70200089C
:1000A000E7020008491C0008E7020008E702000810
:1000B000591C0008E7020008E7020008E7020008F0
:1000C000E7020008E7020008E7020008E70200086C
:1000D000E7020008E7020008E7020008E70200085C
:1000E000E7020008E7020008E7020008E70200084C
:1000F000E7020008E7020008E7020008E70200083C
:10010000E7020008E7020008E7020008E70200082B
:10011000E7020008E7020008E7020008E70200081B
:10012000E7020008E7020008E7020008E70200080B
:10013000E7020008E7020008E7020008E7020008FB
:10014000E7020008E7020008E7020008E7020008EB
:10015000E7020008E7020008E7020008E7020008DB
:10016000E7020008E7020008E7020008E7020008CB
:10017000E7020008E7020008E7020008E7020008BB
:10018000E7020008E702000800F002F800F03EF87D
:100190000AA090E8000C82448344AAF10107DA45E2
:1001A00001D100F033F8AFF2090EBAE80F0013F0F6
:1001B000010F18BFFB1A43F001031847DC6B010065
:1001C000FC6B0100103A24BF78C878C1FAD85207F6
:1001D00024BF30C830C144BF04680C6070470000C1
:1001E0000023002400250026103A28BF78C1FBD840
:1001F000520728BF30C148BF0B6070471FB508F0D9
:1002000010FA00F003F91FBD10B510BD00F014F98D
:100210001146FFF7F3FF04F075FB00F032F903B469
:10022000FFF7F2FF03BC00F033F9000002DF704774
:1002300072B6BFF34F8F00F03CF801F09AFDBFF3A8
:100240005F8F80F3098881F3148862B600BD72B6AF
:10025000BFF34F8FEFF3098020E9F00F00B501F0F5
:1002600098FDBFF35F8FB0E8F00F80F3098881F34A
:10027000148862B600BD72B6BFF34F8F00B5EFF3BE
:10028000098323E9F00F01F07AFDB0E8F00F80F365
:10029000098881F3148862B600BD72B6BFF34F8F30
:1002A00000B5EFF3098323E9F00F01F051FD00F0F1
:1002B0000DB80548016841F470010160BFF34F8F2C
:1002C000BFF36F8F7047000088ED00E0094880475A
:1002D00009480047FEE7FEE7FEE7FEE7FEE7FEE728
:1002E000FEE7FEE7FEE7FEE704480549054A064B40
:1002F00070470000E51B000889010008C0C200200B
:10030000C0E00020C0D10020C0D1002000487047CC
:1003100060C2002010B5431C02E010F8011B71B14F
:100320008107FAD14FF0013202C88C1A8C4314EACB
:10033000C211F9D0C01A0A0603D0C01E10BDC01ADF
:1003400010BD0A0401D0801E10BD0902FCD0401E61
:1003500010BD10B5203AC0F00B80B1E81850203A1B
:10036000A0E81850B1E81850A0E81850BFF4F5AF55
:100370005FEA027C24BFB1E81850A0E8185044BFDF
:1003800018C918C0BDE810405FEA827C24BF51F84C
:10039000043B40F8043B08BF7047D20728BF31F840
:1003A000023B48BF11F8012B28BF20F8023B48BF91
:1003B00000F8012B70474FF0000200B51346944639
:1003C0009646203922BFA0E80C50A0E80C50B1F1AD
:1003D0002001BFF4F7AF090728BFA0E80C5048BFC1
:1003E0000CC05DF804EB890028BF40F8042B08BF5F
:1003F000704748BF20F8022B11F0804F18BF00F85B
:10040000012B7047704770477047000070B5064C6D
:100410007C44064D7D4403E0206820448047241D31
:10042000AC42F9D170BD0000A4690100A8690100C7
:100430000048704760C200207546FFF7F9FFAE46DE
:1004400005006946534620F00700854618B020B5E0
:10045000FFF74AFFBDE820404FF000064FF00007CD
:100460004FF000084FF0000B21F00701AC46ACE85C
:10047000C009ACE8C009ACE8C009ACE8C0098D46C9
:1004800070470446AFF300802046FFF7C8FE000027
:1004900001491820ABBEFEE726000200704700BFEE
:1004A000FEE77047704770B504461D460023B5F55A
:1004B000804F1BD154F8223003F04043D1E90006AD
:1004C00040EA06108E6840EA06208E8940EA064619
:1004D000088A401E46EA0056087D801E46EA0060F3
:1004E0008E693043034344F8223003E06FF07040DC
:1004F00044F82200002070BD10B5034600220868B1
:1005000053F8202011480240D1E901042043CC686F
:1005100020430C6920434C6920438C692043CC69FB
:1005200020430C6A20434C6A20438C6A2043CC6AE7
:1005300020430C6B204302438868082801D142F015
:100540004002086843F82020002010BD8000F7FF1B
:1005500030B503460024501C53F8204004F04044BA
:10056000D1E9000540EA05108D6840EA05208D8933
:1005700040EA0545088A401E45EA0055087D801E70
:1005800045EA00608D6928430443501C43F820402D
:10059000002030BD0146002209B901207047486A99
:1005A00000B100BF022081F83500086802681748D2
:1005B0000240D1E901031843CB6818430B69184383
:1005C0004B6918438B691843CB6918430B6A18436E
:1005D0000243486A042803D1D1E90B0318430243BC
:1005E000086802600868426922F00702486A02430C
:1005F000486A042801D1886A0243086842610020E1
:10060000C864012081F835000020C7E73F8010F062
:1006100031B5002400F014F9044600BF00F010F9D1
:10062000001B00998842F9D338BD0000F8B5024696
:100630000B460025002400200021DEE0012606FAFA
:1006400001F51E6806EA0504AC4270D15E68022E10
:1006500002D05E68122E13D1CF0802F1200656F8A0
:1006600027004E07F70E0F26BE40B0434F07FF0E80
:100670001E69BE403043CF0802F1200646F827002D
:1006800010684F000326BE40B0431E7906F00306F3
:100690004F00BE40304310605E68012E08D05E6897
:1006A000022E05D05E68112E02D05E68122E13D184
:1006B00090684F000326BE40B0434F00DE68BE4046
:1006C00030439060506801268E40B0431E79C6F3D7
:1006D00000168E4030435060D0684F000326BE4065
:1006E000B0434F009E68BE403043D0605E6806F065
:1006F0008056B6F1805F7FD100BF424E366846F427
:100700008046404F3E603E46366806F4804600967E
:1007100000BF3D4E8F0856F827008E07370F0F2673
:10072000BE40B043394EB24202D1002629E063E018
:10073000374EB24201D1012623E0364EB24201D1FA
:1007400002261EE0344EB24201D1032619E0334E98
:10075000B24201D1042614E0314EB24201D1052645
:100760000FE0304EB24201D106260AE02E4EB242D0
:1007700001D1072605E02D4EB24201D1082600E046
:1007800009268F073F0FBE4030431F4E8F0846F8A3
:100790002700274E3068A0435E6806F48036B6F521
:1007A000803F00D12043224E3060361D3068A04388
:1007B0005E6806F40036B6F5003F00D120431C4EBB
:1007C000361D3060361D3068A0435E6806F4801622
:1007D000B6F5801F00D12043154E08363060361D17
:1007E0003068A0435E6806F40016B6F5001F00D11D
:1007F00020430F4E0C363060491C1029FFF41EAF09
:10080000F8BD0000443802400838014000000240B2
:100810000004024000080240000C024000100240A8
:100820000014024000180240001C02400020024058
:10083000003C014001480068000C7047002004E0C3
:100840000148006870470000180000200248006856
:10085000401C0149086070471800002010B50A4884
:10086000006840F40070084908600846006840F4D9
:1008700080600860032000F067F80F2000F006F8A1
:1008800000F016F8002010BD003C024070B5044690
:1008900000F0C6F94FF47A71B0FBF1F5284601F08B
:1008A0004AF800222146501E00F010F8002070BDCA
:1008B000704700BF00F01F020121914042099200E1
:1008C00002F1E022C2F8001100BF70472DE9F05F8D
:1008D00080460D461646002702F082FE074639463E
:1008E0002A46334601F00700C0F1070ABAF1040FA7
:1008F00002D94FF0040A01E0C0F1070AD14600F125
:10090000040ABAF1070F02D24FF0000A01E0A0F189
:10091000030AD4464FF0010A0AFA09FAAAF1010AB9
:100920000AEA020A0AFA0CFA4FF0010B0BFA0CFB66
:10093000ABF1010B0BEA030B4AEA0B0421464046DC
:1009400002F03AFEBDE8F09F00BF00F00702064B40
:1009500019684FF6FF031940044B0B4343EA022189
:10096000014B196000BF70470CED00E00000FA0574
:1009700070B504460E460025A748006800F00F0039
:10098000B0426FD2A4490E700846006800F00F0014
:10099000B04201D0012070BD207800F00200022892
:1009A00007D19E48006820F0F000A16808439B49E9
:1009B0000860207800F0010000283ED0606801281F
:1009C00007D1964808380068C0F34040B8B9012004
:1009D000E1E76068022802D06068032807D18F48E9
:1009E00008380068C0F3406048B90120D3E78B485D
:1009F00008380068C0F3400008B90120CBE78748F9
:100A0000006820F003006168084384490860FFF72C
:100A100017FF05466068012810D108E0FFF710FFB6
:100A2000401B41F28831884201D90320B3E77B485B
:100A3000006800F00C000428F0D1CDE060680228C6
:100A400011D108E0FFF7FCFE401B41F288318842DB
:100A500001D903209FE77148006800F00C000828C6
:100A6000F0D1B9E024E06068032810D108E0FFF776
:100A7000E7FE401B41F28831884201D903208AE712
:100A80006648006800F00C000328F0D1A4E008E0FC
:100A9000FFF7D6FE401B41F28831884201D903207E
:100AA00079E75E48006800F00C000028F0D193E080
:100AB000207800F00200022807D15848006820F092
:100AC000F000A168084355490860207800F0010053
:100AD000002877D06068012807D15048083800689E
:100AE000C0F34040B8B9012055E76068022802D041
:100AF0006068032807D1494808380068C0F340609F
:100B000048B9012047E7454808380068C0F340006D
:100B100008B901203FE74148006820F00300616800
:100B200008433E490860FFF78BFE054660680128D0
:100B300010D108E0FFF784FE401B41F28831884263
:100B400001D9032027E73548006800F00C0004288D
:100B5000F0D137E06068022810D108E0FFF770FE9E
:100B6000401B41F28831884201D9032013E72B480A
:100B7000006800F00C000828F0D123E0606803282A
:100B800010D108E0FFF75CFE401B41F2883188423B
:100B900001D90320FFE62148006800F00C0003287B
:100BA000F0D10FE008E0FFF74BFE401B41F2883127
:100BB000884201D90320EEE61848006800F00C00D6
:100BC0000028F0D114490E700846006800F00F00AC
:100BD000B04201D00120DEE6207800F004000428B5
:100BE00007D10E48006820F4E050E16808430B4943
:100BF0000860207800F00800082808D1074800683D
:100C000020F46040216940EAC100044908600F20D7
:100C1000FFF73CFE0020BEE6003C024008380240E0
:100C200010B500F019F80949096801F0F001F02247
:100C300092FAA2F2B2FA82F2D140054A515CC8405F
:100C4000044908600846006810BD000008380240EA
:100C5000B86401082000002070B5002100220023A4
:100C60000020274C246804F00C0424B1042C04D088
:100C7000082C41D103E0234840E023483EE0204CCB
:100C8000241F246804F03F011D4C241F246804F431
:100C9000800484B11C4CB4FBF1F5194C241F24686A
:100CA00047F6C076344096FAA6F6B6FA86F6F440D1
:100CB00005FB04F20FE0134CB4FBF1F5104C241FBC
:100CC000246847F6C076344096FAA6F6B6FA86F659
:100CD000F44005FB04F20A4C241F246804F4403459
:100CE0004FF4403595FAA5F5B5FA85F5EC40641C4E
:100CF0006300B2FBF3F001E0024800BF00BF70BD2B
:100D0000083802400024F40000127A0038B5044686
:100D10000025207800F00100002866D0F748006820
:100D200000F00C0004280DD0F448006800F00C001E
:100D3000082813D1F148001F006800F48000B0F5C6
:100D4000800F0BD1ED4808380068C0F34040002800
:100D50004BD06068002848D1012038BD0020E74909
:100D6000891F0870FFF76CFD054608E0FFF768FD76
:100D7000401B41F28831884201D90320EDE7DF486A
:100D800008380068C0F340400028EFD12079DB49E3
:100D9000891F08706068A0B1FFF752FD054608E0A2
:100DA000FFF74EFD401B41F28831884201D90320F4
:100DB000D3E7D24808380068C0F340400028EFD09D
:100DC00013E0FFF73DFD054608E0FFF739FD401B46
:100DD00041F28831884201D90320BEE7C74808386C
:100DE0000068C0F340400028EFD1207800F00200F6
:100DF000022869D1C148006800F00C0058B1BF4812
:100E0000006800F00C00082821D1BC48001F0068D1
:100E100000F48000D8B9B94808380068C0F3400031
:100E200020B1E068012801D0012096E7B3480838D6
:100E3000006820F0F800F82292FAA2F2B2FA82F2E8
:100E4000216991400843AD49083908603CE0E068F9
:100E500028B30120AA490860FFF7F2FC054606E026
:100E6000FFF7EEFC401B642801D9032075E7A34877
:100E700008380068C0F340000028F1D09F480838C7
:100E8000006820F0F800F82292FAA2F2B2FA82F298
:100E900021699140084399490839086014E000200D
:100EA00097490860FFF7CCFC054606E0FFF7C8FC51
:100EB000401B642801D903204FE790480838006898
:100EC000C0F340000028F1D1207800F00800082885
:100ED0002CD16069A8B101208A490860FFF7B0FCF5
:100EE000054606E0FFF7ACFC401B642801D903204F
:100EF00033E782486C300068C0F340000028F1D02E
:100F000014E000207F490860FFF79AFC054606E0E0
:100F1000FFF796FC401B642801D903201DE77748A2
:100F20006C300068C0F340000028F1D1207800F058
:100F3000040004286CD100BF70483830006840F0CD
:100F400080506E49383108600846006800F08050D3
:100F5000009000BF6C48006840F480706A490860E7
:100F6000FFF76EFC054606E0FFF76AFC401B6428AD
:100F700001D90320F1E66448006800F4807000287D
:100F8000F2D000205D4968310870FFF759FC054632
:100F900008E0FFF755FC401B41F28831884201D937
:100FA0000320DAE6554868300068C0F340000028A6
:100FB000EFD1207A514968310870A068A0B1FFF7DD
:100FC0003FFC054608E0FFF73BFC401B41F288313F
:100FD000884201D90320C0E6484868300068C0F361
:100FE00040000028EFD013E0FFF72AFC054608E098
:100FF000FFF726FC401B41F28831884201D90320CB
:10100000ABE63E4868300068C0F340000028EFD1EE
:10101000A069E8B33948006800F00C00082869D0DE
:10102000A069022850D1002035490866FFF708FC66
:10103000054606E0FFF704FC401B642801D90320A5
:101040008BE62E4808380068C0F340600028F1D1D4
:10105000D4E90701084347F6C07292FAA2F2B2FA45
:1010600082F2616A914008430122A16AC2EB5101F8
:101070004FF4403292FAA2F2B2FA82F2914008435F
:101080004FF0706292FAA2F2B2FA82F2E16A00E0E4
:1010900032E0914008431949091F086001201849AE
:1010A0000866FFF7CDFB054606E0FFF7C9FB401BCE
:1010B000642801D9032050E6104808380068C0F3BE
:1010C00040600028F1D017E000200D490866FFF7C6
:1010D000B7FB054606E0FFF7B3FB401B642801D9C8
:1010E00003203AE6054808380068C0F3406000284D
:1010F000F1D101E0012030E600202EE60838024060
:1011000000004742800E47420070004010B5044680
:101110000CB9012010BD94F8510028B9002084F8C2
:101120005000204600F036F8022084F85100206874
:10113000006820F0400021680860D4E901010843FC
:10114000E16808432169084361690843218B01F480
:1011500000710843E1690843216A0843A16A084312
:10116000216808600421A06901EA1040616A08430F
:10117000216848602168E06A08612068C06920F43D
:1011800000602168C86100206065012084F851007A
:101190000020BFE770472DE9FC4104460E46154686
:1011A0001F464FF0000894F8510001287AD106B18B
:1011B00015B90120BDE8FC8100BF94F8500001285A
:1011C00001D10220F6E7012084F8500000BF222060
:1011D00084F8510000206065A663A587E587A064B8
:1011E000E064A086E086A068B0F5004F05D12068D5
:1011F000006820F4804021680860A06AB0F5005FB4
:101200000DD100BF2068006820F4005021680860FC
:101210002068006840F400502168086000BF6068E2
:10122000B0F5827F0ED1A06860B900BF002084F8BD
:10123000500000BF2B46324631462046009700F052
:10124000A5F9B7E72068006800F04000402805D005
:101250002068006840F0400021680860E06810BB2A
:1012600012E03B4600220121204602F01AF908B1A3
:1012700003209FE72068C068C1B2A26B501CA06326
:101280001170E08F401EE087E08F0128E9DCA06A42
:10129000B0F5005F28D12068006840F480502168D4
:1012A000086021E092E012E03B4600220121204646
:1012B00002F0F7F808B103207CE72068C068A16B52
:1012C0000880A06B801CA063E08F401EE087E08F49
:1012D0000128E9DCA06AB0F5005F05D1206800684C
:1012E00040F48050216808603B46002201212046DE
:1012F00002F0D7F808B103205CE7E06838B920684D
:10130000C068C1B2A26B501CA063117006E02068D7
:10131000C068A16B0880A06B801CA063E08F401E9A
:10132000E087A06AB0F5005F11D13B4600220121A1
:10133000204602F0B6F828B1606D40F0020060650A
:10134000032037E72068C06880B2019000BF606862
:10135000B0F5827F0DD1A068B0F5004F03D0A06832
:10136000B0F5806F05D12068006820F0400021684A
:101370000860012084F8510020688068C0F30018DC
:10138000A06AB0F5005F1BD1B8F1000F18D0606DF6
:1013900040F00200606500BF2068006820F4005043
:1013A000216808602068006840F4005021680860E7
:1013B00000BF00BF002084F8500000BF0120F9E604
:1013C00000BF002084F8500000BFF3E60220F1E6E1
:1013D000F8B504460E4615461F4694F851000128FC
:1013E00073D106B10DB90120F8BD00BF94F85000CB
:1013F000012801D10220F7E7012084F8500000BF46
:10140000122084F85100002060652663A586E586D9
:10141000E064A064A087E087A06AB0F5005F0DD10A
:1014200000BF2068006820F4005021680860206830
:10143000006840F400502168086000BFA068B0F563
:10144000004F05D12068006840F4804021680860A2
:101450002068006800F04000402805D0206800683F
:1014600040F0400021680860E06878BB606810B117
:10147000E08E012808D1216B481C20630878216880
:10148000C860E08E401EE08611E03B46002202214B
:10149000204602F006F808B10320A5E7216B481C9E
:1014A000206308782168C860E08E401EE086E08EE8
:1014B0000028EADCA06AB0F5005F38D12068006837
:1014C00040F480502168086031E05DE0FFE760682B
:1014D00010B1E08E012809D1206B00882168C86016
:1014E000206B801C2063E08E401EE08612E03B46AD
:1014F00000220221204601F0D4FF08B1032073E747
:10150000206B00882168C860206B801C2063E08EFF
:10151000401EE086E08E0028E9DCA06AB0F5005F9E
:1015200005D12068006840F48050216808603B467F
:1015300000220221204601F0B4FF28B1606D40F086
:101540001000606503204FE73B46012280212046C2
:1015500001F0A7FF28B1606D40F010006065032026
:1015600042E7A06838B900BF2068C06800902068D2
:101570008068009000BF012084F8510000BF002067
:1015800084F8500000BF2FE702202DE72DE9F84F27
:1015900004460E4617461D46DDF828904FF0000819
:1015A000C24694F85180B8F1010F02D0B8F1220F71
:1015B00076D10EB107B115B90120BDE8F88F00BF93
:1015C00094F85000012801D10220F6E7012084F8A8
:1015D000500000BF94F85100012802D1322084F855
:1015E000510000206065A763A587E5872663A5866F
:1015F000E586A064E064A06AB0F5005F0DD100BF8D
:101600002068006820F400502168086020680068A5
:1016100040F400502168086000BF2068006800F0B6
:101620004000402805D02068006840F04000216854
:101630000860E068B0F5006F75D1606830B160682F
:10164000B0F5827F0CD1E08E012809D1206B008893
:101650002168C860206B801C2063E08E401EE086FD
:10166000E08EF0B9A06AB0F5005F05D1206800688F
:1016700040F48050216808604B460022012120463A
:1016800001F00FFF08B1032097E72068C068A16B45
:101690000880A06B801CA063E08F401EE087C7E03D
:1016A0001AE131E04B4600220221204601F0F9FE0A
:1016B00008B1032081E7206B00882168C860206B97
:1016C000801C2063E08E401EE086E08E48B9A06A50
:1016D000B0F5005F05D12068006840F480502168B3
:1016E00008604B4600220121204601F0DAFE08B1D5
:1016F000032062E72068C068A16B0880A06B801C93
:10170000A063E08F401EE087E08E0028CADC60689E
:101710000028C4D14B4600220121204601F0C1FE21
:1017200010B1032049E70AE02068C068A16B088077
:10173000A06B801CA063E08F401EE08778E06068AB
:1017400030B16068B0F5827F0BD1E08E012808D1FE
:10175000216B481C206308782168C860E08E401E19
:10176000E086E08ED0B9A06AB0F5005F05D12068B0
:10177000006840F48050216808604B460022012137
:10178000204601F08EFE08B1032016E72068C068ED
:10179000A16B0870E08F401EE08749E030E04B46C7
:1017A00000220221204601F07CFE08B1032004E75C
:1017B000216B481C206308782168C860E08E401EB9
:1017C000E086E08E48B9A06AB0F5005F05D12068D8
:1017D000006840F48050216808604B4600220121D7
:1017E000204601F05EFE08B10320E6E62068C068EE
:1017F000C1B2A26B501CA0631170E08F401EE08745
:10180000E08E0028CBDC606890B94B4600220121B5
:10181000204601F046FE08B10320CEE62068C068ED
:10182000C1B2A26B501CA0631170E08F401EE08714
:10183000A06AB0F5005F11D14B460022012120467D
:1018400001F02FFE28B1606D40F0020060650320BA
:10185000B3E62068C06880B2009000BF4B4601220A
:101860008021204601F01DFE28B1606D40F010007F
:1018700060650320A1E6012084F85100206880689B
:10188000C0F3001AA06AB0F5005F1FD1BAF1000FD3
:101890001CD0606D40F002006065A06AB0F5005F8A
:1018A0000DD100BF2068006820F400502168086056
:1018B0002068006840F400502168086000BF00BF45
:1018C000002084F8500000BF012076E600BF002011
:1018D00084F8500000BF70E602206EE670B5044642
:1018E0000E4615460CB9012070BD94F83D0028B98C
:1018F000002084F83C00204600F01CF804F10801A8
:101900002068FEF7F9FD3146A2682068FEF720FE48
:101910002946236BD4E90102FEF7C5FDA1682068C2
:1019200050F8210040F00100A268216841F822002F
:101930000020D9E7704770B504462546681EB0F10F
:10194000807F01D301200FE0681E4FF0E021486145
:101950000F214FF0FF3001F02FFE00204FF0E0216B
:10196000886107200861002070BD7047704710B57E
:1019700004460CB9012010BD94F8390028B90020A4
:1019800084F83800204600F00CF8022084F8390072
:10199000211D206800F068F9012084F8390000203A
:1019A000E9E7704701460868C06840F001000A682E
:1019B000D0600868006840F001000A6810600020EC
:1019C0007047704710B5044620680069C0F34000B6
:1019D000D8B12068C068C0F34000B0B16FF0020019
:1019E00021680861012020762068806900F00300EA
:1019F00018B12046FFF7E5FF05E0204600F0ADF8FE
:101A0000204600F0ABF80020207620680069C0F383
:101A10008000D8B12068C068C0F38000B0B16FF01A
:101A2000040021680861022020762068806900F4A3
:101A3000407018B12046FFF7C4FF05E0204600F0D3
:101A40008CF8204600F08AF8002020762068006993
:101A5000C0F3C000D8B12068C068C0F3C000B0B106
:101A60006FF0080021680861042020762068C069B2
:101A700000F0030018B12046FFF7A3FF05E0204661
:101A800000F06BF8204600F069F80020207620680E
:101A90000069C0F30010D8B12068C068C0F300101E
:101AA000B0B16FF01000216808610820207620682E
:101AB000C06900F4407018B12046FFF782FF05E0CE
:101AC000204600F04AF8204600F048F80020207632
:101AD0002068006900F0010058B12068C06800F07B
:101AE000010030B16FF0010021680861204600F06C
:101AF00037F820680069C0F3C01058B12068C0688A
:101B0000C0F3C01030B16FF080002168086120463A
:101B1000FFF72BFF20680069C0F3801058B12068E0
:101B2000C068C0F3801030B16FF0400021680861D8
:101B3000204600F051F820680069C0F3401058B109
:101B40002068C068C0F3401030B16FF020002168F9
:101B500008612046FFF70AFF10BD7047704700007C
:101B60002DE9F04106463068B0F1804F11D016499A
:101B7000084428BB154801F0FAF948B11449134844
:101B8000C03804F08CFC04462146124802F036FAB4
:101B900016E0104CE069012801D100200AE0012084
:101BA000E06100BFE56800BF214605F10C0004F0CC
:101BB00044FE284607463946064802F01FFA00BF91
:101BC00000BFBDE8F08100000000FFBF04BE0020A0
:101BD00000F001F08CBC0020704700BFFEE77047AA
:101BE000704700001448006840F470001249086013
:101BF0001248006840F001001049086000200F49B9
:101C0000083108600D4800680D4908400B4908601C
:101C10000C48091D0860081F006820F48020091F77
:101C20000860002005490C3108604FF0006002494F
:101C3000803908607047000088ED00E000380240FD
:101C4000FFFFF6FE1030002410B50248FFF7BAFE81
:101C500010BD0000E8C1002010B50248FFF7B2FE39
:101C600010BD000024C20020002202682C4B9842C4
:101C70000ED0B0F1804F0BD02A4B984208D02A4B9F
:101C8000984205D0294B984202D0294B984201D165
:101C9000012300E000231BB122F070024B681A43BD
:101CA0001F4B984220D0B0F1804F1DD01D4B984261
:101CB0001AD01D4B984217D01C4B984214D01C4B85
:101CC000984211D01B4B98420ED01B4B98420BD020
:101CD0001A4B984208D01A4B984205D0194B98429B
:101CE00002D0194B984201D1012300E000231BB11F
:101CF00022F44072CB681A4302608B68C3620B689F
:101D00008362074B984202D0094B984201D10123CC
:101D100000E000230BB10B690363012343617047AB
:101D2000000001400004004000080040000C00409A
:101D300000040140004001400044014000480140CF
:101D400000180040001C00400020004000BFFEE7DB
:101D50000FB583B003A80FC800F08CFECDE90101D8
:101D600007B000BD1FB5DDE9010100F09DFD04B025
:101D700010BD1CB500F0FEFFCDE900011CBD0FB584
:101D800083B003A80FC800F06DFDCDE9010107B0D5
:101D900000BD1CB5044600F006F8204600F090FD9A
:101DA000CDE900011CBD10B5FEF750FD10BD0000CF
:101DB00008B500BF6748006840F001006549086049
:101DC0000846006800F00100009000BF00BF084610
:101DD000006840F0020008600846006800F0020059
:101DE000009000BF00BF0846006840F00400086093
:101DF0000846006800F00400009000BF00BF0846DD
:101E0000006840F0080008600846006800F008001C
:101E1000009000BF00BF0846006840F01000086056
:101E20000846006800F01000009000BF00BF0846A0
:101E3000006840F0200008600846006800F02000BC
:101E4000009000BF00BF0846006840F040000860F6
:101E50000846006800F04000009000BF00BF084640
:101E6000006840F0800008600846006800F08000CC
:101E7000009000BF00BF37481430006840F4807005
:101E80003449143108600846006800F480700090FE
:101E900000BF00BF0846006840F4007008600846B4
:101EA000006800F40070009000BF00BF081F0068C9
:101EB00040F00050091F08600846006800F000501C
:101EC000009000BF00BF23480830006840F00100C8
:101ED0002049083108600846006800F001000090C1
:101EE00000BF00BF1B481030006840F40040194993
:101EF000103108600846006800F40040009000BF00
:101F000000BF1448006840F4800012490860084689
:101F1000006800F48000009000BF00BF0D4814303E
:101F2000006840F001000B49143108600846006861
:101F300000F00100009000BF00BF081F006840F0E3
:101F40000100091F08600846006800F001000090C9
:101F500000BF08BD3038024001460448006800F563
:101F60000040024A1060002070470000000000207E
:101F700000BF01F06DFAFCE706461248007800F059
:101F8000010040B90F4802F07FFC20B10E48066006
:101F90000C48AFF3008000BF0B480468002504E044
:101FA0002946204604F0FDFB6D1C6069A842F7D865
:101FB00000BF054908680021C16100BF01F048FA6F
:101FC000EAE7000034000020380000202DE9F0414D
:101FD00007460C4615461E460648456086600320A7
:101FE0000449C860084604603846FEF71FFB00201D
:101FF000BDE8F08168C0002000BFFEE70FB470B5F7
:102000000A9C204605F038FB00782A2806D10C49A6
:10201000D1F8B8010BA105F0C4F809E0204605F09D
:102020002BFB05460649D1F8B801294605F0C6F84C
:1020300004F1340003F00FF970BC5DF814FB0000EC
:1020400060BE0020200000002DE9F04107460C464C
:1020500015461E4601200749886008464560022053
:10206000C8600846046006613846FEF7DFFA0020C3
:10207000BDE8F08168C000200FB410B50949D1F85F
:10208000D81101F10C00DDE9021206F03CFA054915
:10209000D1F8D8011821016200BF002010BC5DF802
:1020A00014FB000060BE00208CB0FEF7D7FB00F0F0
:1020B000B9F8FFF77DFE00F0FDFE00F00DFC00F02A
:1020C0005DFC00F083FC00F06DFE2F4A4FF0C04134
:1020D0002E4801F08DF92E482E4A2F490023026127
:1020E0004161836100BF00F11003836000BF00BF46
:1020F00001F092FA0121264801F07AFA274801F00E
:1021000098F927A1284801F0B5F928A12A4801F03B
:10211000B1F90221294801F0B5F94FF4A0704FF44C
:10212000F07300221146009004A806F054FA244CE3
:1021300004A908A806F046FA05462A46214668463C
:1021400006F056FA0020606120619FED1E0A84EDC2
:10215000070A84ED060A20626062E062A06200BFA6
:102160000146002223465A611A619FED170A1A465A
:1021700082ED070A82ED060A1060516000BF00BFC1
:102180000520FEF745FAFBE7FFFF070044C00020EB
:1021900060BE002000040240140000205D280008FA
:1021A00075736572000000000D24000852656E64AE
:1021B0006572657200000000D522000885280008BD
:1021C00030BC00209A99993E9A99193F07463C469F
:1021D00000BF206A814600BF01F01EF900BFD9F898
:1021E0003C00461E6069B04201D9002E00DA10E0C2
:1021F00006EB4602216901EB8200856800BF05E01D
:10220000D4F820804046E96888476D68002DF7D1F2
:1022100000BF01F0FCF800BF0020E06100BF01F04A
:1022200017F9D9E700B593B000BF2748006840F020
:102230008050254908600846006800F080500190F1
:1022400000BF00BF2148006840F480401F4908607B
:102250000846006800F48040019000BF0120029011
:102260000390022008904105099110210A914FF432
:10227000B4710B9102210C9107210D9102A8FEF778
:1022800045FD08B1FFF7B8FE0F200E9002200F9019
:10229000002010904FF4A0501190129005210EA82C
:1022A000FEF766FB08B1FFF7A7FEFEF7C3FA41F29F
:1022B0000101884205D10648006840F48070044955
:1022C000086013B000BD00004038024000700040BC
:1022D000003C02401CB501A800BF4249D1F8DC1106
:1022E00001F1380000BF00BF002000903D49D1F847
:1022F000B8013D4902F0F0FB3A49D1F8B8013B4939
:1023000002F0F4FB3749D1F8DC11081D384902F01E
:10231000E3FB3449D1F8BC1101F10C00354902F05E
:10232000E5FB3049D1F8C01101F10C00324902F04F
:10233000DDFB2C49D1F8C41101F10C002F4902F04A
:10234000D5FB2849D1F8C81101F10C002C4902F045
:10235000CDFB002408E02349D1F8D01151F8240026
:10236000284902F0B9FB641C1E48D0F8D401A042F1
:10237000F1DC1C49D1F8B8111A4AD2F8B821126818
:1023800052F8102C88184FF6FF7104F0A3FA154983
:10239000D1F8DC1101F1380040F2154104F09AFA4D
:1023A00000BF194801F076F80E48D0F8DC11402241
:1023B000535A486D00BFD0E9022502FB05F42246BE
:1023C00003E0056925F81230521E002AF9DC00BF2F
:1023D00000BF0021034801F0B7FB002001F03DF8E9
:1023E000DFE7000060BE00202924000889240008DF
:1023F00079200008BD2500082D2600089D2600082C
:102400000D270008FD1F0008591F000808B5684681
:1024100000BF0121034801F0EBF800BF0A2001F0E2
:102420001CF8FBE760BE002010B51549D1F8B811C3
:1024300001F1340002F00FFF1248006880F0010043
:10244000104908600A4612680AB1012200E0002221
:1024500011460B4AD2F8E02102F1380004F03CFAB0
:10246000084A12680AB1012200E000221146044A1B
:10247000D2F8E02102F1380004F02AFA002010BD61
:1024800060BE0020080000200FB470B5144800782A
:1024900000F0010048B9124802F0F6F928B11149DC
:1024A0000A9808600E48AFF300800E480468049D47
:1024B00004F14C0004F0DFFB294604F14C0004F069
:1024C00001FC00BF08A10748006804F077FE05483A
:1024D0000599006804F07BFE002070BC5DF814FBD9
:1024E0000C00002010000020202020200000000010
:1024F00030B591B00446254629460BA800F0B3FD3F
:102500001C2104A8FDF757FFDDE90B01CDE904010B
:10251000DDE90D01CDE9060107A80FC88DE80F0020
:10252000034804A90EC9006801F05AFF11B030BD7C
:102530001C00002030B591B00446254629460BA862
:1025400000F091FD1C2104A8FDF735FFDDE90B012A
:10255000CDE90401DDE90D01CDE9060107A80FC8A9
:102560008DE80F00034804A90EC9006801F072FF4E
:1025700011B030BD1C00002030B591B00446254696
:1025800029460BA800F06FFD1C2104A8FDF713FFDE
:10259000DDE90B01CDE90401DDE90D01CDE906011D
:1025A00007A80FC88DE80F00034804A90EC90068EA
:1025B00001F084FF11B030BD1C0000200FB410B535
:1025C000144A0299D2F8BC0104F0F0FF1149D1F885
:1025D000BC1101F1400002F03EFE0E49D1F8B801F5
:1025E0000DA104F0DEFD0B49D1F8B8010DA104F0F6
:1025F000E5FD0849D1F8BC0104F0D5FF04460549C2
:10260000D1F8B801214604F0E2FD002010BC5DF8CD
:1026100014FB000060BE0020534C494445525F311A
:10262000203A200020202020000000000FB410B528
:10263000144A0299D2F8C00104F0B8FF1149D1F848
:10264000C01101F1400002F006FE0E49D1F8B801B8
:102650000DA104F0A6FD0B49D1F8B8010DA104F0BD
:10266000ADFD0849D1F8C00104F09DFF04460549BD
:10267000D1F8B801214604F0AAFD002010BC5DF895
:1026800014FB000060BE0020534C494445525F32A9
:10269000203A200020202020000000000FB410B5B8
:1026A000144A0299D2F8C40104F080FF1149D1F80C
:1026B000C41101F1400002F0CEFD0E49D1F8B8017D
:1026C0000DA104F06EFD0B49D1F8B8010DA104F085
:1026D00075FD0849D1F8C40104F065FF04460549B9
:1026E000D1F8B801214604F072FD002010BC5DF85D
:1026F00014FB000060BE0020534C494445525F3338
:10270000203A200020202020000000000FB410B547
:10271000144A0299D2F8C80104F048FF1149D1F8CF
:10272000C81101F1400002F096FD0E49D1F8B80140
:102730000DA104F036FD0B49D1F8B8010DA104F04C
:102740003DFD0849D1F8C80104F02DFF04460549B4
:10275000D1F8B801214604F03AFD002010BC5DF824
:1027600014FB000060BE0020534C494445525F34C6
:10277000203A2000202020200000000030B591B039
:102780000446254629460BA800F06DFC1C2104A830
:10279000FDF711FEDDE90B01CDE90401DDE90D01D5
:1027A000CDE9060107A80FC88DE80F00034804A96A
:1027B0000EC9006801F0D9FE11B030BD1C00002028
:1027C0000FB410B5089C2046029902F088FA204602
:1027D000029902F081FA002010BC5DF814FB0FB4DE
:1027E00010B5089C2046029902F076FA00BF01203D
:1027F00084F83C000A20608700BF002010BC5DF810
:1028000014FB0FB410B5089C0021204602F067FAB3
:102810000021204602F060FA002010BC5DF814FB95
:1028200010B504462146024800F055FD10BD0000D9
:1028300044C0002070B504462146074800F010FD52
:10284000054635B101E0112028552000A4F101040E
:10285000F9D1284670BD000044C000200146002088
:10286000704700000FB583B006980090044803A994
:102870000EC901F019FACDE9010107B000BD000051
:102880008CBC0020014606480068401C044A1060C9
:1028900004480068401C034A1060104600687047F6
:1028A000000000200400002070B504460D462A46B2
:1028B0002146024801F024FB70BD00008CBC0020C2
:1028C0001CB504462146034801F0C9FBCDE90001CF
:1028D0001CBD00008CBC002010B54FF000702349D7
:1028E0004860002121488160C1604FF4806101612E
:1028F0000021416181614FF48071C161490201622F
:1029000000214162032181620021C16201631848F4
:10291000164908600846FDF73DFE08B1FFF76CFB5D
:102920000020144948608021124881600021C16064
:102930004FF480610161490041618900816100219A
:10294000C1614FF4003101620021416203218162C3
:102950000021C16201630848064908600846FDF786
:1029600019FE08B1FFF748FB10BD0000F0C00020C1
:102970005864024040C100202860024010B5114850
:102980001149086030211048C16100218160416116
:1029900002210161002181620721C1620021C16021
:1029A00001624FF400718161102141624FF4827025
:1029B000054948600846FEF7A9FB08B1FFF71CFB74
:1029C00010BD0000003C004090C1002010B525481B
:1029D000006840086421B0FBF1F0441E22482349FE
:1029E000086031212148C16044600021016181609B
:1029F000FEF7BDFF08B1FFF7FFFA1C48FEF7D2FF54
:102A000008B1FFF7F9FA17480068400842F2107160
:102A1000B0FBF1F0441E88061549086042F20F71C0
:102A20001348C1604460002101618160FEF79FFF8F
:102A300008B1FFF7E1FA0E48FEF7B4FF08B1FFF75F
:102A4000DBFA022203211920FDF740FF1920FDF7D0
:102A500030FF022203211C20FDF738FF1C20FDF768
:102A600028FF10BD2000002000000140E8C1002028
:102A700024C200202DE9FF4F83B08C49D1F8DC112E
:102A800001F138004168894688484FF44045D0F844
:102A9000DC312946586D00BFD0E9022C02FB0CF650
:102AA000324604E0D0F810C02CF81210521E002A52
:102AB000F8DC00BF00BF069C7C4909B11C3100E076
:102AC00000210846816803E0002203685A54491E29
:102AD0000029F9DA0021416000BF744909B11C31B5
:102AE00000E00021084672A104F002F96F4909B123
:102AF0001C3100E00021084676A104F0F9F86B4A89
:102B0000A16B0AB11C3200E00022104604F000F96B
:102B1000664909B11C3100E00021084670A104F0AB
:102B2000E7F8624909B11C3100E00021084674A1B0
:102B300004F0DEF8A26B11685C4A0AB11C3200E0B6
:102B40000022104604F0E4F8584909B11C3100E0B5
:102B5000002108466EA104F0CBF8A26B52F8041CC9
:102B6000524A0AB11C3200E00022104604F0D0F8AC
:102B70004E4909B11C3100E00021084667A104F06C
:102B8000B7F84A4AE16B0AB11C3200E00022104655
:102B900004F0BEF8454909B11C3100E000210846A7
:102BA00061A104F0A5F86449D1F8F40000F13C01FA
:102BB0000D463E4909B11C3100E000210846294676
:102BC00004F072F8394909B11C3100E000210846CF
:102BD0005AA104F08DF8354A06990AB11C3200E07A
:102BE0000022104604F094F8304909B11C3100E08D
:102BF0000021084658A104F07BF84F49D1F8F400B1
:102C0000876900BFD1F8F400C1698D0813E057F857
:102C10002510264A0AB11C3200E00022104604F0BA
:102C200077F8224909B11C3100E0002108464FA184
:102C300004F02CF86D1E002DE9DA4D461B4909B150
:102C40001C3100E00021084606684FF6FF7A4FF07D
:102C500000080020A880E880A8684168D1F804B086
:102C600008E016F808105B465246284604F098F92A
:102C700008F1010816F808000028F2D100BF0B493E
:102C8000D1F8DC01416D0D46084803F0DBF9002066
:102C90000190029000BF364800F069F90028FAD090
:102CA000DDE9010107B0BDE8F08F000060BE002043
:102CB00048617264204661756C74204572726F724F
:102CC0002061742061646472657373203A20200A65
:102CD000000000000A50437E7E7E7E7E7E00000063
:102CE0004361757365203A20426164204D656D6FC4
:102CF00072792041646472657373200A00000000D9
:102D00000A285043202D2031297E7E7E7E7E7E0043
:102D10000A285043297E7E7E7E7E7E000A585053CC
:102D2000527E7E7E7E7E7E000A5468726561647E7D
:102D30007E7E7E7E7E0000008CBC00200A5468727D
:102D400065616420537461636B20616464726573B0
:102D5000737E7E7E7E7E7E000A537461636B2044A8
:102D6000756D70203A200A0A000000002020000043
:102D700004BE00201FB50A4C04F1F80003F011FB5B
:102D8000C4F8F400D4F8F40000F10C010022684605
:102D900003F057FDDDE90001CDE9020104B010BDEB
:102DA0008CBC002010B501231A4604213948FFF7D6
:102DB0000DF90223002201213748FFF707F901230B
:102DC0001A4602213448FFF701F901231A4604216B
:102DD0003148FFF7FBF801231A4608212E48FFF778
:102DE000F5F801231A4610212B48FFF7EFF80223CC
:102DF000012204212948FFF7E9F8022301221021CA
:102E00002648FFF7E3F80223012208212348FFF7B1
:102E1000DDF80223012220212048FFF7D7F8012303
:102E20001A464FF6FF711E48FFF7D0F80C23022216
:102E30004FF6B3711B48FFF707F90C2302224FF638
:102E400083711448FFF700F90C2302224FF23F016F
:102E50001548FFF7F9F80C2302223F211348FFF72A
:102E6000F3F80623022251020B48FFF7EDF8062380
:102E70000222D1020848FFF7E7F806230222910256
:102E80000548FFF7E1F800230122D1030848FFF7C6
:102E90009DF810BD0010024000080240001C0240D6
:102EA00000040240000C02400014024000180240DE
:102EB0000000024010B54FF0204019490860194841
:102EC0004860042018490860002048600520886098
:102ED0000020C86004200861002048618861104912
:102EE000886000210E48C16001611021416100210C
:102EF0008161C1614FF480610162002141624FF440
:102F0000805181620021C162016341638163064A8D
:102F10001146FEF7E3FC08B1FFF76EF810BD0000A4
:102F200090C00020040100A0D4C000200A6A026200
:102F30004A6A42628A6A8262CA6AC262CA69C261B3
:102F40008A6982614A6942610A690261CA68C2602B
:102F50008A6882604A6842600A6802600A6B02639B
:102F60004A6B42638A6B8263CA6BC263704730B537
:102F700087B004460020E06304F1240001F021FC46
:102F80002062206A50285CDDD4E90001C4E9040114
:102F900004F1240105A801F01BFC059820600698A7
:102FA000606003AAD4E90001CDE90101019B180189
:102FB000029B1901112390FBF3F3D810192391FB05
:102FC000F3F3D91001900291019BC3F5F0730193C3
:102FD000DDE90135C2E9003500BFDDE90301C4E9DF
:102FE0000001A268A169881A00EBD07102EB6101AF
:102FF000A160E269E168501A00EBD0714A10E16803
:103000000A44E26094F84000012807D12169206851
:10301000401AA06161686069091AE16194F8420090
:10302000012808D13C34207100206071A071022079
:1030300044F83C0901E00120E063012084F84000ED
:103040000EE094F84000012807D184F841000020E8
:1030500084F840000320E06302E0012084F842008D
:10306000E06B07B030BD30B587B005460C4618217F
:1030700001A8FDF7A0F9D4E90001CDE90101D4E9E7
:103080000601CDE90301182201A92846FDF761F9DF
:1030900007B030BD70B504460D460DB9012000E003
:1030A0000020060006D0084D28682060204601F068
:1030B0004BF90446286820606868216851F8141CA0
:1030C0006050204670BD0000B866010830B5054666
:1030D0000B46144600BF4FF480201E49086000BF15
:1030E00000BF1BB100BF0220086005E000BF4FF425
:1030F00000301849086000BF00BF284600F02CF8D7
:1031000000BF04201349086000BF07201CE000BF77
:103110004FF480210F4A116000BF00BF44FA00F154
:1031200001F0010119B100BF0221116005E000BFEB
:103130004FF40031074A116000BF00BF00BF0421F7
:10314000044A116000BF401E0028E0DA284600F063
:103150000DF830BD1808024000BF4FF40021024AAC
:10316000116000BF704700001808024000BF08212E
:10317000014A116000BF70471808024070B504464C
:103180000D460DB9012000E00020060010D0154DBD
:103190002868206004F1240001F0D6F8A0F124048E
:1031A00005F10C0104F12400FFF774FFA0F12404E1
:1031B00020460D49016000214160816000BF0B493C
:1031C000016000BF0446286820606868216851F8E3
:1031D0000C1C6050A868216851F8101C60502046F3
:1031E00070BD0000EC6601087C67010838670108C3
:1031F0002DE9F84F04468A4616469846DDF8289091
:10320000216851F80C1C0819314605F045F90746AC
:103210000FB9BDE8F88F11480090216851F8101CD3
:10322000081943460022514603F044FA05463DB9C9
:10323000216851F80C1C0819394605F00FF9E8E728
:1032400000BF27616661E560C4F82090C4F818806B
:103250000020E06100BF00BFDBE70000A46B0108B5
:103260002DE9F04105460E4616B90020BDE8F08173
:1032700046F0040600BF6C6800BF21E0E068B04281
:103280001DD32146284602F0D4FF06F13000E16844
:10329000814209D332462146284600F08FF807467E
:1032A0003946284602F086FF214605F10C0002F05F
:1032B00081FFA869401CA86104F11000D6E7A4684A
:1032C000002CDBD1FDF722F806210160E869401CE3
:1032D000E8610020CAE770B504460D4645B9E069CB
:1032E000401CE061FDF712F805210160084670BD41
:1032F000FDF70CF800210160A5F11006FDF706F8B6
:103300000068052803D1FDF701F80068EFE73146B2
:1033100004F10C0002F08DFF3146204602F04AFF16
:103320002146204600F004F8FCF7F0FF0068DEE7D5
:103330002DE9F04107460E4600BF3068022803D24F
:103340004FF0FF30BDE8F08100BFB068846800BF77
:10335000B56800BF12E0E86828441030A0420BD1E5
:10336000E968E06810300844E8602146304602F021
:1033700060FF386A401C386225466468002CEAD138
:1033800000BF7068846800BF7068054612E0E86896
:1033900028441030A0420BD1E968E068103008449E
:1033A000E8602146304602F044FF386A401C38622B
:1033B0002546A468002CEAD10020C3E710B50346D7
:1033C00000208C1804F11000CC68A41A103CC460D2
:1033D000CA6010BD10B50446204602F054FF0446F2
:1033E00004F10C0002F04FFFA0F10C04204610BDC8
:1033F0002DE9F04107460C4615462646A5F1140076
:10340000F0603146384602F0D5FEBDE8F08100227A
:1034100011460C2002DF7047002211460B2002DF0C
:10342000704770B504460D462A462146092002DF42
:1034300070BD10B5044600222146062002DF10BDF3
:1034400070B504460D4629462046FFF72DFA70BD9B
:1034500000220121072002DF704710B50446002238
:103460002146042002DF10BD1CB5FCF7E1FECDE9CA
:1034700000011CBD70B504460D462A4621460220B7
:1034800002DF70BD70B504460D462A46214608206D
:1034900002DF70BD10B5044600222146052002DF80
:1034A00010BD2DE9F04104460E4617461D464FF06B
:1034B0000008FDF7C5F98046002F3ED132E0681CB8
:1034C00078B32DB1FDF7BCF9A0EB0800A84229D9CB
:1034D0002068406820F0E0002168486020680068AB
:1034E00020F0400021680860A06AB0F5005F0DD1AF
:1034F00000BF2068006820F4005021680860206840
:10350000006840F400502168086000BF012084F882
:10351000510000BF002084F8500000BF0320BDE828
:10352000F081FFE7206880683040B04201D101207F
:1035300000E000200028C2D03BE030E0681C70B3FF
:103540002DB1FDF77DF9A0EB0800A84227D920682E
:10355000406820F0E000216848602068006820F0A2
:10356000400021680860A06AB0F5005F0DD100BF7F
:103570002068006820F40050216808602068006816
:1035800040F400502168086000BF012084F8510019
:1035900000BF002084F8500000BF0320BFE7206870
:1035A00080683040B04201D1012000E000200028B6
:1035B000C4D10020B3E7000010B5002807DA0A07DD
:1035C000140E054A00F00F031B1FD45403E00A0732
:1035D000130E024A135410BD18ED00E000E400E0A1
:1035E00002480068C0F30220704700000CED00E0C4
:1035F00010B50246084620B100BF0423054CA36164
:1036000005E000BF4FF48023024CA36100BF00BF60
:1036100010BD00000010024001B5D4B0549800F570
:10362000AA700E90FE490E9808604FF4A0704FF4F7
:10363000F0730022114600900E98283004F090FF9D
:10364000F8490E98103001F0ADFD01460E98C165A5
:103650000E9800F083FE4FF0FF310E98016600BF18
:10366000F1480E9054990E98C860549880680D9057
:1036700004F006FD00BF549800F5AA700A900020DF
:103680000B900C9040F226200D904FF4C8700E90D5
:103690000E98009002A80BA90EC904F09CFF02A985
:1036A00006A804F08FFF014601900A9803F032F952
:1036B00001460A9881650A98806D5390549800F5E8
:1036C000AA70539900F066FE5499C1F8DC01549831
:1036D000D0F8DC010A9064200B900C90C8200D906B
:1036E00028200E90AC2001F0B7F8099006900A98B7
:1036F000C06B024600210790069803F071FD099007
:1037000008900E9800900898006850F80C1C0898D3
:10371000084407900BA90EC904F022FF0898549999
:10372000C1F8B8015498D0F8DC010A9064200B90DD
:103730000C900A200D900E902C2001F08DF809902D
:103740000A98C06B01460790099803F05BF909904D
:1037500008900E98009008980C300BA90EC904F040
:10376000FFFE08985499C1F8D80128200090549879
:10377000D0F8DC01B423322200210E9001F0CEFDFE
:103780005499C1F8BC01282000905498D0F8DC016D
:10379000B423642200210E9001F0C0FD5499C1F8B9
:1037A000C001282000905498D0F8DC01B423962260
:1037B00000210E9001F0B2FD5499C1F8C4012820F7
:1037C00000905498D0F8DC01B423C82200210E9058
:1037D00001F0A4FD5499C1F8C8015498D0F8DC0157
:1037E0000A9000200B90FA200C90B4200D90282015
:1037F0000E90B82001F030F8099006900A98C06B3E
:10380000024600210790069801F014FB09900890E9
:103810000E9800900898006850F80C1C089808440E
:1038200007900BA90EC904F09BFE08985499C1F8A3
:10383000CC015498D0F8BC11086850F80C0C08441E
:103840000D9004F09FFE0E905498D0F8BC010D909E
:103850000E9903F01DFD5498D0F8C011086850F877
:103860000C0C08440D9004F08DFE0E905498D0F886
:10387000C0010D900E9903F00BFD5498D0F8C411BF
:10388000086850F80C0C08440D9004F07BFE0E9074
:103890005498D0F8C4010D900E9903F0F9FC549897
:1038A000D0F8C811086850F80C0C08440D9004F0CA
:1038B00069FE0E905498D0F8C8010D900E9903F04F
:1038C000E7FC5498D0F8B811086850F80C0C08447C
:1038D0000A900DA808905498D0F8DC11086850F8A8
:1038E0000C0C0844099009988068059000EBD07092
:1038F00041100998006808440690099840680790AC
:10390000DDE90612089806C000BFDDE90D01CDE92A
:103910000B010A988068099000EBD0700B99A1EB1D
:1039200060010A9801600C990A98416000BF5498A0
:10393000D0F8BC010E905498D0F8DC010D900E998F
:1039400002F0C0FA5498D0F8C0010E905498D0F804
:10395000DC010D900E9902F0B5FA5498D0F8C4012C
:103960000E905498D0F8DC010D900E9902F0AAFA4E
:103970005498D0F8C8010E905498D0F8DC010D90FE
:103980000E9902F09FFA5498D0F8DC010D905498EB
:10399000D0F8B8010E900D9858300B900E980C90FE
:1039A000DDE90B0102F0A7FC00BF5498D0F8DC0160
:1039B0000D905498D0F8CC010E900D987C300B905F
:1039C0000E980C90DDE90B0102F0C9FB00BF549882
:1039D000D0F8DC01383001210E9002F079FF5498C4
:1039E000D0F8DC01383001210E9002F075FF5498B8
:1039F00000F5AA70539900F0CDFC5499C1F8E0018C
:103A00005498D0F8E001383000210E9002F062FFA7
:103A100000205290519000215498C0F8D41105E034
:103A20001C00002004640108B46B01084FF490707E
:103A300000F00EFF5499C1F8D0014FF4847241494F
:103A40000FA8FCF786FC00200E9076E05498D0F882
:103A5000E00109905298BE300A90519832300B9094
:103A600028200C901E200D90AC2000F0F5FE089050
:103A700005900998C06B024600210690059803F056
:103A800051FE089007900D9800900798006850F834
:103A90000C1C0798084406900AA90EC904F060FDA2
:103AA00007985499D1F8D0210E9942F821005298E4
:103AB0002D3052905298B0F5827F09DD002052904F
:103AC0005198233051905198B0F59B7F00DD37E03D
:103AD0005498D0F8D0110E9851F820000FA90C90EE
:103AE0000E9851F820000D900C984C3003F0C3F85C
:103AF000DDE90C014C3003F0D7F800BF5498D0F842
:103B0000E0010C905498D0F8D0110E9851F8200094
:103B10000D900C9870300A900D980B90DDE90A0119
:103B200002F014FC00BF0E98401C0E905498D0F880
:103B3000D401401C5499C1F8D4010E98482885DB63
:103B400055B000BD6C6C01082DE9FF4104460E46DE
:103B500002AF04F5AA7000F0FDFB0546286A00904C
:103B6000686A0190DDE90001C7E9000100BFD4F8EF
:103B7000D81101F10C00DDE9021204F0C4FC04F5D7
:103B8000AA7000F0E7FB05462946D4F8DC0102F0F4
:103B9000EAF804F5AA7000F0DDFB05462946D4F8E2
:103BA000E00102F0E0F804F5AA7000F0D3FB07464C
:103BB000D4F8DC01416D0D4633463A46204602F00A
:103BC0007AFABDE8FF81000070B5044604F11000E8
:103BD00000BFA0F1100420461549016000BF15493F
:103BE000016000BF044604F11C0004F129014FF4F8
:103BF00094720160002343608260012303731346C3
:103C000002E00025CD545B1E002BFADAA0F11C0463
:103C10000948206004F2511000BFA0F2511404F5CD
:103C2000AA7000F0D1FCA0F5AA74204670BD000077
:103C30002866010810660108EC6701082DE9FF5F9E
:103C400004460E461746206850F8100C0519B04679
:103C50004FF00309DFF84CA0BB46296851F8141C4B
:103C600048194FF4806104F0E1FB0290029808B912
:103C700000200EE003204B464FF480624146CDE920
:103C8000000A029800F0DAFA5946029804F0A8FBFC
:103C900002980146039004F1F80002F0BBFBBDE876
:103CA000FF9F000000A0000A0FB430B58BB004469F
:103CB000214605A801F015FB00BF9DF81800A0B92A
:103CC000D4F8F40000F10C01002203A802F0B9FDC1
:103CD000DDE90301CDE9090105A801F014FBDDE9E7
:103CE00009010BB030BC5DF814FB129D2946D4F8D5
:103CF000F40000F0F4FA10A807C88DE807002A467F
:103D0000214603A80F9B00F02FF8DDE90301CDE960
:103D1000070105A801F0F7FADDE90701E1E72DE960
:103D2000F04105460F4600260020044617E004EB4C
:103D3000440205F1F80101EB8200016809B100219C
:103D400000E0012149B904EB440205F1F80101EB5F
:103D5000820002F026FBBDE8F081601C0446082CBE
:103D6000E5DB3046F7E700000FB42DE9FE4F814652
:103D70000C46D4F8F40041698A460E980190CDF8BB
:103D800008A00F98801E0B2878D2DFE800F0060DFF
:103D90000E58328059788F9A9E0000232046DDE924
:103DA0001012FFF74BFF00BF94E04E48824500D150
:103DB00090E0D4F8F4001099C26A61F30F02C26275
:103DC00000BF04F5AC70D4F8F41002F03BFB002106
:103DD0002046FFF7A4FFC4F8F400D4F8F40000F183
:103DE0000C0148460E9A02F02CFDBDE8FE0F5DF86E
:103DF00014FB102104F1D000FFF732FA06461098A8
:103E0000F06000BF31460846D4F868315B1CC4F846
:103E10006831D4F86C313BB9C4F86C01C4F8700156
:103E200000238360436008E0D4F86C2182600023A3
:103E300043605060C4F86C0100BF00BF4AE049E035
:103E40004FF0000BDDE91058216851F80C1C0819DF
:103E500004F0D4FA074600BF00203861C7F8148088
:103E6000C7F818B000BFFD6000BF00BF00BF002250
:103E700039462046009702F070FC2BE029E01A4AF0
:103E800004F1B800DDE9101302F093FB22E00021F9
:103E90002046FFF744FFC4F8F400D4F8F40000F122
:103EA0000C0148460E9A02F0CCFC9EE704F1B800E3
:103EB000109902F0F4FA05462946204600F09EF8D3
:103EC00000BF002084F8640104E0012084F864014C
:103ED00000E000BF00BFDDE90101C9E9000100BF4A
:103EE00083E70000AAAA000A00F001F070B50446BA
:103EF0000D46294604F1D000FFF7EDF970BD000032
:103F00002DE9FC4105460E4617463A46314605F175
:103F1000D000FFF76DFA2B4C2B480090296851F820
:103F2000101C4819294B0622214602F093FB8046BB
:103F3000414605F1F80002F085FA00BF002024494F
:103F40000123244ACDE90010234905F1B80002F00D
:103F5000CDFA00201F4B5B1E01222049009028460D
:103F6000FFF746F905F5BC7400231A46194604F11B
:103F7000240000F097FB0020E0639FED190A84ED18
:103F8000110A9FED180A84ED120A9FED170A84EDBD
:103F9000130A9FED160A84ED140AA0610021E16165
:103FA000206161612060606000BF204610490623E7
:103FB000104ACDE900101049C03802F097FA0020ED
:103FC000BDE8FC81A9200008656C0108AAAA000AC6
:103FD000446C010802B0000B711F0008791F000833
:103FE000DF4F0D3ECDCCCC3D00008C42000048425E
:103FF000516C010800F001F0CD2100087CB50546A8
:104000000C462946684601F06CF900BF9DF8040093
:1040100018B9684601F077F97CBD94B12046017C5F
:1040200009B9002103E0C16A41F30441491C01EBD5
:10403000410105F1F80000EB81062146304602F00F
:10404000E9F9684601F05FF900BFE5E770B504469D
:104050000D46294604F1D000FFF702F970BD30B5D6
:104060008BB004460D460595D4F8F40090F9111074
:10407000069194F87411D4F87401401CC4F87401CA
:1040800001F0030010B9D4F8740118B9DDE9050195
:104090000BB030BD94F8640110B9DDE90501F7E714
:1040A000214603A801F01DF900BF9DF8100048B992
:1040B000DDE90501CDE9090103A801F024F9DDE9F5
:1040C0000901E5E72946D4F8F40000F008F9214693
:1040D000204604F05DF92046D4F8F410FFF78EFF77
:1040E00000BF00212046FFF71AFEC4F8F400D4F800
:1040F000F40000F10C012A4601A802F0A2FBDDE960
:104100000101CDE9070103A801F0FDF8DDE9070190
:10411000BEE7000070B504460D460DB9012000E071
:104120000020060017D0404D2868206004F5E67096
:104130003E490160204600BF044604F1B80000F08B
:1041400003F9A0F1B80405F12C0104F1B800FEF761
:10415000A1FFA0F1B80404F1240000BF20218030A9
:1041600081600021C160416040F8801900BF00BF3C
:1041700000BFA0F12404291D2046FEF7FFFF0446DE
:1041800005F1100104F1B80002F036FAA0F1B8040C
:1041900004F1CC0000F0D8F8A0F1CC04286820602D
:1041A000E869216851F8141C6050286A216851F8A8
:1041B0000C1C6050686A216851F8101C6050A86A95
:1041C000C4F8B8001A48C4F8CC0004F1D000FFF7D6
:1041D00001F9A0F1D00408230C22164904F1F800DB
:1041E00000F040FBA0F1F80404F5AC7002F041F9D6
:1041F000A0F5AC7404F5B4700021416081600160E9
:10420000A0F5B47000BF044604F5BC710A4A4A62C6
:1042100000BFA1F5BC740020C4F8F400012084F8AC
:104220006401204670BD0000846A010840660108F0
:10423000546A010873640008406B01082DE9F047D7
:1042400005460E4614469946DDE90878EC61241FC0
:1042500005EB040A05F10C005146224600230371C8
:104260000660C160026187604FFA88F3437100BF46
:104270004946284600F002F8BDE8F087C26A22F0FD
:104280008072C262C26A6FF30F02C262C26A22F017
:104290008052C262C26A22F08042C262C26A22F0C6
:1042A0000052C262C26A22F08062C262C26A22F412
:1042B0000002C262C26A22F40012C262C26A22F022
:1042C0000072C262C26A22F00062C262C26A22F452
:1042D0008002C262C26A61F31442C26270478162A4
:1042E00070470CB50A6A00924A6A0192DDE9002320
:1042F000C0E900230CBD07B501990268891A016263
:1043000002994268891A41620EBDF0B50346986869
:10431000461AD868841A1F68F51B002D01DA002799
:1043200010E09F68AF4201DA00270BE05F68E01BF6
:10433000002801DA002705E0DF68874201DA00275C
:1043400000E001273846F0BD0149016070470000D8
:10435000E06A0108014601F12800704710B50446E3
:1043600000210848FFF75DF801210748FFF759F8D9
:1043700002210648FFF755F807210548FFF751F8D5
:1043800010BD000079250008F12400087D270008F1
:10439000352500082DE9F04705460F46B02000F00E
:1043A0005BFA0446A0463A460021404601F0A2FDD1
:1043B0000446264605F10408B1464946404601F048
:1043C00067FF00BFF06BE96D816000BF00BFF26B5B
:1043D00002F10C00E96D416100BF3046BDE8F08795
:1043E0000FB470B58EB0044604F12800DDE9131255
:1043F000FFF781FF04F128010CA8FFF772FFDDE948
:104400000C01CDE91301201D07C804AB07C31C2212
:1044100013A907A8FBF79DFF04A801F064FF054658
:1044200000260EE00AA80FC88DE80F00284607A94D
:104430000EC901F03FFA0646002E01DB304603E0CC
:104440002D6D002DEED1681E206600200EB070BCD0
:104450005DF814FB0FB470B58EB0044604F128016A
:104460000CA8FFF73EFFDDE90C01CDE91301201D8B
:1044700007C804AB07C31C2213A907A8FBF769FFF1
:1044800004A801F030FF054600260EE00AA80FC878
:104490008DE80F00284607A90EC901F06BFA064601
:1044A000002E01DB304603E02D6D002DEED1681E9D
:1044B000206600200EB070BC5DF814FB0FB470B520
:1044C0008EB00446206E002819DADDE91501CDE929
:1044D0000C01A06A0C990844A062E06A0D99084496
:1044E000E062A06C0C99401AA064E06C0D99401A2F
:1044F000E0640C9820650D98606500BF00BF04F172
:104500002800DDE91312FFF7F6FE04F128010CA8DC
:10451000FFF7E7FEDDE90C01CDE91301201D07C817
:1045200004AB07C31C2213A907A8FBF712FF04A8BA
:1045300001F0D9FE054600260EE00AA80FC88DE856
:104540000F00284607A90EC901F0C7FA0646002E3B
:1045500001DB304603E02D6D002DEED1681E206694
:1045600000200EB070BC5DF814FB0FB470B58EB0B7
:10457000044604F128010CA8FFF7B3FEDDE90C01A5
:10458000CDE91301201D07C804AB07C31C2213A9E2
:1045900007A8FBF7DEFE04A801F0A5FE05460026ED
:1045A0000AE00AA80FC88DE80F00284607A90EC91F
:1045B00001F046FB06462D6D002DF2D12666002047
:1045C0000EB070BC5DF814FB10B50246104600BF7B
:1045D0000246101D00214160816040F8041900BFAF
:1045E000024602F1100108460F4C04600F4C0346CE
:1045F000446000BF18460E4B036010334360002335
:104600000361436100BFA0F1100202F1280000BF66
:104610000021016041608160C16000BF00BF00BF38
:10462000A0F12802104610BDC06A010858660108B2
:10463000F06A010870B505460C46164600BF4FF0FB
:1046400000400849886100BF0A230222214606482B
:10465000FCF7A1FD00BF4FF400400249886100BF94
:10466000002070BD0000024090C1002070B50546DA
:104670000C46164600BF4FF000400849886100BF55
:104680000A23012221460648FCF7A2FE00BF4FF490
:1046900000400249886100BF002070BD0000024058
:1046A00090C10020F8B504460F4615461E4601206D
:1046B000A06060600020E081A081009820F00100EF
:1046C000401C0090009820F00E00801C0090009884
:1046D00067F304100090009820F0200000900098EC
:1046E00020F0C00000906946204600F042F8A07417
:1046F000009820F00E000A300090009865F3041036
:1047000000906946204600F034F8E074009820F0EC
:104710000E00801D0090009866F30410009069461A
:10472000204600F026F820754620A0813220E08146
:1047300001206060A060F8BD70B504460D46257488
:10474000002161742068012204F1100143682046B1
:1047500098472068022204F1100103682046984718
:10476000268A05F0080008B9361100E036123046F6
:1047700070BD10B502460B78DB071B0E0C78C4F336
:10478000420443EA04130C78C4F3001443EAC4035C
:104790000C78C4F3401443EA84030C78C4F3811406
:1047A00043EA040010BD10B50446A17C2046FFF783
:1047B000C3FF10BD10B50446E17C2046FFF7BCFFE7
:1047C00010BD10B50446217D2046FFF7B5FF10BD92
:1047D0007CB504460D462846FFF7E5FF00902846C5
:1047E000FFF7E8FF0190DDE90001C4E900017CBDAD
:1047F00070B504460D46CC3C29462046FFF776FBB3
:1048000070BD70B504460D46CC3C29462046FFF7E6
:104810001DFC70BD70B504460D46206850F80C0CA8
:10482000044429462046FFF711FC70BD70B50446CC
:104830000D46206850F8100C044429462046FFF726
:1048400055FB70BD10B504462046FDF7E9FF10BDCD
:1048500010B500F001F810BD10B504462046FDF774
:10486000E9FF10BD2DE9F0411C4617460E008046B9
:1048700007D0054602E02846B0473D442046641E66
:10488000F9D24046BDE8F081016809B100207047C7
:10489000012101600846704710B5064C00212046F2
:1048A000FFF738FC0448FFF78FF90448FEF792FD44
:1048B00010BD00008CBC002060BE002044C0002061
:1048C00010B50B4C204603F08DFE044600BF09488E
:1048D000094A0260094A0146426000BF0846084989
:1048E00001601031416000210161416100BF10BDD4
:1048F00030BC002060BC0020D06A0108706601084E
:10490000186B01081CB54BF680311148FEF798FD75
:10491000FEF7AAFD1BE00F4C4FF6FF7521466846D7
:1049200000F0CEFC00BF9DF8040018B9684600F006
:10493000D1FC0BE0A9B24FF4A0734FF4F072A06861
:1049400003F04EF9684600F0C5FC00BF00BFE2E787
:104950007000002060BE00202DE9F04180460D4629
:1049600016461020FFF778FF044612490160002127
:104970004160816000BF10490160C66000BF2746EA
:104980000FB9BDE8F0813A4610462B685B1C2B60DE
:104990006B682BB96860A86000238360436006E001
:1049A00069688160002343604860686000BF00BFA1
:1049B00000BFE6E788670108586701080FB42DE9D2
:1049C000F0418AB004460E46216851F80C1C0819C3
:1049D000DDE9121203F0D9FD30B94FF0FF300AB013
:1049E000BDE8F0015DF814FB08AF216851F80C1C1C
:1049F0000819DDE91212CDE906123A46DDE9063161
:104A0000D0F800C0A3EB0C03002B00DA0368D0F849
:104A100000C0A1EB0C01002900DA016804930591A4
:104A2000DDE9048CC2E9008C00BF00BFDDE90801AC
:104A3000CDE91201189400BF756800BF0DE01C227B
:104A400012A903A8FBF785FC07A807C88DE8070093
:104A5000EF6803A80FC8B847AD68002DEFD101205B
:104A6000BDE70FB410B586B0044614220BA9684602
:104A7000FBF76FFC04F110012046DDE90923FFF785
:104A80009DFF06B010BC5DF814FB0FB410B586B0E6
:104A9000044614220BA96846FBF75BFC04F12801CD
:104AA0002046DDE90923FFF789FF06B010BC5DF859
:104AB00014FB0FB410B586B0044614220BA9684647
:104AC000FBF747FC211D2046DDE90923FFF776FFB0
:104AD00006B010BC5DF814FB70B505460C462246C6
:104AE00005F110012846FFF737FF70BD70B5054688
:104AF0000C462246291D2846FFF72EFF70BD0FB435
:104B000010B586B0044614220BA96846FBF721FCB9
:104B100004F11C012046DDE90923FFF74FFF06B031
:104B200010BC5DF814FB000070B504460D460DB9CD
:104B3000012000E00020060008D0114D2868206008
:104B400004F1340003F04EFDA0F134042868206025
:104B5000201D01F0CBFB041F04F1100001F0C6FB87
:104B6000A0F1100404F11C0001F0C0FBA0F11C0432
:104B700004F1280001F0BAFBA0F12804204670BD22
:104B8000C86401080FB42DE9F04104460B9E079F4D
:104B9000089B206850F8100C2044C16801FB07F501
:104BA000099A01FB025014E0DDF828C09C44ACF1E6
:104BB00001020BE0D4F800C05CF80CCCA444DCF893
:104BC00004C002EB00082CF81860521E9A42F1D87B
:104BD000401AA842E8DC0020BDE8F0015DF814FBB3
:104BE0000FB470B592B00646DDE91B4517980E90DC
:104BF00018980F90199810901194199917980844C3
:104C0000001B0A9018980B900C941A980D90179806
:104C100006901A9918980844001B07901998089054
:104C20000994179802901898039004941A98059084
:104C300001951198009030460EA90EC9FFF7A2FF0A
:104C400001950D98009030460AA90EC9FFF79AFF0A
:104C5000019509980090304606A90EC9FFF792FF0A
:104C6000019505980090304602A90EC9FFF78AFF0A
:104C7000002012B070BC5DF814FB00002DE9F0417B
:104C800004460D4616460DB9012000E0002007003D
:104C90000ED0104D2868206004F10C0003F0A2FC37
:104CA000A0F10C0405F10801201D01F027FD041FEF
:104CB000286820606868216851F80C1C60502168E1
:104CC00051F80C1C0819314601F030FD2046BDE8B2
:104CD000F0810000D8640108C0F890107047C0F857
:104CE0008C1070472DE9F0478AB00446206850F8D0
:104CF0000C0C2558206850F80C0C2044466820689D
:104D000050F80C0C20448768206850F80C0C2044A4
:104D1000D0F80C803B463246294602A8CDF80080E8
:104D200003F059FC02A906A803F04CFC8146216857
:104D300051F8101C21440A89216851F8101C2144A3
:104D4000496801F12400494601F07EFED4E92301BF
:104D5000884227DD4FF47041206850F80C0C204445
:104D6000C068CDE90001D4E923C9ACEB0903D4F84C
:104D700000C05CF80CCC54F80CC00CEB0901D4F862
:104D800000C05CF80CCCA444DCF80420D4F800C0CB
:104D90005CF810CCA444DCF804C00CF1240001F051
:104DA0007FFE26E04FF47041206850F80C0C204440
:104DB000C068CDE90001D4E9239CACEB0903D4F829
:104DC00000C05CF80CCC54F80CC00CEB0901D4F812
:104DD00000C05CF80CCCA444DCF80420D4F800C07B
:104DE0005CF810CCA444DCF804C00CF1240001F001
:104DF00057FE04F1340000F004FA04F14C0001F015
:104E0000A3FF814602A906A803F0DCFB82462168C5
:104E100051F8101C21444B89216851F8101C214481
:104E2000496801F10C004A46514601F0B4FF0AB04E
:104E3000BDE8F0872DE9F04704460D4690460DB9D0
:104E4000012000E000205FEA000911D0314D286800
:104E5000206004F1980003F0C5FBA0F198044246DD
:104E600005F1180104F1A80001F038FDA0F1A80433
:104E7000291D2046FFF758FE0446424605F1080169
:104E800004F1340000F0ECF9A0F1340404F1400026
:104E90002149216400214160816000BFA0F14004EC
:104EA000302204F1590104F14C0001F065FFA0F13A
:104EB0004C04286820602869216851F8101C605053
:104EC0006869606315482064022104F1340000F031
:104ED000C0F913492046FFF7FFFD12492046FFF7AE
:104EE00005FE2646104F3A4606F11C013046FFF7F4
:104EF00033FD00BF4FF6FF70216851F8101C2144AC
:104F000008810020C4F88C00C4F890002046BDE859
:104F1000F087000044650108646701082C650108FA
:104F2000C1270008DF270008032800082DE9FF4FEC
:104F300089B00446A06808B90220A0600A9D0B9EB3
:104F4000DDF83090DDF858A0B9EB050003D5C9F1C4
:104F50000000401B01E0A9EB05000746BAEB060084
:104F600003D5CAF10000801B01E0AAEB06008046D1
:104F7000A94501DBA06801E0A06840420890B24565
:104F800001DBA06801E0A06840420790B84535DC2D
:104F9000C7EB480B4FEA48000690A8EB070040001B
:104FA00005900898284404900396012002901EE082
:104FB000BBF1000F06DD0598834407990398084468
:104FC000039001E006988344207A1799CDE90010F8
:104FD000A16803980B1802462046049900F079F85E
:104FE0000298401C02900899049808440490A06814
:104FF00097FBF0F102988142DADA34E0C8EB470B14
:1050000078000690A7EB08004000059004950798EB
:1050100030440390012002901EE0BBF1000F06DD3A
:1050200005988344089904980844049001E0069880
:105030008344207A1799CDE90010A16804980B18D1
:1050400001462046039A00F012F80298401C029094
:105050000799039808440390A06898FBF0F1029820
:105060008142DADA00BF00200DB0BDE8F08FF0B564
:105070000446DDE90567206850F8100C2044C56837
:1050800001FB052103FB052310E038460BE0D4F8B3
:1050900000C05CF80CCCA444DCF804C00CEB430C5E
:1050A0002CF81060401E0028F1D15B1B8B42ECDC19
:1050B0000020F0BD0FB47CB504460B9D0A98CDE9E5
:1050C0000005204607A90EC9FFF730FF7CBC5DF83C
:1050D00014FBF0B50446DDE90567206850F8100CB4
:1050E0002044C06800FB01F52A442B4420E0D4F89A
:1050F00000C05CF810CCA444DCF80CC00CFB07F03A
:1051000013E0D4F800C05CF80CCCA444DCF804C074
:105110000CEB430C2CF81060D4F800C05CF810CCF9
:10512000A444DCF80CC0A0EB0C000028E9DC5B1EFA
:105130009342DCDC0020F0BD2DE9F04104460D4631
:1051400016460DB9012000E00020070010D0124DD6
:105150002868206004F1140003F044FAA0F114045C
:1051600005F1080104F10C0001F0C8FAA0F10C04EB
:10517000286820606868216851F80C1C605007207E
:10518000A060216851F80C1C0819314601F0CEFAD4
:105190002046BDE8F08100006065010801464868CE
:1051A000407A70472DE9F04180460E464FF48070FA
:1051B000FFF74EFB074617B90020BDE8F081082035
:1051C000FFF74AFB05460760466000BF044624B966
:1051D0003846FFF737FB0020EFE7394630780022EA
:1051E00003E0736813F8302088540300A0F1010035
:1051F000F7D100BF00BF2146404603F063F92046C7
:10520000DBE710B588B00446B4F9060000281CDDC1
:10521000206850F8100C011904A803F093F9A08835
:105220006189CDE9011007980090216851F80C1CA4
:105230002144496801F1380004A90EC9FFF7D0FCE8
:10524000E088401E00B2E08001E00020207208B03B
:1052500010BD41817047012101720A21C180704750
:105260002DE9F04104460D4616460DB9012000E037
:105270000020070011D0114D2868206004F11C00A7
:1052800003F0B0F9A0F11C04324605F1080104F165
:105290000C0001F023FBA0F10C0428682060686872
:1052A000216851F80C1C605047F21210A0800020B9
:1052B000E080022060812046BDE8F0818865010819
:1052C00001600A79012A01D10022027101220A71CA
:1052D000027170470179012902D100210268117120
:1052E000704701600A6852F8142C0A441279012AA6
:1052F00001D10022027101220B6853F8143C0B44C7
:105300001A71027170470179012906D100210268E2
:10531000136853F8143C1A44117170472DE9FF4F7C
:1053200081B0064689469246DDF838B09020FFF7F6
:1053300093FA04462746D6F83C8042460021384678
:1053400002F036F904462546CDF800B0296851F838
:105350000C1C481952464946049B03F001F92846A3
:1053600005B0BDE8F08F0FB47FB504460E46D4F803
:105370009400002805DBD4F8940004B070BC5DF8FC
:1053800014FB216851F80C1C0819DDE90A1203F01E
:10539000FCF810B94FF0FF30EFE70DA80FC88DE80B
:1053A0000F00201D0AA90EC9FFF75BFB00BF75683F
:1053B00000BF14E00DA80FC88DE80F0028460AA909
:1053C0000EC9FFF74EFBC4F89400D4F894000028EF
:1053D00004DDC4F89C50D4F89400CEE7AD6C002DE9
:1053E000E8D1681EC9E70FB47FB504460E46D4F86D
:1053F0009400002805DBD4F8940004B070BC5DF87C
:1054000014FB216851F80C1C0819DDE90A1203F09D
:10541000BCF810B94FF0FF30EFE70DA80FC88DE8CA
:105420000F00201D0AA90EC9FFF71BFB00BF7568FE
:1054300000BF14E00DA80FC88DE80F0028460AA988
:105440000EC9FFF70EFBC4F89400D4F894000028AE
:1054500004DDC4F89C50D4F89400CEE7AD6C002D68
:10546000E8D1681EC9E70FB47FB504460E46D4F8EC
:105470009400002805DBD4F8940004B070BC5DF8FB
:1054800014FB216851F80C1C0819DDE90A1203F01D
:105490007CF810B94FF0FF30EFE70DA80FC88DE88A
:1054A0000F00201D0AA90EC9FFF7DBFA00BF7568BF
:1054B00000BF15E00DA80FC88DE80F0005F10C0026
:1054C0000AA90EC9FFF7CDFAC4F89400D4F89400E5
:1054D000002804DDC4F89C50D4F89400CDE7AD68F2
:1054E000002DE7D1681EC8E70FB47FB504460E460D
:1054F000D4F89400002805DBD4F8940004B070BC04
:105500005DF814FB216851F80C1C0819DDE90A123A
:1055100003F03BF810B94FF0FF30EFE70DA80FC8CC
:105520008DE80F00201D0AA90EC9FFF79AFA00BFE7
:10553000756800BF14E00DA80FC88DE80F0028465D
:105540000AA90EC9FFF78DFAC4F89400D4F89400A4
:10555000002804DDC4F89C50D4F89400CEE7AD6C6C
:10556000002DE8D1681EC9E70FB47FB504460E468A
:10557000216851F80C1C0819DDE90A1203F005F83E
:1055800028B94FF0FF3004B070BC5DF814FB0DA8D3
:105590000FC88DE80F00201D0AA90EC9FFF775FA84
:1055A00000BF756800BF14E00DA80FC88DE80F009C
:1055B00028460AA90EC9FFF768FAC4F89400D4F87F
:1055C0009400002804DDC4F89C50D4F89400DAE775
:1055D000AD6C002DE8D1681ED5E70FB47FB5044649
:1055E0000E46216851F80C1C0819DDE90A1202F078
:1055F000CCFF28B94FF0FF3004B070BC5DF814FB4D
:105600000DA80FC88DE80F00201D0AA90EC9FFF7CD
:105610003CFA00BF756800BF14E00DA80FC88DE804
:105620000F0028460AA90EC9FFF72FFAC4F8940004
:10563000D4F89400002804DDC4F89C50D4F89400F9
:10564000DAE7AD6C002DE8D1681ED5E70FB47FB561
:1056500004460E46216851F80C1C0819DDE90A12AF
:1056600002F093FF28B94FF0FF3004B070BC5DF832
:1056700014FB0DA80FC88DE80F00201D0AA90EC944
:10568000FFF703FA00BF756800BF15E00DA80FC84B
:105690008DE80F0005F10C000AA90EC9FFF7F5F916
:1056A000C4F89400D4F89400002804DDC4F89C5099
:1056B000D4F89400D9E7AD68002DE7D1681ED4E78F
:1056C0000FB47FB504460E46216851F80C1C08192A
:1056D000DDE90A1202F059FF28B94FF0FF3004B09B
:1056E00070BC5DF814FB0DA80FC88DE80F00201DDD
:1056F0000AA90EC9FFF7C9F900BF756800BF14E019
:105700000DA80FC88DE80F0028460AA90EC9FFF79B
:10571000BCF9C4F89400D4F89400002804DDC4F85F
:105720009C50D4F89400DAE7AD6C002DE8D1681EE7
:10573000D5E70FB47FB504460E46216851F80C1C1E
:105740000819DDE90A1202F020FF28B94FF0FF30F6
:1057500004B070BC5DF814FB00BF756800BF14E0B6
:105760000DA80FC88DE80F0028460AA90EC9FFF73B
:10577000A0F9C4F89400D4F89400002804DDC4F81B
:105780009C50D4F89400E3E7AD6C002DE8D1681E7E
:10579000DEE70FB47FB504460E46216851F80C1CB5
:1057A0000819DDE90A1202F0F0FE28B94FF0FF30C7
:1057B00004B070BC5DF814FB00BF756800BF14E056
:1057C0000DA80FC88DE80F0028460AA90EC9FFF7DB
:1057D00070F9C4F89400D4F89400002804DDC4F8EB
:1057E0009C50D4F89400E3E7AD6C002DE8D1681E1E
:1057F000DEE70FB47FB504460E46216851F80C1C55
:105800000819DDE90A1202F0C0FE28B94FF0FF3096
:1058100004B070BC5DF814FB00BF756800BF15E0F4
:105820000DA80FC88DE80F0005F10C000AA90EC9DC
:10583000FFF73FF9C4F89400D4F89400002804DD81
:10584000C4F89C50D4F89400E2E7AD68002DE7D18D
:10585000681EDDE70FB47FB504460E46216851F897
:105860000C1C0819DDE90A1202F08FFE28B94FF06E
:10587000FF3004B070BC5DF814FB00BF756800BF5A
:1058800014E00DA80FC88DE80F0028460AA90EC91C
:10589000FFF70FF9C4F89400D4F89400002804DD51
:1058A000C4F89C50D4F89400E3E7AD6C002DE8D127
:1058B000681EDEE70FB430B585B004464520005DB4
:1058C00028B94FF0FF3005B030BC5DF814FB14224E
:1058D0000BA96846FAF73DFD04F170012046DDE9A9
:1058E0000923FFF701FE0546002D04DB0220C4F862
:1058F00098002846E7E714220BA96846FAF729FD25
:1059000004F158012046DDE90923FFF76CFD054647
:10591000002D04DB0020C4F898002846D3E71422A9
:105920000BA96846FAF715FD04F164012046DDE98C
:105930000923FFF798FD0546002D04DB0120C4F87C
:1059400098002846BFE714220BA96846FAF701FD24
:1059500004F17C012046DDE90923FFF704FD05463B
:10596000002D04DB0320C4F898002846ABE74FF075
:10597000FF30A8E70FB430B585B004464520005D80
:1059800028B94FF0FF3005B030BC5DF814FBD4F8F7
:10599000940000284EDBD4F8980030B101280FD0D5
:1059A00002281AD003282ED122E00CA80FC88DE8B7
:1059B0000F00D4F89C0009A90EC9FFF766F823E090
:1059C0000CA80FC88DE80F00D4F89C1001F10C0052
:1059D00009A90EC9FFF759F816E00CA80FC88DE801
:1059E0000F00D4F89C0009A90EC9FFF74EF80BE090
:1059F0000CA80FC88DE80F00D4F89C0009A90EC9A7
:105A0000FFF743F800E000BF00BF216851F80C1C0D
:105A10000819DDE9091202F0B8FD40B10CA80FC861
:105A20008DE80F00201D09A90EC9FFF72EF8D4F844
:105A30009400A8E714220BA96846FAF78AFC04F13F
:105A400058012046DDE90923FFF7C7FD054614226A
:105A50000BA96846FAF77DFC04F170012046DDE9E8
:105A60000923FFF72DFE0546002D04DB0220C4F8B4
:105A70009800284687E7002D04DB0020C4F8980032
:105A8000284680E714220BA96846FAF762FC04F165
:105A900064012046DDE90923FFF7D8FD0546002D06
:105AA00004DB0120C4F8980028466CE714220BA9F7
:105AB0006846FAF74EFC04F17C012046DDE9092333
:105AC000FFF752FD0546002D04DB0320C4F89800C3
:105AD000284658E74FF0FF3055E70FB430B585B092
