:020000040800F2
:10000000D041012045030008B7160008AF160008CC
:10001000B316000803080008651700080000000078
:100020000000000000000000000000000F030008B6
:100030002B08000800000000EB020008BF020008C7
:100040005F0300085F0300085F0300085F03000808
:100050005F0300085F0300082D0800085F03000825
:100060005F0300085F0300085F0300085F030008E8
:100070005F0300085F0300085F0300085F030008D8
:100080005F0300085F0300085F0300085F030008C8
:100090005F0300085F0300085F0300085F030008B8
:1000A0005F030008451700085F0300085F030008AE
:1000B000551700085F0300085F0300085F0300088E
:1000C0005F0300085F0300085F0300085F03000888
:1000D0005F0300085F0300085F0300085F03000878
:1000E0005F0300085F0300085F0300085F03000868
:1000F0005F0300085F0300085F0300085F03000858
:100100005F0300085F0300085F0300085F03000847
:100110005F0300085F0300085F0300085F03000837
:100120005F0300085F0300085F0300085F03000827
:100130005F0300085F0300085F0300085F03000817
:100140005F0300085F0300085F0300085F03000807
:100150005F0300085F0300085F0300085F030008F7
:100160005F0300085F0300085F0300085F030008E7
:100170005F0300085F0300085F0300085F030008D7
:100180005F0300085F03000800F002F800F070F859
:100190000AA090E8000C82448344AAF10107DA45E2
:1001A00001D100F065F8AFF2090EBAE80F0013F0C4
:1001B000010F18BFFB1A43F001031847282C000059
:1001C000582C00000A444FF0000C10F8013B13F0CB
:1001D000070408BF10F8014B1D1108BF10F8015BA0
:1001E000641E05D010F8016B641E01F8016BF9D193
:1001F00013F0080F1EBF10F8014BAD1C0C1B09D1EA
:100200006D1E58BF01F801CBFAD505E014F8016B5B
:1002100001F8016B6D1EF9D59142D6D370470000ED
:10022000103A24BF78C878C1FAD8520724BF30C822
:1002300030C144BF04680C607047000000230024F4
:1002400000250026103A28BF78C1FBD8520728BFE6
:1002500030C148BF0B6070471FB502F011FD9DE82B
:10026000030000F075F900F0E5F81FBD10B510BDF2
:1002700000F0DAF91146FFF7EFFF02F0F9F800F0AD
:1002800017FA03B4FFF7F2FF03BC00F045FA0000D1
:1002900002DF704772B6BFF34F8F01F00DFABFF364
:1002A0005F8F4FF0010101F010FABFF35F8F80F311
:1002B00009884FF0060181F3148862B600BD72B65A
:1002C000BFF34F8FEFF3098020E9F00F00B54FF037
:1002D000000101F0FAF9BFF35F8FBFF34F8FB0E871
:1002E000F00F80F3098862B600BD72B6BFF34F8F7E
:1002F000EFF3098020E9F00F00B54FF0000101F0A5
:10030000EEF9B0E8F00F80F3098862B600BD72B66E
:10031000BFF34F8F00B5EFF3098323E9F00F00F02F
:1003200072FAB0E8F00F80F3098862B600BD0448A5
:10033000016841F470010160BFF34F8FBFF36F8F0D
:1003400088ED00E00948804709480047FEE7FEE7DE
:10035000FEE7FEE7FEE7FEE7FEE7FEE7FEE7FEE775
:1003600004480549054A064B70470000E11600089D
:1003700089010008D03B0120D0410120D03D01205F
:10038000D03D0120004870476C3B012010B5431C54
:1003900002E010F8011B71B18107FAD14FF0013270
:1003A00002C88C1A8C4314EAC211F9D0C01A0A068A
:1003B00003D0C01E10BDC01A10BD0A0401D0801E9B
:1003C00010BD0902FCD0401E10BD10B5203AC0F08F
:1003D0000B80B1E81850203AA0E81850B1E8185046
:1003E000A0E81850BFF4F5AF5FEA027C24BFB1E883
:1003F0001850A0E8185044BF18C918C0BDE81040F4
:100400005FEA827C24BF51F8043B40F8043B08BFFC
:100410007047D20728BF31F8023B48BF11F8012BC3
:1004200028BF20F8023B48BF00F8012B70477047F7
:100430007047704770B5064C7C44064D7D4403E020
:10044000206820448047241DAC42F9D170BD0000D3
:10045000D8290000DC290000004870476C3B0120CF
:1004600000487047A03B012070B5064600F054F8E4
:10047000056806F10B0020F00704B4429CBF002081
:1004800070BD2B466A68BAB11068A04210D304F15F
:10049000080188423CBF5068586007D35168101962
:1004A00041601168091B016058601460101D70BD27
:1004B00013465268002AE7D12146284600F034F856
:1004C0000028DED170BD70B50446051F00F024F889
:1004D0000068002C14BF446870BD002C18BFAC42EB
:1004E0003CBF20466468F8D301680A18AA4218BFC6
:1004F000456003D12A680546114401602868411906
:10050000A1421CBF6C6070BD6168696021680844CD
:10051000286070BD00F052B800487047743B01205D
:10052000704770477047704738B504460A46002048
:100530006946AFF30080002808BF38BD0246009925
:10054000204600F09BF8012038BD012000F0BEB825
:10055000F8B5AFF30080054600200C46102000BF20
:100560000646A819A0420DD9324669460020AFF3CD
:100570000080070008BF00F0A9F80098A04218BF4B
:100580000546C419FFF7C8FF05600746F01D20F0B7
:1005900007004619284600F00AF8B44208BFF8BD23
:1005A000A21B31463868BDE8F84000F067B800216A
:1005B0000160C0E9011070471020704710B500F0CD
:1005C0000EF8016919B100220261884701E08068D4
:1005D000804700F073F8000010B500F06FF870B5B8
:1005E00000F048F804680546A4B92020FFF73CFF56
:1005F000040011D0094900202C60C4E90001084919
:10060000A1602073206160610649A06109B100F01A
:1006100064F8E061204670BD00F050F80000000072
:10062000D9050008000000007546FFF715FFAE462B
:1006300005006946534620F00700854618B020B5EE
:10064000FFF78EFEBDE820404FF000064FF0000798
:100650004FF000084FF0000B21F00701AC46ACE86A
:10066000C009ACE8C009ACE8C009ACE8C0098D46D7
:100670007047000000487047A83B012003464068CF
:100680008C46002818BF88423CBF03464068F8D318
:1006900018681844884207D00CF1030020F00700C6
:1006A000001D411A521A0146081D0A60FFF70BBFD0
:1006B0000446AFF300802046FFF7E3FD002000F082
:1006C00037F8FFF7D3FD012000F026F810B500F051
:1006D00037F8BDE8104000F026B810B58820FFF7C5
:1006E000C3FE002801D00021017010BD802902D86E
:1006F00008B1017809B100207047012100F8081BFA
:10070000704718B100F10802914201D000207047F3
:10071000002101707047000001491820ABBEFEE7C0
:10072000260002007047002801D0FFF7F5BF704790
:1007300010B500F047F8BDE81040FFF7F4BF000027
:1007400010B5012805D0002103A000F021F80120F8
:1007500010BD09A1F8E7000053494752544D454DDB
:100760003A204F7574206F662068656170206D6552
:100770006D6F7279000000003A2048656170206D4D
:10078000656D6F727920636F727275707465640045
:1007900070B505460C460A2000E06D1C00F02AF8F2
:1007A00035B128780028F8D102E0641C00F022F866
:1007B00014B120780028F8D1BDE870400A2000F07C
:1007C00019B8000010B5002102A0FFF7E1FF0120D9
:1007D00010BD0000534947414252543A2041626ED5
:1007E0006F726D616C207465726D696E6174696F92
:1007F0006E00000008B569468DF800000320ABBE0E
:1008000008BD00BFFEE70FB589B00C98009001A8A5
:1008100009A90EC901F086FA01A80FC8CDE907237E
:10082000CDE9050118460DB000BD7047704770B5A1
:1008300004461D460023B5F5804F1BD154F82230E5
:1008400003F04043D1E9000640EA06108E6840EA12
:1008500006208E8940EA0646088A401E46EA00566F
:10086000087D801E46EA00608E693043034344F8E9
:10087000223003E06FF0704044F82200002070BD89
:1008800010B503460022086853F8202011480240A2
:10089000D1E901042043CC6820430C6920434C6912
:1008A00020438C692043CC6920430C6A20434C6A66
:1008B00020438C6A2043CC6A20430C6B20430243C4
:1008C0008868082801D142F04002086843F82020D7
:1008D000002010BD8000F7FF30B503460024501CF7
:1008E00053F8204004F04044D1E9000540EA0510E7
:1008F0008D6840EA05208D8940EA0545088A401E3A
:1009000045EA0055087D801E45EA00608D69284350
:100910000443501C43F82040002030BD0146002213
:1009200009B901207047486A00B100BF022081F870
:1009300035000868026817480240D1E901031843EE
:10094000CB6818430B6918434B6918438B691843EC
:10095000CB6918430B6A18430243486A042803D141
:10096000D1E90B0318430243086802600868426932
:1009700022F00702486A0243486A042801D1886AC3
:100980000243086842610020C864012081F83500F4
:100990000020C7E73F8010F031B5002400F014F9C3
:1009A000044600BF00F010F9001B00998842F9D3FB
:1009B00038BD0000F8B502460B4600250024002093
:1009C0000021DEE0012606FA01F51E6806EA0504AC
:1009D000AC4270D15E68022E02D05E68122E13D136
:1009E000CF0802F1200656F827004E07F70E0F2613
:1009F000BE40B0434F07FF0E1E69BE403043CF08D4
:100A000002F1200646F8270010684F000326BE407A
:100A1000B0431E7906F003064F00BE40304310601D
:100A20005E68012E08D05E68022E05D05E68112E29
:100A300002D05E68122E13D190684F000326BE408C
:100A4000B0434F00DE68BE403043906050680126DE
:100A50008E40B0431E79C6F300168E40304350607E
:100A6000D0684F000326BE40B0434F009E68BE4092
:100A70003043D0605E6806F08056B6F1805F7FD16B
:100A800000BF424E366846F48046404F3E603E46C8
:100A9000366806F48046009600BF3D4E8F0856F833
:100AA00027008E07370F0F26BE40B043394EB242A3
:100AB00002D1002629E063E0374EB24201D101267F
:100AC00023E0364EB24201D102261EE0344EB2423D
:100AD00001D1032619E0334EB24201D1042614E0BD
:100AE000314EB24201D105260FE0304EB24201D163
:100AF00006260AE02E4EB24201D1072605E02D4E11
:100B0000B24201D1082600E009268F073F0FBE4000
:100B100030431F4E8F0846F82700274E3068A04309
:100B20005E6806F48036B6F5803F00D12043224E41
:100B30003060361D3068A0435E6806F40036B6F5B6
:100B4000003F00D120431C4E361D3060361D3068FA
:100B5000A0435E6806F48016B6F5801F00D12043DE
:100B6000154E08363060361D3068A0435E6806F4C6
:100B70000016B6F5001F00D120430F4E0C36306032
:100B8000491C1029FFF41EAFF8BD00004438024094
:100B90000838014000000240000402400008024002
:100BA000000C0240001002400014024000180240F5
:100BB000001C024000200240003C01400148006847
:100BC000000C7047002004E00148006870470000F6
:100BD0000400001002480068401C0149086070478A
:100BE0000400001010B50A48006840F4007008497D
:100BF00008600846006840F480600860032000F048
:100C00005BF80F2000F006F800F016F8002010BD89
:100C1000003C024070B5044600F0BAF94FF47A7116
:100C2000B0FBF1F5284600F056FC00222146501E8C
:100C300000F003F8002070BD70472DE9F05F80469A
:100C40000D461646002701F04BF9074639462A465D
:100C5000334601F00700C0F1070ABAF1040F02D9C8
:100C60004FF0040A01E0C0F1070AD14600F1040A7E
:100C7000BAF1070F02D24FF0000A01E0A0F1030A17
:100C8000D4464FF0010A0AFA09FAAAF1010A0AEA5F
:100C9000020A0AFA0CFA4FF0010B0BFA0CFBABF14B
:100CA000010B0BEA030B4AEA0B042146404601F014
:100CB00003F9BDE8F09F000000BF00F00702064BFB
:100CC00019684FF6FF031940044B0B4343EA022116
:100CD000014B196000BF70470CED00E00000FA0501
:100CE00070B504460E460025A748006800F00F00C6
:100CF000B0426FD2A4490E700846006800F00F00A1
:100D0000B04201D0012070BD207800F0020002281E
:100D100007D19E48006820F0F000A16808439B4975
:100D20000860207800F0010000283ED060680128AB
:100D300007D1964808380068C0F34040B8B9012090
:100D4000E1E76068022802D06068032807D18F4875
:100D500008380068C0F3406048B90120D3E78B48E9
:100D600008380068C0F3400008B90120CBE7874885
:100D7000006820F003006168084384490860FFF7B9
:100D800023FF05466068012810D108E0FFF71CFF2B
:100D9000401B41F28831884201D90320B3E77B48E8
:100DA000006800F00C000428F0D1CDE06068022853
:100DB00011D108E0FFF708FF401B41F2883188425B
:100DC00001D903209FE77148006800F00C00082853
:100DD000F0D1B9E024E06068032810D108E0FFF703
:100DE000F3FE401B41F28831884201D903208AE793
:100DF0006648006800F00C000328F0D1A4E008E089
:100E0000FFF7E2FE401B41F28831884201D90320FE
:100E100079E75E48006800F00C000028F0D193E00C
:100E2000207800F00200022807D15848006820F01E
:100E3000F000A168084355490860207800F00100DF
:100E4000002877D06068012807D15048083800682A
:100E5000C0F34040B8B9012055E76068022802D0CD
:100E60006068032807D1494808380068C0F340602B
:100E700048B9012047E7454808380068C0F34000FA
:100E800008B901203FE74148006820F0030061688D
:100E900008433E490860FFF797FE05466068012851
:100EA00010D108E0FFF790FE401B41F288318842E4
:100EB00001D9032027E73548006800F00C0004281A
:100EC000F0D137E06068022810D108E0FFF77CFE1F
:100ED000401B41F28831884201D9032013E72B4897
:100EE000006800F00C000828F0D123E060680328B7
:100EF00010D108E0FFF768FE401B41F288318842BC
:100F000001D90320FFE62148006800F00C00032807
:100F1000F0D10FE008E0FFF757FE401B41F28831A7
:100F2000884201D90320EEE61848006800F00C0062
:100F30000028F0D114490E700846006800F00F0038
:100F4000B04201D00120DEE6207800F00400042841
:100F500007D10E48006820F4E050E16808430B49CF
:100F60000860207800F00800082808D107480068C9
:100F700020F46040216940EAC100044908600F2064
:100F8000FFF748FE0020BEE6003C02400838024061
:100F900010B500F019F80949096801F0F001F022D4
:100FA00092FAA2F2B2FA82F2D140054A515CC840EC
:100FB000044908600846006810BD00000838024077
:100FC0009C2C00080800001070B5002100220023AE
:100FD0000020274C246804F00C0424B1042C04D015
:100FE000082C41D103E0234840E023483EE0204C58
:100FF000241F246804F03F011D4C241F246804F4BE
:10100000800484B11C4CB4FBF1F5194C241F2468F6
:1010100047F6C076344096FAA6F6B6FA86F6F4405D
:1010200005FB04F20FE0134CB4FBF1F5104C241F48
:10103000246847F6C076344096FAA6F6B6FA86F6E5
:10104000F44005FB04F20A4C241F246804F44034E5
:101050004FF4403595FAA5F5B5FA85F5EC40641CDA
:101060006300B2FBF3F001E0024800BF00BF70BDB7
:10107000083802400024F40000127A0038B5044613
:101080000025207800F00100002866D0F7480068AD
:1010900000F00C0004280DD0F448006800F00C00AB
:1010A000082813D1F148001F006800F48000B0F553
:1010B000800F0BD1ED4808380068C0F3404000288D
:1010C0004BD06068002848D1012038BD0020E74996
:1010D000891F0870FFF778FD054608E0FFF774FDEB
:1010E000401B41F28831884201D90320EDE7DF48F7
:1010F00008380068C0F340400028EFD12079DB4970
:10110000891F08706068A0B1FFF75EFD054608E022
:10111000FFF75AFD401B41F28831884201D9032074
:10112000D3E7D24808380068C0F340400028EFD029
:1011300013E0FFF749FD054608E0FFF745FD401BBA
:1011400041F28831884201D90320BEE7C7480838F8
:101150000068C0F340400028EFD1207800F0020082
:10116000022869D1C148006800F00C0058B1BF489E
:10117000006800F00C00082821D1BC48001F00685E
:1011800000F48000D8B9B94808380068C0F34000BE
:1011900020B1E068012801D0012096E7B348083863
:1011A000006820F0F800F82292FAA2F2B2FA82F275
:1011B000216991400843AD49083908603CE0E06886
:1011C00028B30120AA490860FFF7FEFC054606E0A7
:1011D000FFF7FAFC401B642801D9032075E7A348F8
:1011E00008380068C0F340000028F1D09F48083854
:1011F000006820F0F800F82292FAA2F2B2FA82F225
:1012000021699140084399490839086014E0002099
:1012100097490860FFF7D8FC054606E0FFF7D4FCC5
:10122000401B642801D903204FE790480838006824
:10123000C0F340000028F1D1207800F00800082811
:101240002CD16069A8B101208A490860FFF7BCFC75
:10125000054606E0FFF7B8FC401B642801D90320CF
:1012600033E782486C300068C0F340000028F1D0BA
:1012700014E000207F490860FFF7A6FC054606E061
:10128000FFF7A2FC401B642801D903201DE7774823
:101290006C300068C0F340000028F1D1207800F0E5
:1012A000040004286CD100BF70483830006840F05A
:1012B00080506E49383108600846006800F0805060
:1012C000009000BF6C48006840F480706A49086074
:1012D000FFF77AFC054606E0FFF776FC401B642822
:1012E00001D90320F1E66448006800F4807000280A
:1012F000F2D000205D4968310870FFF765FC0546B3
:1013000008E0FFF761FC401B41F28831884201D9B7
:101310000320DAE6554868300068C0F34000002832
:10132000EFD1207A514968310870A068A0B1FFF769
:101330004BFC054608E0FFF747FC401B41F28831B3
:10134000884201D90320C0E6484868300068C0F3ED
:1013500040000028EFD013E0FFF736FC054608E018
:10136000FFF732FC401B41F28831884201D903204B
:10137000ABE63E4868300068C0F340000028EFD17B
:10138000A069E8B33948006800F00C00082869D06B
:10139000A069022850D1002035490866FFF714FCE7
:1013A000054606E0FFF710FC401B642801D9032026
:1013B0008BE62E4808380068C0F340600028F1D161
:1013C000D4E90701084347F6C07292FAA2F2B2FAD2
:1013D00082F2616A914008430122A16AC2EB510185
:1013E0004FF4403292FAA2F2B2FA82F291400843EC
:1013F0004FF0706292FAA2F2B2FA82F2E16A00E071
:1014000032E0914008431949091F0860012018493A
:101410000866FFF7D9FB054606E0FFF7D5FB401B42
:10142000642801D9032050E6104808380068C0F34A
:1014300040600028F1D017E000200D490866FFF752
:10144000C3FB054606E0FFF7BFFB401B642801D93C
:1014500003203AE6054808380068C0F340600028D9
:10146000F1D101E0012030E600202EE608380240EC
:1014700000004742800E47420070004070B50446AD
:101480000E4615460CB9012070BD94F83D0028B9F0
:10149000002084F83C00204600F01CF804F108010C
:1014A0002068FFF7EDF93146A2682068FFF714FACB
:1014B0002946236BD4E90102FFF7B9F9A168206836
:1014C00050F8210040F00100A268216841F8220094
:1014D0000020D9E7704770B504462546681EB0F174
:1014E000807F01D301200FE0681E4FF0E0214861AA
:1014F0000F214FF0FF3000F0DFFC00204FF0E02123
:10150000886107200861002070BD704770477047F0
:1015100010B5044620680069C0F34000D8B12068C7
:10152000C068C0F34000B0B16FF0020021680861EC
:10153000012020762068806900F0030018B1204661
:10154000FFF7E5FF05E0204600F0ADF8204600F08B
:10155000ABF80020207620680069C0F38000D8B185
:101560002068C068C0F38000B0B16FF0040021684B
:101570000861022020762068806900F4407018B16C
:101580002046FFF7C4FF05E0204600F08CF8204617
:1015900000F08AF80020207620680069C0F3C000BF
:1015A000D8B12068C068C0F3C000B0B16FF00800C7
:1015B00021680861042020762068C06900F00300DB
:1015C00018B12046FFF7A3FF05E0204600F06BF8B6
:1015D000204600F069F80020207620680069C0F3FA
:1015E0000010D8B12068C068C0F30010B0B16FF02F
:1015F000100021680861082020762068C06900F486
:10160000407018B12046FFF782FF05E0204600F049
:101610004AF8204600F048F800202076206800694B
:1016200000F0010058B12068C06800F0010030B13E
:101630006FF0010021680861204600F036F820684C
:101640000069C0F3C01058B12068C068C0F3C01072
:1016500030B16FF08000216808612046FFF755FF28
:1016600020680069C0F3801058B12068C068C0F3DA
:10167000801030B16FF0400021680861204600F012
:1016800015F820680069C0F3401058B12068C068A0
:10169000C0F3401030B16FF020002168086120468F
:1016A000FFF734FF10BD704770477047704700BFA9
:1016B000FEE700BFFEE7704710B586B0044601A8FC
:1016C00000F012FB002006B010BD70B504460D46B8
:1016D00000F04AF82946204600F0FEF970BD704738
:1016E0001448006840F4700012490860124800680D
:1016F00040F001001049086000200F4908310860DF
:101700000D4800680D4908400B4908600C48091D48
:101710000860081F006820F48020091F086000206E
:1017200005490C3108604FF00060024980390860BB
:101730007047000088ED00E000380240FFFFF6FE31
:101740001030002410B50248FFF7E2FE10BD000083
:10175000F43A012010B50248FFF7DAFE10BD000090
:10176000303B012000BFFEE710B5FFF733FA10BD94
:1017700008B500BF6748006840F00100654908608F
:101780000846006800F00100009000BF00BF084656
:10179000006840F0020008600846006800F002009F
:1017A000009000BF00BF0846006840F004000860D9
:1017B0000846006800F00400009000BF00BF084623
:1017C000006840F0080008600846006800F0080063
:1017D000009000BF00BF0846006840F0100008609D
:1017E0000846006800F01000009000BF00BF0846E7
:1017F000006840F0200008600846006800F0200003
:10180000009000BF00BF0846006840F0400008603C
:101810000846006800F04000009000BF00BF084686
:10182000006840F0800008600846006800F0800012
:10183000009000BF00BF37481430006840F480704B
:101840003449143108600846006800F48070009044
:1018500000BF00BF0846006840F4007008600846FA
:10186000006800F40070009000BF00BF081F00680F
:1018700040F00050091F08600846006800F0005062
:10188000009000BF00BF23480830006840F001000E
:101890002049083108600846006800F00100009007
:1018A00000BF00BF1B481030006840F48040194959
:1018B000103108600846006800F48040009000BFC6
:1018C00000BF1448006840F48000124908600846D0
:1018D000006800F48000009000BF00BF0D48143085
:1018E000006840F001000B491431086008460068A8
:1018F00000F00100009000BF00BF081F006840F02A
:101900000100091F08600846006800F0010000900F
:1019100000BF08BD303802402DE9F04107460C46B3
:1019200015461E4606484560866003200449C86087
:10193000084604603846FFF73DF80020BDE8F08116
:101940007439012000BFFEE72DE9F04107460C463F
:1019500015461E460120074988600846456002205A
:10196000C8600846046006613846FFF723F8002087
:10197000BDE8F081743901201FB500220D490E48E1
:1019800000F046FB00BF0D4909B10C3100E0002119
:1019900008464FF6FF7100F059FE094B0FCB8DE85A
:1019A0000F009DE80F00FEF773FC4FF47A70FEF70E
:1019B000F3FFE8E7991A0008C03801203839012000
:1019C0008C2C000800B593B000BF2748006840F099
:1019D0008050254908600846006800F0805001905A
:1019E00000BF00BF2148006840F480401F490860E4
:1019F0000846006800F48040019000BF012002907A
:101A00000390022008904105099110210A914FF49A
:101A1000B4710B9102210C9107210D9102A8FFF7DF
:101A20002DFB08B1FFF78EFF0F200E9002200F90C4
:101A3000002010904FF480501190129005210EA8B4
:101A4000FFF74EF908B1FFF77DFFFFF7B7F841F256
:101A50000101884205D10648006840F480700449BD
:101A6000086013B000BD0000403802400070004024
:101A7000003C024000BF074909B10C3100E00021E1
:101A800008464AF6AA2100F0E1FD4FF4FA70FEF78D
:101A900083FFF0E7383901200121094800F028FAD6
:101AA00000BF4FF42F70FEF777FF054909B10C31E5
:101AB00000E00021084641F2BC2100F0C7FDF0E73C
:101AC0003839012010B504462146024800F094F947
:101AD00010BD00005039012070B504460D462A465D
:101AE0002146024800F0FEFA70BD0000C038012017
:101AF00010B54FF0007023494860002121488160F3
:101B0000C1604FF4806101610021416181614FF446
:101B10008071C16149020162002141620321816239
:101B20000021C16201631848164908600846FEF7A3
:101B3000F5FE08B1FFF706FF002014494860802138
:101B4000124881600021C1604FF480610161490049
:101B50004161890081610021C1614FF4003101625E
:101B600000214162032181620021C16201630848B2
:101B7000064908600846FEF7D1FE08B1FFF7E2FE0D
:101B800010BD0000FC390120586402404C3A01208D
:101B90002860024010B501231A4604212D48FFF7A2
:101BA000BBFE0223002201212B48FFF7B5FE0123D3
:101BB0001A4602212848FFF7AFFE01231A460421E6
:101BC0002548FFF7A9FE01231A4608212248FFF7FE
:101BD000A3FE01231A4610211F48FFF79DFE022392
:101BE000012204211D48FFF797FE02230122102144
:101BF0001A48FFF791FE0223012208211748FFF738
:101C00008BFE0223012220211448FFF785FE0123C9
:101C10001A464FF6FF711248FFF77EFE0C23022290
:101C20004FF6B3710F48FFF78FFE0C2302224FF6D9
:101C300083710848FFF788FE0C2302224FF23F0110
:101C40000948FFF781FE0C2302223F210748FFF7D6
:101C50007BFE10BD0010024000080240001C024044
:101C600000040240000C0240001402400018024030
:101C700010B54FF020401949086019484860042009
:101C80001849086000204860052088600020C8606E
:101C900004200861002048618861104988600021A3
:101CA0000E48C16001611021416100218161C16163
:101CB0004FF480610162002141624FF480518162E2
:101CC0000021C162016341638163064A1146FFF747
:101CD000D5FB08B1FFF736FE10BD00009C3901208E
:101CE000040100A0E039012030B585B005460C485C
:101CF00040680468200E0090C4F303500190C4F3C0
:101D000003400290C4F30B10039004F00F00049002
:101D1000142269462846FEF758FB05B030BD000086
:101D20001C0000100FB41CB50446DDE90701CDE925
:101D3000000104492046DDE9052300F071FA1CBCCE
:101D40005DF814FBC038012030B505460B4614463B
:101D500000BF4FF480201E49086000BF00BF1BB1C8
:101D600000BF0220086005E000BF4FF400301849B2
:101D7000086000BF00BF284600F02CF800BF042018
:101D80001349086000BF07201CE000BF4FF480210A
:101D90000F4A116000BF00BF44FA00F101F00101D9
:101DA00019B100BF0221116005E000BF4FF40031FE
:101DB000074A116000BF00BF00BF0421044A116040
:101DC00000BF401E0028E0DA284600F00DF830BDC4
:101DD0001808024000BF4FF40021024A116000BF02
:101DE000704700001808024000BF0821014A116036
:101DF00000BF7047180802402DE9F04105460E4625
:101E000016B90020BDE8F08100BF6C6800BF21E07A
:101E1000E068B0421DD32146284600F07BFC06F165
:101E20002000E168814209D332462146284600F06D
:101E30001CF807463946284600F021FC214605F1EA
:101E40000C0000F01CFCA869401CA86104F1100003
:101E5000D8E7A468002CDBD1FEF794FA06210160D4
:101E6000E869401CE8610020CCE710B5034600207B
:101E70008C1804F11000CC68A41A103CC460CA602D
:101E800010BD10B50446204600F06DFC044604F178
:101E90000C0000F068FCA0F10C04204610BD2DE9F8
:101EA000F04107460C4615462646F5603146384651
:101EB00000F0E5FBBDE8F08110B5002807DA0A075D
:101EC000140E054A00F00F031B1FD45403E00A0749
:101ED000130E024A135410BD18ED00E000E400E0B8
:101EE00002480068C0F30220704700000CED00E0DB
:101EF00010B50246084620B100BF0423054CA3617B
:101F000005E000BF4FF48023024CA36100BF00BF77
:101F100010BD0000001002402DE9F74F82B00D46C1
:101F200091461021029800F05EFE80460095002D3B
:101F300000DA6D42002700BF95FBF9F009FB105055
:101F40003030C2B238467F1C08F8002095FBF9F00B
:101F5000051EF1DC0098002804DA2D2238467F1C8B
:101F600008F80020002008F80700102000F014FAFC
:101F7000444601902046FEF709FA2044461E06E03A
:101F800094F800A0307804F8010B06F801A9B442D7
:101F9000F6D3B3465946019800F060FC019005B0B5
:101FA000BDE8F08F70B504460D462946204600F086
:101FB00001F870BD2DE9F04704460E46A068B168EF
:101FC00000EB010808F10801204600F0FCFD814605
:101FD000002504E06068405D09F805006D1CA068FC
:101FE000A842F7DC002705E07068C05D09F805002D
:101FF0006D1C7F1C4545F7DBC4F808800820E060B5
:10200000606800F0C5F9C4F804902046BDE8F08788
:102010002DE9F04705460E46904600BF2868294640
:102020004268284690470028F8D04FF4537105F1D4
:102030000800FFF7E1FE044604F553774FF000096E
:1020400000202061E6606761A7614946204600F0F4
:1020500067F900BF05F1480700BF2146384600F088
:1020600086FB00BF28682946C2682846904720465C
:10207000BDE8F0872DE9F04705460F4690461E461D
:1020800000BF286829464268284690470028F8D0B3
:102090002C2000EB860105F10800FFF7ADFE044699
:1020A00004F12C0000EB86094FF0000A00202061AB
:1020B000E760C4F81490C4F818905146204600F028
:1020C0002FF900BF05F1480900BF2146484600F03E
:1020D0004EFB00BF28682946C26828469047204624
:1020E000BDE8F0872DE9F04704460D46904620688C
:1020F000214642682046904710B92846BDE8F0873F
:10210000B8F1020F0AD12E464FF4F0730022204698
:10211000316AFFF7AFFF4FF0000800BF606C80B17D
:10212000606C456200BF606C016901EB410104F124
:10213000480000EB8106676C3946304600F017FB1B
:1021400000BF0020606407461CE007EB470204F173
:10215000480101EB8200016809B1002100E0012182
:1021600071B907EB470104F1480000EB8106D6F88E
:1021700004A05146304600F02BFB00BF606403E032
:10218000781C0746042FE0DB606C30B920682146DC
:10219000C268204690472846B0E743462946204675
:1021A000626C00F008F8814620682146C26820462B
:1021B00090474846A2E72DE9F05F04468846164658
:1021C0001F4600BF306910B1012824D11FE0606CA8
:1021D0004169A1F58079C2464D46BB46BBF1010F6E
:1021E00004D1606CC168296028460EE04022514647
:1021F0002846FEF7EAF8606CC168A9630121606CAB
:1022000000BF00BF016100BF2846BDE8F09F606CC1
:10221000416A0846F9E700BF706A00BFF5E70000B1
:102220000FB470B504460D461948007800F001005F
:1022300048B9174800F0D6F828B116490698086042
:102240001348AFF300801448007800F0010048B94B
:10225000114800F0C7F828B11049079808600E48E7
:10226000AFF300800E48007800F0010048B90C4838
:1022700000F0B8F828B10B49089808600848AFF397
:10228000008006A80FC884E80F0070BC5DF814FB3E
:10229000680000106C000010700000107400001046
:1022A000780000107C00001010B504462046164946
:1022B000216000BF04461548206004F10800FFF7C4
:1022C000E0FDA0F1080404F12C00114A0260114A5B
:1022D0000146426000BF08460F490160103141606D
:1022E00000210161416100BFA0F12C0404230C22F4
:1022F0000A4904F1480000F063F8A0F14804002006
:102300006064204610BD0000C02C0008342D000879
:102310005C2D0008D82C00088C2D0008132800081C
:10232000C26922F00062C261C2696FF30F02C2612A
:10233000C26922F00042C261026A22F00203036213
:10234000026A22F001030362C26922F00052C261F4
:10235000C26922F08062C261C26922F08072C261E9
:10236000C26922F08052C261C26922F08042C26119
:10237000C26922F00072C2614BB2837770470000DD
:1023800001490160704700007C2D00080170704712
:1023900010B5FEF798F810BD10B5040007D1012460
:1023A00005E0FEF75DF8006800B904488047204664
:1023B000FEF75AF80028F4D010BD000015050008FB
:1023C0002DE9F0411C4617460E00804607D0054611
:1023D00002E02846B0473D442046641EF9D24046FC
:1023E000BDE8F081016809B100207047012101605A
:1023F0000846704710B50C48FFF756FF0B490846D2
:1024000000BF014601F10C0000BFA0F10C0101F179
:102410001400074A074A40F8142900BF014600BFCC
:102420000548FFF72EFD10BDC038012038390120C6
:102430004C2D0008082D0008503901200848094A91
:102440000260094A0146426000BF08460749016030
:102450001031416000210161416100BF70470000FF
:10246000943801206C2D0008F02C0008B42D0008D1
:102470008AB0FEF7B7FB4FF4FA70FEF78DFAFFF75C
:10248000A1FAFFF775F9FFF7F3FBFFF731FBFFF751
:1024900081FB5E4A4FF0C0415D48FFF700FD5D489B
:1024A0005D4901AA002301604260836000BF00BF54
:1024B000C06000BF00BF00BF584C04610146C8683F
:1024C00000F030FA00BF00BF01215248FFF710FDB5
:1024D000504909B10C3100E00021084641F2BC210D
:1024E00000F0B4F84E4C4F4D44F6206800BF424611
:1024F000294604F10800FFF7D2FC00224A49204691
:10250000FFF786FD002249492046FFF781FD0021A3
:10251000606C00BF00BF016100BF0846FDF7BAFE56
:1025200000BF43A106A800F079F943A102A800F07A
:1025300075F902A906A8FFF73DFD02AC404D0A223D
:1025400029462046FFF7E8FC01462046FFF72AFD12
:1025500000BF06AC00BF1020FFF71EFF394900F096
:102560005DF9054629462046FFF71CFD00BF012006
:10257000FFF712FF6821FFF709FF0146324800F01C
:102580003BFB0120FFF708FF6521FFF7FFFE014637
:102590002D4800F031FB0120FFF7FEFE6C21FFF714
:1025A000F5FE0146284800F027FB0120FFF7F4FE66
:1025B0006C21FFF7EBFE0146234800F01DFB0120D4
:1025C000FFF7EAFE6F21FFF7E1FE01461E4800F02B
:1025D00013FB1D4800F038FB074615E0384600F0B5
:1025E000D8FA20B9184800F02FFB074602E0384619
:1025F00000F0CAFA074909B10C3100E00021084691
:102600004FF6FF7100F022F8E8E70000FFFF070037
:10261000503901203839012000040240D42D00082F
:10262000C03801200000002079190008751A000840
:102630006E656564000000006A617661000000005C
:1026400005E31200DC2D00089438012070B5044623
:102650000D46A9B24FF4A0734FF4F072206800F059
:102660001DF970BD002202717047024610790128E1
:1026700001D1002070470120107100BFFAE770B54A
:1026800004460D462946204600F002F870BD0000C1
:102690003FB503461868401C1860586838B959603F
:1026A0009960002088604860084604B030BD5A68D0
:1026B000002421E06846154D00954D6801958D6810
:1026C0000295134D0095CD68039501251DB1144663
:1026D0009068024610E0506838B1506881608A60A6
:1026E0005068486051600846DFE78A600020486013
:1026F000516059600846D8E7002ADBD1A16000206C
:10270000886099604C600846CFE70000182D0008EB
:10271000B42C000870B504460D462946204600F04A
:1027200001F870BD10B502460C46106808B9204685
:1027300010BD1068401E10606168A36829B923B9F4
:102740000020506090602046F2E719B953600020E5
:10275000586000E08B601BB900208860916000E049
:1027600059602046E4E7002141608160704710B560
:1027700003461868401C1860586830B95960996061
:10278000002088604860084610BD5A68002416E0A2
:1027900000BF012010B11446926810E0506838B1B3
:1027A000506881608A605068486051600846EBE775
:1027B0008A6000204860516059600846E4E7002ABA
:1027C000E6D1A1600020886099604C600846DBE794
:1027D00010B502460C46106808B9204610BD1068B6
:1027E000401E10606168A36829B923B900205060B9
:1027F00090602046F2E719B953600020586000E06D
:102800008B601BB900208860916000E05960204611
:10281000E4E70021416081607047000070B5044624
:102820000E462046FFF7ACFD04460B4820603021E1
:10283000204600F0D8F96060002503E0705D616813
:1028400048556D1C705D08B1302DF7DBA560C5F1F2
:102850003000E060204670BD242D000870B50446AD
:102860000E462046FFF78CFD04460B4820603021C1
:10287000204600F0B8F96060002503E0705D6168F3
:1028800048556D1C705D08B1302DF7DBA560C5F1B2
:102890003000E060204670BD242D00082DE9F0478F
:1028A00004460D4616461F46204600F02BF92946E1
:1028B000084600BF00BF00BF2268506100BF00BFD4
:1028C00000BFB04615E0B9460BE000BF012120462D
:1028D00000F036F90021204600F032F900BFA9F1DE
:1028E0000109B9F1000FF0DC204600F0C8F8A8F1AA
:1028F0000108B8F1000FE6DC204600F003F90020E3
:10290000BDE8F087012904D100BF1022044B1A60F2
:1029100005E000BF4FF48012014B1A6000BF704702
:102920001808024010B5044600BF01212046FFF7F9
:10293000E9FF0121204600F09BF800212046FFF727
:10294000E1FF0121204600F093F801212046FFF726
:10295000D9FF9621204600F08BF800BF01212046C8
:1029600000F0FEF86421204600F082F8C0212046E5
:1029700000F0F6F81521204600F0FCF81221204660
:1029800000F0F8F8C121204600F0EAF84121204685
:1029900000F0F0F8C521204600F0E2F800212046C2
:1029A00000F0E8F84A21204600F0E4F880212046B3
:1029B00000F0E0F83621204600F0D2F84821204609
:1029C00000F0D8F83A21204600F0CAF850212046FD
:1029D00000F0D0F8B021204600F0C2F802212046D5
:1029E00000F0C8F8B421204600F0BAF800212046D3
:1029F00000F0C0F8B621204600F0B2F820212046B1
:102A000000F0B8F80F21204600F0B4F8E921204684
:102A100000F0A6F80021204600F0ACF8F72120468F
:102A200000F09EF8A921204600F0A4F8522120468B
:102A300000F0A0F82C21204600F09CF882212046CE
:102A400000F098F86421204600F012F81121204689
:102A500000F086F89621204600F00AF82921204649
:102A600000F07EF80F21204600F002F8002010BD93
:102A700070B505460C462046FDF78EFF70BD70B55B
:102A800004460021204600F04BF80021204600F0CB
:102A900019F82546032607E00121284600F050F8E2
:102AA0000021284600F04CF83000A6F10106F3D1D1
:102AB00000BF0121204600F005F80121204600F06A
:102AC0002FF870BD012904D100BF0822044B1A6001
:102AD00005E000BF4FF40022014B1A6000BF7047B1
:102AE000181C0240012904D100BF1022044B1A60B7
:102AF00005E000BF4FF48012014B1A6000BF704721
:102B0000181C024010B5044600212046FFF7EAFFDA
:102B10002046FFF7B4FF01212046FFF7E3FF10BD79
:102B2000012904D100BF2022044B1A6005E000BF38
:102B30004FF40012014B1A6000BF7047181C02408E
:102B4000012904D100BF0422044B1A6005E000BF34
:102B50004FF48022014B1A6000BF7047181C0240DE
:102B600070B504460D462A4600216068FFF7ECF870
:102B7000002070BD70B504460D462A4601216068EC
:102B8000FFF7E2F8002070BD014608688068086021
:102B9000704701460868806808B10120704700202E
:102BA000FCE770470160704710B5044620680C21AF
:102BB00002682046904710BD70B505460C46204679
:102BC000FEF780FF70BD70B504460D46691C206895
:102BD00002682046904770BD70B505460C462046F9
:102BE000FEF770FF70BD70B505460C46214628689B
:102BF00002682846904770BD70B504460D462946C8
:102C0000204600F001F870BD70B504460D46204620
:102C1000FFF7CAFF064600BF356000BF3046E268D6
:102C2000521CE26022692AB9206160610022826040
:102C3000426006E0216981600022426048602061B4
:102C400000BF284670BD000010B504460A48007851
:102C500000F0010048B90848FFF7C4FB28B1074855
:102C6000FFF79FFF0448AFF3008004482169FFF796
:102C700099FF024810BD0000800000108400001081
:102C80004FF04070E1EE100A704700004203000070
:102C9000FF000000FF000000000000000000000036
:102CA00001020304010203040607080900000000F2
:102CB0000000000000000000000000000000000014
:102CC000000000006B2600080000000065260008D8
:102CD00000000000000000000000000000000000F4
:102CE00000000000000000000000000000000000E4
:102CF00000000000000000000000000000000000D4
:102D000000000000000000000000000000000000C3
:102D100000000000000000000000000000000000B3
:102D200000000000D92B0008000000000000000097
:102D300000000000000000006B26000800000000FA
:102D400065260008000000000000000000000000F0
:102D50000000000000000000000000000000000073
:102D6000000000000000000000000000B92B000877
:102D7000000000000000000000000000D92B000847
:102D80000000000000000000000000000000000043
:102D900000000000FCFFFFFF00000000000000003A
:102DA0000000000000000000000000000000000023
:102DB00000000000B92B000800000000FCFFFFFF2E
:102DC0000000000000000000000000000000000003
:102DD00000000000696C6939343836006465766932
:102DE000636500001C2E00080000002080380100F0
:102DF000C4010008903000080000001088000000A6
:102E0000200200089030000880380120500900009E
:102E10003C02000829F6FFFFDDF5FFFF01FF01FF7F
:102E200001FF01FF01FF01FF01FF01FF01FF01FFA2
:102E300001FF01FF01FF01FF01FF01FF01FF01FF92
:102E400001FF01FF01FF01FF01FF01FF01FF01FF82
:102E500001FF01FF01FF01FF01FF01FF01FF01FF72
:1030800001FF01FF01FF01FF01FF01FF01FF01B986
:1030900000000000000000000024F4000000000018
:1030A00000000000010203040607080908E000E030
:1030B00000ED00E004ED00E008ED00E00CED00E0C4
:1030C00010ED00E014ED00E018ED00E01CED00E074
:1030D00020ED00E024ED00E028ED00E028ED00E028
:1030E00029ED00E02AED00E02CED00E034ED00E0F9
:1030F00038ED00E03CED00E00000000000000000C2
:1031000000000000000000000000000000000000BF
:083110000000000000000000B7
:040000050800018965
:00000001FF
